{
  "_format": "hh-sol-artifact-1",
  "contractName": "ShipHarbor",
  "sourceName": "contracts/ShipHarbor.sol",
  "abi": [
    {
      "inputs": [
        {
          "internalType": "contract IERC20",
          "name": "_ship",
          "type": "address"
        },
        {
          "internalType": "address",
          "name": "_rewardsFlow",
          "type": "address"
        }
      ],
      "stateMutability": "nonpayable",
      "type": "constructor"
    },
    {
      "anonymous": false,
      "inputs": [
        {
          "indexed": true,
          "internalType": "address",
          "name": "owner",
          "type": "address"
        },
        {
          "indexed": true,
          "internalType": "address",
          "name": "spender",
          "type": "address"
        },
        {
          "indexed": false,
          "internalType": "uint256",
          "name": "value",
          "type": "uint256"
        }
      ],
      "name": "Approval",
      "type": "event"
    },
    {
      "anonymous": false,
      "inputs": [
        {
          "indexed": true,
          "internalType": "address",
          "name": "from",
          "type": "address"
        },
        {
          "indexed": true,
          "internalType": "address",
          "name": "to",
          "type": "address"
        },
        {
          "indexed": false,
          "internalType": "uint256",
          "name": "value",
          "type": "uint256"
        }
      ],
      "name": "Transfer",
      "type": "event"
    },
    {
      "inputs": [],
      "name": "SuperfluidRewardsDistributor",
      "outputs": [
        {
          "internalType": "address",
          "name": "",
          "type": "address"
        }
      ],
      "stateMutability": "view",
      "type": "function"
    },
    {
      "inputs": [
        {
          "internalType": "address",
          "name": "owner",
          "type": "address"
        },
        {
          "internalType": "address",
          "name": "spender",
          "type": "address"
        }
      ],
      "name": "allowance",
      "outputs": [
        {
          "internalType": "uint256",
          "name": "",
          "type": "uint256"
        }
      ],
      "stateMutability": "view",
      "type": "function"
    },
    {
      "inputs": [
        {
          "internalType": "address",
          "name": "spender",
          "type": "address"
        },
        {
          "internalType": "uint256",
          "name": "amount",
          "type": "uint256"
        }
      ],
      "name": "approve",
      "outputs": [
        {
          "internalType": "bool",
          "name": "",
          "type": "bool"
        }
      ],
      "stateMutability": "nonpayable",
      "type": "function"
    },
    {
      "inputs": [
        {
          "internalType": "address",
          "name": "account",
          "type": "address"
        }
      ],
      "name": "balanceOf",
      "outputs": [
        {
          "internalType": "uint256",
          "name": "",
          "type": "uint256"
        }
      ],
      "stateMutability": "view",
      "type": "function"
    },
    {
      "inputs": [],
      "name": "decimals",
      "outputs": [
        {
          "internalType": "uint8",
          "name": "",
          "type": "uint8"
        }
      ],
      "stateMutability": "view",
      "type": "function"
    },
    {
      "inputs": [
        {
          "internalType": "address",
          "name": "spender",
          "type": "address"
        },
        {
          "internalType": "uint256",
          "name": "subtractedValue",
          "type": "uint256"
        }
      ],
      "name": "decreaseAllowance",
      "outputs": [
        {
          "internalType": "bool",
          "name": "",
          "type": "bool"
        }
      ],
      "stateMutability": "nonpayable",
      "type": "function"
    },
    {
      "inputs": [
        {
          "internalType": "uint256",
          "name": "_amount",
          "type": "uint256"
        }
      ],
      "name": "enter",
      "outputs": [],
      "stateMutability": "nonpayable",
      "type": "function"
    },
    {
      "inputs": [
        {
          "internalType": "address",
          "name": "spender",
          "type": "address"
        },
        {
          "internalType": "uint256",
          "name": "addedValue",
          "type": "uint256"
        }
      ],
      "name": "increaseAllowance",
      "outputs": [
        {
          "internalType": "bool",
          "name": "",
          "type": "bool"
        }
      ],
      "stateMutability": "nonpayable",
      "type": "function"
    },
    {
      "inputs": [
        {
          "internalType": "uint256",
          "name": "_share",
          "type": "uint256"
        }
      ],
      "name": "leave",
      "outputs": [],
      "stateMutability": "nonpayable",
      "type": "function"
    },
    {
      "inputs": [],
      "name": "name",
      "outputs": [
        {
          "internalType": "string",
          "name": "",
          "type": "string"
        }
      ],
      "stateMutability": "view",
      "type": "function"
    },
    {
      "inputs": [],
      "name": "ship",
      "outputs": [
        {
          "internalType": "contract IERC20",
          "name": "",
          "type": "address"
        }
      ],
      "stateMutability": "view",
      "type": "function"
    },
    {
      "inputs": [],
      "name": "symbol",
      "outputs": [
        {
          "internalType": "string",
          "name": "",
          "type": "string"
        }
      ],
      "stateMutability": "view",
      "type": "function"
    },
    {
      "inputs": [],
      "name": "totalSupply",
      "outputs": [
        {
          "internalType": "uint256",
          "name": "",
          "type": "uint256"
        }
      ],
      "stateMutability": "view",
      "type": "function"
    },
    {
      "inputs": [
        {
          "internalType": "address",
          "name": "recipient",
          "type": "address"
        },
        {
          "internalType": "uint256",
          "name": "amount",
          "type": "uint256"
        }
      ],
      "name": "transfer",
      "outputs": [
        {
          "internalType": "bool",
          "name": "",
          "type": "bool"
        }
      ],
      "stateMutability": "nonpayable",
      "type": "function"
    },
    {
      "inputs": [
        {
          "internalType": "address",
          "name": "sender",
          "type": "address"
        },
        {
          "internalType": "address",
          "name": "recipient",
          "type": "address"
        },
        {
          "internalType": "uint256",
          "name": "amount",
          "type": "uint256"
        }
      ],
      "name": "transferFrom",
      "outputs": [
        {
          "internalType": "bool",
          "name": "",
          "type": "bool"
        }
      ],
      "stateMutability": "nonpayable",
      "type": "function"
    }
  ],
  "bytecode": "0x60806040523480156200001157600080fd5b50604051620022d3380380620022d383398181016040528101906200003791906200023f565b6040518060400160405280600a81526020017f5374616b656453686970000000000000000000000000000000000000000000008152506040518060400160405280600581526020017f78534849500000000000000000000000000000000000000000000000000000008152508160039080519060200190620000bb92919062000161565b508060049080519060200190620000d492919062000161565b50505081600560006101000a81548173ffffffffffffffffffffffffffffffffffffffff021916908373ffffffffffffffffffffffffffffffffffffffff16021790555080600660006101000a81548173ffffffffffffffffffffffffffffffffffffffff021916908373ffffffffffffffffffffffffffffffffffffffff16021790555050506200036c565b8280546200016f90620002ce565b90600052602060002090601f016020900481019282620001935760008555620001df565b82601f10620001ae57805160ff1916838001178555620001df565b82800160010185558215620001df579182015b82811115620001de578251825591602001919060010190620001c1565b5b509050620001ee9190620001f2565b5090565b5b808211156200020d576000816000905550600101620001f3565b5090565b600081519050620002228162000338565b92915050565b600081519050620002398162000352565b92915050565b6000806040838503121562000259576200025862000333565b5b6000620002698582860162000228565b92505060206200027c8582860162000211565b9150509250929050565b60006200029382620002ae565b9050919050565b6000620002a78262000286565b9050919050565b600073ffffffffffffffffffffffffffffffffffffffff82169050919050565b60006002820490506001821680620002e757607f821691505b60208210811415620002fe57620002fd62000304565b5b50919050565b7f4e487b7100000000000000000000000000000000000000000000000000000000600052602260045260246000fd5b600080fd5b620003438162000286565b81146200034f57600080fd5b50565b6200035d816200029a565b81146200036957600080fd5b50565b611f57806200037c6000396000f3fe608060405234801561001057600080fd5b50600436106100f55760003560e01c806367dfd4c911610097578063a59f3e0c11610066578063a59f3e0c1461029c578063a9059cbb146102b8578063b6bef7b3146102e8578063dd62ed3e14610306576100f5565b806367dfd4c91461020257806370a082311461021e57806395d89b411461024e578063a457c2d71461026c576100f5565b806318160ddd116100d357806318160ddd1461016657806323b872dd14610184578063313ce567146101b457806339509351146101d2576100f5565b806306fdde03146100fa578063095ea7b3146101185780630e975b3e14610148575b600080fd5b610102610336565b60405161010f91906117a2565b60405180910390f35b610132600480360381019061012d9190611448565b6103c8565b60405161013f919061176c565b60405180910390f35b6101506103e6565b60405161015d91906116f1565b60405180910390f35b61016e61040c565b60405161017b9190611904565b60405180910390f35b61019e600480360381019061019991906113f5565b610416565b6040516101ab919061176c565b60405180910390f35b6101bc61050e565b6040516101c9919061191f565b60405180910390f35b6101ec60048036038101906101e79190611448565b610517565b6040516101f9919061176c565b60405180910390f35b61021c600480360381019061021791906114b5565b6105c3565b005b61023860048036038101906102339190611388565b610753565b6040516102459190611904565b60405180910390f35b61025661079b565b60405161026391906117a2565b60405180910390f35b61028660048036038101906102819190611448565b61082d565b604051610293919061176c565b60405180910390f35b6102b660048036038101906102b191906114b5565b610918565b005b6102d260048036038101906102cd9190611448565b610ad4565b6040516102df919061176c565b60405180910390f35b6102f0610af2565b6040516102fd9190611787565b60405180910390f35b610320600480360381019061031b91906113b5565b610b18565b60405161032d9190611904565b60405180910390f35b60606003805461034590611b17565b80601f016020809104026020016040519081016040528092919081815260200182805461037190611b17565b80156103be5780601f10610393576101008083540402835291602001916103be565b820191906000526020600020905b8154815290600101906020018083116103a157829003601f168201915b5050505050905090565b60006103dc6103d5610b9f565b8484610ba7565b6001905092915050565b600660009054906101000a900473ffffffffffffffffffffffffffffffffffffffff1681565b6000600254905090565b6000610423848484610d72565b6000600160008673ffffffffffffffffffffffffffffffffffffffff1673ffffffffffffffffffffffffffffffffffffffff168152602001908152602001600020600061046e610b9f565b73ffffffffffffffffffffffffffffffffffffffff1673ffffffffffffffffffffffffffffffffffffffff168152602001908152602001600020549050828110156104ee576040517f08c379a00000000000000000000000000000000000000000000000000000000081526004016104e590611844565b60405180910390fd5b610502856104fa610b9f565b858403610ba7565b60019150509392505050565b60006012905090565b60006105b9610524610b9f565b848460016000610532610b9f565b73ffffffffffffffffffffffffffffffffffffffff1673ffffffffffffffffffffffffffffffffffffffff16815260200190815260200160002060008873ffffffffffffffffffffffffffffffffffffffff1673ffffffffffffffffffffffffffffffffffffffff168152602001908152602001600020546105b49190611956565b610ba7565b6001905092915050565b60006105cd61040c565b9050600081600560009054906101000a900473ffffffffffffffffffffffffffffffffffffffff1673ffffffffffffffffffffffffffffffffffffffff166370a08231306040518263ffffffff1660e01b815260040161062d91906116f1565b60206040518083038186803b15801561064557600080fd5b505afa158015610659573d6000803e3d6000fd5b505050506040513d601f19601f8201168201806040525081019061067d91906114e2565b8461068891906119dd565b61069291906119ac565b905061069e3384610ff3565b600560009054906101000a900473ffffffffffffffffffffffffffffffffffffffff1673ffffffffffffffffffffffffffffffffffffffff1663a9059cbb33836040518363ffffffff1660e01b81526004016106fb929190611743565b602060405180830381600087803b15801561071557600080fd5b505af1158015610729573d6000803e3d6000fd5b505050506040513d601f19601f8201168201806040525081019061074d9190611488565b50505050565b60008060008373ffffffffffffffffffffffffffffffffffffffff1673ffffffffffffffffffffffffffffffffffffffff168152602001908152602001600020549050919050565b6060600480546107aa90611b17565b80601f01602080910402602001604051908101604052809291908181526020018280546107d690611b17565b80156108235780601f106107f857610100808354040283529160200191610823565b820191906000526020600020905b81548152906001019060200180831161080657829003601f168201915b5050505050905090565b6000806001600061083c610b9f565b73ffffffffffffffffffffffffffffffffffffffff1673ffffffffffffffffffffffffffffffffffffffff16815260200190815260200160002060008573ffffffffffffffffffffffffffffffffffffffff1673ffffffffffffffffffffffffffffffffffffffff168152602001908152602001600020549050828110156108f9576040517f08c379a00000000000000000000000000000000000000000000000000000000081526004016108f0906118c4565b60405180910390fd5b61090d610904610b9f565b85858403610ba7565b600191505092915050565b6000600560009054906101000a900473ffffffffffffffffffffffffffffffffffffffff1673ffffffffffffffffffffffffffffffffffffffff166370a08231306040518263ffffffff1660e01b815260040161097591906116f1565b60206040518083038186803b15801561098d57600080fd5b505afa1580156109a1573d6000803e3d6000fd5b505050506040513d601f19601f820116820180604052508101906109c591906114e2565b905060006109d161040c565b905060008114806109e25750600082145b156109f6576109f133846111ca565b610a1d565b6000828285610a0591906119dd565b610a0f91906119ac565b9050610a1b33826111ca565b505b600560009054906101000a900473ffffffffffffffffffffffffffffffffffffffff1673ffffffffffffffffffffffffffffffffffffffff166323b872dd3330866040518463ffffffff1660e01b8152600401610a7c9392919061170c565b602060405180830381600087803b158015610a9657600080fd5b505af1158015610aaa573d6000803e3d6000fd5b505050506040513d601f19601f82011682018060405250810190610ace9190611488565b50505050565b6000610ae8610ae1610b9f565b8484610d72565b6001905092915050565b600560009054906101000a900473ffffffffffffffffffffffffffffffffffffffff1681565b6000600160008473ffffffffffffffffffffffffffffffffffffffff1673ffffffffffffffffffffffffffffffffffffffff16815260200190815260200160002060008373ffffffffffffffffffffffffffffffffffffffff1673ffffffffffffffffffffffffffffffffffffffff16815260200190815260200160002054905092915050565b600033905090565b600073ffffffffffffffffffffffffffffffffffffffff168373ffffffffffffffffffffffffffffffffffffffff161415610c17576040517f08c379a0000000000000000000000000000000000000000000000000000000008152600401610c0e906118a4565b60405180910390fd5b600073ffffffffffffffffffffffffffffffffffffffff168273ffffffffffffffffffffffffffffffffffffffff161415610c87576040517f08c379a0000000000000000000000000000000000000000000000000000000008152600401610c7e90611804565b60405180910390fd5b80600160008573ffffffffffffffffffffffffffffffffffffffff1673ffffffffffffffffffffffffffffffffffffffff16815260200190815260200160002060008473ffffffffffffffffffffffffffffffffffffffff1673ffffffffffffffffffffffffffffffffffffffff168152602001908152602001600020819055508173ffffffffffffffffffffffffffffffffffffffff168373ffffffffffffffffffffffffffffffffffffffff167f8c5be1e5ebec7d5bd14f71427d1e84f3dd0314c0f7b2291e5b200ac8c7c3b92583604051610d659190611904565b60405180910390a3505050565b600073ffffffffffffffffffffffffffffffffffffffff168373ffffffffffffffffffffffffffffffffffffffff161415610de2576040517f08c379a0000000000000000000000000000000000000000000000000000000008152600401610dd990611884565b60405180910390fd5b600073ffffffffffffffffffffffffffffffffffffffff168273ffffffffffffffffffffffffffffffffffffffff161415610e52576040517f08c379a0000000000000000000000000000000000000000000000000000000008152600401610e49906117c4565b60405180910390fd5b610e5d83838361132a565b60008060008573ffffffffffffffffffffffffffffffffffffffff1673ffffffffffffffffffffffffffffffffffffffff16815260200190815260200160002054905081811015610ee3576040517f08c379a0000000000000000000000000000000000000000000000000000000008152600401610eda90611824565b60405180910390fd5b8181036000808673ffffffffffffffffffffffffffffffffffffffff1673ffffffffffffffffffffffffffffffffffffffff16815260200190815260200160002081905550816000808573ffffffffffffffffffffffffffffffffffffffff1673ffffffffffffffffffffffffffffffffffffffff1681526020019081526020016000206000828254610f769190611956565b925050819055508273ffffffffffffffffffffffffffffffffffffffff168473ffffffffffffffffffffffffffffffffffffffff167fddf252ad1be2c89b69c2b068fc378daa952ba7f163c4a11628f55a4df523b3ef84604051610fda9190611904565b60405180910390a3610fed84848461132f565b50505050565b600073ffffffffffffffffffffffffffffffffffffffff168273ffffffffffffffffffffffffffffffffffffffff161415611063576040517f08c379a000000000000000000000000000000000000000000000000000000000815260040161105a90611864565b60405180910390fd5b61106f8260008361132a565b60008060008473ffffffffffffffffffffffffffffffffffffffff1673ffffffffffffffffffffffffffffffffffffffff168152602001908152602001600020549050818110156110f5576040517f08c379a00000000000000000000000000000000000000000000000000000000081526004016110ec906117e4565b60405180910390fd5b8181036000808573ffffffffffffffffffffffffffffffffffffffff1673ffffffffffffffffffffffffffffffffffffffff16815260200190815260200160002081905550816002600082825461114c9190611a37565b92505081905550600073ffffffffffffffffffffffffffffffffffffffff168373ffffffffffffffffffffffffffffffffffffffff167fddf252ad1be2c89b69c2b068fc378daa952ba7f163c4a11628f55a4df523b3ef846040516111b19190611904565b60405180910390a36111c58360008461132f565b505050565b600073ffffffffffffffffffffffffffffffffffffffff168273ffffffffffffffffffffffffffffffffffffffff16141561123a576040517f08c379a0000000000000000000000000000000000000000000000000000000008152600401611231906118e4565b60405180910390fd5b6112466000838361132a565b80600260008282546112589190611956565b92505081905550806000808473ffffffffffffffffffffffffffffffffffffffff1673ffffffffffffffffffffffffffffffffffffffff16815260200190815260200160002060008282546112ad9190611956565b925050819055508173ffffffffffffffffffffffffffffffffffffffff16600073ffffffffffffffffffffffffffffffffffffffff167fddf252ad1be2c89b69c2b068fc378daa952ba7f163c4a11628f55a4df523b3ef836040516113129190611904565b60405180910390a36113266000838361132f565b5050565b505050565b505050565b60008135905061134381611edc565b92915050565b60008151905061135881611ef3565b92915050565b60008135905061136d81611f0a565b92915050565b60008151905061138281611f0a565b92915050565b60006020828403121561139e5761139d611bd6565b5b60006113ac84828501611334565b91505092915050565b600080604083850312156113cc576113cb611bd6565b5b60006113da85828601611334565b92505060206113eb85828601611334565b9150509250929050565b60008060006060848603121561140e5761140d611bd6565b5b600061141c86828701611334565b935050602061142d86828701611334565b925050604061143e8682870161135e565b9150509250925092565b6000806040838503121561145f5761145e611bd6565b5b600061146d85828601611334565b925050602061147e8582860161135e565b9150509250929050565b60006020828403121561149e5761149d611bd6565b5b60006114ac84828501611349565b91505092915050565b6000602082840312156114cb576114ca611bd6565b5b60006114d98482850161135e565b91505092915050565b6000602082840312156114f8576114f7611bd6565b5b600061150684828501611373565b91505092915050565b61151881611a6b565b82525050565b61152781611a7d565b82525050565b61153681611ac0565b82525050565b60006115478261193a565b6115518185611945565b9350611561818560208601611ae4565b61156a81611bdb565b840191505092915050565b6000611582602383611945565b915061158d82611bec565b604082019050919050565b60006115a5602283611945565b91506115b082611c3b565b604082019050919050565b60006115c8602283611945565b91506115d382611c8a565b604082019050919050565b60006115eb602683611945565b91506115f682611cd9565b604082019050919050565b600061160e602883611945565b915061161982611d28565b604082019050919050565b6000611631602183611945565b915061163c82611d77565b604082019050919050565b6000611654602583611945565b915061165f82611dc6565b604082019050919050565b6000611677602483611945565b915061168282611e15565b604082019050919050565b600061169a602583611945565b91506116a582611e64565b604082019050919050565b60006116bd601f83611945565b91506116c882611eb3565b602082019050919050565b6116dc81611aa9565b82525050565b6116eb81611ab3565b82525050565b6000602082019050611706600083018461150f565b92915050565b6000606082019050611721600083018661150f565b61172e602083018561150f565b61173b60408301846116d3565b949350505050565b6000604082019050611758600083018561150f565b61176560208301846116d3565b9392505050565b6000602082019050611781600083018461151e565b92915050565b600060208201905061179c600083018461152d565b92915050565b600060208201905081810360008301526117bc818461153c565b905092915050565b600060208201905081810360008301526117dd81611575565b9050919050565b600060208201905081810360008301526117fd81611598565b9050919050565b6000602082019050818103600083015261181d816115bb565b9050919050565b6000602082019050818103600083015261183d816115de565b9050919050565b6000602082019050818103600083015261185d81611601565b9050919050565b6000602082019050818103600083015261187d81611624565b9050919050565b6000602082019050818103600083015261189d81611647565b9050919050565b600060208201905081810360008301526118bd8161166a565b9050919050565b600060208201905081810360008301526118dd8161168d565b9050919050565b600060208201905081810360008301526118fd816116b0565b9050919050565b600060208201905061191960008301846116d3565b92915050565b600060208201905061193460008301846116e2565b92915050565b600081519050919050565b600082825260208201905092915050565b600061196182611aa9565b915061196c83611aa9565b9250827fffffffffffffffffffffffffffffffffffffffffffffffffffffffffffffffff038211156119a1576119a0611b49565b5b828201905092915050565b60006119b782611aa9565b91506119c283611aa9565b9250826119d2576119d1611b78565b5b828204905092915050565b60006119e882611aa9565b91506119f383611aa9565b9250817fffffffffffffffffffffffffffffffffffffffffffffffffffffffffffffffff0483118215151615611a2c57611a2b611b49565b5b828202905092915050565b6000611a4282611aa9565b9150611a4d83611aa9565b925082821015611a6057611a5f611b49565b5b828203905092915050565b6000611a7682611a89565b9050919050565b60008115159050919050565b600073ffffffffffffffffffffffffffffffffffffffff82169050919050565b6000819050919050565b600060ff82169050919050565b6000611acb82611ad2565b9050919050565b6000611add82611a89565b9050919050565b60005b83811015611b02578082015181840152602081019050611ae7565b83811115611b11576000848401525b50505050565b60006002820490506001821680611b2f57607f821691505b60208210811415611b4357611b42611ba7565b5b50919050565b7f4e487b7100000000000000000000000000000000000000000000000000000000600052601160045260246000fd5b7f4e487b7100000000000000000000000000000000000000000000000000000000600052601260045260246000fd5b7f4e487b7100000000000000000000000000000000000000000000000000000000600052602260045260246000fd5b600080fd5b6000601f19601f8301169050919050565b7f45524332303a207472616e7366657220746f20746865207a65726f206164647260008201527f6573730000000000000000000000000000000000000000000000000000000000602082015250565b7f45524332303a206275726e20616d6f756e7420657863656564732062616c616e60008201527f6365000000000000000000000000000000000000000000000000000000000000602082015250565b7f45524332303a20617070726f766520746f20746865207a65726f20616464726560008201527f7373000000000000000000000000000000000000000000000000000000000000602082015250565b7f45524332303a207472616e7366657220616d6f756e742065786365656473206260008201527f616c616e63650000000000000000000000000000000000000000000000000000602082015250565b7f45524332303a207472616e7366657220616d6f756e742065786365656473206160008201527f6c6c6f77616e6365000000000000000000000000000000000000000000000000602082015250565b7f45524332303a206275726e2066726f6d20746865207a65726f2061646472657360008201527f7300000000000000000000000000000000000000000000000000000000000000602082015250565b7f45524332303a207472616e736665722066726f6d20746865207a65726f20616460008201527f6472657373000000000000000000000000000000000000000000000000000000602082015250565b7f45524332303a20617070726f76652066726f6d20746865207a65726f2061646460008201527f7265737300000000000000000000000000000000000000000000000000000000602082015250565b7f45524332303a2064656372656173656420616c6c6f77616e63652062656c6f7760008201527f207a65726f000000000000000000000000000000000000000000000000000000602082015250565b7f45524332303a206d696e7420746f20746865207a65726f206164647265737300600082015250565b611ee581611a6b565b8114611ef057600080fd5b50565b611efc81611a7d565b8114611f0757600080fd5b50565b611f1381611aa9565b8114611f1e57600080fd5b5056fea26469706673582212200939ac4830b66c080afd2f90bfa1780bd6ec3260a7a30080e4f68fa30891e97064736f6c63430008060033",
  "linkReferences": {},
  "deployedLinkReferences": {}
}