{
  "_format": "hh-sol-artifact-1",
  "contractName": "FerryNFTMinter",
  "sourceName": "contracts/FerryNFTMinter.sol",
  "abi": [
    {
      "inputs": [
        {
          "internalType": "address",
          "name": "_ferry",
          "type": "address"
        },
        {
          "internalType": "address",
          "name": "_zoraMediaAddress",
          "type": "address"
        },
        {
          "internalType": "address",
          "name": "_vrfCoordinator",
          "type": "address"
        },
        {
          "internalType": "address",
          "name": "_link",
          "type": "address"
        },
        {
          "internalType": "bytes32",
          "name": "_keyHash",
          "type": "bytes32"
        }
      ],
      "stateMutability": "nonpayable",
      "type": "constructor"
    },
    {
      "anonymous": false,
      "inputs": [
        {
          "indexed": true,
          "internalType": "address",
          "name": "previousOwner",
          "type": "address"
        },
        {
          "indexed": true,
          "internalType": "address",
          "name": "newOwner",
          "type": "address"
        }
      ],
      "name": "OwnershipTransferred",
      "type": "event"
    },
    {
      "anonymous": false,
      "inputs": [
        {
          "indexed": false,
          "internalType": "bytes32",
          "name": "requestId",
          "type": "bytes32"
        }
      ],
      "name": "RandomnessFulfilled",
      "type": "event"
    },
    {
      "anonymous": false,
      "inputs": [
        {
          "indexed": false,
          "internalType": "bytes32",
          "name": "requestId",
          "type": "bytes32"
        }
      ],
      "name": "RequestedRandomness",
      "type": "event"
    },
    {
      "inputs": [
        {
          "internalType": "address",
          "name": "_account",
          "type": "address"
        }
      ],
      "name": "createNFT",
      "outputs": [],
      "stateMutability": "nonpayable",
      "type": "function"
    },
    {
      "inputs": [],
      "name": "ferry",
      "outputs": [
        {
          "internalType": "address",
          "name": "",
          "type": "address"
        }
      ],
      "stateMutability": "view",
      "type": "function"
    },
    {
      "inputs": [
        {
          "internalType": "address",
          "name": "_account",
          "type": "address"
        }
      ],
      "name": "getAccountRandomNum",
      "outputs": [
        {
          "internalType": "uint256",
          "name": "",
          "type": "uint256"
        }
      ],
      "stateMutability": "view",
      "type": "function"
    },
    {
      "inputs": [
        {
          "internalType": "address",
          "name": "_account",
          "type": "address"
        }
      ],
      "name": "mintNFT",
      "outputs": [],
      "stateMutability": "nonpayable",
      "type": "function"
    },
    {
      "inputs": [
        {
          "internalType": "address",
          "name": "_operator",
          "type": "address"
        },
        {
          "internalType": "address",
          "name": "_from",
          "type": "address"
        },
        {
          "internalType": "uint256",
          "name": "_tokenId",
          "type": "uint256"
        },
        {
          "internalType": "bytes",
          "name": "_data",
          "type": "bytes"
        }
      ],
      "name": "onERC721Received",
      "outputs": [
        {
          "internalType": "bytes4",
          "name": "",
          "type": "bytes4"
        }
      ],
      "stateMutability": "nonpayable",
      "type": "function"
    },
    {
      "inputs": [],
      "name": "owner",
      "outputs": [
        {
          "internalType": "address",
          "name": "",
          "type": "address"
        }
      ],
      "stateMutability": "view",
      "type": "function"
    },
    {
      "inputs": [],
      "name": "randomResult",
      "outputs": [
        {
          "internalType": "uint256",
          "name": "",
          "type": "uint256"
        }
      ],
      "stateMutability": "view",
      "type": "function"
    },
    {
      "inputs": [
        {
          "internalType": "bytes32",
          "name": "requestId",
          "type": "bytes32"
        },
        {
          "internalType": "uint256",
          "name": "randomness",
          "type": "uint256"
        }
      ],
      "name": "rawFulfillRandomness",
      "outputs": [],
      "stateMutability": "nonpayable",
      "type": "function"
    },
    {
      "inputs": [],
      "name": "renounceOwnership",
      "outputs": [],
      "stateMutability": "nonpayable",
      "type": "function"
    },
    {
      "inputs": [
        {
          "internalType": "address",
          "name": "newOwner",
          "type": "address"
        }
      ],
      "name": "transferOwnership",
      "outputs": [],
      "stateMutability": "nonpayable",
      "type": "function"
    },
    {
      "inputs": [],
      "name": "withdrawLINK",
      "outputs": [],
      "stateMutability": "nonpayable",
      "type": "function"
    }
  ],
  "bytecode": "0x60c06040523480156200001157600080fd5b5060405162001f6438038062001f648339818101604052810190620000379190620002f2565b82828173ffffffffffffffffffffffffffffffffffffffff1660a08173ffffffffffffffffffffffffffffffffffffffff1660601b815250508073ffffffffffffffffffffffffffffffffffffffff1660808173ffffffffffffffffffffffffffffffffffffffff1660601b815250505050620000c9620000bd620001f660201b60201c565b620001fe60201b60201c565b84600260006101000a81548173ffffffffffffffffffffffffffffffffffffffff021916908373ffffffffffffffffffffffffffffffffffffffff16021790555083600360006101000a81548173ffffffffffffffffffffffffffffffffffffffff021916908373ffffffffffffffffffffffffffffffffffffffff16021790555080600981905550655af3107a4000600a8190555060405180606001604052806040518060200160405280600081525081526020016040518060200160405280600081525081526020016040518060200160405280606481525081525060066000820151816000016000820151816000015550506020820151816001016000820151816000015550506040820151816002016000820151816000015550509050505050505050620003f1565b600033905090565b6000600160009054906101000a900473ffffffffffffffffffffffffffffffffffffffff16905081600160006101000a81548173ffffffffffffffffffffffffffffffffffffffff021916908373ffffffffffffffffffffffffffffffffffffffff1602179055508173ffffffffffffffffffffffffffffffffffffffff168173ffffffffffffffffffffffffffffffffffffffff167f8be0079c531659141344cd1fd0a4f28419497f9722a3daafe3b4186f6b6457e060405160405180910390a35050565b600081519050620002d581620003bd565b92915050565b600081519050620002ec81620003d7565b92915050565b600080600080600060a08688031215620003115762000310620003b8565b5b60006200032188828901620002c4565b95505060206200033488828901620002c4565b94505060406200034788828901620002c4565b93505060606200035a88828901620002c4565b92505060806200036d88828901620002db565b9150509295509295909350565b6000620003878262000398565b9050919050565b6000819050919050565b600073ffffffffffffffffffffffffffffffffffffffff82169050919050565b600080fd5b620003c8816200037a565b8114620003d457600080fd5b50565b620003e2816200038e565b8114620003ee57600080fd5b50565b60805160601c60a05160601c611b3262000432600039600081816106cc0152610dd40152600081816107e4015281816108210152610d980152611b326000f3fe608060405234801561001057600080fd5b50600436106100a95760003560e01c80638da5cb5b116100715780638da5cb5b1461013e57806394985ddd1461015c578063adc2112f14610178578063b66c76bc14610182578063f2fde38b146101a0578063f687ce98146101bc576100a9565b8063150b7a02146100ae57806317e5883c146100de57806342619f66146100fa57806354ba0f2714610118578063715018a614610134575b600080fd5b6100c860048036038101906100c39190611063565b6101ec565b6040516100d591906115d6565b60405180910390f35b6100f860048036038101906100f39190611036565b61028e565b005b61010261032b565b60405161010f91906116c1565b60405180910390f35b610132600480360381019061012d9190611036565b610331565b005b61013c610618565b005b6101466106a0565b60405161015391906114cb565b60405180910390f35b61017660048036038101906101719190611145565b6106ca565b005b610180610766565b005b61018a610978565b60405161019791906114cb565b60405180910390f35b6101ba60048036038101906101b59190611036565b61099e565b005b6101d660048036038101906101d19190611036565b610a96565b6040516101e391906116c1565b60405180910390f35b6000600260009054906101000a900473ffffffffffffffffffffffffffffffffffffffff1673ffffffffffffffffffffffffffffffffffffffff16636bd1a3f8856040518263ffffffff1660e01b815260040161024991906116c1565b600060405180830381600087803b15801561026357600080fd5b505af1158015610277573d6000803e3d6000fd5b5050505063150b7a0260e01b905095945050505050565b3373ffffffffffffffffffffffffffffffffffffffff16600260009054906101000a900473ffffffffffffffffffffffffffffffffffffffff1673ffffffffffffffffffffffffffffffffffffffff161461031e576040517f08c379a000000000000000000000000000000000000000000000000000000000815260040161031590611611565b60405180910390fd5b61032781610adf565b5050565b600b5481565b3373ffffffffffffffffffffffffffffffffffffffff16600260009054906101000a900473ffffffffffffffffffffffffffffffffffffffff1673ffffffffffffffffffffffffffffffffffffffff16146103c1576040517f08c379a00000000000000000000000000000000000000000000000000000000081526004016103b890611611565b60405180910390fd5b600060016103e8600560008573ffffffffffffffffffffffffffffffffffffffff1673ffffffffffffffffffffffffffffffffffffffff16815260200190815260200160002054610412919061186f565b61041c9190611730565b90506103e881141561042d5761044e565b6103d481111561043c5761044d565b61030c81111561044b5761044c565b5b5b5b60006040518060400160405280601481526020017f68747470733a2f2f6578616d706c652e636f6d2f000000000000000000000000815250905060006040518060400160405280601581526020017f68747470733a2f2f6d657461646174612e636f6d2f000000000000000000000081525090506000604051806080016040528084815260200183815260200160026040516104e9906114a1565b602060405180830381855afa158015610506573d6000803e3d6000fd5b5050506040513d601f19601f820116820180604052508101906105299190611118565b8152602001600260405161053c906114b6565b602060405180830381855afa158015610559573d6000803e3d6000fd5b5050506040513d601f19601f8201168201806040525081019061057c9190611118565b8152509050600360009054906101000a900473ffffffffffffffffffffffffffffffffffffffff1673ffffffffffffffffffffffffffffffffffffffff16632cca32378260066040518363ffffffff1660e01b81526004016105df929190611691565b600060405180830381600087803b1580156105f957600080fd5b505af115801561060d573d6000803e3d6000fd5b505050505050505050565b610620610b7f565b73ffffffffffffffffffffffffffffffffffffffff1661063e6106a0565b73ffffffffffffffffffffffffffffffffffffffff1614610694576040517f08c379a000000000000000000000000000000000000000000000000000000000815260040161068b90611631565b60405180910390fd5b61069e6000610b87565b565b6000600160009054906101000a900473ffffffffffffffffffffffffffffffffffffffff16905090565b7f000000000000000000000000000000000000000000000000000000000000000073ffffffffffffffffffffffffffffffffffffffff163373ffffffffffffffffffffffffffffffffffffffff1614610758576040517f08c379a000000000000000000000000000000000000000000000000000000000815260040161074f90611651565b60405180910390fd5b6107628282610c4d565b5050565b61076e610b7f565b73ffffffffffffffffffffffffffffffffffffffff1661078c6106a0565b73ffffffffffffffffffffffffffffffffffffffff16146107e2576040517f08c379a00000000000000000000000000000000000000000000000000000000081526004016107d990611631565b60405180910390fd5b7f000000000000000000000000000000000000000000000000000000000000000073ffffffffffffffffffffffffffffffffffffffff1663a9059cbb337f000000000000000000000000000000000000000000000000000000000000000073ffffffffffffffffffffffffffffffffffffffff166370a08231306040518263ffffffff1660e01b815260040161087891906114cb565b60206040518083038186803b15801561089057600080fd5b505afa1580156108a4573d6000803e3d6000fd5b505050506040513d601f19601f820116820180604052508101906108c89190611185565b6040518363ffffffff1660e01b81526004016108e59291906114e6565b602060405180830381600087803b1580156108ff57600080fd5b505af1158015610913573d6000803e3d6000fd5b505050506040513d601f19601f8201168201806040525081019061093791906110eb565b610976576040517f08c379a000000000000000000000000000000000000000000000000000000000815260040161096d90611671565b60405180910390fd5b565b600260009054906101000a900473ffffffffffffffffffffffffffffffffffffffff1681565b6109a6610b7f565b73ffffffffffffffffffffffffffffffffffffffff166109c46106a0565b73ffffffffffffffffffffffffffffffffffffffff1614610a1a576040517f08c379a0000000000000000000000000000000000000000000000000000000008152600401610a1190611631565b60405180910390fd5b600073ffffffffffffffffffffffffffffffffffffffff168173ffffffffffffffffffffffffffffffffffffffff161415610a8a576040517f08c379a0000000000000000000000000000000000000000000000000000000008152600401610a81906115f1565b60405180910390fd5b610a9381610b87565b50565b6000600560008373ffffffffffffffffffffffffffffffffffffffff1673ffffffffffffffffffffffffffffffffffffffff168152602001908152602001600020549050919050565b6000610aef600954600a54610d94565b9050816004600083815260200190815260200160002060006101000a81548173ffffffffffffffffffffffffffffffffffffffff021916908373ffffffffffffffffffffffffffffffffffffffff1602179055507fe5f5b44d72d4143c278eb745c4acc0695c4a5bc616be5beecf46abe29661780e81604051610b72919061154d565b60405180910390a1919050565b600033905090565b6000600160009054906101000a900473ffffffffffffffffffffffffffffffffffffffff16905081600160006101000a81548173ffffffffffffffffffffffffffffffffffffffff021916908373ffffffffffffffffffffffffffffffffffffffff1602179055508173ffffffffffffffffffffffffffffffffffffffff168173ffffffffffffffffffffffffffffffffffffffff167f8be0079c531659141344cd1fd0a4f28419497f9722a3daafe3b4186f6b6457e060405160405180910390a35050565b60006004600084815260200190815260200160002060009054906101000a900473ffffffffffffffffffffffffffffffffffffffff16905081600560008373ffffffffffffffffffffffffffffffffffffffff1673ffffffffffffffffffffffffffffffffffffffff16815260200190815260200160002081905550600260009054906101000a900473ffffffffffffffffffffffffffffffffffffffff1673ffffffffffffffffffffffffffffffffffffffff166319683a7c82846040518363ffffffff1660e01b8152600401610d269291906114e6565b600060405180830381600087803b158015610d4057600080fd5b505af1158015610d54573d6000803e3d6000fd5b505050507fa312c4217fec2a5d353039350081a0149ed918efd6ec43d7f0e8a425f0715f1583604051610d87919061154d565b60405180910390a1505050565b60007f000000000000000000000000000000000000000000000000000000000000000073ffffffffffffffffffffffffffffffffffffffff16634000aea07f000000000000000000000000000000000000000000000000000000000000000084866000604051602001610e08929190611568565b6040516020818303038152906040526040518463ffffffff1660e01b8152600401610e359392919061150f565b602060405180830381600087803b158015610e4f57600080fd5b505af1158015610e63573d6000803e3d6000fd5b505050506040513d601f19601f82011682018060405250810190610e8791906110eb565b506000610ea98460003060008089815260200190815260200160002054610ef3565b9050600160008086815260200190815260200160002054610eca9190611730565b60008086815260200190815260200160002081905550610eea8482610f2f565b91505092915050565b600084848484604051602001610f0c9493929190611591565b6040516020818303038152906040528051906020012060001c9050949350505050565b60008282604051602001610f44929190611475565b60405160208183030381529060405280519060200120905092915050565b600081359050610f7181611aa0565b92915050565b600081519050610f8681611ab7565b92915050565b600081359050610f9b81611ace565b92915050565b600081519050610fb081611ace565b92915050565b60008083601f840112610fcc57610fcb611903565b5b8235905067ffffffffffffffff811115610fe957610fe86118fe565b5b60208301915083600182028301111561100557611004611908565b5b9250929050565b60008135905061101b81611ae5565b92915050565b60008151905061103081611ae5565b92915050565b60006020828403121561104c5761104b611912565b5b600061105a84828501610f62565b91505092915050565b60008060008060006080868803121561107f5761107e611912565b5b600061108d88828901610f62565b955050602061109e88828901610f62565b94505060406110af8882890161100c565b935050606086013567ffffffffffffffff8111156110d0576110cf61190d565b5b6110dc88828901610fb6565b92509250509295509295909350565b60006020828403121561110157611100611912565b5b600061110f84828501610f77565b91505092915050565b60006020828403121561112e5761112d611912565b5b600061113c84828501610fa1565b91505092915050565b6000806040838503121561115c5761115b611912565b5b600061116a85828601610f8c565b925050602061117b8582860161100c565b9150509250929050565b60006020828403121561119b5761119a611912565b5b60006111a984828501611021565b91505092915050565b6111bb81611790565b82525050565b6111ca816117ae565b82525050565b6111d9816117ae565b82525050565b6111f06111eb826117ae565b61185b565b82525050565b6111ff816117b8565b82525050565b6000611210826116dc565b61121a81856116f2565b935061122a81856020860161180e565b61123381611917565b840191505092915050565b6000611249826116e7565b611253818561170e565b935061126381856020860161180e565b61126c81611917565b840191505092915050565b600061128460268361171f565b915061128f82611935565b604082019050919050565b60006112a760238361171f565b91506112b282611984565b604082019050919050565b60006112ca60208361171f565b91506112d5826119d3565b602082019050919050565b60006112ed601683611703565b91506112f8826119fc565b601682019050919050565b6000611310601f8361171f565b915061131b82611a25565b602082019050919050565b6000611333601f8361171f565b915061133e82611a4e565b602082019050919050565b6000611356601883611703565b915061136182611a77565b601882019050919050565b60608201600080830161138260008601826113ad565b506001830161139460208601826113ad565b50600283016113a660408601826113ad565b5050505050565b6020820160008083015490506113c281611841565b6113cf6000860182611440565b5050505050565b600060808301600083015184820360008601526113f3828261123e565b9150506020830151848203602086015261140d828261123e565b915050604083015161142260408601826111c1565b50606083015161143560608601826111c1565b508091505092915050565b61144981611804565b82525050565b61145881611804565b82525050565b61146f61146a82611804565b611865565b82525050565b600061148182856111df565b602082019150611491828461145e565b6020820191508190509392505050565b60006114ac826112e0565b9150819050919050565b60006114c182611349565b9150819050919050565b60006020820190506114e060008301846111b2565b92915050565b60006040820190506114fb60008301856111b2565b611508602083018461144f565b9392505050565b600060608201905061152460008301866111b2565b611531602083018561144f565b81810360408301526115438184611205565b9050949350505050565b600060208201905061156260008301846111d0565b92915050565b600060408201905061157d60008301856111d0565b61158a602083018461144f565b9392505050565b60006080820190506115a660008301876111d0565b6115b3602083018661144f565b6115c060408301856111b2565b6115cd606083018461144f565b95945050505050565b60006020820190506115eb60008301846111f6565b92915050565b6000602082019050818103600083015261160a81611277565b9050919050565b6000602082019050818103600083015261162a8161129a565b9050919050565b6000602082019050818103600083015261164a816112bd565b9050919050565b6000602082019050818103600083015261166a81611303565b9050919050565b6000602082019050818103600083015261168a81611326565b9050919050565b600060808201905081810360008301526116ab81856113d6565b90506116ba602083018461136c565b9392505050565b60006020820190506116d6600083018461144f565b92915050565b600081519050919050565b600081519050919050565b600082825260208201905092915050565b600081905092915050565b600082825260208201905092915050565b600082825260208201905092915050565b600061173b82611804565b915061174683611804565b9250827fffffffffffffffffffffffffffffffffffffffffffffffffffffffffffffffff0382111561177b5761177a6118a0565b5b828201905092915050565b6000819050919050565b600061179b826117e4565b9050919050565b60008115159050919050565b6000819050919050565b60007fffffffff0000000000000000000000000000000000000000000000000000000082169050919050565b600073ffffffffffffffffffffffffffffffffffffffff82169050919050565b6000819050919050565b60005b8381101561182c578082015181840152602081019050611811565b8381111561183b576000848401525b50505050565b600061185461184f83611928565b611786565b9050919050565b6000819050919050565b6000819050919050565b600061187a82611804565b915061188583611804565b925082611895576118946118cf565b5b828206905092915050565b7f4e487b7100000000000000000000000000000000000000000000000000000000600052601160045260246000fd5b7f4e487b7100000000000000000000000000000000000000000000000000000000600052601260045260246000fd5b600080fd5b600080fd5b600080fd5b600080fd5b600080fd5b6000601f19601f8301169050919050565b60008160001c9050919050565b7f4f776e61626c653a206e6577206f776e657220697320746865207a65726f206160008201527f6464726573730000000000000000000000000000000000000000000000000000602082015250565b7f46455252595f4e46543a204f4e4c5920464552525920495320415554484f524960008201527f5a45440000000000000000000000000000000000000000000000000000000000602082015250565b7f4f776e61626c653a2063616c6c6572206973206e6f7420746865206f776e6572600082015250565b7f556e697175652053564720737472696e67206865726500000000000000000000600082015250565b7f4f6e6c7920565246436f6f7264696e61746f722063616e2066756c66696c6c00600082015250565b7f46455252595f4e46543a204c494e4b205749544844524157204641494c454400600082015250565b7f556e6971756520535647206d6574616461746120686572650000000000000000600082015250565b611aa981611790565b8114611ab457600080fd5b50565b611ac0816117a2565b8114611acb57600080fd5b50565b611ad7816117ae565b8114611ae257600080fd5b50565b611aee81611804565b8114611af957600080fd5b5056fea2646970667358221220ed9b18040e6ca84e077b6bb2d9d6d6e8f14bb85805fba64bee1a031afe388f3764736f6c63430008060033",
  "linkReferences": {},
  "deployedLinkReferences": {}
}