{
  "_format": "hh-sol-artifact-1",
  "contractName": "FerryNFTMinter",
  "sourceName": "contracts/FerryNFTMinter.sol",
  "abi": [
    {
      "inputs": [
        {
          "internalType": "address",
          "name": "_ferry",
          "type": "address"
        },
        {
          "internalType": "address",
          "name": "_zoraMediaAddress",
          "type": "address"
        },
        {
          "internalType": "address",
          "name": "_vrfCoordinator",
          "type": "address"
        },
        {
          "internalType": "address",
          "name": "_link",
          "type": "address"
        },
        {
          "internalType": "bytes32",
          "name": "_keyHash",
          "type": "bytes32"
        }
      ],
      "stateMutability": "nonpayable",
      "type": "constructor"
    },
    {
      "anonymous": false,
      "inputs": [
        {
          "indexed": true,
          "internalType": "address",
          "name": "previousOwner",
          "type": "address"
        },
        {
          "indexed": true,
          "internalType": "address",
          "name": "newOwner",
          "type": "address"
        }
      ],
      "name": "OwnershipTransferred",
      "type": "event"
    },
    {
      "anonymous": false,
      "inputs": [
        {
          "indexed": false,
          "internalType": "bytes32",
          "name": "requestId",
          "type": "bytes32"
        }
      ],
      "name": "RequestedRandomness",
      "type": "event"
    },
    {
      "inputs": [],
      "name": "ferry",
      "outputs": [
        {
          "internalType": "address",
          "name": "",
          "type": "address"
        }
      ],
      "stateMutability": "view",
      "type": "function"
    },
    {
      "inputs": [],
      "name": "mint",
      "outputs": [],
      "stateMutability": "nonpayable",
      "type": "function"
    },
    {
      "inputs": [],
      "name": "owner",
      "outputs": [
        {
          "internalType": "address",
          "name": "",
          "type": "address"
        }
      ],
      "stateMutability": "view",
      "type": "function"
    },
    {
      "inputs": [],
      "name": "randomResult",
      "outputs": [
        {
          "internalType": "uint256",
          "name": "",
          "type": "uint256"
        }
      ],
      "stateMutability": "view",
      "type": "function"
    },
    {
      "inputs": [
        {
          "internalType": "bytes32",
          "name": "requestId",
          "type": "bytes32"
        },
        {
          "internalType": "uint256",
          "name": "randomness",
          "type": "uint256"
        }
      ],
      "name": "rawFulfillRandomness",
      "outputs": [],
      "stateMutability": "nonpayable",
      "type": "function"
    },
    {
      "inputs": [],
      "name": "renounceOwnership",
      "outputs": [],
      "stateMutability": "nonpayable",
      "type": "function"
    },
    {
      "inputs": [
        {
          "internalType": "address",
          "name": "newOwner",
          "type": "address"
        }
      ],
      "name": "transferOwnership",
      "outputs": [],
      "stateMutability": "nonpayable",
      "type": "function"
    },
    {
      "inputs": [],
      "name": "withdrawLINK",
      "outputs": [],
      "stateMutability": "nonpayable",
      "type": "function"
    }
  ],
  "bytecode": "0x60c06040523480156200001157600080fd5b5060405162001a1a38038062001a1a8339818101604052810190620000379190620002f2565b82828173ffffffffffffffffffffffffffffffffffffffff1660a08173ffffffffffffffffffffffffffffffffffffffff1660601b815250508073ffffffffffffffffffffffffffffffffffffffff1660808173ffffffffffffffffffffffffffffffffffffffff1660601b815250505050620000c9620000bd620001f660201b60201c565b620001fe60201b60201c565b84600260006101000a81548173ffffffffffffffffffffffffffffffffffffffff021916908373ffffffffffffffffffffffffffffffffffffffff16021790555083600360006101000a81548173ffffffffffffffffffffffffffffffffffffffff021916908373ffffffffffffffffffffffffffffffffffffffff16021790555080600881905550655af3107a400060098190555060405180606001604052806040518060200160405280600081525081526020016040518060200160405280600081525081526020016040518060200160405280606481525081525060056000820151816000016000820151816000015550506020820151816001016000820151816000015550506040820151816002016000820151816000015550509050505050505050620003f1565b600033905090565b6000600160009054906101000a900473ffffffffffffffffffffffffffffffffffffffff16905081600160006101000a81548173ffffffffffffffffffffffffffffffffffffffff021916908373ffffffffffffffffffffffffffffffffffffffff1602179055508173ffffffffffffffffffffffffffffffffffffffff168173ffffffffffffffffffffffffffffffffffffffff167f8be0079c531659141344cd1fd0a4f28419497f9722a3daafe3b4186f6b6457e060405160405180910390a35050565b600081519050620002d581620003bd565b92915050565b600081519050620002ec81620003d7565b92915050565b600080600080600060a08688031215620003115762000310620003b8565b5b60006200032188828901620002c4565b95505060206200033488828901620002c4565b94505060406200034788828901620002c4565b93505060606200035a88828901620002c4565b92505060806200036d88828901620002db565b9150509295509295909350565b6000620003878262000398565b9050919050565b6000819050919050565b600073ffffffffffffffffffffffffffffffffffffffff82169050919050565b600080fd5b620003c8816200037a565b8114620003d457600080fd5b50565b620003e2816200038e565b8114620003ee57600080fd5b50565b60805160601c60a05160601c6115e8620004326000396000818161025c01526109a2015260008181610374015281816103b1015261096601526115e86000f3fe608060405234801561001057600080fd5b50600436106100885760003560e01c806394985ddd1161005b57806394985ddd146100dd578063adc2112f146100f9578063b66c76bc14610103578063f2fde38b1461012157610088565b80631249c58b1461008d57806342619f6614610097578063715018a6146100b55780638da5cb5b146100bf575b600080fd5b61009561013d565b005b61009f6101a2565b6040516100ac9190611206565b60405180910390f35b6100bd6101a8565b005b6100c7610230565b6040516100d4919061104b565b60405180910390f35b6100f760048036038101906100f29190610cf7565b61025a565b005b6101016102f6565b005b61010b610508565b604051610118919061104b565b60405180910390f35b61013b60048036038101906101369190610c70565b61052e565b005b3373ffffffffffffffffffffffffffffffffffffffff16600260009054906101000a900473ffffffffffffffffffffffffffffffffffffffff1673ffffffffffffffffffffffffffffffffffffffff161461019757600080fd5b61019f610626565b50565b600a5481565b6101b0610672565b73ffffffffffffffffffffffffffffffffffffffff166101ce610230565b73ffffffffffffffffffffffffffffffffffffffff1614610224576040517f08c379a000000000000000000000000000000000000000000000000000000000815260040161021b90611176565b60405180910390fd5b61022e600061067a565b565b6000600160009054906101000a900473ffffffffffffffffffffffffffffffffffffffff16905090565b7f000000000000000000000000000000000000000000000000000000000000000073ffffffffffffffffffffffffffffffffffffffff163373ffffffffffffffffffffffffffffffffffffffff16146102e8576040517f08c379a00000000000000000000000000000000000000000000000000000000081526004016102df90611196565b60405180910390fd5b6102f28282610740565b5050565b6102fe610672565b73ffffffffffffffffffffffffffffffffffffffff1661031c610230565b73ffffffffffffffffffffffffffffffffffffffff1614610372576040517f08c379a000000000000000000000000000000000000000000000000000000000815260040161036990611176565b60405180910390fd5b7f000000000000000000000000000000000000000000000000000000000000000073ffffffffffffffffffffffffffffffffffffffff1663a9059cbb337f000000000000000000000000000000000000000000000000000000000000000073ffffffffffffffffffffffffffffffffffffffff166370a08231306040518263ffffffff1660e01b8152600401610408919061104b565b60206040518083038186803b15801561042057600080fd5b505afa158015610434573d6000803e3d6000fd5b505050506040513d601f19601f820116820180604052508101906104589190610d37565b6040518363ffffffff1660e01b8152600401610475929190611066565b602060405180830381600087803b15801561048f57600080fd5b505af11580156104a3573d6000803e3d6000fd5b505050506040513d601f19601f820116820180604052508101906104c79190610c9d565b610506576040517f08c379a00000000000000000000000000000000000000000000000000000000081526004016104fd906111b6565b60405180910390fd5b565b600260009054906101000a900473ffffffffffffffffffffffffffffffffffffffff1681565b610536610672565b73ffffffffffffffffffffffffffffffffffffffff16610554610230565b73ffffffffffffffffffffffffffffffffffffffff16146105aa576040517f08c379a00000000000000000000000000000000000000000000000000000000081526004016105a190611176565b60405180910390fd5b600073ffffffffffffffffffffffffffffffffffffffff168173ffffffffffffffffffffffffffffffffffffffff16141561061a576040517f08c379a000000000000000000000000000000000000000000000000000000000815260040161061190611156565b60405180910390fd5b6106238161067a565b50565b6000610636600854600954610962565b90507fe5f5b44d72d4143c278eb745c4acc0695c4a5bc616be5beecf46abe29661780e8160405161066791906110cd565b60405180910390a190565b600033905090565b6000600160009054906101000a900473ffffffffffffffffffffffffffffffffffffffff16905081600160006101000a81548173ffffffffffffffffffffffffffffffffffffffff021916908373ffffffffffffffffffffffffffffffffffffffff1602179055508173ffffffffffffffffffffffffffffffffffffffff168173ffffffffffffffffffffffffffffffffffffffff167f8be0079c531659141344cd1fd0a4f28419497f9722a3daafe3b4186f6b6457e060405160405180910390a35050565b600060016103e8836107529190611388565b61075c9190611275565b905061076782610ac1565b6103e881141561077657610797565b6103d481111561078557610796565b61030c81111561079457610795565b5b5b5b60006040518060400160405280601381526020017f68747470733a2f2f6578616d706c652e636f6d00000000000000000000000000815250905060006040518060400160405280601481526020017f68747470733a2f2f6d657461646174612e636f6d000000000000000000000000815250905060006040518060800160405280848152602001838152602001600260405161083290611021565b602060405180830381855afa15801561084f573d6000803e3d6000fd5b5050506040513d601f19601f820116820180604052508101906108729190610cca565b8152602001600260405161088590611036565b602060405180830381855afa1580156108a2573d6000803e3d6000fd5b5050506040513d601f19601f820116820180604052508101906108c59190610cca565b8152509050600360009054906101000a900473ffffffffffffffffffffffffffffffffffffffff1673ffffffffffffffffffffffffffffffffffffffff16632cca32378260056040518363ffffffff1660e01b81526004016109289291906111d6565b600060405180830381600087803b15801561094257600080fd5b505af1158015610956573d6000803e3d6000fd5b50505050505050505050565b60007f000000000000000000000000000000000000000000000000000000000000000073ffffffffffffffffffffffffffffffffffffffff16634000aea07f0000000000000000000000000000000000000000000000000000000000000000848660006040516020016109d69291906110e8565b6040516020818303038152906040526040518463ffffffff1660e01b8152600401610a039392919061108f565b602060405180830381600087803b158015610a1d57600080fd5b505af1158015610a31573d6000803e3d6000fd5b505050506040513d601f19601f82011682018060405250810190610a559190610c9d565b506000610a778460003060008089815260200190815260200160002054610b5a565b9050600160008086815260200190815260200160002054610a989190611275565b60008086815260200190815260200160002081905550610ab88482610b96565b91505092915050565b610b5781604051602401610ad59190611206565b6040516020818303038152906040527ff5b1bba9000000000000000000000000000000000000000000000000000000007bffffffffffffffffffffffffffffffffffffffffffffffffffffffff19166020820180517bffffffffffffffffffffffffffffffffffffffffffffffffffffffff8381831617835250505050610bc9565b50565b600084848484604051602001610b739493929190611111565b6040516020818303038152906040528051906020012060001c9050949350505050565b60008282604051602001610bab929190610ff5565b60405160208183030381529060405280519060200120905092915050565b60008151905060006a636f6e736f6c652e6c6f679050602083016000808483855afa5050505050565b600081359050610c0181611556565b92915050565b600081519050610c168161156d565b92915050565b600081359050610c2b81611584565b92915050565b600081519050610c4081611584565b92915050565b600081359050610c558161159b565b92915050565b600081519050610c6a8161159b565b92915050565b600060208284031215610c8657610c85611417565b5b6000610c9484828501610bf2565b91505092915050565b600060208284031215610cb357610cb2611417565b5b6000610cc184828501610c07565b91505092915050565b600060208284031215610ce057610cdf611417565b5b6000610cee84828501610c31565b91505092915050565b60008060408385031215610d0e57610d0d611417565b5b6000610d1c85828601610c1c565b9250506020610d2d85828601610c46565b9150509250929050565b600060208284031215610d4d57610d4c611417565b5b6000610d5b84828501610c5b565b91505092915050565b610d6d816112d5565b82525050565b610d7c816112f3565b82525050565b610d8b816112f3565b82525050565b610da2610d9d826112f3565b611374565b82525050565b6000610db382611221565b610dbd8185611237565b9350610dcd818560208601611327565b610dd68161141c565b840191505092915050565b6000610dec8261122c565b610df68185611253565b9350610e06818560208601611327565b610e0f8161141c565b840191505092915050565b6000610e27602683611264565b9150610e328261143a565b604082019050919050565b6000610e4a602083611264565b9150610e5582611489565b602082019050919050565b6000610e6d601683611248565b9150610e78826114b2565b601682019050919050565b6000610e90601f83611264565b9150610e9b826114db565b602082019050919050565b6000610eb3601f83611264565b9150610ebe82611504565b602082019050919050565b6000610ed6601883611248565b9150610ee18261152d565b601882019050919050565b606082016000808301610f026000860182610f2d565b5060018301610f146020860182610f2d565b5060028301610f266040860182610f2d565b5050505050565b602082016000808301549050610f428161135a565b610f4f6000860182610fc0565b5050505050565b60006080830160008301518482036000860152610f738282610de1565b91505060208301518482036020860152610f8d8282610de1565b9150506040830151610fa26040860182610d73565b506060830151610fb56060860182610d73565b508091505092915050565b610fc98161131d565b82525050565b610fd88161131d565b82525050565b610fef610fea8261131d565b61137e565b82525050565b60006110018285610d91565b6020820191506110118284610fde565b6020820191508190509392505050565b600061102c82610e60565b9150819050919050565b600061104182610ec9565b9150819050919050565b60006020820190506110606000830184610d64565b92915050565b600060408201905061107b6000830185610d64565b6110886020830184610fcf565b9392505050565b60006060820190506110a46000830186610d64565b6110b16020830185610fcf565b81810360408301526110c38184610da8565b9050949350505050565b60006020820190506110e26000830184610d82565b92915050565b60006040820190506110fd6000830185610d82565b61110a6020830184610fcf565b9392505050565b60006080820190506111266000830187610d82565b6111336020830186610fcf565b6111406040830185610d64565b61114d6060830184610fcf565b95945050505050565b6000602082019050818103600083015261116f81610e1a565b9050919050565b6000602082019050818103600083015261118f81610e3d565b9050919050565b600060208201905081810360008301526111af81610e83565b9050919050565b600060208201905081810360008301526111cf81610ea6565b9050919050565b600060808201905081810360008301526111f08185610f56565b90506111ff6020830184610eec565b9392505050565b600060208201905061121b6000830184610fcf565b92915050565b600081519050919050565b600081519050919050565b600082825260208201905092915050565b600081905092915050565b600082825260208201905092915050565b600082825260208201905092915050565b60006112808261131d565b915061128b8361131d565b9250827fffffffffffffffffffffffffffffffffffffffffffffffffffffffffffffffff038211156112c0576112bf6113b9565b5b828201905092915050565b6000819050919050565b60006112e0826112fd565b9050919050565b60008115159050919050565b6000819050919050565b600073ffffffffffffffffffffffffffffffffffffffff82169050919050565b6000819050919050565b60005b8381101561134557808201518184015260208101905061132a565b83811115611354576000848401525b50505050565b600061136d6113688361142d565b6112cb565b9050919050565b6000819050919050565b6000819050919050565b60006113938261131d565b915061139e8361131d565b9250826113ae576113ad6113e8565b5b828206905092915050565b7f4e487b7100000000000000000000000000000000000000000000000000000000600052601160045260246000fd5b7f4e487b7100000000000000000000000000000000000000000000000000000000600052601260045260246000fd5b600080fd5b6000601f19601f8301169050919050565b60008160001c9050919050565b7f4f776e61626c653a206e6577206f776e657220697320746865207a65726f206160008201527f6464726573730000000000000000000000000000000000000000000000000000602082015250565b7f4f776e61626c653a2063616c6c6572206973206e6f7420746865206f776e6572600082015250565b7f556e697175652053564720737472696e67206865726500000000000000000000600082015250565b7f4f6e6c7920565246436f6f7264696e61746f722063616e2066756c66696c6c00600082015250565b7f46455252595f4e46543a204c494e4b205749544844524157204641494c454400600082015250565b7f556e6971756520535647206d6574616461746120686572650000000000000000600082015250565b61155f816112d5565b811461156a57600080fd5b50565b611576816112e7565b811461158157600080fd5b50565b61158d816112f3565b811461159857600080fd5b50565b6115a48161131d565b81146115af57600080fd5b5056fea26469706673582212203b14682686385027aae170e2e2982c13160c2a3741d54d63d528d788d055962764736f6c63430008060033",
  "linkReferences": {},
  "deployedLinkReferences": {}
}