{
  "_format": "hh-sol-artifact-1",
  "contractName": "FerryNFTMinter",
  "sourceName": "contracts/FerryNFTMinter.sol",
  "abi": [
    {
      "inputs": [
        {
          "internalType": "address",
          "name": "_ferry",
          "type": "address"
        },
        {
          "internalType": "address",
          "name": "_zoraMediaAddress",
          "type": "address"
        },
        {
          "internalType": "address",
          "name": "_vrfCoordinator",
          "type": "address"
        },
        {
          "internalType": "address",
          "name": "_link",
          "type": "address"
        },
        {
          "internalType": "bytes32",
          "name": "_keyHash",
          "type": "bytes32"
        }
      ],
      "stateMutability": "nonpayable",
      "type": "constructor"
    },
    {
      "anonymous": false,
      "inputs": [
        {
          "indexed": true,
          "internalType": "address",
          "name": "previousOwner",
          "type": "address"
        },
        {
          "indexed": true,
          "internalType": "address",
          "name": "newOwner",
          "type": "address"
        }
      ],
      "name": "OwnershipTransferred",
      "type": "event"
    },
    {
      "anonymous": false,
      "inputs": [
        {
          "indexed": false,
          "internalType": "bytes32",
          "name": "requestId",
          "type": "bytes32"
        }
      ],
      "name": "RandomnessFulfilled",
      "type": "event"
    },
    {
      "anonymous": false,
      "inputs": [
        {
          "indexed": false,
          "internalType": "bytes32",
          "name": "requestId",
          "type": "bytes32"
        }
      ],
      "name": "RequestedRandomness",
      "type": "event"
    },
    {
      "inputs": [
        {
          "internalType": "address",
          "name": "_account",
          "type": "address"
        }
      ],
      "name": "createNFT",
      "outputs": [],
      "stateMutability": "nonpayable",
      "type": "function"
    },
    {
      "inputs": [],
      "name": "ferry",
      "outputs": [
        {
          "internalType": "address",
          "name": "",
          "type": "address"
        }
      ],
      "stateMutability": "view",
      "type": "function"
    },
    {
      "inputs": [
        {
          "internalType": "address",
          "name": "_account",
          "type": "address"
        }
      ],
      "name": "getAccountRandomNum",
      "outputs": [
        {
          "internalType": "uint256",
          "name": "",
          "type": "uint256"
        }
      ],
      "stateMutability": "view",
      "type": "function"
    },
    {
      "inputs": [
        {
          "internalType": "address",
          "name": "_account",
          "type": "address"
        }
      ],
      "name": "mintNFT",
      "outputs": [],
      "stateMutability": "nonpayable",
      "type": "function"
    },
    {
      "inputs": [
        {
          "internalType": "address",
          "name": "_operator",
          "type": "address"
        },
        {
          "internalType": "address",
          "name": "_from",
          "type": "address"
        },
        {
          "internalType": "uint256",
          "name": "_tokenId",
          "type": "uint256"
        },
        {
          "internalType": "bytes",
          "name": "_data",
          "type": "bytes"
        }
      ],
      "name": "onERC721Received",
      "outputs": [
        {
          "internalType": "bytes4",
          "name": "",
          "type": "bytes4"
        }
      ],
      "stateMutability": "nonpayable",
      "type": "function"
    },
    {
      "inputs": [],
      "name": "owner",
      "outputs": [
        {
          "internalType": "address",
          "name": "",
          "type": "address"
        }
      ],
      "stateMutability": "view",
      "type": "function"
    },
    {
      "inputs": [],
      "name": "randomResult",
      "outputs": [
        {
          "internalType": "uint256",
          "name": "",
          "type": "uint256"
        }
      ],
      "stateMutability": "view",
      "type": "function"
    },
    {
      "inputs": [
        {
          "internalType": "bytes32",
          "name": "requestId",
          "type": "bytes32"
        },
        {
          "internalType": "uint256",
          "name": "randomness",
          "type": "uint256"
        }
      ],
      "name": "rawFulfillRandomness",
      "outputs": [],
      "stateMutability": "nonpayable",
      "type": "function"
    },
    {
      "inputs": [],
      "name": "renounceOwnership",
      "outputs": [],
      "stateMutability": "nonpayable",
      "type": "function"
    },
    {
      "inputs": [
        {
          "internalType": "address",
          "name": "newOwner",
          "type": "address"
        }
      ],
      "name": "transferOwnership",
      "outputs": [],
      "stateMutability": "nonpayable",
      "type": "function"
    },
    {
      "inputs": [],
      "name": "withdrawLINK",
      "outputs": [],
      "stateMutability": "nonpayable",
      "type": "function"
    }
  ],
  "bytecode": "0x60c06040523480156200001157600080fd5b5060405162002085380380620020858339818101604052810190620000379190620002fa565b82828173ffffffffffffffffffffffffffffffffffffffff1660a08173ffffffffffffffffffffffffffffffffffffffff1660601b815250508073ffffffffffffffffffffffffffffffffffffffff1660808173ffffffffffffffffffffffffffffffffffffffff1660601b815250505050620000c9620000bd620001fe60201b60201c565b6200020660201b60201c565b84600260006101000a81548173ffffffffffffffffffffffffffffffffffffffff021916908373ffffffffffffffffffffffffffffffffffffffff16021790555083600460006101000a81548173ffffffffffffffffffffffffffffffffffffffff021916908373ffffffffffffffffffffffffffffffffffffffff16021790555080600a81905550655af3107a4000600b819055506040518060600160405280604051806020016040528060008152508152602001604051806020016040528060008152508152602001604051806020016040528068056bc75e2d6310000081525081525060076000820151816000016000820151816000015550506020820151816001016000820151816000015550506040820151816002016000820151816000015550509050505050505050620003f9565b600033905090565b6000600160009054906101000a900473ffffffffffffffffffffffffffffffffffffffff16905081600160006101000a81548173ffffffffffffffffffffffffffffffffffffffff021916908373ffffffffffffffffffffffffffffffffffffffff1602179055508173ffffffffffffffffffffffffffffffffffffffff168173ffffffffffffffffffffffffffffffffffffffff167f8be0079c531659141344cd1fd0a4f28419497f9722a3daafe3b4186f6b6457e060405160405180910390a35050565b600081519050620002dd81620003c5565b92915050565b600081519050620002f481620003df565b92915050565b600080600080600060a08688031215620003195762000318620003c0565b5b60006200032988828901620002cc565b95505060206200033c88828901620002cc565b94505060406200034f88828901620002cc565b93505060606200036288828901620002cc565b92505060806200037588828901620002e3565b9150509295509295909350565b60006200038f82620003a0565b9050919050565b6000819050919050565b600073ffffffffffffffffffffffffffffffffffffffff82169050919050565b600080fd5b620003d08162000382565b8114620003dc57600080fd5b50565b620003ea8162000396565b8114620003f657600080fd5b50565b60805160601c60a05160601c611c4b6200043a600039600081816107fb0152610f03015260008181610913015281816109500152610ec70152611c4b6000f3fe608060405234801561001057600080fd5b50600436106100a95760003560e01c80638da5cb5b116100715780638da5cb5b1461013e57806394985ddd1461015c578063adc2112f14610178578063b66c76bc14610182578063f2fde38b146101a0578063f687ce98146101bc576100a9565b8063150b7a02146100ae57806317e5883c146100de57806342619f66146100fa57806354ba0f2714610118578063715018a614610134575b600080fd5b6100c860048036038101906100c39190611192565b6101ec565b6040516100d59190611736565b60405180910390f35b6100f860048036038101906100f39190611165565b6102f4565b005b610102610391565b60405161010f9190611821565b60405180910390f35b610132600480360381019061012d9190611165565b610397565b005b61013c610747565b005b6101466107cf565b604051610153919061162b565b60405180910390f35b61017660048036038101906101719190611274565b6107f9565b005b610180610895565b005b61018a610aa7565b604051610197919061162b565b60405180910390f35b6101ba60048036038101906101b59190611165565b610acd565b005b6101d660048036038101906101d19190611165565b610bc5565b6040516101e39190611821565b60405180910390f35b6000600260009054906101000a900473ffffffffffffffffffffffffffffffffffffffff1673ffffffffffffffffffffffffffffffffffffffff166340e0e9e2600360009054906101000a900473ffffffffffffffffffffffffffffffffffffffff16866040518363ffffffff1660e01b815260040161026d929190611646565b600060405180830381600087803b15801561028757600080fd5b505af115801561029b573d6000803e3d6000fd5b505050506000600360006101000a81548173ffffffffffffffffffffffffffffffffffffffff021916908373ffffffffffffffffffffffffffffffffffffffff16021790555063150b7a0260e01b905095945050505050565b3373ffffffffffffffffffffffffffffffffffffffff16600260009054906101000a900473ffffffffffffffffffffffffffffffffffffffff1673ffffffffffffffffffffffffffffffffffffffff1614610384576040517f08c379a000000000000000000000000000000000000000000000000000000000815260040161037b90611771565b60405180910390fd5b61038d81610c0e565b5050565b600c5481565b3373ffffffffffffffffffffffffffffffffffffffff16600260009054906101000a900473ffffffffffffffffffffffffffffffffffffffff1673ffffffffffffffffffffffffffffffffffffffff1614610427576040517f08c379a000000000000000000000000000000000000000000000000000000000815260040161041e90611771565b60405180910390fd5b600060016103e8600660008573ffffffffffffffffffffffffffffffffffffffff1673ffffffffffffffffffffffffffffffffffffffff1681526020019081526020016000205461047891906119da565b610482919061189b565b905060606103e88214156104cd576040518060400160405280600981526020017f4c4547454e4441525900000000000000000000000000000000000000000000008152509050610596565b6103d4821115610514576040518060400160405280600481526020017f45504943000000000000000000000000000000000000000000000000000000008152509050610595565b61030c82111561055b576040518060400160405280600481526020017f52415245000000000000000000000000000000000000000000000000000000008152509050610594565b6040518060400160405280600681526020017f434f4d4d4f4e000000000000000000000000000000000000000000000000000081525090505b5b5b6000600282600660008773ffffffffffffffffffffffffffffffffffffffff1673ffffffffffffffffffffffffffffffffffffffff168152602001908152602001600020546040516020016105ec929190611603565b60405160208183030381529060405260405161060891906115ec565b602060405180830381855afa158015610625573d6000803e3d6000fd5b5050506040513d601f19601f820116820180604052508101906106489190611247565b90506000604051806080016040528084815260200184815260200183815260200183815250905084600360006101000a81548173ffffffffffffffffffffffffffffffffffffffff021916908373ffffffffffffffffffffffffffffffffffffffff160217905550600460009054906101000a900473ffffffffffffffffffffffffffffffffffffffff1673ffffffffffffffffffffffffffffffffffffffff16632cca32378260076040518363ffffffff1660e01b815260040161070e9291906117f1565b600060405180830381600087803b15801561072857600080fd5b505af115801561073c573d6000803e3d6000fd5b505050505050505050565b61074f610cae565b73ffffffffffffffffffffffffffffffffffffffff1661076d6107cf565b73ffffffffffffffffffffffffffffffffffffffff16146107c3576040517f08c379a00000000000000000000000000000000000000000000000000000000081526004016107ba90611791565b60405180910390fd5b6107cd6000610cb6565b565b6000600160009054906101000a900473ffffffffffffffffffffffffffffffffffffffff16905090565b7f000000000000000000000000000000000000000000000000000000000000000073ffffffffffffffffffffffffffffffffffffffff163373ffffffffffffffffffffffffffffffffffffffff1614610887576040517f08c379a000000000000000000000000000000000000000000000000000000000815260040161087e906117b1565b60405180910390fd5b6108918282610d7c565b5050565b61089d610cae565b73ffffffffffffffffffffffffffffffffffffffff166108bb6107cf565b73ffffffffffffffffffffffffffffffffffffffff1614610911576040517f08c379a000000000000000000000000000000000000000000000000000000000815260040161090890611791565b60405180910390fd5b7f000000000000000000000000000000000000000000000000000000000000000073ffffffffffffffffffffffffffffffffffffffff1663a9059cbb337f000000000000000000000000000000000000000000000000000000000000000073ffffffffffffffffffffffffffffffffffffffff166370a08231306040518263ffffffff1660e01b81526004016109a7919061162b565b60206040518083038186803b1580156109bf57600080fd5b505afa1580156109d3573d6000803e3d6000fd5b505050506040513d601f19601f820116820180604052508101906109f791906112b4565b6040518363ffffffff1660e01b8152600401610a14929190611646565b602060405180830381600087803b158015610a2e57600080fd5b505af1158015610a42573d6000803e3d6000fd5b505050506040513d601f19601f82011682018060405250810190610a66919061121a565b610aa5576040517f08c379a0000000000000000000000000000000000000000000000000000000008152600401610a9c906117d1565b60405180910390fd5b565b600260009054906101000a900473ffffffffffffffffffffffffffffffffffffffff1681565b610ad5610cae565b73ffffffffffffffffffffffffffffffffffffffff16610af36107cf565b73ffffffffffffffffffffffffffffffffffffffff1614610b49576040517f08c379a0000000000000000000000000000000000000000000000000000000008152600401610b4090611791565b60405180910390fd5b600073ffffffffffffffffffffffffffffffffffffffff168173ffffffffffffffffffffffffffffffffffffffff161415610bb9576040517f08c379a0000000000000000000000000000000000000000000000000000000008152600401610bb090611751565b60405180910390fd5b610bc281610cb6565b50565b6000600660008373ffffffffffffffffffffffffffffffffffffffff1673ffffffffffffffffffffffffffffffffffffffff168152602001908152602001600020549050919050565b6000610c1e600a54600b54610ec3565b9050816005600083815260200190815260200160002060006101000a81548173ffffffffffffffffffffffffffffffffffffffff021916908373ffffffffffffffffffffffffffffffffffffffff1602179055507fe5f5b44d72d4143c278eb745c4acc0695c4a5bc616be5beecf46abe29661780e81604051610ca191906116ad565b60405180910390a1919050565b600033905090565b6000600160009054906101000a900473ffffffffffffffffffffffffffffffffffffffff16905081600160006101000a81548173ffffffffffffffffffffffffffffffffffffffff021916908373ffffffffffffffffffffffffffffffffffffffff1602179055508173ffffffffffffffffffffffffffffffffffffffff168173ffffffffffffffffffffffffffffffffffffffff167f8be0079c531659141344cd1fd0a4f28419497f9722a3daafe3b4186f6b6457e060405160405180910390a35050565b60006005600084815260200190815260200160002060009054906101000a900473ffffffffffffffffffffffffffffffffffffffff16905081600660008373ffffffffffffffffffffffffffffffffffffffff1673ffffffffffffffffffffffffffffffffffffffff16815260200190815260200160002081905550600260009054906101000a900473ffffffffffffffffffffffffffffffffffffffff1673ffffffffffffffffffffffffffffffffffffffff166319683a7c82846040518363ffffffff1660e01b8152600401610e55929190611646565b600060405180830381600087803b158015610e6f57600080fd5b505af1158015610e83573d6000803e3d6000fd5b505050507fa312c4217fec2a5d353039350081a0149ed918efd6ec43d7f0e8a425f0715f1583604051610eb691906116ad565b60405180910390a1505050565b60007f000000000000000000000000000000000000000000000000000000000000000073ffffffffffffffffffffffffffffffffffffffff16634000aea07f000000000000000000000000000000000000000000000000000000000000000084866000604051602001610f379291906116c8565b6040516020818303038152906040526040518463ffffffff1660e01b8152600401610f649392919061166f565b602060405180830381600087803b158015610f7e57600080fd5b505af1158015610f92573d6000803e3d6000fd5b505050506040513d601f19601f82011682018060405250810190610fb6919061121a565b506000610fd88460003060008089815260200190815260200160002054611022565b9050600160008086815260200190815260200160002054610ff9919061189b565b60008086815260200190815260200160002081905550611019848261105e565b91505092915050565b60008484848460405160200161103b94939291906116f1565b6040516020818303038152906040528051906020012060001c9050949350505050565b600082826040516020016110739291906115c0565b60405160208183030381529060405280519060200120905092915050565b6000813590506110a081611bb9565b92915050565b6000815190506110b581611bd0565b92915050565b6000813590506110ca81611be7565b92915050565b6000815190506110df81611be7565b92915050565b60008083601f8401126110fb576110fa611a6e565b5b8235905067ffffffffffffffff81111561111857611117611a69565b5b60208301915083600182028301111561113457611133611a73565b5b9250929050565b60008135905061114a81611bfe565b92915050565b60008151905061115f81611bfe565b92915050565b60006020828403121561117b5761117a611a7d565b5b600061118984828501611091565b91505092915050565b6000806000806000608086880312156111ae576111ad611a7d565b5b60006111bc88828901611091565b95505060206111cd88828901611091565b94505060406111de8882890161113b565b935050606086013567ffffffffffffffff8111156111ff576111fe611a78565b5b61120b888289016110e5565b92509250509295509295909350565b6000602082840312156112305761122f611a7d565b5b600061123e848285016110a6565b91505092915050565b60006020828403121561125d5761125c611a7d565b5b600061126b848285016110d0565b91505092915050565b6000806040838503121561128b5761128a611a7d565b5b6000611299858286016110bb565b92505060206112aa8582860161113b565b9150509250929050565b6000602082840312156112ca576112c9611a7d565b5b60006112d884828501611150565b91505092915050565b6112ea816118fb565b82525050565b6112f981611919565b82525050565b61130881611919565b82525050565b61131f61131a82611919565b6119c6565b82525050565b61132e81611923565b82525050565b600061133f8261183c565b6113498185611852565b9350611359818560208601611979565b61136281611a82565b840191505092915050565b60006113788261183c565b6113828185611863565b9350611392818560208601611979565b80840191505092915050565b60006113a982611847565b6113b3818561186e565b93506113c3818560208601611979565b6113cc81611a82565b840191505092915050565b60006113e282611847565b6113ec8185611890565b93506113fc818560208601611979565b80840191505092915050565b600061141560268361187f565b915061142082611aa0565b604082019050919050565b600061143860238361187f565b915061144382611aef565b604082019050919050565b600061145b60208361187f565b915061146682611b3e565b602082019050919050565b600061147e601f8361187f565b915061148982611b67565b602082019050919050565b60006114a1601f8361187f565b91506114ac82611b90565b602082019050919050565b6060820160008083016114cd60008601826114f8565b50600183016114df60208601826114f8565b50600283016114f160408601826114f8565b5050505050565b60208201600080830154905061150d816119ac565b61151a600086018261158b565b5050505050565b6000608083016000830151848203600086015261153e828261139e565b91505060208301518482036020860152611558828261139e565b915050604083015161156d60408601826112f0565b50606083015161158060608601826112f0565b508091505092915050565b6115948161196f565b82525050565b6115a38161196f565b82525050565b6115ba6115b58261196f565b6119d0565b82525050565b60006115cc828561130e565b6020820191506115dc82846115a9565b6020820191508190509392505050565b60006115f8828461136d565b915081905092915050565b600061160f82856113d7565b915061161b82846115a9565b6020820191508190509392505050565b600060208201905061164060008301846112e1565b92915050565b600060408201905061165b60008301856112e1565b611668602083018461159a565b9392505050565b600060608201905061168460008301866112e1565b611691602083018561159a565b81810360408301526116a38184611334565b9050949350505050565b60006020820190506116c260008301846112ff565b92915050565b60006040820190506116dd60008301856112ff565b6116ea602083018461159a565b9392505050565b600060808201905061170660008301876112ff565b611713602083018661159a565b61172060408301856112e1565b61172d606083018461159a565b95945050505050565b600060208201905061174b6000830184611325565b92915050565b6000602082019050818103600083015261176a81611408565b9050919050565b6000602082019050818103600083015261178a8161142b565b9050919050565b600060208201905081810360008301526117aa8161144e565b9050919050565b600060208201905081810360008301526117ca81611471565b9050919050565b600060208201905081810360008301526117ea81611494565b9050919050565b6000608082019050818103600083015261180b8185611521565b905061181a60208301846114b7565b9392505050565b6000602082019050611836600083018461159a565b92915050565b600081519050919050565b600081519050919050565b600082825260208201905092915050565b600081905092915050565b600082825260208201905092915050565b600082825260208201905092915050565b600081905092915050565b60006118a68261196f565b91506118b18361196f565b9250827fffffffffffffffffffffffffffffffffffffffffffffffffffffffffffffffff038211156118e6576118e5611a0b565b5b828201905092915050565b6000819050919050565b60006119068261194f565b9050919050565b60008115159050919050565b6000819050919050565b60007fffffffff0000000000000000000000000000000000000000000000000000000082169050919050565b600073ffffffffffffffffffffffffffffffffffffffff82169050919050565b6000819050919050565b60005b8381101561199757808201518184015260208101905061197c565b838111156119a6576000848401525b50505050565b60006119bf6119ba83611a93565b6118f1565b9050919050565b6000819050919050565b6000819050919050565b60006119e58261196f565b91506119f08361196f565b925082611a00576119ff611a3a565b5b828206905092915050565b7f4e487b7100000000000000000000000000000000000000000000000000000000600052601160045260246000fd5b7f4e487b7100000000000000000000000000000000000000000000000000000000600052601260045260246000fd5b600080fd5b600080fd5b600080fd5b600080fd5b600080fd5b6000601f19601f8301169050919050565b60008160001c9050919050565b7f4f776e61626c653a206e6577206f776e657220697320746865207a65726f206160008201527f6464726573730000000000000000000000000000000000000000000000000000602082015250565b7f46455252595f4e46543a204f4e4c5920464552525920495320415554484f524960008201527f5a45440000000000000000000000000000000000000000000000000000000000602082015250565b7f4f776e61626c653a2063616c6c6572206973206e6f7420746865206f776e6572600082015250565b7f4f6e6c7920565246436f6f7264696e61746f722063616e2066756c66696c6c00600082015250565b7f46455252595f4e46543a204c494e4b205749544844524157204641494c454400600082015250565b611bc2816118fb565b8114611bcd57600080fd5b50565b611bd98161190d565b8114611be457600080fd5b50565b611bf081611919565b8114611bfb57600080fd5b50565b611c078161196f565b8114611c1257600080fd5b5056fea2646970667358221220a0f6c752481c8b37555dbfb5905b9113bb4d24e6b553eda8f68a69427cacfade64736f6c63430008060033",
  "linkReferences": {},
  "deployedLinkReferences": {}
}