{
  "_format": "hh-sol-artifact-1",
  "contractName": "FerryNFTMinter",
  "sourceName": "contracts/FerryNFTMinter.sol",
  "abi": [
    {
      "inputs": [
        {
          "internalType": "address",
          "name": "_ferry",
          "type": "address"
        },
        {
          "internalType": "address",
          "name": "_zoraMediaAddress",
          "type": "address"
        },
        {
          "internalType": "address",
          "name": "_vrfCoordinator",
          "type": "address"
        },
        {
          "internalType": "address",
          "name": "_link",
          "type": "address"
        },
        {
          "internalType": "bytes32",
          "name": "_keyHash",
          "type": "bytes32"
        }
      ],
      "stateMutability": "nonpayable",
      "type": "constructor"
    },
    {
      "anonymous": false,
      "inputs": [
        {
          "indexed": true,
          "internalType": "address",
          "name": "previousOwner",
          "type": "address"
        },
        {
          "indexed": true,
          "internalType": "address",
          "name": "newOwner",
          "type": "address"
        }
      ],
      "name": "OwnershipTransferred",
      "type": "event"
    },
    {
      "anonymous": false,
      "inputs": [
        {
          "indexed": false,
          "internalType": "bytes32",
          "name": "requestId",
          "type": "bytes32"
        }
      ],
      "name": "RequestedRandomness",
      "type": "event"
    },
    {
      "inputs": [],
      "name": "ferry",
      "outputs": [
        {
          "internalType": "address",
          "name": "",
          "type": "address"
        }
      ],
      "stateMutability": "view",
      "type": "function"
    },
    {
      "inputs": [
        {
          "internalType": "address",
          "name": "_account",
          "type": "address"
        },
        {
          "internalType": "uint256",
          "name": "_amount",
          "type": "uint256"
        }
      ],
      "name": "mint",
      "outputs": [],
      "stateMutability": "nonpayable",
      "type": "function"
    },
    {
      "inputs": [],
      "name": "owner",
      "outputs": [
        {
          "internalType": "address",
          "name": "",
          "type": "address"
        }
      ],
      "stateMutability": "view",
      "type": "function"
    },
    {
      "inputs": [],
      "name": "randomResult",
      "outputs": [
        {
          "internalType": "uint256",
          "name": "",
          "type": "uint256"
        }
      ],
      "stateMutability": "view",
      "type": "function"
    },
    {
      "inputs": [
        {
          "internalType": "bytes32",
          "name": "requestId",
          "type": "bytes32"
        },
        {
          "internalType": "uint256",
          "name": "randomness",
          "type": "uint256"
        }
      ],
      "name": "rawFulfillRandomness",
      "outputs": [],
      "stateMutability": "nonpayable",
      "type": "function"
    },
    {
      "inputs": [],
      "name": "renounceOwnership",
      "outputs": [],
      "stateMutability": "nonpayable",
      "type": "function"
    },
    {
      "inputs": [
        {
          "internalType": "address",
          "name": "newOwner",
          "type": "address"
        }
      ],
      "name": "transferOwnership",
      "outputs": [],
      "stateMutability": "nonpayable",
      "type": "function"
    },
    {
      "inputs": [],
      "name": "withdrawLINK",
      "outputs": [],
      "stateMutability": "nonpayable",
      "type": "function"
    }
  ],
  "bytecode": "0x60c06040523480156200001157600080fd5b5060405162001a6e38038062001a6e8339818101604052810190620000379190620002f2565b82828173ffffffffffffffffffffffffffffffffffffffff1660a08173ffffffffffffffffffffffffffffffffffffffff1660601b815250508073ffffffffffffffffffffffffffffffffffffffff1660808173ffffffffffffffffffffffffffffffffffffffff1660601b815250505050620000c9620000bd620001f660201b60201c565b620001fe60201b60201c565b84600260006101000a81548173ffffffffffffffffffffffffffffffffffffffff021916908373ffffffffffffffffffffffffffffffffffffffff16021790555083600360006101000a81548173ffffffffffffffffffffffffffffffffffffffff021916908373ffffffffffffffffffffffffffffffffffffffff16021790555080600881905550655af3107a400060098190555060405180606001604052806040518060200160405280600081525081526020016040518060200160405280600081525081526020016040518060200160405280606481525081525060056000820151816000016000820151816000015550506020820151816001016000820151816000015550506040820151816002016000820151816000015550509050505050505050620003f1565b600033905090565b6000600160009054906101000a900473ffffffffffffffffffffffffffffffffffffffff16905081600160006101000a81548173ffffffffffffffffffffffffffffffffffffffff021916908373ffffffffffffffffffffffffffffffffffffffff1602179055508173ffffffffffffffffffffffffffffffffffffffff168173ffffffffffffffffffffffffffffffffffffffff167f8be0079c531659141344cd1fd0a4f28419497f9722a3daafe3b4186f6b6457e060405160405180910390a35050565b600081519050620002d581620003bd565b92915050565b600081519050620002ec81620003d7565b92915050565b600080600080600060a08688031215620003115762000310620003b8565b5b60006200032188828901620002c4565b95505060206200033488828901620002c4565b94505060406200034788828901620002c4565b93505060606200035a88828901620002c4565b92505060806200036d88828901620002db565b9150509295509295909350565b6000620003878262000398565b9050919050565b6000819050919050565b600073ffffffffffffffffffffffffffffffffffffffff82169050919050565b600080fd5b620003c8816200037a565b8114620003d457600080fd5b50565b620003e2816200038e565b8114620003ee57600080fd5b50565b60805160601c60a05160601c61163c620004326000396000818161027001526109b6015260008181610388015281816103c5015261097a015261163c6000f3fe608060405234801561001057600080fd5b50600436106100885760003560e01c806394985ddd1161005b57806394985ddd146100ef578063adc2112f1461010b578063b66c76bc14610115578063f2fde38b1461013357610088565b806340c10f191461008d57806342619f66146100a9578063715018a6146100c75780638da5cb5b146100d1575b600080fd5b6100a760048036038101906100a29190610cb1565b61014f565b005b6100b16101b6565b6040516100be919061125a565b60405180910390f35b6100cf6101bc565b005b6100d9610244565b6040516100e6919061109f565b60405180910390f35b61010960048036038101906101049190610d4b565b61026e565b005b61011361030a565b005b61011d61051c565b60405161012a919061109f565b60405180910390f35b61014d60048036038101906101489190610c84565b610542565b005b3373ffffffffffffffffffffffffffffffffffffffff16600260009054906101000a900473ffffffffffffffffffffffffffffffffffffffff1673ffffffffffffffffffffffffffffffffffffffff16146101a957600080fd5b6101b161063a565b505050565b600a5481565b6101c4610686565b73ffffffffffffffffffffffffffffffffffffffff166101e2610244565b73ffffffffffffffffffffffffffffffffffffffff1614610238576040517f08c379a000000000000000000000000000000000000000000000000000000000815260040161022f906111ca565b60405180910390fd5b610242600061068e565b565b6000600160009054906101000a900473ffffffffffffffffffffffffffffffffffffffff16905090565b7f000000000000000000000000000000000000000000000000000000000000000073ffffffffffffffffffffffffffffffffffffffff163373ffffffffffffffffffffffffffffffffffffffff16146102fc576040517f08c379a00000000000000000000000000000000000000000000000000000000081526004016102f3906111ea565b60405180910390fd5b6103068282610754565b5050565b610312610686565b73ffffffffffffffffffffffffffffffffffffffff16610330610244565b73ffffffffffffffffffffffffffffffffffffffff1614610386576040517f08c379a000000000000000000000000000000000000000000000000000000000815260040161037d906111ca565b60405180910390fd5b7f000000000000000000000000000000000000000000000000000000000000000073ffffffffffffffffffffffffffffffffffffffff1663a9059cbb337f000000000000000000000000000000000000000000000000000000000000000073ffffffffffffffffffffffffffffffffffffffff166370a08231306040518263ffffffff1660e01b815260040161041c919061109f565b60206040518083038186803b15801561043457600080fd5b505afa158015610448573d6000803e3d6000fd5b505050506040513d601f19601f8201168201806040525081019061046c9190610d8b565b6040518363ffffffff1660e01b81526004016104899291906110ba565b602060405180830381600087803b1580156104a357600080fd5b505af11580156104b7573d6000803e3d6000fd5b505050506040513d601f19601f820116820180604052508101906104db9190610cf1565b61051a576040517f08c379a00000000000000000000000000000000000000000000000000000000081526004016105119061120a565b60405180910390fd5b565b600260009054906101000a900473ffffffffffffffffffffffffffffffffffffffff1681565b61054a610686565b73ffffffffffffffffffffffffffffffffffffffff16610568610244565b73ffffffffffffffffffffffffffffffffffffffff16146105be576040517f08c379a00000000000000000000000000000000000000000000000000000000081526004016105b5906111ca565b60405180910390fd5b600073ffffffffffffffffffffffffffffffffffffffff168173ffffffffffffffffffffffffffffffffffffffff16141561062e576040517f08c379a0000000000000000000000000000000000000000000000000000000008152600401610625906111aa565b60405180910390fd5b6106378161068e565b50565b600061064a600854600954610976565b90507fe5f5b44d72d4143c278eb745c4acc0695c4a5bc616be5beecf46abe29661780e8160405161067b9190611121565b60405180910390a190565b600033905090565b6000600160009054906101000a900473ffffffffffffffffffffffffffffffffffffffff16905081600160006101000a81548173ffffffffffffffffffffffffffffffffffffffff021916908373ffffffffffffffffffffffffffffffffffffffff1602179055508173ffffffffffffffffffffffffffffffffffffffff168173ffffffffffffffffffffffffffffffffffffffff167f8be0079c531659141344cd1fd0a4f28419497f9722a3daafe3b4186f6b6457e060405160405180910390a35050565b600060016103e88361076691906113dc565b61077091906112c9565b905061077b82610ad5565b6103e881141561078a576107ab565b6103d4811115610799576107aa565b61030c8111156107a8576107a9565b5b5b5b60006040518060400160405280601381526020017f68747470733a2f2f6578616d706c652e636f6d00000000000000000000000000815250905060006040518060400160405280601481526020017f68747470733a2f2f6d657461646174612e636f6d000000000000000000000000815250905060006040518060800160405280848152602001838152602001600260405161084690611075565b602060405180830381855afa158015610863573d6000803e3d6000fd5b5050506040513d601f19601f820116820180604052508101906108869190610d1e565b815260200160026040516108999061108a565b602060405180830381855afa1580156108b6573d6000803e3d6000fd5b5050506040513d601f19601f820116820180604052508101906108d99190610d1e565b8152509050600360009054906101000a900473ffffffffffffffffffffffffffffffffffffffff1673ffffffffffffffffffffffffffffffffffffffff16632cca32378260056040518363ffffffff1660e01b815260040161093c92919061122a565b600060405180830381600087803b15801561095657600080fd5b505af115801561096a573d6000803e3d6000fd5b50505050505050505050565b60007f000000000000000000000000000000000000000000000000000000000000000073ffffffffffffffffffffffffffffffffffffffff16634000aea07f0000000000000000000000000000000000000000000000000000000000000000848660006040516020016109ea92919061113c565b6040516020818303038152906040526040518463ffffffff1660e01b8152600401610a17939291906110e3565b602060405180830381600087803b158015610a3157600080fd5b505af1158015610a45573d6000803e3d6000fd5b505050506040513d601f19601f82011682018060405250810190610a699190610cf1565b506000610a8b8460003060008089815260200190815260200160002054610b6e565b9050600160008086815260200190815260200160002054610aac91906112c9565b60008086815260200190815260200160002081905550610acc8482610baa565b91505092915050565b610b6b81604051602401610ae9919061125a565b6040516020818303038152906040527ff5b1bba9000000000000000000000000000000000000000000000000000000007bffffffffffffffffffffffffffffffffffffffffffffffffffffffff19166020820180517bffffffffffffffffffffffffffffffffffffffffffffffffffffffff8381831617835250505050610bdd565b50565b600084848484604051602001610b879493929190611165565b6040516020818303038152906040528051906020012060001c9050949350505050565b60008282604051602001610bbf929190611049565b60405160208183030381529060405280519060200120905092915050565b60008151905060006a636f6e736f6c652e6c6f679050602083016000808483855afa5050505050565b600081359050610c15816115aa565b92915050565b600081519050610c2a816115c1565b92915050565b600081359050610c3f816115d8565b92915050565b600081519050610c54816115d8565b92915050565b600081359050610c69816115ef565b92915050565b600081519050610c7e816115ef565b92915050565b600060208284031215610c9a57610c9961146b565b5b6000610ca884828501610c06565b91505092915050565b60008060408385031215610cc857610cc761146b565b5b6000610cd685828601610c06565b9250506020610ce785828601610c5a565b9150509250929050565b600060208284031215610d0757610d0661146b565b5b6000610d1584828501610c1b565b91505092915050565b600060208284031215610d3457610d3361146b565b5b6000610d4284828501610c45565b91505092915050565b60008060408385031215610d6257610d6161146b565b5b6000610d7085828601610c30565b9250506020610d8185828601610c5a565b9150509250929050565b600060208284031215610da157610da061146b565b5b6000610daf84828501610c6f565b91505092915050565b610dc181611329565b82525050565b610dd081611347565b82525050565b610ddf81611347565b82525050565b610df6610df182611347565b6113c8565b82525050565b6000610e0782611275565b610e11818561128b565b9350610e2181856020860161137b565b610e2a81611470565b840191505092915050565b6000610e4082611280565b610e4a81856112a7565b9350610e5a81856020860161137b565b610e6381611470565b840191505092915050565b6000610e7b6026836112b8565b9150610e868261148e565b604082019050919050565b6000610e9e6020836112b8565b9150610ea9826114dd565b602082019050919050565b6000610ec160168361129c565b9150610ecc82611506565b601682019050919050565b6000610ee4601f836112b8565b9150610eef8261152f565b602082019050919050565b6000610f07601f836112b8565b9150610f1282611558565b602082019050919050565b6000610f2a60188361129c565b9150610f3582611581565b601882019050919050565b606082016000808301610f566000860182610f81565b5060018301610f686020860182610f81565b5060028301610f7a6040860182610f81565b5050505050565b602082016000808301549050610f96816113ae565b610fa36000860182611014565b5050505050565b60006080830160008301518482036000860152610fc78282610e35565b91505060208301518482036020860152610fe18282610e35565b9150506040830151610ff66040860182610dc7565b5060608301516110096060860182610dc7565b508091505092915050565b61101d81611371565b82525050565b61102c81611371565b82525050565b61104361103e82611371565b6113d2565b82525050565b60006110558285610de5565b6020820191506110658284611032565b6020820191508190509392505050565b600061108082610eb4565b9150819050919050565b600061109582610f1d565b9150819050919050565b60006020820190506110b46000830184610db8565b92915050565b60006040820190506110cf6000830185610db8565b6110dc6020830184611023565b9392505050565b60006060820190506110f86000830186610db8565b6111056020830185611023565b81810360408301526111178184610dfc565b9050949350505050565b60006020820190506111366000830184610dd6565b92915050565b60006040820190506111516000830185610dd6565b61115e6020830184611023565b9392505050565b600060808201905061117a6000830187610dd6565b6111876020830186611023565b6111946040830185610db8565b6111a16060830184611023565b95945050505050565b600060208201905081810360008301526111c381610e6e565b9050919050565b600060208201905081810360008301526111e381610e91565b9050919050565b6000602082019050818103600083015261120381610ed7565b9050919050565b6000602082019050818103600083015261122381610efa565b9050919050565b600060808201905081810360008301526112448185610faa565b90506112536020830184610f40565b9392505050565b600060208201905061126f6000830184611023565b92915050565b600081519050919050565b600081519050919050565b600082825260208201905092915050565b600081905092915050565b600082825260208201905092915050565b600082825260208201905092915050565b60006112d482611371565b91506112df83611371565b9250827fffffffffffffffffffffffffffffffffffffffffffffffffffffffffffffffff038211156113145761131361140d565b5b828201905092915050565b6000819050919050565b600061133482611351565b9050919050565b60008115159050919050565b6000819050919050565b600073ffffffffffffffffffffffffffffffffffffffff82169050919050565b6000819050919050565b60005b8381101561139957808201518184015260208101905061137e565b838111156113a8576000848401525b50505050565b60006113c16113bc83611481565b61131f565b9050919050565b6000819050919050565b6000819050919050565b60006113e782611371565b91506113f283611371565b9250826114025761140161143c565b5b828206905092915050565b7f4e487b7100000000000000000000000000000000000000000000000000000000600052601160045260246000fd5b7f4e487b7100000000000000000000000000000000000000000000000000000000600052601260045260246000fd5b600080fd5b6000601f19601f8301169050919050565b60008160001c9050919050565b7f4f776e61626c653a206e6577206f776e657220697320746865207a65726f206160008201527f6464726573730000000000000000000000000000000000000000000000000000602082015250565b7f4f776e61626c653a2063616c6c6572206973206e6f7420746865206f776e6572600082015250565b7f556e697175652053564720737472696e67206865726500000000000000000000600082015250565b7f4f6e6c7920565246436f6f7264696e61746f722063616e2066756c66696c6c00600082015250565b7f46455252595f4e46543a204c494e4b205749544844524157204641494c454400600082015250565b7f556e6971756520535647206d6574616461746120686572650000000000000000600082015250565b6115b381611329565b81146115be57600080fd5b50565b6115ca8161133b565b81146115d557600080fd5b50565b6115e181611347565b81146115ec57600080fd5b50565b6115f881611371565b811461160357600080fd5b5056fea2646970667358221220d4b3eee7ebaf508915ce5bd6e8102c9f333707ef3a9dc9f144177e631ce0f96664736f6c63430008060033",
  "linkReferences": {},
  "deployedLinkReferences": {}
}