{
  "_format": "hh-sol-artifact-1",
  "contractName": "FerryNFTMinter",
  "sourceName": "contracts/FerryNFTMinter.sol",
  "abi": [
    {
      "inputs": [
        {
          "internalType": "address",
          "name": "_ferry",
          "type": "address"
        },
        {
          "internalType": "address",
          "name": "_zoraMediaAddress",
          "type": "address"
        },
        {
          "internalType": "address",
          "name": "_vrfCoordinator",
          "type": "address"
        },
        {
          "internalType": "address",
          "name": "_link",
          "type": "address"
        },
        {
          "internalType": "bytes32",
          "name": "_keyHash",
          "type": "bytes32"
        }
      ],
      "stateMutability": "nonpayable",
      "type": "constructor"
    },
    {
      "anonymous": false,
      "inputs": [
        {
          "indexed": true,
          "internalType": "address",
          "name": "previousOwner",
          "type": "address"
        },
        {
          "indexed": true,
          "internalType": "address",
          "name": "newOwner",
          "type": "address"
        }
      ],
      "name": "OwnershipTransferred",
      "type": "event"
    },
    {
      "anonymous": false,
      "inputs": [
        {
          "indexed": false,
          "internalType": "bytes32",
          "name": "requestId",
          "type": "bytes32"
        }
      ],
      "name": "RandomnessFulfilled",
      "type": "event"
    },
    {
      "anonymous": false,
      "inputs": [
        {
          "indexed": false,
          "internalType": "bytes32",
          "name": "requestId",
          "type": "bytes32"
        }
      ],
      "name": "RequestedRandomness",
      "type": "event"
    },
    {
      "inputs": [
        {
          "internalType": "address",
          "name": "_account",
          "type": "address"
        }
      ],
      "name": "createNFT",
      "outputs": [],
      "stateMutability": "nonpayable",
      "type": "function"
    },
    {
      "inputs": [],
      "name": "ferry",
      "outputs": [
        {
          "internalType": "address",
          "name": "",
          "type": "address"
        }
      ],
      "stateMutability": "view",
      "type": "function"
    },
    {
      "inputs": [
        {
          "internalType": "address",
          "name": "_account",
          "type": "address"
        }
      ],
      "name": "getAccountRandomNum",
      "outputs": [
        {
          "internalType": "uint256",
          "name": "",
          "type": "uint256"
        }
      ],
      "stateMutability": "view",
      "type": "function"
    },
    {
      "inputs": [
        {
          "internalType": "address",
          "name": "_account",
          "type": "address"
        }
      ],
      "name": "mintNFT",
      "outputs": [],
      "stateMutability": "nonpayable",
      "type": "function"
    },
    {
      "inputs": [],
      "name": "owner",
      "outputs": [
        {
          "internalType": "address",
          "name": "",
          "type": "address"
        }
      ],
      "stateMutability": "view",
      "type": "function"
    },
    {
      "inputs": [],
      "name": "randomResult",
      "outputs": [
        {
          "internalType": "uint256",
          "name": "",
          "type": "uint256"
        }
      ],
      "stateMutability": "view",
      "type": "function"
    },
    {
      "inputs": [
        {
          "internalType": "bytes32",
          "name": "requestId",
          "type": "bytes32"
        },
        {
          "internalType": "uint256",
          "name": "randomness",
          "type": "uint256"
        }
      ],
      "name": "rawFulfillRandomness",
      "outputs": [],
      "stateMutability": "nonpayable",
      "type": "function"
    },
    {
      "inputs": [],
      "name": "renounceOwnership",
      "outputs": [],
      "stateMutability": "nonpayable",
      "type": "function"
    },
    {
      "inputs": [
        {
          "internalType": "address",
          "name": "newOwner",
          "type": "address"
        }
      ],
      "name": "transferOwnership",
      "outputs": [],
      "stateMutability": "nonpayable",
      "type": "function"
    },
    {
      "inputs": [],
      "name": "withdrawLINK",
      "outputs": [],
      "stateMutability": "nonpayable",
      "type": "function"
    }
  ],
  "bytecode": "0x60c06040523480156200001157600080fd5b5060405162001d3f38038062001d3f8339818101604052810190620000379190620002f2565b82828173ffffffffffffffffffffffffffffffffffffffff1660a08173ffffffffffffffffffffffffffffffffffffffff1660601b815250508073ffffffffffffffffffffffffffffffffffffffff1660808173ffffffffffffffffffffffffffffffffffffffff1660601b815250505050620000c9620000bd620001f660201b60201c565b620001fe60201b60201c565b84600260006101000a81548173ffffffffffffffffffffffffffffffffffffffff021916908373ffffffffffffffffffffffffffffffffffffffff16021790555083600360006101000a81548173ffffffffffffffffffffffffffffffffffffffff021916908373ffffffffffffffffffffffffffffffffffffffff16021790555080600981905550655af3107a4000600a8190555060405180606001604052806040518060200160405280600081525081526020016040518060200160405280600081525081526020016040518060200160405280606481525081525060066000820151816000016000820151816000015550506020820151816001016000820151816000015550506040820151816002016000820151816000015550509050505050505050620003f1565b600033905090565b6000600160009054906101000a900473ffffffffffffffffffffffffffffffffffffffff16905081600160006101000a81548173ffffffffffffffffffffffffffffffffffffffff021916908373ffffffffffffffffffffffffffffffffffffffff1602179055508173ffffffffffffffffffffffffffffffffffffffff168173ffffffffffffffffffffffffffffffffffffffff167f8be0079c531659141344cd1fd0a4f28419497f9722a3daafe3b4186f6b6457e060405160405180910390a35050565b600081519050620002d581620003bd565b92915050565b600081519050620002ec81620003d7565b92915050565b600080600080600060a08688031215620003115762000310620003b8565b5b60006200032188828901620002c4565b95505060206200033488828901620002c4565b94505060406200034788828901620002c4565b93505060606200035a88828901620002c4565b92505060806200036d88828901620002db565b9150509295509295909350565b6000620003878262000398565b9050919050565b6000819050919050565b600073ffffffffffffffffffffffffffffffffffffffff82169050919050565b600080fd5b620003c8816200037a565b8114620003d457600080fd5b50565b620003e2816200038e565b8114620003ee57600080fd5b50565b60805160601c60a05160601c61190d62000432600039600081816105ef0152610cf7015260008181610707015281816107440152610cbb015261190d6000f3fe608060405234801561001057600080fd5b506004361061009e5760003560e01c806394985ddd1161006657806394985ddd14610121578063adc2112f1461013d578063b66c76bc14610147578063f2fde38b14610165578063f687ce98146101815761009e565b806317e5883c146100a357806342619f66146100bf57806354ba0f27146100dd578063715018a6146100f95780638da5cb5b14610103575b600080fd5b6100bd60048036038101906100b89190610f03565b6101b1565b005b6100c761024e565b6040516100d491906114dc565b60405180910390f35b6100f760048036038101906100f29190610f03565b610254565b005b61010161053b565b005b61010b6105c3565b6040516101189190611301565b60405180910390f35b61013b60048036038101906101369190610f8a565b6105ed565b005b610145610689565b005b61014f61089b565b60405161015c9190611301565b60405180910390f35b61017f600480360381019061017a9190610f03565b6108c1565b005b61019b60048036038101906101969190610f03565b6109b9565b6040516101a891906114dc565b60405180910390f35b3373ffffffffffffffffffffffffffffffffffffffff16600260009054906101000a900473ffffffffffffffffffffffffffffffffffffffff1673ffffffffffffffffffffffffffffffffffffffff1614610241576040517f08c379a00000000000000000000000000000000000000000000000000000000081526004016102389061142c565b60405180910390fd5b61024a81610a02565b5050565b600b5481565b3373ffffffffffffffffffffffffffffffffffffffff16600260009054906101000a900473ffffffffffffffffffffffffffffffffffffffff1673ffffffffffffffffffffffffffffffffffffffff16146102e4576040517f08c379a00000000000000000000000000000000000000000000000000000000081526004016102db9061142c565b60405180910390fd5b600060016103e8600560008573ffffffffffffffffffffffffffffffffffffffff1673ffffffffffffffffffffffffffffffffffffffff16815260200190815260200160002054610335919061165e565b61033f919061154b565b90506103e881141561035057610371565b6103d481111561035f57610370565b61030c81111561036e5761036f565b5b5b5b60006040518060400160405280601481526020017f68747470733a2f2f6578616d706c652e636f6d2f000000000000000000000000815250905060006040518060400160405280601581526020017f68747470733a2f2f6d657461646174612e636f6d2f0000000000000000000000815250905060006040518060800160405280848152602001838152602001600260405161040c906112d7565b602060405180830381855afa158015610429573d6000803e3d6000fd5b5050506040513d601f19601f8201168201806040525081019061044c9190610f5d565b8152602001600260405161045f906112ec565b602060405180830381855afa15801561047c573d6000803e3d6000fd5b5050506040513d601f19601f8201168201806040525081019061049f9190610f5d565b8152509050600360009054906101000a900473ffffffffffffffffffffffffffffffffffffffff1673ffffffffffffffffffffffffffffffffffffffff16632cca32378260066040518363ffffffff1660e01b81526004016105029291906114ac565b600060405180830381600087803b15801561051c57600080fd5b505af1158015610530573d6000803e3d6000fd5b505050505050505050565b610543610aa2565b73ffffffffffffffffffffffffffffffffffffffff166105616105c3565b73ffffffffffffffffffffffffffffffffffffffff16146105b7576040517f08c379a00000000000000000000000000000000000000000000000000000000081526004016105ae9061144c565b60405180910390fd5b6105c16000610aaa565b565b6000600160009054906101000a900473ffffffffffffffffffffffffffffffffffffffff16905090565b7f000000000000000000000000000000000000000000000000000000000000000073ffffffffffffffffffffffffffffffffffffffff163373ffffffffffffffffffffffffffffffffffffffff161461067b576040517f08c379a00000000000000000000000000000000000000000000000000000000081526004016106729061146c565b60405180910390fd5b6106858282610b70565b5050565b610691610aa2565b73ffffffffffffffffffffffffffffffffffffffff166106af6105c3565b73ffffffffffffffffffffffffffffffffffffffff1614610705576040517f08c379a00000000000000000000000000000000000000000000000000000000081526004016106fc9061144c565b60405180910390fd5b7f000000000000000000000000000000000000000000000000000000000000000073ffffffffffffffffffffffffffffffffffffffff1663a9059cbb337f000000000000000000000000000000000000000000000000000000000000000073ffffffffffffffffffffffffffffffffffffffff166370a08231306040518263ffffffff1660e01b815260040161079b9190611301565b60206040518083038186803b1580156107b357600080fd5b505afa1580156107c7573d6000803e3d6000fd5b505050506040513d601f19601f820116820180604052508101906107eb9190610fca565b6040518363ffffffff1660e01b815260040161080892919061131c565b602060405180830381600087803b15801561082257600080fd5b505af1158015610836573d6000803e3d6000fd5b505050506040513d601f19601f8201168201806040525081019061085a9190610f30565b610899576040517f08c379a00000000000000000000000000000000000000000000000000000000081526004016108909061148c565b60405180910390fd5b565b600260009054906101000a900473ffffffffffffffffffffffffffffffffffffffff1681565b6108c9610aa2565b73ffffffffffffffffffffffffffffffffffffffff166108e76105c3565b73ffffffffffffffffffffffffffffffffffffffff161461093d576040517f08c379a00000000000000000000000000000000000000000000000000000000081526004016109349061144c565b60405180910390fd5b600073ffffffffffffffffffffffffffffffffffffffff168173ffffffffffffffffffffffffffffffffffffffff1614156109ad576040517f08c379a00000000000000000000000000000000000000000000000000000000081526004016109a49061140c565b60405180910390fd5b6109b681610aaa565b50565b6000600560008373ffffffffffffffffffffffffffffffffffffffff1673ffffffffffffffffffffffffffffffffffffffff168152602001908152602001600020549050919050565b6000610a12600954600a54610cb7565b9050816004600083815260200190815260200160002060006101000a81548173ffffffffffffffffffffffffffffffffffffffff021916908373ffffffffffffffffffffffffffffffffffffffff1602179055507fe5f5b44d72d4143c278eb745c4acc0695c4a5bc616be5beecf46abe29661780e81604051610a959190611383565b60405180910390a1919050565b600033905090565b6000600160009054906101000a900473ffffffffffffffffffffffffffffffffffffffff16905081600160006101000a81548173ffffffffffffffffffffffffffffffffffffffff021916908373ffffffffffffffffffffffffffffffffffffffff1602179055508173ffffffffffffffffffffffffffffffffffffffff168173ffffffffffffffffffffffffffffffffffffffff167f8be0079c531659141344cd1fd0a4f28419497f9722a3daafe3b4186f6b6457e060405160405180910390a35050565b60006004600084815260200190815260200160002060009054906101000a900473ffffffffffffffffffffffffffffffffffffffff16905081600560008373ffffffffffffffffffffffffffffffffffffffff1673ffffffffffffffffffffffffffffffffffffffff16815260200190815260200160002081905550600260009054906101000a900473ffffffffffffffffffffffffffffffffffffffff1673ffffffffffffffffffffffffffffffffffffffff166319683a7c82846040518363ffffffff1660e01b8152600401610c4992919061131c565b600060405180830381600087803b158015610c6357600080fd5b505af1158015610c77573d6000803e3d6000fd5b505050507fa312c4217fec2a5d353039350081a0149ed918efd6ec43d7f0e8a425f0715f1583604051610caa9190611383565b60405180910390a1505050565b60007f000000000000000000000000000000000000000000000000000000000000000073ffffffffffffffffffffffffffffffffffffffff16634000aea07f000000000000000000000000000000000000000000000000000000000000000084866000604051602001610d2b92919061139e565b6040516020818303038152906040526040518463ffffffff1660e01b8152600401610d5893929190611345565b602060405180830381600087803b158015610d7257600080fd5b505af1158015610d86573d6000803e3d6000fd5b505050506040513d601f19601f82011682018060405250810190610daa9190610f30565b506000610dcc8460003060008089815260200190815260200160002054610e16565b9050600160008086815260200190815260200160002054610ded919061154b565b60008086815260200190815260200160002081905550610e0d8482610e52565b91505092915050565b600084848484604051602001610e2f94939291906113c7565b6040516020818303038152906040528051906020012060001c9050949350505050565b60008282604051602001610e679291906112ab565b60405160208183030381529060405280519060200120905092915050565b600081359050610e948161187b565b92915050565b600081519050610ea981611892565b92915050565b600081359050610ebe816118a9565b92915050565b600081519050610ed3816118a9565b92915050565b600081359050610ee8816118c0565b92915050565b600081519050610efd816118c0565b92915050565b600060208284031215610f1957610f186116ed565b5b6000610f2784828501610e85565b91505092915050565b600060208284031215610f4657610f456116ed565b5b6000610f5484828501610e9a565b91505092915050565b600060208284031215610f7357610f726116ed565b5b6000610f8184828501610ec4565b91505092915050565b60008060408385031215610fa157610fa06116ed565b5b6000610faf85828601610eaf565b9250506020610fc085828601610ed9565b9150509250929050565b600060208284031215610fe057610fdf6116ed565b5b6000610fee84828501610eee565b91505092915050565b611000816115ab565b82525050565b61100f816115c9565b82525050565b61101e816115c9565b82525050565b611035611030826115c9565b61164a565b82525050565b6000611046826114f7565b611050818561150d565b93506110608185602086016115fd565b611069816116f2565b840191505092915050565b600061107f82611502565b6110898185611529565b93506110998185602086016115fd565b6110a2816116f2565b840191505092915050565b60006110ba60268361153a565b91506110c582611710565b604082019050919050565b60006110dd60238361153a565b91506110e88261175f565b604082019050919050565b600061110060208361153a565b915061110b826117ae565b602082019050919050565b600061112360168361151e565b915061112e826117d7565b601682019050919050565b6000611146601f8361153a565b915061115182611800565b602082019050919050565b6000611169601f8361153a565b915061117482611829565b602082019050919050565b600061118c60188361151e565b915061119782611852565b601882019050919050565b6060820160008083016111b860008601826111e3565b50600183016111ca60208601826111e3565b50600283016111dc60408601826111e3565b5050505050565b6020820160008083015490506111f881611630565b6112056000860182611276565b5050505050565b600060808301600083015184820360008601526112298282611074565b915050602083015184820360208601526112438282611074565b91505060408301516112586040860182611006565b50606083015161126b6060860182611006565b508091505092915050565b61127f816115f3565b82525050565b61128e816115f3565b82525050565b6112a56112a0826115f3565b611654565b82525050565b60006112b78285611024565b6020820191506112c78284611294565b6020820191508190509392505050565b60006112e282611116565b9150819050919050565b60006112f78261117f565b9150819050919050565b60006020820190506113166000830184610ff7565b92915050565b60006040820190506113316000830185610ff7565b61133e6020830184611285565b9392505050565b600060608201905061135a6000830186610ff7565b6113676020830185611285565b8181036040830152611379818461103b565b9050949350505050565b60006020820190506113986000830184611015565b92915050565b60006040820190506113b36000830185611015565b6113c06020830184611285565b9392505050565b60006080820190506113dc6000830187611015565b6113e96020830186611285565b6113f66040830185610ff7565b6114036060830184611285565b95945050505050565b60006020820190508181036000830152611425816110ad565b9050919050565b60006020820190508181036000830152611445816110d0565b9050919050565b60006020820190508181036000830152611465816110f3565b9050919050565b6000602082019050818103600083015261148581611139565b9050919050565b600060208201905081810360008301526114a58161115c565b9050919050565b600060808201905081810360008301526114c6818561120c565b90506114d560208301846111a2565b9392505050565b60006020820190506114f16000830184611285565b92915050565b600081519050919050565b600081519050919050565b600082825260208201905092915050565b600081905092915050565b600082825260208201905092915050565b600082825260208201905092915050565b6000611556826115f3565b9150611561836115f3565b9250827fffffffffffffffffffffffffffffffffffffffffffffffffffffffffffffffff038211156115965761159561168f565b5b828201905092915050565b6000819050919050565b60006115b6826115d3565b9050919050565b60008115159050919050565b6000819050919050565b600073ffffffffffffffffffffffffffffffffffffffff82169050919050565b6000819050919050565b60005b8381101561161b578082015181840152602081019050611600565b8381111561162a576000848401525b50505050565b600061164361163e83611703565b6115a1565b9050919050565b6000819050919050565b6000819050919050565b6000611669826115f3565b9150611674836115f3565b925082611684576116836116be565b5b828206905092915050565b7f4e487b7100000000000000000000000000000000000000000000000000000000600052601160045260246000fd5b7f4e487b7100000000000000000000000000000000000000000000000000000000600052601260045260246000fd5b600080fd5b6000601f19601f8301169050919050565b60008160001c9050919050565b7f4f776e61626c653a206e6577206f776e657220697320746865207a65726f206160008201527f6464726573730000000000000000000000000000000000000000000000000000602082015250565b7f46455252595f4e46543a204f4e4c5920464552525920495320415554484f524960008201527f5a45440000000000000000000000000000000000000000000000000000000000602082015250565b7f4f776e61626c653a2063616c6c6572206973206e6f7420746865206f776e6572600082015250565b7f556e697175652053564720737472696e67206865726500000000000000000000600082015250565b7f4f6e6c7920565246436f6f7264696e61746f722063616e2066756c66696c6c00600082015250565b7f46455252595f4e46543a204c494e4b205749544844524157204641494c454400600082015250565b7f556e6971756520535647206d6574616461746120686572650000000000000000600082015250565b611884816115ab565b811461188f57600080fd5b50565b61189b816115bd565b81146118a657600080fd5b50565b6118b2816115c9565b81146118bd57600080fd5b50565b6118c9816115f3565b81146118d457600080fd5b5056fea2646970667358221220fc8716566390b3eda81fb7ff54137f7e62d4c4715c4c23d89916455b39e40c7764736f6c63430008060033",
  "linkReferences": {},
  "deployedLinkReferences": {}
}