{
  "_format": "hh-sol-artifact-1",
  "contractName": "FerryNFTMinter",
  "sourceName": "contracts/FerryNFTMinter.sol",
  "abi": [
    {
      "inputs": [
        {
          "internalType": "address",
          "name": "_ferry",
          "type": "address"
        },
        {
          "internalType": "address",
          "name": "_zoraMediaAddress",
          "type": "address"
        },
        {
          "internalType": "address",
          "name": "_vrfCoordinator",
          "type": "address"
        },
        {
          "internalType": "address",
          "name": "_link",
          "type": "address"
        },
        {
          "internalType": "bytes32",
          "name": "_keyHash",
          "type": "bytes32"
        }
      ],
      "stateMutability": "nonpayable",
      "type": "constructor"
    },
    {
      "anonymous": false,
      "inputs": [
        {
          "indexed": true,
          "internalType": "address",
          "name": "previousOwner",
          "type": "address"
        },
        {
          "indexed": true,
          "internalType": "address",
          "name": "newOwner",
          "type": "address"
        }
      ],
      "name": "OwnershipTransferred",
      "type": "event"
    },
    {
      "anonymous": false,
      "inputs": [
        {
          "indexed": false,
          "internalType": "bytes32",
          "name": "requestId",
          "type": "bytes32"
        }
      ],
      "name": "RandomnessFulfilled",
      "type": "event"
    },
    {
      "anonymous": false,
      "inputs": [
        {
          "indexed": false,
          "internalType": "bytes32",
          "name": "requestId",
          "type": "bytes32"
        }
      ],
      "name": "RequestedRandomness",
      "type": "event"
    },
    {
      "inputs": [],
      "name": "CommonNFT",
      "outputs": [
        {
          "internalType": "string",
          "name": "",
          "type": "string"
        }
      ],
      "stateMutability": "view",
      "type": "function"
    },
    {
      "inputs": [],
      "name": "EpicNFT",
      "outputs": [
        {
          "internalType": "string",
          "name": "",
          "type": "string"
        }
      ],
      "stateMutability": "view",
      "type": "function"
    },
    {
      "inputs": [],
      "name": "LegendaryNFT",
      "outputs": [
        {
          "internalType": "string",
          "name": "",
          "type": "string"
        }
      ],
      "stateMutability": "view",
      "type": "function"
    },
    {
      "inputs": [],
      "name": "RareNFT",
      "outputs": [
        {
          "internalType": "string",
          "name": "",
          "type": "string"
        }
      ],
      "stateMutability": "view",
      "type": "function"
    },
    {
      "inputs": [
        {
          "internalType": "address",
          "name": "_account",
          "type": "address"
        }
      ],
      "name": "createNFT",
      "outputs": [],
      "stateMutability": "nonpayable",
      "type": "function"
    },
    {
      "inputs": [],
      "name": "ferry",
      "outputs": [
        {
          "internalType": "address",
          "name": "",
          "type": "address"
        }
      ],
      "stateMutability": "view",
      "type": "function"
    },
    {
      "inputs": [
        {
          "internalType": "address",
          "name": "_account",
          "type": "address"
        }
      ],
      "name": "getAccountRandomNum",
      "outputs": [
        {
          "internalType": "uint256",
          "name": "",
          "type": "uint256"
        }
      ],
      "stateMutability": "view",
      "type": "function"
    },
    {
      "inputs": [
        {
          "internalType": "address",
          "name": "_account",
          "type": "address"
        }
      ],
      "name": "mintNFT",
      "outputs": [],
      "stateMutability": "nonpayable",
      "type": "function"
    },
    {
      "inputs": [
        {
          "internalType": "address",
          "name": "_operator",
          "type": "address"
        },
        {
          "internalType": "address",
          "name": "_from",
          "type": "address"
        },
        {
          "internalType": "uint256",
          "name": "_tokenId",
          "type": "uint256"
        },
        {
          "internalType": "bytes",
          "name": "_data",
          "type": "bytes"
        }
      ],
      "name": "onERC721Received",
      "outputs": [
        {
          "internalType": "bytes4",
          "name": "",
          "type": "bytes4"
        }
      ],
      "stateMutability": "nonpayable",
      "type": "function"
    },
    {
      "inputs": [],
      "name": "owner",
      "outputs": [
        {
          "internalType": "address",
          "name": "",
          "type": "address"
        }
      ],
      "stateMutability": "view",
      "type": "function"
    },
    {
      "inputs": [],
      "name": "randomResult",
      "outputs": [
        {
          "internalType": "uint256",
          "name": "",
          "type": "uint256"
        }
      ],
      "stateMutability": "view",
      "type": "function"
    },
    {
      "inputs": [
        {
          "internalType": "bytes32",
          "name": "requestId",
          "type": "bytes32"
        },
        {
          "internalType": "uint256",
          "name": "randomness",
          "type": "uint256"
        }
      ],
      "name": "rawFulfillRandomness",
      "outputs": [],
      "stateMutability": "nonpayable",
      "type": "function"
    },
    {
      "inputs": [],
      "name": "renounceOwnership",
      "outputs": [],
      "stateMutability": "nonpayable",
      "type": "function"
    },
    {
      "inputs": [
        {
          "internalType": "address",
          "name": "newOwner",
          "type": "address"
        }
      ],
      "name": "transferOwnership",
      "outputs": [],
      "stateMutability": "nonpayable",
      "type": "function"
    },
    {
      "inputs": [],
      "name": "withdrawLINK",
      "outputs": [],
      "stateMutability": "nonpayable",
      "type": "function"
    }
  ],
  "bytecode": "0x60c06040523480156200001157600080fd5b50604051620024c5380380620024c58339818101604052810190620000379190620002fa565b82828173ffffffffffffffffffffffffffffffffffffffff1660a08173ffffffffffffffffffffffffffffffffffffffff1660601b815250508073ffffffffffffffffffffffffffffffffffffffff1660808173ffffffffffffffffffffffffffffffffffffffff1660601b815250505050620000c9620000bd620001fe60201b60201c565b6200020660201b60201c565b84600260006101000a81548173ffffffffffffffffffffffffffffffffffffffff021916908373ffffffffffffffffffffffffffffffffffffffff16021790555083600460006101000a81548173ffffffffffffffffffffffffffffffffffffffff021916908373ffffffffffffffffffffffffffffffffffffffff16021790555080600a81905550655af3107a4000600b819055506040518060600160405280604051806020016040528060008152508152602001604051806020016040528060008152508152602001604051806020016040528068056bc75e2d6310000081525081525060076000820151816000016000820151816000015550506020820151816001016000820151816000015550506040820151816002016000820151816000015550509050505050505050620003f9565b600033905090565b6000600160009054906101000a900473ffffffffffffffffffffffffffffffffffffffff16905081600160006101000a81548173ffffffffffffffffffffffffffffffffffffffff021916908373ffffffffffffffffffffffffffffffffffffffff1602179055508173ffffffffffffffffffffffffffffffffffffffff168173ffffffffffffffffffffffffffffffffffffffff167f8be0079c531659141344cd1fd0a4f28419497f9722a3daafe3b4186f6b6457e060405160405180910390a35050565b600081519050620002dd81620003c5565b92915050565b600081519050620002f481620003df565b92915050565b600080600080600060a08688031215620003195762000318620003c0565b5b60006200032988828901620002cc565b95505060206200033c88828901620002cc565b94505060406200034f88828901620002cc565b93505060606200036288828901620002cc565b92505060806200037588828901620002e3565b9150509295509295909350565b60006200038f82620003a0565b9050919050565b6000819050919050565b600073ffffffffffffffffffffffffffffffffffffffff82169050919050565b600080fd5b620003d08162000382565b8114620003dc57600080fd5b50565b620003ea8162000396565b8114620003f657600080fd5b50565b60805160601c60a05160601c61208b6200043a600039600081816109aa01526110ea015260008181610ac201528181610aff01526110ae015261208b6000f3fe608060405234801561001057600080fd5b50600436106100f55760003560e01c80639385153b11610097578063c989edbb11610066578063c989edbb14610228578063f2fde38b14610246578063f687ce9814610262578063fd9ff62a14610292576100f5565b80639385153b146101c657806394985ddd146101e4578063adc2112f14610200578063b66c76bc1461020a576100f5565b806354ba0f27116100d357806354ba0f2714610164578063715018a6146101805780637ca8ad711461018a5780638da5cb5b146101a8576100f5565b8063150b7a02146100fa57806317e5883c1461012a57806342619f6614610146575b600080fd5b610114600480360381019061010f9190611379565b6102b0565b604051610121919061198d565b60405180910390f35b610144600480360381019061013f919061134c565b61046b565b005b61014e610508565b60405161015b9190611a9a565b60405180910390f35b61017e6004803603810190610179919061134c565b61050e565b005b6101886108be565b005b610192610946565b60405161019f91906119a8565b60405180910390f35b6101b0610962565b6040516101bd919061184b565b60405180910390f35b6101ce61098c565b6040516101db91906119a8565b60405180910390f35b6101fe60048036038101906101f9919061145b565b6109a8565b005b610208610a44565b005b610212610c56565b60405161021f919061184b565b60405180910390f35b610230610c7c565b60405161023d91906119a8565b60405180910390f35b610260600480360381019061025b919061134c565b610c98565b005b61027c6004803603810190610277919061134c565b610d90565b6040516102899190611a9a565b60405180910390f35b61029a610dd9565b6040516102a791906119a8565b60405180910390f35b6000600260009054906101000a900473ffffffffffffffffffffffffffffffffffffffff1673ffffffffffffffffffffffffffffffffffffffff166340e0e9e2600360009054906101000a900473ffffffffffffffffffffffffffffffffffffffff16866040518363ffffffff1660e01b815260040161033192919061189d565b600060405180830381600087803b15801561034b57600080fd5b505af115801561035f573d6000803e3d6000fd5b50505050600460009054906101000a900473ffffffffffffffffffffffffffffffffffffffff1673ffffffffffffffffffffffffffffffffffffffff166342842e0e30600360009054906101000a900473ffffffffffffffffffffffffffffffffffffffff16876040518463ffffffff1660e01b81526004016103e493929190611866565b600060405180830381600087803b1580156103fe57600080fd5b505af1158015610412573d6000803e3d6000fd5b505050506000600360006101000a81548173ffffffffffffffffffffffffffffffffffffffff021916908373ffffffffffffffffffffffffffffffffffffffff16021790555063150b7a0260e01b905095945050505050565b3373ffffffffffffffffffffffffffffffffffffffff16600260009054906101000a900473ffffffffffffffffffffffffffffffffffffffff1673ffffffffffffffffffffffffffffffffffffffff16146104fb576040517f08c379a00000000000000000000000000000000000000000000000000000000081526004016104f2906119ea565b60405180910390fd5b61050481610df5565b5050565b600c5481565b3373ffffffffffffffffffffffffffffffffffffffff16600260009054906101000a900473ffffffffffffffffffffffffffffffffffffffff1673ffffffffffffffffffffffffffffffffffffffff161461059e576040517f08c379a0000000000000000000000000000000000000000000000000000000008152600401610595906119ea565b60405180910390fd5b600060016103e8600660008573ffffffffffffffffffffffffffffffffffffffff1673ffffffffffffffffffffffffffffffffffffffff168152602001908152602001600020546105ef9190611c53565b6105f99190611b14565b905060606103e8821415610644576040518060400160405280600981526020017f4c4547454e444152590000000000000000000000000000000000000000000000815250905061070d565b6103d482111561068b576040518060400160405280600481526020017f4550494300000000000000000000000000000000000000000000000000000000815250905061070c565b61030c8211156106d2576040518060400160405280600481526020017f5241524500000000000000000000000000000000000000000000000000000000815250905061070b565b6040518060400160405280600681526020017f434f4d4d4f4e000000000000000000000000000000000000000000000000000081525090505b5b5b6000600282600660008773ffffffffffffffffffffffffffffffffffffffff1673ffffffffffffffffffffffffffffffffffffffff16815260200190815260200160002054604051602001610763929190611823565b60405160208183030381529060405260405161077f919061180c565b602060405180830381855afa15801561079c573d6000803e3d6000fd5b5050506040513d601f19601f820116820180604052508101906107bf919061142e565b90506000604051806080016040528084815260200184815260200183815260200183815250905084600360006101000a81548173ffffffffffffffffffffffffffffffffffffffff021916908373ffffffffffffffffffffffffffffffffffffffff160217905550600460009054906101000a900473ffffffffffffffffffffffffffffffffffffffff1673ffffffffffffffffffffffffffffffffffffffff16632cca32378260076040518363ffffffff1660e01b8152600401610885929190611a6a565b600060405180830381600087803b15801561089f57600080fd5b505af11580156108b3573d6000803e3d6000fd5b505050505050505050565b6108c6610e95565b73ffffffffffffffffffffffffffffffffffffffff166108e4610962565b73ffffffffffffffffffffffffffffffffffffffff161461093a576040517f08c379a000000000000000000000000000000000000000000000000000000000815260040161093190611a0a565b60405180910390fd5b6109446000610e9d565b565b6040518060a00160405280606f8152602001611fe7606f913981565b6000600160009054906101000a900473ffffffffffffffffffffffffffffffffffffffff16905090565b6040518060a00160405280606e8152602001611f79606e913981565b7f000000000000000000000000000000000000000000000000000000000000000073ffffffffffffffffffffffffffffffffffffffff163373ffffffffffffffffffffffffffffffffffffffff1614610a36576040517f08c379a0000000000000000000000000000000000000000000000000000000008152600401610a2d90611a2a565b60405180910390fd5b610a408282610f63565b5050565b610a4c610e95565b73ffffffffffffffffffffffffffffffffffffffff16610a6a610962565b73ffffffffffffffffffffffffffffffffffffffff1614610ac0576040517f08c379a0000000000000000000000000000000000000000000000000000000008152600401610ab790611a0a565b60405180910390fd5b7f000000000000000000000000000000000000000000000000000000000000000073ffffffffffffffffffffffffffffffffffffffff1663a9059cbb337f000000000000000000000000000000000000000000000000000000000000000073ffffffffffffffffffffffffffffffffffffffff166370a08231306040518263ffffffff1660e01b8152600401610b56919061184b565b60206040518083038186803b158015610b6e57600080fd5b505afa158015610b82573d6000803e3d6000fd5b505050506040513d601f19601f82011682018060405250810190610ba6919061149b565b6040518363ffffffff1660e01b8152600401610bc392919061189d565b602060405180830381600087803b158015610bdd57600080fd5b505af1158015610bf1573d6000803e3d6000fd5b505050506040513d601f19601f82011682018060405250810190610c159190611401565b610c54576040517f08c379a0000000000000000000000000000000000000000000000000000000008152600401610c4b90611a4a565b60405180910390fd5b565b600260009054906101000a900473ffffffffffffffffffffffffffffffffffffffff1681565b6040518060a0016040528060668152602001611e8f6066913981565b610ca0610e95565b73ffffffffffffffffffffffffffffffffffffffff16610cbe610962565b73ffffffffffffffffffffffffffffffffffffffff1614610d14576040517f08c379a0000000000000000000000000000000000000000000000000000000008152600401610d0b90611a0a565b60405180910390fd5b600073ffffffffffffffffffffffffffffffffffffffff168173ffffffffffffffffffffffffffffffffffffffff161415610d84576040517f08c379a0000000000000000000000000000000000000000000000000000000008152600401610d7b906119ca565b60405180910390fd5b610d8d81610e9d565b50565b6000600660008373ffffffffffffffffffffffffffffffffffffffff1673ffffffffffffffffffffffffffffffffffffffff168152602001908152602001600020549050919050565b6040518060c0016040528060848152602001611ef56084913981565b6000610e05600a54600b546110aa565b9050816005600083815260200190815260200160002060006101000a81548173ffffffffffffffffffffffffffffffffffffffff021916908373ffffffffffffffffffffffffffffffffffffffff1602179055507fe5f5b44d72d4143c278eb745c4acc0695c4a5bc616be5beecf46abe29661780e81604051610e889190611904565b60405180910390a1919050565b600033905090565b6000600160009054906101000a900473ffffffffffffffffffffffffffffffffffffffff16905081600160006101000a81548173ffffffffffffffffffffffffffffffffffffffff021916908373ffffffffffffffffffffffffffffffffffffffff1602179055508173ffffffffffffffffffffffffffffffffffffffff168173ffffffffffffffffffffffffffffffffffffffff167f8be0079c531659141344cd1fd0a4f28419497f9722a3daafe3b4186f6b6457e060405160405180910390a35050565b60006005600084815260200190815260200160002060009054906101000a900473ffffffffffffffffffffffffffffffffffffffff16905081600660008373ffffffffffffffffffffffffffffffffffffffff1673ffffffffffffffffffffffffffffffffffffffff16815260200190815260200160002081905550600260009054906101000a900473ffffffffffffffffffffffffffffffffffffffff1673ffffffffffffffffffffffffffffffffffffffff166319683a7c82846040518363ffffffff1660e01b815260040161103c92919061189d565b600060405180830381600087803b15801561105657600080fd5b505af115801561106a573d6000803e3d6000fd5b505050507fa312c4217fec2a5d353039350081a0149ed918efd6ec43d7f0e8a425f0715f158360405161109d9190611904565b60405180910390a1505050565b60007f000000000000000000000000000000000000000000000000000000000000000073ffffffffffffffffffffffffffffffffffffffff16634000aea07f00000000000000000000000000000000000000000000000000000000000000008486600060405160200161111e92919061191f565b6040516020818303038152906040526040518463ffffffff1660e01b815260040161114b939291906118c6565b602060405180830381600087803b15801561116557600080fd5b505af1158015611179573d6000803e3d6000fd5b505050506040513d601f19601f8201168201806040525081019061119d9190611401565b5060006111bf8460003060008089815260200190815260200160002054611209565b90506001600080868152602001908152602001600020546111e09190611b14565b600080868152602001908152602001600020819055506112008482611245565b91505092915050565b6000848484846040516020016112229493929190611948565b6040516020818303038152906040528051906020012060001c9050949350505050565b6000828260405160200161125a9291906117e0565b60405160208183030381529060405280519060200120905092915050565b60008135905061128781611e32565b92915050565b60008151905061129c81611e49565b92915050565b6000813590506112b181611e60565b92915050565b6000815190506112c681611e60565b92915050565b60008083601f8401126112e2576112e1611ce7565b5b8235905067ffffffffffffffff8111156112ff576112fe611ce2565b5b60208301915083600182028301111561131b5761131a611cec565b5b9250929050565b60008135905061133181611e77565b92915050565b60008151905061134681611e77565b92915050565b60006020828403121561136257611361611cf6565b5b600061137084828501611278565b91505092915050565b60008060008060006080868803121561139557611394611cf6565b5b60006113a388828901611278565b95505060206113b488828901611278565b94505060406113c588828901611322565b935050606086013567ffffffffffffffff8111156113e6576113e5611cf1565b5b6113f2888289016112cc565b92509250509295509295909350565b60006020828403121561141757611416611cf6565b5b60006114258482850161128d565b91505092915050565b60006020828403121561144457611443611cf6565b5b6000611452848285016112b7565b91505092915050565b6000806040838503121561147257611471611cf6565b5b6000611480858286016112a2565b925050602061149185828601611322565b9150509250929050565b6000602082840312156114b1576114b0611cf6565b5b60006114bf84828501611337565b91505092915050565b6114d181611b74565b82525050565b6114e081611b92565b82525050565b6114ef81611b92565b82525050565b61150661150182611b92565b611c3f565b82525050565b61151581611b9c565b82525050565b600061152682611ab5565b6115308185611acb565b9350611540818560208601611bf2565b61154981611cfb565b840191505092915050565b600061155f82611ab5565b6115698185611adc565b9350611579818560208601611bf2565b80840191505092915050565b600061159082611ac0565b61159a8185611ae7565b93506115aa818560208601611bf2565b6115b381611cfb565b840191505092915050565b60006115c982611ac0565b6115d38185611af8565b93506115e3818560208601611bf2565b6115ec81611cfb565b840191505092915050565b600061160282611ac0565b61160c8185611b09565b935061161c818560208601611bf2565b80840191505092915050565b6000611635602683611af8565b915061164082611d19565b604082019050919050565b6000611658602383611af8565b915061166382611d68565b604082019050919050565b600061167b602083611af8565b915061168682611db7565b602082019050919050565b600061169e601f83611af8565b91506116a982611de0565b602082019050919050565b60006116c1601f83611af8565b91506116cc82611e09565b602082019050919050565b6060820160008083016116ed6000860182611718565b50600183016116ff6020860182611718565b50600283016117116040860182611718565b5050505050565b60208201600080830154905061172d81611c25565b61173a60008601826117ab565b5050505050565b6000608083016000830151848203600086015261175e8282611585565b915050602083015184820360208601526117788282611585565b915050604083015161178d60408601826114d7565b5060608301516117a060608601826114d7565b508091505092915050565b6117b481611be8565b82525050565b6117c381611be8565b82525050565b6117da6117d582611be8565b611c49565b82525050565b60006117ec82856114f5565b6020820191506117fc82846117c9565b6020820191508190509392505050565b60006118188284611554565b915081905092915050565b600061182f82856115f7565b915061183b82846117c9565b6020820191508190509392505050565b600060208201905061186060008301846114c8565b92915050565b600060608201905061187b60008301866114c8565b61188860208301856114c8565b61189560408301846117ba565b949350505050565b60006040820190506118b260008301856114c8565b6118bf60208301846117ba565b9392505050565b60006060820190506118db60008301866114c8565b6118e860208301856117ba565b81810360408301526118fa818461151b565b9050949350505050565b600060208201905061191960008301846114e6565b92915050565b600060408201905061193460008301856114e6565b61194160208301846117ba565b9392505050565b600060808201905061195d60008301876114e6565b61196a60208301866117ba565b61197760408301856114c8565b61198460608301846117ba565b95945050505050565b60006020820190506119a2600083018461150c565b92915050565b600060208201905081810360008301526119c281846115be565b905092915050565b600060208201905081810360008301526119e381611628565b9050919050565b60006020820190508181036000830152611a038161164b565b9050919050565b60006020820190508181036000830152611a238161166e565b9050919050565b60006020820190508181036000830152611a4381611691565b9050919050565b60006020820190508181036000830152611a63816116b4565b9050919050565b60006080820190508181036000830152611a848185611741565b9050611a9360208301846116d7565b9392505050565b6000602082019050611aaf60008301846117ba565b92915050565b600081519050919050565b600081519050919050565b600082825260208201905092915050565b600081905092915050565b600082825260208201905092915050565b600082825260208201905092915050565b600081905092915050565b6000611b1f82611be8565b9150611b2a83611be8565b9250827fffffffffffffffffffffffffffffffffffffffffffffffffffffffffffffffff03821115611b5f57611b5e611c84565b5b828201905092915050565b6000819050919050565b6000611b7f82611bc8565b9050919050565b60008115159050919050565b6000819050919050565b60007fffffffff0000000000000000000000000000000000000000000000000000000082169050919050565b600073ffffffffffffffffffffffffffffffffffffffff82169050919050565b6000819050919050565b60005b83811015611c10578082015181840152602081019050611bf5565b83811115611c1f576000848401525b50505050565b6000611c38611c3383611d0c565b611b6a565b9050919050565b6000819050919050565b6000819050919050565b6000611c5e82611be8565b9150611c6983611be8565b925082611c7957611c78611cb3565b5b828206905092915050565b7f4e487b7100000000000000000000000000000000000000000000000000000000600052601160045260246000fd5b7f4e487b7100000000000000000000000000000000000000000000000000000000600052601260045260246000fd5b600080fd5b600080fd5b600080fd5b600080fd5b600080fd5b6000601f19601f8301169050919050565b60008160001c9050919050565b7f4f776e61626c653a206e6577206f776e657220697320746865207a65726f206160008201527f6464726573730000000000000000000000000000000000000000000000000000602082015250565b7f46455252595f4e46543a204f4e4c5920464552525920495320415554484f524960008201527f5a45440000000000000000000000000000000000000000000000000000000000602082015250565b7f4f776e61626c653a2063616c6c6572206973206e6f7420746865206f776e6572600082015250565b7f4f6e6c7920565246436f6f7264696e61746f722063616e2066756c66696c6c00600082015250565b7f46455252595f4e46543a204c494e4b205749544844524157204641494c454400600082015250565b611e3b81611b74565b8114611e4657600080fd5b50565b611e5281611b86565b8114611e5d57600080fd5b50565b611e6981611b92565b8114611e7457600080fd5b50565b611e8081611be8565b8114611e8b57600080fd5b5056fe68747470733a2f2f626166796265696674677871706d34326e70686c7670676f35666b34723679707a65647378776264336832353635326c77677a36636e6f797278612e697066732e647765622e6c696e6b2f526172652532305369676874696e672e73766768747470733a2f2f6261667962656967656a683275617a63646c79706b336b7a757471736a753737766876746b6161696332696c32706b6c32376277753368336176792e697066732e647765622e6c696e6b2f596f752532304c6f6f6b253230536f253230476f6f64253230496e2532305465616c2532302d253230457069632e73766768747470733a2f2f62616679626569643674667968787877346b636676337679696d7776346c7069656d6b687364666c326b616d6167757273697833326836636464612e697066732e647765622e6c696e6b2f436f6d6d6f6e2532304c6974746c6525323046657272792e73766768747470733a2f2f626166796265696670756b617a6f7a6d71346271346b7736716868776137636978686a69657076783376616571636b3479713563697472647263712e697066732e647765622e6c696e6b2f536f6c6964253230476f6c642532304c6567656e646172792e737667a2646970667358221220160878572329d4b3c1580ca424d28581235f35f63878d0eec335b73f6a80c34564736f6c63430008060033",
  "linkReferences": {},
  "deployedLinkReferences": {}
}