{
  "_format": "hh-sol-artifact-1",
  "contractName": "FerryNFTMinter",
  "sourceName": "contracts/FerryNFTMinter.sol",
  "abi": [
    {
      "inputs": [
        {
          "internalType": "address",
          "name": "_ferry",
          "type": "address"
        },
        {
          "internalType": "address",
          "name": "_zoraMediaAddress",
          "type": "address"
        },
        {
          "internalType": "address",
          "name": "_vrfCoordinator",
          "type": "address"
        },
        {
          "internalType": "address",
          "name": "_link",
          "type": "address"
        },
        {
          "internalType": "bytes32",
          "name": "_keyHash",
          "type": "bytes32"
        }
      ],
      "stateMutability": "nonpayable",
      "type": "constructor"
    },
    {
      "anonymous": false,
      "inputs": [
        {
          "indexed": true,
          "internalType": "address",
          "name": "previousOwner",
          "type": "address"
        },
        {
          "indexed": true,
          "internalType": "address",
          "name": "newOwner",
          "type": "address"
        }
      ],
      "name": "OwnershipTransferred",
      "type": "event"
    },
    {
      "anonymous": false,
      "inputs": [
        {
          "indexed": false,
          "internalType": "bytes32",
          "name": "requestId",
          "type": "bytes32"
        }
      ],
      "name": "RequestedRandomness",
      "type": "event"
    },
    {
      "inputs": [],
      "name": "ferry",
      "outputs": [
        {
          "internalType": "address",
          "name": "",
          "type": "address"
        }
      ],
      "stateMutability": "view",
      "type": "function"
    },
    {
      "inputs": [],
      "name": "mint",
      "outputs": [],
      "stateMutability": "nonpayable",
      "type": "function"
    },
    {
      "inputs": [],
      "name": "owner",
      "outputs": [
        {
          "internalType": "address",
          "name": "",
          "type": "address"
        }
      ],
      "stateMutability": "view",
      "type": "function"
    },
    {
      "inputs": [],
      "name": "randomResult",
      "outputs": [
        {
          "internalType": "uint256",
          "name": "",
          "type": "uint256"
        }
      ],
      "stateMutability": "view",
      "type": "function"
    },
    {
      "inputs": [
        {
          "internalType": "bytes32",
          "name": "requestId",
          "type": "bytes32"
        },
        {
          "internalType": "uint256",
          "name": "randomness",
          "type": "uint256"
        }
      ],
      "name": "rawFulfillRandomness",
      "outputs": [],
      "stateMutability": "nonpayable",
      "type": "function"
    },
    {
      "inputs": [],
      "name": "renounceOwnership",
      "outputs": [],
      "stateMutability": "nonpayable",
      "type": "function"
    },
    {
      "inputs": [
        {
          "internalType": "address",
          "name": "newOwner",
          "type": "address"
        }
      ],
      "name": "transferOwnership",
      "outputs": [],
      "stateMutability": "nonpayable",
      "type": "function"
    },
    {
      "inputs": [],
      "name": "withdrawLINK",
      "outputs": [],
      "stateMutability": "nonpayable",
      "type": "function"
    }
  ],
  "bytecode": "0x60c06040523480156200001157600080fd5b5060405162001956380380620019568339818101604052810190620000379190620002f2565b82828173ffffffffffffffffffffffffffffffffffffffff1660a08173ffffffffffffffffffffffffffffffffffffffff1660601b815250508073ffffffffffffffffffffffffffffffffffffffff1660808173ffffffffffffffffffffffffffffffffffffffff1660601b815250505050620000c9620000bd620001f660201b60201c565b620001fe60201b60201c565b84600260006101000a81548173ffffffffffffffffffffffffffffffffffffffff021916908373ffffffffffffffffffffffffffffffffffffffff16021790555083600360006101000a81548173ffffffffffffffffffffffffffffffffffffffff021916908373ffffffffffffffffffffffffffffffffffffffff16021790555080600881905550655af3107a400060098190555060405180606001604052806040518060200160405280600081525081526020016040518060200160405280600081525081526020016040518060200160405280606481525081525060056000820151816000016000820151816000015550506020820151816001016000820151816000015550506040820151816002016000820151816000015550509050505050505050620003f1565b600033905090565b6000600160009054906101000a900473ffffffffffffffffffffffffffffffffffffffff16905081600160006101000a81548173ffffffffffffffffffffffffffffffffffffffff021916908373ffffffffffffffffffffffffffffffffffffffff1602179055508173ffffffffffffffffffffffffffffffffffffffff168173ffffffffffffffffffffffffffffffffffffffff167f8be0079c531659141344cd1fd0a4f28419497f9722a3daafe3b4186f6b6457e060405160405180910390a35050565b600081519050620002d581620003bd565b92915050565b600081519050620002ec81620003d7565b92915050565b600080600080600060a08688031215620003115762000310620003b8565b5b60006200032188828901620002c4565b95505060206200033488828901620002c4565b94505060406200034788828901620002c4565b93505060606200035a88828901620002c4565b92505060806200036d88828901620002db565b9150509295509295909350565b6000620003878262000398565b9050919050565b6000819050919050565b600073ffffffffffffffffffffffffffffffffffffffff82169050919050565b600080fd5b620003c8816200037a565b8114620003d457600080fd5b50565b620003e2816200038e565b8114620003ee57600080fd5b50565b60805160601c60a05160601c611524620004326000396000818161025c01526109a0015260008181610374015281816103b1015261096401526115246000f3fe608060405234801561001057600080fd5b50600436106100885760003560e01c806394985ddd1161005b57806394985ddd146100dd578063adc2112f146100f9578063b66c76bc14610103578063f2fde38b1461012157610088565b80631249c58b1461008d57806342619f6614610097578063715018a6146100b55780638da5cb5b146100bf575b600080fd5b61009561013d565b005b61009f6101a2565b6040516100ac9190611142565b60405180910390f35b6100bd6101a8565b005b6100c7610230565b6040516100d49190610f87565b60405180910390f35b6100f760048036038101906100f29190610c33565b61025a565b005b6101016102f6565b005b61010b610508565b6040516101189190610f87565b60405180910390f35b61013b60048036038101906101369190610bac565b61052e565b005b3373ffffffffffffffffffffffffffffffffffffffff16600260009054906101000a900473ffffffffffffffffffffffffffffffffffffffff1673ffffffffffffffffffffffffffffffffffffffff161461019757600080fd5b61019f610626565b50565b600a5481565b6101b0610672565b73ffffffffffffffffffffffffffffffffffffffff166101ce610230565b73ffffffffffffffffffffffffffffffffffffffff1614610224576040517f08c379a000000000000000000000000000000000000000000000000000000000815260040161021b906110b2565b60405180910390fd5b61022e600061067a565b565b6000600160009054906101000a900473ffffffffffffffffffffffffffffffffffffffff16905090565b7f000000000000000000000000000000000000000000000000000000000000000073ffffffffffffffffffffffffffffffffffffffff163373ffffffffffffffffffffffffffffffffffffffff16146102e8576040517f08c379a00000000000000000000000000000000000000000000000000000000081526004016102df906110d2565b60405180910390fd5b6102f28282610740565b5050565b6102fe610672565b73ffffffffffffffffffffffffffffffffffffffff1661031c610230565b73ffffffffffffffffffffffffffffffffffffffff1614610372576040517f08c379a0000000000000000000000000000000000000000000000000000000008152600401610369906110b2565b60405180910390fd5b7f000000000000000000000000000000000000000000000000000000000000000073ffffffffffffffffffffffffffffffffffffffff1663a9059cbb337f000000000000000000000000000000000000000000000000000000000000000073ffffffffffffffffffffffffffffffffffffffff166370a08231306040518263ffffffff1660e01b81526004016104089190610f87565b60206040518083038186803b15801561042057600080fd5b505afa158015610434573d6000803e3d6000fd5b505050506040513d601f19601f820116820180604052508101906104589190610c73565b6040518363ffffffff1660e01b8152600401610475929190610fa2565b602060405180830381600087803b15801561048f57600080fd5b505af11580156104a3573d6000803e3d6000fd5b505050506040513d601f19601f820116820180604052508101906104c79190610bd9565b610506576040517f08c379a00000000000000000000000000000000000000000000000000000000081526004016104fd906110f2565b60405180910390fd5b565b600260009054906101000a900473ffffffffffffffffffffffffffffffffffffffff1681565b610536610672565b73ffffffffffffffffffffffffffffffffffffffff16610554610230565b73ffffffffffffffffffffffffffffffffffffffff16146105aa576040517f08c379a00000000000000000000000000000000000000000000000000000000081526004016105a1906110b2565b60405180910390fd5b600073ffffffffffffffffffffffffffffffffffffffff168173ffffffffffffffffffffffffffffffffffffffff16141561061a576040517f08c379a000000000000000000000000000000000000000000000000000000000815260040161061190611092565b60405180910390fd5b6106238161067a565b50565b6000610636600854600954610960565b90507fe5f5b44d72d4143c278eb745c4acc0695c4a5bc616be5beecf46abe29661780e816040516106679190611009565b60405180910390a190565b600033905090565b6000600160009054906101000a900473ffffffffffffffffffffffffffffffffffffffff16905081600160006101000a81548173ffffffffffffffffffffffffffffffffffffffff021916908373ffffffffffffffffffffffffffffffffffffffff1602179055508173ffffffffffffffffffffffffffffffffffffffff168173ffffffffffffffffffffffffffffffffffffffff167f8be0079c531659141344cd1fd0a4f28419497f9722a3daafe3b4186f6b6457e060405160405180910390a35050565b80600a81905550600060016103e88361075991906112c4565b61076391906111b1565b90506103e881141561077457610795565b6103d481111561078357610794565b61030c81111561079257610793565b5b5b5b60006040518060400160405280601381526020017f68747470733a2f2f6578616d706c652e636f6d00000000000000000000000000815250905060006040518060400160405280601481526020017f68747470733a2f2f6d657461646174612e636f6d000000000000000000000000815250905060006040518060800160405280848152602001838152602001600260405161083090610f5d565b602060405180830381855afa15801561084d573d6000803e3d6000fd5b5050506040513d601f19601f820116820180604052508101906108709190610c06565b8152602001600260405161088390610f72565b602060405180830381855afa1580156108a0573d6000803e3d6000fd5b5050506040513d601f19601f820116820180604052508101906108c39190610c06565b8152509050600360009054906101000a900473ffffffffffffffffffffffffffffffffffffffff1673ffffffffffffffffffffffffffffffffffffffff16632cca32378260056040518363ffffffff1660e01b8152600401610926929190611112565b600060405180830381600087803b15801561094057600080fd5b505af1158015610954573d6000803e3d6000fd5b50505050505050505050565b60007f000000000000000000000000000000000000000000000000000000000000000073ffffffffffffffffffffffffffffffffffffffff16634000aea07f0000000000000000000000000000000000000000000000000000000000000000848660006040516020016109d4929190611024565b6040516020818303038152906040526040518463ffffffff1660e01b8152600401610a0193929190610fcb565b602060405180830381600087803b158015610a1b57600080fd5b505af1158015610a2f573d6000803e3d6000fd5b505050506040513d601f19601f82011682018060405250810190610a539190610bd9565b506000610a758460003060008089815260200190815260200160002054610abf565b9050600160008086815260200190815260200160002054610a9691906111b1565b60008086815260200190815260200160002081905550610ab68482610afb565b91505092915050565b600084848484604051602001610ad8949392919061104d565b6040516020818303038152906040528051906020012060001c9050949350505050565b60008282604051602001610b10929190610f31565b60405160208183030381529060405280519060200120905092915050565b600081359050610b3d81611492565b92915050565b600081519050610b52816114a9565b92915050565b600081359050610b67816114c0565b92915050565b600081519050610b7c816114c0565b92915050565b600081359050610b91816114d7565b92915050565b600081519050610ba6816114d7565b92915050565b600060208284031215610bc257610bc1611353565b5b6000610bd084828501610b2e565b91505092915050565b600060208284031215610bef57610bee611353565b5b6000610bfd84828501610b43565b91505092915050565b600060208284031215610c1c57610c1b611353565b5b6000610c2a84828501610b6d565b91505092915050565b60008060408385031215610c4a57610c49611353565b5b6000610c5885828601610b58565b9250506020610c6985828601610b82565b9150509250929050565b600060208284031215610c8957610c88611353565b5b6000610c9784828501610b97565b91505092915050565b610ca981611211565b82525050565b610cb88161122f565b82525050565b610cc78161122f565b82525050565b610cde610cd98261122f565b6112b0565b82525050565b6000610cef8261115d565b610cf98185611173565b9350610d09818560208601611263565b610d1281611358565b840191505092915050565b6000610d2882611168565b610d32818561118f565b9350610d42818560208601611263565b610d4b81611358565b840191505092915050565b6000610d636026836111a0565b9150610d6e82611376565b604082019050919050565b6000610d866020836111a0565b9150610d91826113c5565b602082019050919050565b6000610da9601683611184565b9150610db4826113ee565b601682019050919050565b6000610dcc601f836111a0565b9150610dd782611417565b602082019050919050565b6000610def601f836111a0565b9150610dfa82611440565b602082019050919050565b6000610e12601883611184565b9150610e1d82611469565b601882019050919050565b606082016000808301610e3e6000860182610e69565b5060018301610e506020860182610e69565b5060028301610e626040860182610e69565b5050505050565b602082016000808301549050610e7e81611296565b610e8b6000860182610efc565b5050505050565b60006080830160008301518482036000860152610eaf8282610d1d565b91505060208301518482036020860152610ec98282610d1d565b9150506040830151610ede6040860182610caf565b506060830151610ef16060860182610caf565b508091505092915050565b610f0581611259565b82525050565b610f1481611259565b82525050565b610f2b610f2682611259565b6112ba565b82525050565b6000610f3d8285610ccd565b602082019150610f4d8284610f1a565b6020820191508190509392505050565b6000610f6882610d9c565b9150819050919050565b6000610f7d82610e05565b9150819050919050565b6000602082019050610f9c6000830184610ca0565b92915050565b6000604082019050610fb76000830185610ca0565b610fc46020830184610f0b565b9392505050565b6000606082019050610fe06000830186610ca0565b610fed6020830185610f0b565b8181036040830152610fff8184610ce4565b9050949350505050565b600060208201905061101e6000830184610cbe565b92915050565b60006040820190506110396000830185610cbe565b6110466020830184610f0b565b9392505050565b60006080820190506110626000830187610cbe565b61106f6020830186610f0b565b61107c6040830185610ca0565b6110896060830184610f0b565b95945050505050565b600060208201905081810360008301526110ab81610d56565b9050919050565b600060208201905081810360008301526110cb81610d79565b9050919050565b600060208201905081810360008301526110eb81610dbf565b9050919050565b6000602082019050818103600083015261110b81610de2565b9050919050565b6000608082019050818103600083015261112c8185610e92565b905061113b6020830184610e28565b9392505050565b60006020820190506111576000830184610f0b565b92915050565b600081519050919050565b600081519050919050565b600082825260208201905092915050565b600081905092915050565b600082825260208201905092915050565b600082825260208201905092915050565b60006111bc82611259565b91506111c783611259565b9250827fffffffffffffffffffffffffffffffffffffffffffffffffffffffffffffffff038211156111fc576111fb6112f5565b5b828201905092915050565b6000819050919050565b600061121c82611239565b9050919050565b60008115159050919050565b6000819050919050565b600073ffffffffffffffffffffffffffffffffffffffff82169050919050565b6000819050919050565b60005b83811015611281578082015181840152602081019050611266565b83811115611290576000848401525b50505050565b60006112a96112a483611369565b611207565b9050919050565b6000819050919050565b6000819050919050565b60006112cf82611259565b91506112da83611259565b9250826112ea576112e9611324565b5b828206905092915050565b7f4e487b7100000000000000000000000000000000000000000000000000000000600052601160045260246000fd5b7f4e487b7100000000000000000000000000000000000000000000000000000000600052601260045260246000fd5b600080fd5b6000601f19601f8301169050919050565b60008160001c9050919050565b7f4f776e61626c653a206e6577206f776e657220697320746865207a65726f206160008201527f6464726573730000000000000000000000000000000000000000000000000000602082015250565b7f4f776e61626c653a2063616c6c6572206973206e6f7420746865206f776e6572600082015250565b7f556e697175652053564720737472696e67206865726500000000000000000000600082015250565b7f4f6e6c7920565246436f6f7264696e61746f722063616e2066756c66696c6c00600082015250565b7f46455252595f4e46543a204c494e4b205749544844524157204641494c454400600082015250565b7f556e6971756520535647206d6574616461746120686572650000000000000000600082015250565b61149b81611211565b81146114a657600080fd5b50565b6114b281611223565b81146114bd57600080fd5b50565b6114c98161122f565b81146114d457600080fd5b50565b6114e081611259565b81146114eb57600080fd5b5056fea2646970667358221220be87a779407353206a30dc62308324cee531f22c65a64db9f825939b15b6b69764736f6c63430008060033",
  "linkReferences": {},
  "deployedLinkReferences": {}
}