{
  "_format": "hh-sol-artifact-1",
  "contractName": "FerryNFTMinter",
  "sourceName": "contracts/FerryNFTMinter.sol",
  "abi": [
    {
      "inputs": [
        {
          "internalType": "address",
          "name": "_ferry",
          "type": "address"
        },
        {
          "internalType": "address",
          "name": "_zoraMediaAddress",
          "type": "address"
        },
        {
          "internalType": "address",
          "name": "_vrfCoordinator",
          "type": "address"
        },
        {
          "internalType": "address",
          "name": "_link",
          "type": "address"
        },
        {
          "internalType": "bytes32",
          "name": "_keyHash",
          "type": "bytes32"
        }
      ],
      "stateMutability": "nonpayable",
      "type": "constructor"
    },
    {
      "anonymous": false,
      "inputs": [
        {
          "indexed": true,
          "internalType": "address",
          "name": "previousOwner",
          "type": "address"
        },
        {
          "indexed": true,
          "internalType": "address",
          "name": "newOwner",
          "type": "address"
        }
      ],
      "name": "OwnershipTransferred",
      "type": "event"
    },
    {
      "anonymous": false,
      "inputs": [
        {
          "indexed": false,
          "internalType": "bytes32",
          "name": "requestId",
          "type": "bytes32"
        }
      ],
      "name": "RandomnessFulfilled",
      "type": "event"
    },
    {
      "anonymous": false,
      "inputs": [
        {
          "indexed": false,
          "internalType": "bytes32",
          "name": "requestId",
          "type": "bytes32"
        }
      ],
      "name": "RequestedRandomness",
      "type": "event"
    },
    {
      "inputs": [
        {
          "internalType": "address",
          "name": "_account",
          "type": "address"
        }
      ],
      "name": "createNFT",
      "outputs": [],
      "stateMutability": "nonpayable",
      "type": "function"
    },
    {
      "inputs": [],
      "name": "ferry",
      "outputs": [
        {
          "internalType": "address",
          "name": "",
          "type": "address"
        }
      ],
      "stateMutability": "view",
      "type": "function"
    },
    {
      "inputs": [
        {
          "internalType": "address",
          "name": "_account",
          "type": "address"
        }
      ],
      "name": "mintNFT",
      "outputs": [],
      "stateMutability": "nonpayable",
      "type": "function"
    },
    {
      "inputs": [],
      "name": "owner",
      "outputs": [
        {
          "internalType": "address",
          "name": "",
          "type": "address"
        }
      ],
      "stateMutability": "view",
      "type": "function"
    },
    {
      "inputs": [],
      "name": "randomResult",
      "outputs": [
        {
          "internalType": "uint256",
          "name": "",
          "type": "uint256"
        }
      ],
      "stateMutability": "view",
      "type": "function"
    },
    {
      "inputs": [
        {
          "internalType": "bytes32",
          "name": "requestId",
          "type": "bytes32"
        },
        {
          "internalType": "uint256",
          "name": "randomness",
          "type": "uint256"
        }
      ],
      "name": "rawFulfillRandomness",
      "outputs": [],
      "stateMutability": "nonpayable",
      "type": "function"
    },
    {
      "inputs": [],
      "name": "renounceOwnership",
      "outputs": [],
      "stateMutability": "nonpayable",
      "type": "function"
    },
    {
      "inputs": [
        {
          "internalType": "address",
          "name": "newOwner",
          "type": "address"
        }
      ],
      "name": "transferOwnership",
      "outputs": [],
      "stateMutability": "nonpayable",
      "type": "function"
    },
    {
      "inputs": [],
      "name": "withdrawLINK",
      "outputs": [],
      "stateMutability": "nonpayable",
      "type": "function"
    }
  ],
  "bytecode": "0x60c06040523480156200001157600080fd5b5060405162001cbb38038062001cbb8339818101604052810190620000379190620002f2565b82828173ffffffffffffffffffffffffffffffffffffffff1660a08173ffffffffffffffffffffffffffffffffffffffff1660601b815250508073ffffffffffffffffffffffffffffffffffffffff1660808173ffffffffffffffffffffffffffffffffffffffff1660601b815250505050620000c9620000bd620001f660201b60201c565b620001fe60201b60201c565b84600260006101000a81548173ffffffffffffffffffffffffffffffffffffffff021916908373ffffffffffffffffffffffffffffffffffffffff16021790555083600360006101000a81548173ffffffffffffffffffffffffffffffffffffffff021916908373ffffffffffffffffffffffffffffffffffffffff16021790555080600981905550655af3107a4000600a8190555060405180606001604052806040518060200160405280600081525081526020016040518060200160405280600081525081526020016040518060200160405280606481525081525060066000820151816000016000820151816000015550506020820151816001016000820151816000015550506040820151816002016000820151816000015550509050505050505050620003f1565b600033905090565b6000600160009054906101000a900473ffffffffffffffffffffffffffffffffffffffff16905081600160006101000a81548173ffffffffffffffffffffffffffffffffffffffff021916908373ffffffffffffffffffffffffffffffffffffffff1602179055508173ffffffffffffffffffffffffffffffffffffffff168173ffffffffffffffffffffffffffffffffffffffff167f8be0079c531659141344cd1fd0a4f28419497f9722a3daafe3b4186f6b6457e060405160405180910390a35050565b600081519050620002d581620003bd565b92915050565b600081519050620002ec81620003d7565b92915050565b600080600080600060a08688031215620003115762000310620003b8565b5b60006200032188828901620002c4565b95505060206200033488828901620002c4565b94505060406200034788828901620002c4565b93505060606200035a88828901620002c4565b92505060806200036d88828901620002db565b9150509295509295909350565b6000620003878262000398565b9050919050565b6000819050919050565b600073ffffffffffffffffffffffffffffffffffffffff82169050919050565b600080fd5b620003c8816200037a565b8114620003d457600080fd5b50565b620003e2816200038e565b8114620003ee57600080fd5b50565b60805160601c60a05160601c61188962000432600039600081816105b40152610c730152600081816106cc015281816107090152610c3701526118896000f3fe608060405234801561001057600080fd5b50600436106100935760003560e01c80638da5cb5b116100665780638da5cb5b146100f857806394985ddd14610116578063adc2112f14610132578063b66c76bc1461013c578063f2fde38b1461015a57610093565b806317e5883c1461009857806342619f66146100b457806354ba0f27146100d2578063715018a6146100ee575b600080fd5b6100b260048036038101906100ad9190610e7f565b610176565b005b6100bc610213565b6040516100c99190611458565b60405180910390f35b6100ec60048036038101906100e79190610e7f565b610219565b005b6100f6610500565b005b610100610588565b60405161010d919061127d565b60405180910390f35b610130600480360381019061012b9190610f06565b6105b2565b005b61013a61064e565b005b610144610860565b604051610151919061127d565b60405180910390f35b610174600480360381019061016f9190610e7f565b610886565b005b3373ffffffffffffffffffffffffffffffffffffffff16600260009054906101000a900473ffffffffffffffffffffffffffffffffffffffff1673ffffffffffffffffffffffffffffffffffffffff1614610206576040517f08c379a00000000000000000000000000000000000000000000000000000000081526004016101fd906113a8565b60405180910390fd5b61020f8161097e565b5050565b600b5481565b3373ffffffffffffffffffffffffffffffffffffffff16600260009054906101000a900473ffffffffffffffffffffffffffffffffffffffff1673ffffffffffffffffffffffffffffffffffffffff16146102a9576040517f08c379a00000000000000000000000000000000000000000000000000000000081526004016102a0906113a8565b60405180910390fd5b600060016103e8600560008573ffffffffffffffffffffffffffffffffffffffff1673ffffffffffffffffffffffffffffffffffffffff168152602001908152602001600020546102fa91906115da565b61030491906114c7565b90506103e881141561031557610336565b6103d481111561032457610335565b61030c81111561033357610334565b5b5b5b60006040518060400160405280601381526020017f68747470733a2f2f6578616d706c652e636f6d00000000000000000000000000815250905060006040518060400160405280601481526020017f68747470733a2f2f6d657461646174612e636f6d00000000000000000000000081525090506000604051806080016040528084815260200183815260200160026040516103d190611253565b602060405180830381855afa1580156103ee573d6000803e3d6000fd5b5050506040513d601f19601f820116820180604052508101906104119190610ed9565b8152602001600260405161042490611268565b602060405180830381855afa158015610441573d6000803e3d6000fd5b5050506040513d601f19601f820116820180604052508101906104649190610ed9565b8152509050600360009054906101000a900473ffffffffffffffffffffffffffffffffffffffff1673ffffffffffffffffffffffffffffffffffffffff16632cca32378260066040518363ffffffff1660e01b81526004016104c7929190611428565b600060405180830381600087803b1580156104e157600080fd5b505af11580156104f5573d6000803e3d6000fd5b505050505050505050565b610508610a1e565b73ffffffffffffffffffffffffffffffffffffffff16610526610588565b73ffffffffffffffffffffffffffffffffffffffff161461057c576040517f08c379a0000000000000000000000000000000000000000000000000000000008152600401610573906113c8565b60405180910390fd5b6105866000610a26565b565b6000600160009054906101000a900473ffffffffffffffffffffffffffffffffffffffff16905090565b7f000000000000000000000000000000000000000000000000000000000000000073ffffffffffffffffffffffffffffffffffffffff163373ffffffffffffffffffffffffffffffffffffffff1614610640576040517f08c379a0000000000000000000000000000000000000000000000000000000008152600401610637906113e8565b60405180910390fd5b61064a8282610aec565b5050565b610656610a1e565b73ffffffffffffffffffffffffffffffffffffffff16610674610588565b73ffffffffffffffffffffffffffffffffffffffff16146106ca576040517f08c379a00000000000000000000000000000000000000000000000000000000081526004016106c1906113c8565b60405180910390fd5b7f000000000000000000000000000000000000000000000000000000000000000073ffffffffffffffffffffffffffffffffffffffff1663a9059cbb337f000000000000000000000000000000000000000000000000000000000000000073ffffffffffffffffffffffffffffffffffffffff166370a08231306040518263ffffffff1660e01b8152600401610760919061127d565b60206040518083038186803b15801561077857600080fd5b505afa15801561078c573d6000803e3d6000fd5b505050506040513d601f19601f820116820180604052508101906107b09190610f46565b6040518363ffffffff1660e01b81526004016107cd929190611298565b602060405180830381600087803b1580156107e757600080fd5b505af11580156107fb573d6000803e3d6000fd5b505050506040513d601f19601f8201168201806040525081019061081f9190610eac565b61085e576040517f08c379a000000000000000000000000000000000000000000000000000000000815260040161085590611408565b60405180910390fd5b565b600260009054906101000a900473ffffffffffffffffffffffffffffffffffffffff1681565b61088e610a1e565b73ffffffffffffffffffffffffffffffffffffffff166108ac610588565b73ffffffffffffffffffffffffffffffffffffffff1614610902576040517f08c379a00000000000000000000000000000000000000000000000000000000081526004016108f9906113c8565b60405180910390fd5b600073ffffffffffffffffffffffffffffffffffffffff168173ffffffffffffffffffffffffffffffffffffffff161415610972576040517f08c379a000000000000000000000000000000000000000000000000000000000815260040161096990611388565b60405180910390fd5b61097b81610a26565b50565b600061098e600954600a54610c33565b9050816004600083815260200190815260200160002060006101000a81548173ffffffffffffffffffffffffffffffffffffffff021916908373ffffffffffffffffffffffffffffffffffffffff1602179055507fe5f5b44d72d4143c278eb745c4acc0695c4a5bc616be5beecf46abe29661780e81604051610a1191906112ff565b60405180910390a1919050565b600033905090565b6000600160009054906101000a900473ffffffffffffffffffffffffffffffffffffffff16905081600160006101000a81548173ffffffffffffffffffffffffffffffffffffffff021916908373ffffffffffffffffffffffffffffffffffffffff1602179055508173ffffffffffffffffffffffffffffffffffffffff168173ffffffffffffffffffffffffffffffffffffffff167f8be0079c531659141344cd1fd0a4f28419497f9722a3daafe3b4186f6b6457e060405160405180910390a35050565b60006004600084815260200190815260200160002060009054906101000a900473ffffffffffffffffffffffffffffffffffffffff16905081600560008373ffffffffffffffffffffffffffffffffffffffff1673ffffffffffffffffffffffffffffffffffffffff16815260200190815260200160002081905550600260009054906101000a900473ffffffffffffffffffffffffffffffffffffffff1673ffffffffffffffffffffffffffffffffffffffff166319683a7c82846040518363ffffffff1660e01b8152600401610bc5929190611298565b600060405180830381600087803b158015610bdf57600080fd5b505af1158015610bf3573d6000803e3d6000fd5b505050507fa312c4217fec2a5d353039350081a0149ed918efd6ec43d7f0e8a425f0715f1583604051610c2691906112ff565b60405180910390a1505050565b60007f000000000000000000000000000000000000000000000000000000000000000073ffffffffffffffffffffffffffffffffffffffff16634000aea07f000000000000000000000000000000000000000000000000000000000000000084866000604051602001610ca792919061131a565b6040516020818303038152906040526040518463ffffffff1660e01b8152600401610cd4939291906112c1565b602060405180830381600087803b158015610cee57600080fd5b505af1158015610d02573d6000803e3d6000fd5b505050506040513d601f19601f82011682018060405250810190610d269190610eac565b506000610d488460003060008089815260200190815260200160002054610d92565b9050600160008086815260200190815260200160002054610d6991906114c7565b60008086815260200190815260200160002081905550610d898482610dce565b91505092915050565b600084848484604051602001610dab9493929190611343565b6040516020818303038152906040528051906020012060001c9050949350505050565b60008282604051602001610de3929190611227565b60405160208183030381529060405280519060200120905092915050565b600081359050610e10816117f7565b92915050565b600081519050610e258161180e565b92915050565b600081359050610e3a81611825565b92915050565b600081519050610e4f81611825565b92915050565b600081359050610e648161183c565b92915050565b600081519050610e798161183c565b92915050565b600060208284031215610e9557610e94611669565b5b6000610ea384828501610e01565b91505092915050565b600060208284031215610ec257610ec1611669565b5b6000610ed084828501610e16565b91505092915050565b600060208284031215610eef57610eee611669565b5b6000610efd84828501610e40565b91505092915050565b60008060408385031215610f1d57610f1c611669565b5b6000610f2b85828601610e2b565b9250506020610f3c85828601610e55565b9150509250929050565b600060208284031215610f5c57610f5b611669565b5b6000610f6a84828501610e6a565b91505092915050565b610f7c81611527565b82525050565b610f8b81611545565b82525050565b610f9a81611545565b82525050565b610fb1610fac82611545565b6115c6565b82525050565b6000610fc282611473565b610fcc8185611489565b9350610fdc818560208601611579565b610fe58161166e565b840191505092915050565b6000610ffb8261147e565b61100581856114a5565b9350611015818560208601611579565b61101e8161166e565b840191505092915050565b60006110366026836114b6565b91506110418261168c565b604082019050919050565b60006110596023836114b6565b9150611064826116db565b604082019050919050565b600061107c6020836114b6565b91506110878261172a565b602082019050919050565b600061109f60168361149a565b91506110aa82611753565b601682019050919050565b60006110c2601f836114b6565b91506110cd8261177c565b602082019050919050565b60006110e5601f836114b6565b91506110f0826117a5565b602082019050919050565b600061110860188361149a565b9150611113826117ce565b601882019050919050565b606082016000808301611134600086018261115f565b5060018301611146602086018261115f565b5060028301611158604086018261115f565b5050505050565b602082016000808301549050611174816115ac565b61118160008601826111f2565b5050505050565b600060808301600083015184820360008601526111a58282610ff0565b915050602083015184820360208601526111bf8282610ff0565b91505060408301516111d46040860182610f82565b5060608301516111e76060860182610f82565b508091505092915050565b6111fb8161156f565b82525050565b61120a8161156f565b82525050565b61122161121c8261156f565b6115d0565b82525050565b60006112338285610fa0565b6020820191506112438284611210565b6020820191508190509392505050565b600061125e82611092565b9150819050919050565b6000611273826110fb565b9150819050919050565b60006020820190506112926000830184610f73565b92915050565b60006040820190506112ad6000830185610f73565b6112ba6020830184611201565b9392505050565b60006060820190506112d66000830186610f73565b6112e36020830185611201565b81810360408301526112f58184610fb7565b9050949350505050565b60006020820190506113146000830184610f91565b92915050565b600060408201905061132f6000830185610f91565b61133c6020830184611201565b9392505050565b60006080820190506113586000830187610f91565b6113656020830186611201565b6113726040830185610f73565b61137f6060830184611201565b95945050505050565b600060208201905081810360008301526113a181611029565b9050919050565b600060208201905081810360008301526113c18161104c565b9050919050565b600060208201905081810360008301526113e18161106f565b9050919050565b60006020820190508181036000830152611401816110b5565b9050919050565b60006020820190508181036000830152611421816110d8565b9050919050565b600060808201905081810360008301526114428185611188565b9050611451602083018461111e565b9392505050565b600060208201905061146d6000830184611201565b92915050565b600081519050919050565b600081519050919050565b600082825260208201905092915050565b600081905092915050565b600082825260208201905092915050565b600082825260208201905092915050565b60006114d28261156f565b91506114dd8361156f565b9250827fffffffffffffffffffffffffffffffffffffffffffffffffffffffffffffffff038211156115125761151161160b565b5b828201905092915050565b6000819050919050565b60006115328261154f565b9050919050565b60008115159050919050565b6000819050919050565b600073ffffffffffffffffffffffffffffffffffffffff82169050919050565b6000819050919050565b60005b8381101561159757808201518184015260208101905061157c565b838111156115a6576000848401525b50505050565b60006115bf6115ba8361167f565b61151d565b9050919050565b6000819050919050565b6000819050919050565b60006115e58261156f565b91506115f08361156f565b925082611600576115ff61163a565b5b828206905092915050565b7f4e487b7100000000000000000000000000000000000000000000000000000000600052601160045260246000fd5b7f4e487b7100000000000000000000000000000000000000000000000000000000600052601260045260246000fd5b600080fd5b6000601f19601f8301169050919050565b60008160001c9050919050565b7f4f776e61626c653a206e6577206f776e657220697320746865207a65726f206160008201527f6464726573730000000000000000000000000000000000000000000000000000602082015250565b7f46455252595f4e46543a204f4e4c5920464552525920495320415554484f524960008201527f5a45440000000000000000000000000000000000000000000000000000000000602082015250565b7f4f776e61626c653a2063616c6c6572206973206e6f7420746865206f776e6572600082015250565b7f556e697175652053564720737472696e67206865726500000000000000000000600082015250565b7f4f6e6c7920565246436f6f7264696e61746f722063616e2066756c66696c6c00600082015250565b7f46455252595f4e46543a204c494e4b205749544844524157204641494c454400600082015250565b7f556e6971756520535647206d6574616461746120686572650000000000000000600082015250565b61180081611527565b811461180b57600080fd5b50565b61181781611539565b811461182257600080fd5b50565b61182e81611545565b811461183957600080fd5b50565b6118458161156f565b811461185057600080fd5b5056fea264697066735822122010df54d152a3ab8872d16d5eb6383662386ac0d2f75ab2fd4d822015fb10e42164736f6c63430008060033",
  "linkReferences": {},
  "deployedLinkReferences": {}
}