{
  "_format": "hh-sol-artifact-1",
  "contractName": "FerryNFTMinter",
  "sourceName": "contracts/FerryNFTMinter.sol",
  "abi": [
    {
      "inputs": [
        {
          "internalType": "address",
          "name": "_ferry",
          "type": "address"
        },
        {
          "internalType": "address",
          "name": "_zoraMediaAddress",
          "type": "address"
        },
        {
          "internalType": "address",
          "name": "_vrfCoordinator",
          "type": "address"
        },
        {
          "internalType": "address",
          "name": "_link",
          "type": "address"
        },
        {
          "internalType": "bytes32",
          "name": "_keyHash",
          "type": "bytes32"
        },
        {
          "internalType": "uint256",
          "name": "_fee",
          "type": "uint256"
        }
      ],
      "stateMutability": "nonpayable",
      "type": "constructor"
    },
    {
      "anonymous": false,
      "inputs": [
        {
          "indexed": true,
          "internalType": "address",
          "name": "previousOwner",
          "type": "address"
        },
        {
          "indexed": true,
          "internalType": "address",
          "name": "newOwner",
          "type": "address"
        }
      ],
      "name": "OwnershipTransferred",
      "type": "event"
    },
    {
      "anonymous": false,
      "inputs": [
        {
          "indexed": false,
          "internalType": "bytes32",
          "name": "requestId",
          "type": "bytes32"
        }
      ],
      "name": "RequestedRandomness",
      "type": "event"
    },
    {
      "inputs": [],
      "name": "ferry",
      "outputs": [
        {
          "internalType": "address",
          "name": "",
          "type": "address"
        }
      ],
      "stateMutability": "view",
      "type": "function"
    },
    {
      "inputs": [],
      "name": "getRandomNumber",
      "outputs": [
        {
          "internalType": "bytes32",
          "name": "requestId",
          "type": "bytes32"
        }
      ],
      "stateMutability": "nonpayable",
      "type": "function"
    },
    {
      "inputs": [],
      "name": "mint",
      "outputs": [],
      "stateMutability": "nonpayable",
      "type": "function"
    },
    {
      "inputs": [],
      "name": "owner",
      "outputs": [
        {
          "internalType": "address",
          "name": "",
          "type": "address"
        }
      ],
      "stateMutability": "view",
      "type": "function"
    },
    {
      "inputs": [],
      "name": "randomResult",
      "outputs": [
        {
          "internalType": "uint256",
          "name": "",
          "type": "uint256"
        }
      ],
      "stateMutability": "view",
      "type": "function"
    },
    {
      "inputs": [
        {
          "internalType": "bytes32",
          "name": "requestId",
          "type": "bytes32"
        },
        {
          "internalType": "uint256",
          "name": "randomness",
          "type": "uint256"
        }
      ],
      "name": "rawFulfillRandomness",
      "outputs": [],
      "stateMutability": "nonpayable",
      "type": "function"
    },
    {
      "inputs": [],
      "name": "renounceOwnership",
      "outputs": [],
      "stateMutability": "nonpayable",
      "type": "function"
    },
    {
      "inputs": [
        {
          "internalType": "address",
          "name": "newOwner",
          "type": "address"
        }
      ],
      "name": "transferOwnership",
      "outputs": [],
      "stateMutability": "nonpayable",
      "type": "function"
    },
    {
      "inputs": [],
      "name": "withdrawLINK",
      "outputs": [],
      "stateMutability": "nonpayable",
      "type": "function"
    }
  ],
  "bytecode": "0x60c06040523480156200001157600080fd5b506040516200140838038062001408833981810160405281019062000037919062000278565b83838173ffffffffffffffffffffffffffffffffffffffff1660a08173ffffffffffffffffffffffffffffffffffffffff1660601b815250508073ffffffffffffffffffffffffffffffffffffffff1660808173ffffffffffffffffffffffffffffffffffffffff1660601b815250505050620000c9620000bd6200016560201b60201c565b6200016d60201b60201c565b85600260006101000a81548173ffffffffffffffffffffffffffffffffffffffff021916908373ffffffffffffffffffffffffffffffffffffffff16021790555084600360006101000a81548173ffffffffffffffffffffffffffffffffffffffff021916908373ffffffffffffffffffffffffffffffffffffffff1602179055508160048190555080600581905550505050505050620003af565b600033905090565b6000600160009054906101000a900473ffffffffffffffffffffffffffffffffffffffff16905081600160006101000a81548173ffffffffffffffffffffffffffffffffffffffff021916908373ffffffffffffffffffffffffffffffffffffffff1602179055508173ffffffffffffffffffffffffffffffffffffffff168173ffffffffffffffffffffffffffffffffffffffff167f8be0079c531659141344cd1fd0a4f28419497f9722a3daafe3b4186f6b6457e060405160405180910390a35050565b600081519050620002448162000361565b92915050565b6000815190506200025b816200037b565b92915050565b600081519050620002728162000395565b92915050565b60008060008060008060c087890312156200029857620002976200035c565b5b6000620002a889828a0162000233565b9650506020620002bb89828a0162000233565b9550506040620002ce89828a0162000233565b9450506060620002e189828a0162000233565b9350506080620002f489828a016200024a565b92505060a06200030789828a0162000261565b9150509295509295509295565b6000620003218262000332565b9050919050565b6000819050919050565b600073ffffffffffffffffffffffffffffffffffffffff82169050919050565b6000819050919050565b600080fd5b6200036c8162000314565b81146200037857600080fd5b50565b620003868162000328565b81146200039257600080fd5b50565b620003a08162000352565b8114620003ac57600080fd5b50565b60805160601c60a05160601c611018620003f06000396000818161027c01526107ab015260008181610394015281816103d1015261076f01526110186000f3fe608060405234801561001057600080fd5b50600436106100935760003560e01c806394985ddd1161006657806394985ddd146100e8578063adc2112f14610104578063b66c76bc1461010e578063dbdff2c11461012c578063f2fde38b1461014a57610093565b80631249c58b1461009857806342619f66146100a2578063715018a6146100c05780638da5cb5b146100ca575b600080fd5b6100a0610166565b005b6100aa6101c2565b6040516100b79190610d40565b60405180910390f35b6100c86101c8565b005b6100d2610250565b6040516100df9190610bb5565b60405180910390f35b61010260048036038101906100fd91906109fc565b61027a565b005b61010c610316565b005b610116610528565b6040516101239190610bb5565b60405180910390f35b61013461054e565b6040516101419190610c37565b60405180910390f35b610164600480360381019061015f91906109a2565b61059a565b005b3373ffffffffffffffffffffffffffffffffffffffff16600260009054906101000a900473ffffffffffffffffffffffffffffffffffffffff1673ffffffffffffffffffffffffffffffffffffffff16146101c057600080fd5b565b60065481565b6101d0610692565b73ffffffffffffffffffffffffffffffffffffffff166101ee610250565b73ffffffffffffffffffffffffffffffffffffffff1614610244576040517f08c379a000000000000000000000000000000000000000000000000000000000815260040161023b90610ce0565b60405180910390fd5b61024e600061069a565b565b6000600160009054906101000a900473ffffffffffffffffffffffffffffffffffffffff16905090565b7f000000000000000000000000000000000000000000000000000000000000000073ffffffffffffffffffffffffffffffffffffffff163373ffffffffffffffffffffffffffffffffffffffff1614610308576040517f08c379a00000000000000000000000000000000000000000000000000000000081526004016102ff90610d00565b60405180910390fd5b6103128282610760565b5050565b61031e610692565b73ffffffffffffffffffffffffffffffffffffffff1661033c610250565b73ffffffffffffffffffffffffffffffffffffffff1614610392576040517f08c379a000000000000000000000000000000000000000000000000000000000815260040161038990610ce0565b60405180910390fd5b7f000000000000000000000000000000000000000000000000000000000000000073ffffffffffffffffffffffffffffffffffffffff1663a9059cbb337f000000000000000000000000000000000000000000000000000000000000000073ffffffffffffffffffffffffffffffffffffffff166370a08231306040518263ffffffff1660e01b81526004016104289190610bb5565b60206040518083038186803b15801561044057600080fd5b505afa158015610454573d6000803e3d6000fd5b505050506040513d601f19601f820116820180604052508101906104789190610a3c565b6040518363ffffffff1660e01b8152600401610495929190610bd0565b602060405180830381600087803b1580156104af57600080fd5b505af11580156104c3573d6000803e3d6000fd5b505050506040513d601f19601f820116820180604052508101906104e791906109cf565b610526576040517f08c379a000000000000000000000000000000000000000000000000000000000815260040161051d90610d20565b60405180910390fd5b565b600260009054906101000a900473ffffffffffffffffffffffffffffffffffffffff1681565b600061055e60045460055461076b565b90507fe5f5b44d72d4143c278eb745c4acc0695c4a5bc616be5beecf46abe29661780e8160405161058f9190610c37565b60405180910390a190565b6105a2610692565b73ffffffffffffffffffffffffffffffffffffffff166105c0610250565b73ffffffffffffffffffffffffffffffffffffffff1614610616576040517f08c379a000000000000000000000000000000000000000000000000000000000815260040161060d90610ce0565b60405180910390fd5b600073ffffffffffffffffffffffffffffffffffffffff168173ffffffffffffffffffffffffffffffffffffffff161415610686576040517f08c379a000000000000000000000000000000000000000000000000000000000815260040161067d90610cc0565b60405180910390fd5b61068f8161069a565b50565b600033905090565b6000600160009054906101000a900473ffffffffffffffffffffffffffffffffffffffff16905081600160006101000a81548173ffffffffffffffffffffffffffffffffffffffff021916908373ffffffffffffffffffffffffffffffffffffffff1602179055508173ffffffffffffffffffffffffffffffffffffffff168173ffffffffffffffffffffffffffffffffffffffff167f8be0079c531659141344cd1fd0a4f28419497f9722a3daafe3b4186f6b6457e060405160405180910390a35050565b806006819055505050565b60007f000000000000000000000000000000000000000000000000000000000000000073ffffffffffffffffffffffffffffffffffffffff16634000aea07f0000000000000000000000000000000000000000000000000000000000000000848660006040516020016107df929190610c52565b6040516020818303038152906040526040518463ffffffff1660e01b815260040161080c93929190610bf9565b602060405180830381600087803b15801561082657600080fd5b505af115801561083a573d6000803e3d6000fd5b505050506040513d601f19601f8201168201806040525081019061085e91906109cf565b50600061088084600030600080898152602001908152602001600020546108ca565b90506001600080868152602001908152602001600020546108a19190610d88565b600080868152602001908152602001600020819055506108c18482610906565b91505092915050565b6000848484846040516020016108e39493929190610c7b565b6040516020818303038152906040528051906020012060001c9050949350505050565b6000828260405160200161091b929190610b89565b60405160208183030381529060405280519060200120905092915050565b60008135905061094881610f86565b92915050565b60008151905061095d81610f9d565b92915050565b60008135905061097281610fb4565b92915050565b60008135905061098781610fcb565b92915050565b60008151905061099c81610fcb565b92915050565b6000602082840312156109b8576109b7610ea6565b5b60006109c684828501610939565b91505092915050565b6000602082840312156109e5576109e4610ea6565b5b60006109f38482850161094e565b91505092915050565b60008060408385031215610a1357610a12610ea6565b5b6000610a2185828601610963565b9250506020610a3285828601610978565b9150509250929050565b600060208284031215610a5257610a51610ea6565b5b6000610a608482850161098d565b91505092915050565b610a7281610dde565b82525050565b610a8181610dfc565b82525050565b610a98610a9382610dfc565b610e63565b82525050565b6000610aa982610d5b565b610ab38185610d66565b9350610ac3818560208601610e30565b610acc81610eab565b840191505092915050565b6000610ae4602683610d77565b9150610aef82610ebc565b604082019050919050565b6000610b07602083610d77565b9150610b1282610f0b565b602082019050919050565b6000610b2a601f83610d77565b9150610b3582610f34565b602082019050919050565b6000610b4d601f83610d77565b9150610b5882610f5d565b602082019050919050565b610b6c81610e26565b82525050565b610b83610b7e82610e26565b610e6d565b82525050565b6000610b958285610a87565b602082019150610ba58284610b72565b6020820191508190509392505050565b6000602082019050610bca6000830184610a69565b92915050565b6000604082019050610be56000830185610a69565b610bf26020830184610b63565b9392505050565b6000606082019050610c0e6000830186610a69565b610c1b6020830185610b63565b8181036040830152610c2d8184610a9e565b9050949350505050565b6000602082019050610c4c6000830184610a78565b92915050565b6000604082019050610c676000830185610a78565b610c746020830184610b63565b9392505050565b6000608082019050610c906000830187610a78565b610c9d6020830186610b63565b610caa6040830185610a69565b610cb76060830184610b63565b95945050505050565b60006020820190508181036000830152610cd981610ad7565b9050919050565b60006020820190508181036000830152610cf981610afa565b9050919050565b60006020820190508181036000830152610d1981610b1d565b9050919050565b60006020820190508181036000830152610d3981610b40565b9050919050565b6000602082019050610d556000830184610b63565b92915050565b600081519050919050565b600082825260208201905092915050565b600082825260208201905092915050565b6000610d9382610e26565b9150610d9e83610e26565b9250827fffffffffffffffffffffffffffffffffffffffffffffffffffffffffffffffff03821115610dd357610dd2610e77565b5b828201905092915050565b6000610de982610e06565b9050919050565b60008115159050919050565b6000819050919050565b600073ffffffffffffffffffffffffffffffffffffffff82169050919050565b6000819050919050565b60005b83811015610e4e578082015181840152602081019050610e33565b83811115610e5d576000848401525b50505050565b6000819050919050565b6000819050919050565b7f4e487b7100000000000000000000000000000000000000000000000000000000600052601160045260246000fd5b600080fd5b6000601f19601f8301169050919050565b7f4f776e61626c653a206e6577206f776e657220697320746865207a65726f206160008201527f6464726573730000000000000000000000000000000000000000000000000000602082015250565b7f4f776e61626c653a2063616c6c6572206973206e6f7420746865206f776e6572600082015250565b7f4f6e6c7920565246436f6f7264696e61746f722063616e2066756c66696c6c00600082015250565b7f46455252595f4e46543a204c494e4b205749544844524157204641494c454400600082015250565b610f8f81610dde565b8114610f9a57600080fd5b50565b610fa681610df0565b8114610fb157600080fd5b50565b610fbd81610dfc565b8114610fc857600080fd5b50565b610fd481610e26565b8114610fdf57600080fd5b5056fea2646970667358221220cf614adfec728097e6b5b0706258bfbf06263a589fad8697c2ac79b49985121264736f6c63430008060033",
  "linkReferences": {},
  "deployedLinkReferences": {}
}