{
  "_format": "hh-sol-artifact-1",
  "contractName": "FerryNFTMinter",
  "sourceName": "contracts/FerryNFTMinter.sol",
  "abi": [
    {
      "inputs": [
        {
          "internalType": "address",
          "name": "_ferry",
          "type": "address"
        },
        {
          "internalType": "address",
          "name": "_zoraMediaAddress",
          "type": "address"
        },
        {
          "internalType": "address",
          "name": "_vrfCoordinator",
          "type": "address"
        },
        {
          "internalType": "address",
          "name": "_link",
          "type": "address"
        },
        {
          "internalType": "bytes32",
          "name": "_keyHash",
          "type": "bytes32"
        }
      ],
      "stateMutability": "nonpayable",
      "type": "constructor"
    },
    {
      "anonymous": false,
      "inputs": [
        {
          "indexed": true,
          "internalType": "address",
          "name": "previousOwner",
          "type": "address"
        },
        {
          "indexed": true,
          "internalType": "address",
          "name": "newOwner",
          "type": "address"
        }
      ],
      "name": "OwnershipTransferred",
      "type": "event"
    },
    {
      "anonymous": false,
      "inputs": [
        {
          "indexed": false,
          "internalType": "bytes32",
          "name": "requestId",
          "type": "bytes32"
        }
      ],
      "name": "RandomnessFulfilled",
      "type": "event"
    },
    {
      "anonymous": false,
      "inputs": [
        {
          "indexed": false,
          "internalType": "bytes32",
          "name": "requestId",
          "type": "bytes32"
        }
      ],
      "name": "RequestedRandomness",
      "type": "event"
    },
    {
      "inputs": [
        {
          "internalType": "address",
          "name": "_account",
          "type": "address"
        }
      ],
      "name": "createNFT",
      "outputs": [],
      "stateMutability": "nonpayable",
      "type": "function"
    },
    {
      "inputs": [],
      "name": "ferry",
      "outputs": [
        {
          "internalType": "address",
          "name": "",
          "type": "address"
        }
      ],
      "stateMutability": "view",
      "type": "function"
    },
    {
      "inputs": [
        {
          "internalType": "address",
          "name": "_account",
          "type": "address"
        }
      ],
      "name": "mintNFT",
      "outputs": [],
      "stateMutability": "nonpayable",
      "type": "function"
    },
    {
      "inputs": [],
      "name": "owner",
      "outputs": [
        {
          "internalType": "address",
          "name": "",
          "type": "address"
        }
      ],
      "stateMutability": "view",
      "type": "function"
    },
    {
      "inputs": [],
      "name": "randomResult",
      "outputs": [
        {
          "internalType": "uint256",
          "name": "",
          "type": "uint256"
        }
      ],
      "stateMutability": "view",
      "type": "function"
    },
    {
      "inputs": [
        {
          "internalType": "bytes32",
          "name": "requestId",
          "type": "bytes32"
        },
        {
          "internalType": "uint256",
          "name": "randomness",
          "type": "uint256"
        }
      ],
      "name": "rawFulfillRandomness",
      "outputs": [],
      "stateMutability": "nonpayable",
      "type": "function"
    },
    {
      "inputs": [],
      "name": "renounceOwnership",
      "outputs": [],
      "stateMutability": "nonpayable",
      "type": "function"
    },
    {
      "inputs": [
        {
          "internalType": "address",
          "name": "newOwner",
          "type": "address"
        }
      ],
      "name": "transferOwnership",
      "outputs": [],
      "stateMutability": "nonpayable",
      "type": "function"
    },
    {
      "inputs": [],
      "name": "withdrawLINK",
      "outputs": [],
      "stateMutability": "nonpayable",
      "type": "function"
    }
  ],
  "bytecode": "0x60c06040523480156200001157600080fd5b5060405162001bbd38038062001bbd8339818101604052810190620000379190620002f2565b82828173ffffffffffffffffffffffffffffffffffffffff1660a08173ffffffffffffffffffffffffffffffffffffffff1660601b815250508073ffffffffffffffffffffffffffffffffffffffff1660808173ffffffffffffffffffffffffffffffffffffffff1660601b815250505050620000c9620000bd620001f660201b60201c565b620001fe60201b60201c565b84600260006101000a81548173ffffffffffffffffffffffffffffffffffffffff021916908373ffffffffffffffffffffffffffffffffffffffff16021790555083600360006101000a81548173ffffffffffffffffffffffffffffffffffffffff021916908373ffffffffffffffffffffffffffffffffffffffff16021790555080600981905550655af3107a4000600a8190555060405180606001604052806040518060200160405280600081525081526020016040518060200160405280600081525081526020016040518060200160405280606481525081525060066000820151816000016000820151816000015550506020820151816001016000820151816000015550506040820151816002016000820151816000015550509050505050505050620003f1565b600033905090565b6000600160009054906101000a900473ffffffffffffffffffffffffffffffffffffffff16905081600160006101000a81548173ffffffffffffffffffffffffffffffffffffffff021916908373ffffffffffffffffffffffffffffffffffffffff1602179055508173ffffffffffffffffffffffffffffffffffffffff168173ffffffffffffffffffffffffffffffffffffffff167f8be0079c531659141344cd1fd0a4f28419497f9722a3daafe3b4186f6b6457e060405160405180910390a35050565b600081519050620002d581620003bd565b92915050565b600081519050620002ec81620003d7565b92915050565b600080600080600060a08688031215620003115762000310620003b8565b5b60006200032188828901620002c4565b95505060206200033488828901620002c4565b94505060406200034788828901620002c4565b93505060606200035a88828901620002c4565b92505060806200036d88828901620002db565b9150509295509295909350565b6000620003878262000398565b9050919050565b6000819050919050565b600073ffffffffffffffffffffffffffffffffffffffff82169050919050565b600080fd5b620003c8816200037a565b8114620003d457600080fd5b50565b620003e2816200038e565b8114620003ee57600080fd5b50565b60805160601c60a05160601c61178b62000432600039600081816105480152610c070152600081816106600152818161069d0152610bcb015261178b6000f3fe608060405234801561001057600080fd5b50600436106100935760003560e01c80638da5cb5b116100665780638da5cb5b146100f857806394985ddd14610116578063adc2112f14610132578063b66c76bc1461013c578063f2fde38b1461015a57610093565b806317e5883c1461009857806342619f66146100b457806354ba0f27146100d2578063715018a6146100ee575b600080fd5b6100b260048036038101906100ad9190610e13565b610176565b005b6100bc6101dd565b6040516100c991906113a9565b60405180910390f35b6100ec60048036038101906100e79190610e13565b6101e3565b005b6100f6610494565b005b61010061051c565b60405161010d91906111ee565b60405180910390f35b610130600480360381019061012b9190610e9a565b610546565b005b61013a6105e2565b005b6101446107f4565b60405161015191906111ee565b60405180910390f35b610174600480360381019061016f9190610e13565b61081a565b005b3373ffffffffffffffffffffffffffffffffffffffff16600260009054906101000a900473ffffffffffffffffffffffffffffffffffffffff1673ffffffffffffffffffffffffffffffffffffffff16146101d057600080fd5b6101d981610912565b5050565b600b5481565b3373ffffffffffffffffffffffffffffffffffffffff16600260009054906101000a900473ffffffffffffffffffffffffffffffffffffffff1673ffffffffffffffffffffffffffffffffffffffff161461023d57600080fd5b600060016103e8600560008573ffffffffffffffffffffffffffffffffffffffff1673ffffffffffffffffffffffffffffffffffffffff1681526020019081526020016000205461028e919061152b565b6102989190611418565b90506103e88114156102a9576102ca565b6103d48111156102b8576102c9565b61030c8111156102c7576102c8565b5b5b5b60006040518060400160405280601381526020017f68747470733a2f2f6578616d706c652e636f6d00000000000000000000000000815250905060006040518060400160405280601481526020017f68747470733a2f2f6d657461646174612e636f6d0000000000000000000000008152509050600060405180608001604052808481526020018381526020016002604051610365906111c4565b602060405180830381855afa158015610382573d6000803e3d6000fd5b5050506040513d601f19601f820116820180604052508101906103a59190610e6d565b815260200160026040516103b8906111d9565b602060405180830381855afa1580156103d5573d6000803e3d6000fd5b5050506040513d601f19601f820116820180604052508101906103f89190610e6d565b8152509050600360009054906101000a900473ffffffffffffffffffffffffffffffffffffffff1673ffffffffffffffffffffffffffffffffffffffff16632cca32378260066040518363ffffffff1660e01b815260040161045b929190611379565b600060405180830381600087803b15801561047557600080fd5b505af1158015610489573d6000803e3d6000fd5b505050505050505050565b61049c6109b2565b73ffffffffffffffffffffffffffffffffffffffff166104ba61051c565b73ffffffffffffffffffffffffffffffffffffffff1614610510576040517f08c379a000000000000000000000000000000000000000000000000000000000815260040161050790611319565b60405180910390fd5b61051a60006109ba565b565b6000600160009054906101000a900473ffffffffffffffffffffffffffffffffffffffff16905090565b7f000000000000000000000000000000000000000000000000000000000000000073ffffffffffffffffffffffffffffffffffffffff163373ffffffffffffffffffffffffffffffffffffffff16146105d4576040517f08c379a00000000000000000000000000000000000000000000000000000000081526004016105cb90611339565b60405180910390fd5b6105de8282610a80565b5050565b6105ea6109b2565b73ffffffffffffffffffffffffffffffffffffffff1661060861051c565b73ffffffffffffffffffffffffffffffffffffffff161461065e576040517f08c379a000000000000000000000000000000000000000000000000000000000815260040161065590611319565b60405180910390fd5b7f000000000000000000000000000000000000000000000000000000000000000073ffffffffffffffffffffffffffffffffffffffff1663a9059cbb337f000000000000000000000000000000000000000000000000000000000000000073ffffffffffffffffffffffffffffffffffffffff166370a08231306040518263ffffffff1660e01b81526004016106f491906111ee565b60206040518083038186803b15801561070c57600080fd5b505afa158015610720573d6000803e3d6000fd5b505050506040513d601f19601f820116820180604052508101906107449190610eda565b6040518363ffffffff1660e01b8152600401610761929190611209565b602060405180830381600087803b15801561077b57600080fd5b505af115801561078f573d6000803e3d6000fd5b505050506040513d601f19601f820116820180604052508101906107b39190610e40565b6107f2576040517f08c379a00000000000000000000000000000000000000000000000000000000081526004016107e990611359565b60405180910390fd5b565b600260009054906101000a900473ffffffffffffffffffffffffffffffffffffffff1681565b6108226109b2565b73ffffffffffffffffffffffffffffffffffffffff1661084061051c565b73ffffffffffffffffffffffffffffffffffffffff1614610896576040517f08c379a000000000000000000000000000000000000000000000000000000000815260040161088d90611319565b60405180910390fd5b600073ffffffffffffffffffffffffffffffffffffffff168173ffffffffffffffffffffffffffffffffffffffff161415610906576040517f08c379a00000000000000000000000000000000000000000000000000000000081526004016108fd906112f9565b60405180910390fd5b61090f816109ba565b50565b6000610922600954600a54610bc7565b9050816004600083815260200190815260200160002060006101000a81548173ffffffffffffffffffffffffffffffffffffffff021916908373ffffffffffffffffffffffffffffffffffffffff1602179055507fe5f5b44d72d4143c278eb745c4acc0695c4a5bc616be5beecf46abe29661780e816040516109a59190611270565b60405180910390a1919050565b600033905090565b6000600160009054906101000a900473ffffffffffffffffffffffffffffffffffffffff16905081600160006101000a81548173ffffffffffffffffffffffffffffffffffffffff021916908373ffffffffffffffffffffffffffffffffffffffff1602179055508173ffffffffffffffffffffffffffffffffffffffff168173ffffffffffffffffffffffffffffffffffffffff167f8be0079c531659141344cd1fd0a4f28419497f9722a3daafe3b4186f6b6457e060405160405180910390a35050565b60006004600084815260200190815260200160002060009054906101000a900473ffffffffffffffffffffffffffffffffffffffff16905081600560008373ffffffffffffffffffffffffffffffffffffffff1673ffffffffffffffffffffffffffffffffffffffff16815260200190815260200160002081905550600260009054906101000a900473ffffffffffffffffffffffffffffffffffffffff1673ffffffffffffffffffffffffffffffffffffffff166319683a7c82846040518363ffffffff1660e01b8152600401610b59929190611209565b600060405180830381600087803b158015610b7357600080fd5b505af1158015610b87573d6000803e3d6000fd5b505050507fa312c4217fec2a5d353039350081a0149ed918efd6ec43d7f0e8a425f0715f1583604051610bba9190611270565b60405180910390a1505050565b60007f000000000000000000000000000000000000000000000000000000000000000073ffffffffffffffffffffffffffffffffffffffff16634000aea07f000000000000000000000000000000000000000000000000000000000000000084866000604051602001610c3b92919061128b565b6040516020818303038152906040526040518463ffffffff1660e01b8152600401610c6893929190611232565b602060405180830381600087803b158015610c8257600080fd5b505af1158015610c96573d6000803e3d6000fd5b505050506040513d601f19601f82011682018060405250810190610cba9190610e40565b506000610cdc8460003060008089815260200190815260200160002054610d26565b9050600160008086815260200190815260200160002054610cfd9190611418565b60008086815260200190815260200160002081905550610d1d8482610d62565b91505092915050565b600084848484604051602001610d3f94939291906112b4565b6040516020818303038152906040528051906020012060001c9050949350505050565b60008282604051602001610d77929190611198565b60405160208183030381529060405280519060200120905092915050565b600081359050610da4816116f9565b92915050565b600081519050610db981611710565b92915050565b600081359050610dce81611727565b92915050565b600081519050610de381611727565b92915050565b600081359050610df88161173e565b92915050565b600081519050610e0d8161173e565b92915050565b600060208284031215610e2957610e286115ba565b5b6000610e3784828501610d95565b91505092915050565b600060208284031215610e5657610e556115ba565b5b6000610e6484828501610daa565b91505092915050565b600060208284031215610e8357610e826115ba565b5b6000610e9184828501610dd4565b91505092915050565b60008060408385031215610eb157610eb06115ba565b5b6000610ebf85828601610dbf565b9250506020610ed085828601610de9565b9150509250929050565b600060208284031215610ef057610eef6115ba565b5b6000610efe84828501610dfe565b91505092915050565b610f1081611478565b82525050565b610f1f81611496565b82525050565b610f2e81611496565b82525050565b610f45610f4082611496565b611517565b82525050565b6000610f56826113c4565b610f6081856113da565b9350610f708185602086016114ca565b610f79816115bf565b840191505092915050565b6000610f8f826113cf565b610f9981856113f6565b9350610fa98185602086016114ca565b610fb2816115bf565b840191505092915050565b6000610fca602683611407565b9150610fd5826115dd565b604082019050919050565b6000610fed602083611407565b9150610ff88261162c565b602082019050919050565b60006110106016836113eb565b915061101b82611655565b601682019050919050565b6000611033601f83611407565b915061103e8261167e565b602082019050919050565b6000611056601f83611407565b9150611061826116a7565b602082019050919050565b60006110796018836113eb565b9150611084826116d0565b601882019050919050565b6060820160008083016110a560008601826110d0565b50600183016110b760208601826110d0565b50600283016110c960408601826110d0565b5050505050565b6020820160008083015490506110e5816114fd565b6110f26000860182611163565b5050505050565b600060808301600083015184820360008601526111168282610f84565b915050602083015184820360208601526111308282610f84565b91505060408301516111456040860182610f16565b5060608301516111586060860182610f16565b508091505092915050565b61116c816114c0565b82525050565b61117b816114c0565b82525050565b61119261118d826114c0565b611521565b82525050565b60006111a48285610f34565b6020820191506111b48284611181565b6020820191508190509392505050565b60006111cf82611003565b9150819050919050565b60006111e48261106c565b9150819050919050565b60006020820190506112036000830184610f07565b92915050565b600060408201905061121e6000830185610f07565b61122b6020830184611172565b9392505050565b60006060820190506112476000830186610f07565b6112546020830185611172565b81810360408301526112668184610f4b565b9050949350505050565b60006020820190506112856000830184610f25565b92915050565b60006040820190506112a06000830185610f25565b6112ad6020830184611172565b9392505050565b60006080820190506112c96000830187610f25565b6112d66020830186611172565b6112e36040830185610f07565b6112f06060830184611172565b95945050505050565b6000602082019050818103600083015261131281610fbd565b9050919050565b6000602082019050818103600083015261133281610fe0565b9050919050565b6000602082019050818103600083015261135281611026565b9050919050565b6000602082019050818103600083015261137281611049565b9050919050565b6000608082019050818103600083015261139381856110f9565b90506113a2602083018461108f565b9392505050565b60006020820190506113be6000830184611172565b92915050565b600081519050919050565b600081519050919050565b600082825260208201905092915050565b600081905092915050565b600082825260208201905092915050565b600082825260208201905092915050565b6000611423826114c0565b915061142e836114c0565b9250827fffffffffffffffffffffffffffffffffffffffffffffffffffffffffffffffff038211156114635761146261155c565b5b828201905092915050565b6000819050919050565b6000611483826114a0565b9050919050565b60008115159050919050565b6000819050919050565b600073ffffffffffffffffffffffffffffffffffffffff82169050919050565b6000819050919050565b60005b838110156114e85780820151818401526020810190506114cd565b838111156114f7576000848401525b50505050565b600061151061150b836115d0565b61146e565b9050919050565b6000819050919050565b6000819050919050565b6000611536826114c0565b9150611541836114c0565b9250826115515761155061158b565b5b828206905092915050565b7f4e487b7100000000000000000000000000000000000000000000000000000000600052601160045260246000fd5b7f4e487b7100000000000000000000000000000000000000000000000000000000600052601260045260246000fd5b600080fd5b6000601f19601f8301169050919050565b60008160001c9050919050565b7f4f776e61626c653a206e6577206f776e657220697320746865207a65726f206160008201527f6464726573730000000000000000000000000000000000000000000000000000602082015250565b7f4f776e61626c653a2063616c6c6572206973206e6f7420746865206f776e6572600082015250565b7f556e697175652053564720737472696e67206865726500000000000000000000600082015250565b7f4f6e6c7920565246436f6f7264696e61746f722063616e2066756c66696c6c00600082015250565b7f46455252595f4e46543a204c494e4b205749544844524157204641494c454400600082015250565b7f556e6971756520535647206d6574616461746120686572650000000000000000600082015250565b61170281611478565b811461170d57600080fd5b50565b6117198161148a565b811461172457600080fd5b50565b61173081611496565b811461173b57600080fd5b50565b611747816114c0565b811461175257600080fd5b5056fea2646970667358221220cc2639fcebd75730342e53080632e29f6650327333ded7604a3d512e47fa0ef364736f6c63430008060033",
  "linkReferences": {},
  "deployedLinkReferences": {}
}