{
  "_format": "hh-sol-artifact-1",
  "contractName": "Ferry",
  "sourceName": "contracts/Ferry.sol",
  "abi": [
    {
      "inputs": [
        {
          "internalType": "uint256",
          "name": "_monthlyFee",
          "type": "uint256"
        }
      ],
      "stateMutability": "nonpayable",
      "type": "constructor"
    },
    {
      "anonymous": false,
      "inputs": [
        {
          "indexed": true,
          "internalType": "address",
          "name": "previousOwner",
          "type": "address"
        },
        {
          "indexed": true,
          "internalType": "address",
          "name": "newOwner",
          "type": "address"
        }
      ],
      "name": "OwnershipTransferred",
      "type": "event"
    },
    {
      "inputs": [
        {
          "internalType": "uint256",
          "name": "_amount",
          "type": "uint256"
        }
      ],
      "name": "depositInAave",
      "outputs": [],
      "stateMutability": "nonpayable",
      "type": "function"
    },
    {
      "inputs": [
        {
          "internalType": "address",
          "name": "",
          "type": "address"
        }
      ],
      "name": "memberships",
      "outputs": [
        {
          "internalType": "uint256",
          "name": "",
          "type": "uint256"
        }
      ],
      "stateMutability": "view",
      "type": "function"
    },
    {
      "inputs": [],
      "name": "monthlyFee",
      "outputs": [
        {
          "internalType": "uint256",
          "name": "",
          "type": "uint256"
        }
      ],
      "stateMutability": "view",
      "type": "function"
    },
    {
      "inputs": [],
      "name": "owner",
      "outputs": [
        {
          "internalType": "address",
          "name": "",
          "type": "address"
        }
      ],
      "stateMutability": "view",
      "type": "function"
    },
    {
      "inputs": [
        {
          "internalType": "address",
          "name": "_account",
          "type": "address"
        },
        {
          "internalType": "uint256",
          "name": "_amount",
          "type": "uint256"
        }
      ],
      "name": "paySubscription",
      "outputs": [],
      "stateMutability": "nonpayable",
      "type": "function"
    },
    {
      "inputs": [],
      "name": "renounceOwnership",
      "outputs": [],
      "stateMutability": "nonpayable",
      "type": "function"
    },
    {
      "inputs": [
        {
          "internalType": "address",
          "name": "newOwner",
          "type": "address"
        }
      ],
      "name": "transferOwnership",
      "outputs": [],
      "stateMutability": "nonpayable",
      "type": "function"
    },
    {
      "inputs": [
        {
          "internalType": "uint256",
          "name": "_amount",
          "type": "uint256"
        }
      ],
      "name": "withdrawFromAave",
      "outputs": [],
      "stateMutability": "nonpayable",
      "type": "function"
    }
  ],
  "bytecode": "0x608060405234801561001057600080fd5b506040516109723803806109728339818101604052810190610032919061013c565b61004e61004361005b60201b60201c565b61006360201b60201c565b806001819055505061018f565b600033905090565b60008060009054906101000a900473ffffffffffffffffffffffffffffffffffffffff169050816000806101000a81548173ffffffffffffffffffffffffffffffffffffffff021916908373ffffffffffffffffffffffffffffffffffffffff1602179055508173ffffffffffffffffffffffffffffffffffffffff168173ffffffffffffffffffffffffffffffffffffffff167f8be0079c531659141344cd1fd0a4f28419497f9722a3daafe3b4186f6b6457e060405160405180910390a35050565b60008151905061013681610178565b92915050565b60006020828403121561015257610151610173565b5b600061016084828501610127565b91505092915050565b6000819050919050565b600080fd5b61018181610169565b811461018c57600080fd5b50565b6107d48061019e6000396000f3fe608060405234801561001057600080fd5b50600436106100885760003560e01c80638cfd3e401161005b5780638cfd3e40146100ff5780638da5cb5b1461011d578063d2720e691461013b578063f2fde38b1461015757610088565b80633c91292b1461008d578063688f237b146100a9578063715018a6146100c557806373d98799146100cf575b600080fd5b6100a760048036038101906100a2919061055f565b610173565b005b6100c360048036038101906100be919061059f565b610177565b005b6100cd6101f6565b005b6100e960048036038101906100e49190610532565b61027e565b6040516100f6919061068b565b60405180910390f35b610107610296565b604051610114919061068b565b60405180910390f35b61012561029c565b6040516101329190610630565b60405180910390f35b6101556004803603810190610150919061059f565b6102c5565b005b610171600480360381019061016c9190610532565b610344565b005b5050565b61017f61043c565b73ffffffffffffffffffffffffffffffffffffffff1661019d61029c565b73ffffffffffffffffffffffffffffffffffffffff16146101f3576040517f08c379a00000000000000000000000000000000000000000000000000000000081526004016101ea9061066b565b60405180910390fd5b50565b6101fe61043c565b73ffffffffffffffffffffffffffffffffffffffff1661021c61029c565b73ffffffffffffffffffffffffffffffffffffffff1614610272576040517f08c379a00000000000000000000000000000000000000000000000000000000081526004016102699061066b565b60405180910390fd5b61027c6000610444565b565b60026020528060005260406000206000915090505481565b60015481565b60008060009054906101000a900473ffffffffffffffffffffffffffffffffffffffff16905090565b6102cd61043c565b73ffffffffffffffffffffffffffffffffffffffff166102eb61029c565b73ffffffffffffffffffffffffffffffffffffffff1614610341576040517f08c379a00000000000000000000000000000000000000000000000000000000081526004016103389061066b565b60405180910390fd5b50565b61034c61043c565b73ffffffffffffffffffffffffffffffffffffffff1661036a61029c565b73ffffffffffffffffffffffffffffffffffffffff16146103c0576040517f08c379a00000000000000000000000000000000000000000000000000000000081526004016103b79061066b565b60405180910390fd5b600073ffffffffffffffffffffffffffffffffffffffff168173ffffffffffffffffffffffffffffffffffffffff161415610430576040517f08c379a00000000000000000000000000000000000000000000000000000000081526004016104279061064b565b60405180910390fd5b61043981610444565b50565b600033905090565b60008060009054906101000a900473ffffffffffffffffffffffffffffffffffffffff169050816000806101000a81548173ffffffffffffffffffffffffffffffffffffffff021916908373ffffffffffffffffffffffffffffffffffffffff1602179055508173ffffffffffffffffffffffffffffffffffffffff168173ffffffffffffffffffffffffffffffffffffffff167f8be0079c531659141344cd1fd0a4f28419497f9722a3daafe3b4186f6b6457e060405160405180910390a35050565b60008135905061051781610770565b92915050565b60008135905061052c81610787565b92915050565b600060208284031215610548576105476106f3565b5b600061055684828501610508565b91505092915050565b60008060408385031215610576576105756106f3565b5b600061058485828601610508565b92505060206105958582860161051d565b9150509250929050565b6000602082840312156105b5576105b46106f3565b5b60006105c38482850161051d565b91505092915050565b6105d5816106b7565b82525050565b60006105e86026836106a6565b91506105f3826106f8565b604082019050919050565b600061060b6020836106a6565b915061061682610747565b602082019050919050565b61062a816106e9565b82525050565b600060208201905061064560008301846105cc565b92915050565b60006020820190508181036000830152610664816105db565b9050919050565b60006020820190508181036000830152610684816105fe565b9050919050565b60006020820190506106a06000830184610621565b92915050565b600082825260208201905092915050565b60006106c2826106c9565b9050919050565b600073ffffffffffffffffffffffffffffffffffffffff82169050919050565b6000819050919050565b600080fd5b7f4f776e61626c653a206e6577206f776e657220697320746865207a65726f206160008201527f6464726573730000000000000000000000000000000000000000000000000000602082015250565b7f4f776e61626c653a2063616c6c6572206973206e6f7420746865206f776e6572600082015250565b610779816106b7565b811461078457600080fd5b50565b610790816106e9565b811461079b57600080fd5b5056fea264697066735822122037488dab26984ea5236178d5efd82ae3bbed152b007085b8d32801de14e23fef64736f6c63430008060033",
  "linkReferences": {},
  "deployedLinkReferences": {}
}