{
  "_format": "hh-sol-artifact-1",
  "contractName": "Ferry",
  "sourceName": "contracts/Ferry.sol",
  "abi": [
    {
      "inputs": [
        {
          "internalType": "uint256",
          "name": "_annualFee",
          "type": "uint256"
        },
        {
          "internalType": "uint256",
          "name": "_nftThreshold",
          "type": "uint256"
        },
        {
          "internalType": "address",
          "name": "_dai",
          "type": "address"
        },
        {
          "internalType": "address",
          "name": "_lendingPool",
          "type": "address"
        },
        {
          "internalType": "address",
          "name": "_nftMinter",
          "type": "address"
        }
      ],
      "stateMutability": "nonpayable",
      "type": "constructor"
    },
    {
      "anonymous": false,
      "inputs": [
        {
          "indexed": true,
          "internalType": "address",
          "name": "previousOwner",
          "type": "address"
        },
        {
          "indexed": true,
          "internalType": "address",
          "name": "newOwner",
          "type": "address"
        }
      ],
      "name": "OwnershipTransferred",
      "type": "event"
    },
    {
      "inputs": [],
      "name": "YEAR",
      "outputs": [
        {
          "internalType": "uint256",
          "name": "",
          "type": "uint256"
        }
      ],
      "stateMutability": "view",
      "type": "function"
    },
    {
      "inputs": [],
      "name": "annualFee",
      "outputs": [
        {
          "internalType": "uint256",
          "name": "",
          "type": "uint256"
        }
      ],
      "stateMutability": "view",
      "type": "function"
    },
    {
      "inputs": [
        {
          "internalType": "uint256",
          "name": "_amount",
          "type": "uint256"
        }
      ],
      "name": "depositInAave",
      "outputs": [],
      "stateMutability": "nonpayable",
      "type": "function"
    },
    {
      "inputs": [
        {
          "internalType": "address",
          "name": "_account",
          "type": "address"
        }
      ],
      "name": "getMembershipExpiryTime",
      "outputs": [
        {
          "internalType": "uint256",
          "name": "",
          "type": "uint256"
        }
      ],
      "stateMutability": "view",
      "type": "function"
    },
    {
      "inputs": [],
      "name": "nftThresholdPayment",
      "outputs": [
        {
          "internalType": "uint256",
          "name": "",
          "type": "uint256"
        }
      ],
      "stateMutability": "view",
      "type": "function"
    },
    {
      "inputs": [],
      "name": "owner",
      "outputs": [
        {
          "internalType": "address",
          "name": "",
          "type": "address"
        }
      ],
      "stateMutability": "view",
      "type": "function"
    },
    {
      "inputs": [
        {
          "internalType": "address",
          "name": "_account",
          "type": "address"
        },
        {
          "internalType": "uint256",
          "name": "_amount",
          "type": "uint256"
        }
      ],
      "name": "paySubscription",
      "outputs": [],
      "stateMutability": "nonpayable",
      "type": "function"
    },
    {
      "inputs": [],
      "name": "renounceOwnership",
      "outputs": [],
      "stateMutability": "nonpayable",
      "type": "function"
    },
    {
      "inputs": [
        {
          "internalType": "uint256",
          "name": "_annualFee",
          "type": "uint256"
        }
      ],
      "name": "setAnnualFee",
      "outputs": [],
      "stateMutability": "nonpayable",
      "type": "function"
    },
    {
      "inputs": [
        {
          "internalType": "address",
          "name": "_lendingPool",
          "type": "address"
        }
      ],
      "name": "setLendingPool",
      "outputs": [],
      "stateMutability": "nonpayable",
      "type": "function"
    },
    {
      "inputs": [
        {
          "internalType": "uint256",
          "name": "_threshold",
          "type": "uint256"
        }
      ],
      "name": "setNftThresholdPayment",
      "outputs": [],
      "stateMutability": "nonpayable",
      "type": "function"
    },
    {
      "inputs": [
        {
          "internalType": "address",
          "name": "newOwner",
          "type": "address"
        }
      ],
      "name": "transferOwnership",
      "outputs": [],
      "stateMutability": "nonpayable",
      "type": "function"
    },
    {
      "inputs": [
        {
          "internalType": "uint256",
          "name": "_amount",
          "type": "uint256"
        }
      ],
      "name": "withdrawFromAave",
      "outputs": [],
      "stateMutability": "nonpayable",
      "type": "function"
    }
  ],
  "bytecode": "0x60806040523480156200001157600080fd5b5060405162001b2338038062001b2383398181016040528101906200003791906200038d565b620000576200004b6200024a60201b60201c565b6200025260201b60201c565b846005819055508360068190555082600360006101000a81548173ffffffffffffffffffffffffffffffffffffffff021916908373ffffffffffffffffffffffffffffffffffffffff16021790555082600460006101000a81548173ffffffffffffffffffffffffffffffffffffffff021916908373ffffffffffffffffffffffffffffffffffffffff16021790555081600260006101000a81548173ffffffffffffffffffffffffffffffffffffffff021916908373ffffffffffffffffffffffffffffffffffffffff16021790555080600160006101000a81548173ffffffffffffffffffffffffffffffffffffffff021916908373ffffffffffffffffffffffffffffffffffffffff160217905550600360009054906101000a900473ffffffffffffffffffffffffffffffffffffffff1673ffffffffffffffffffffffffffffffffffffffff1663095ea7b3837fffffffffffffffffffffffffffffffffffffffffffffffffffffffffffffffff6040518363ffffffff1660e01b8152600401620001e892919062000437565b602060405180830381600087803b1580156200020357600080fd5b505af115801562000218573d6000803e3d6000fd5b505050506040513d601f19601f820116820180604052508101906200023e91906200035b565b50505050505062000501565b600033905090565b60008060009054906101000a900473ffffffffffffffffffffffffffffffffffffffff169050816000806101000a81548173ffffffffffffffffffffffffffffffffffffffff021916908373ffffffffffffffffffffffffffffffffffffffff1602179055508173ffffffffffffffffffffffffffffffffffffffff168173ffffffffffffffffffffffffffffffffffffffff167f8be0079c531659141344cd1fd0a4f28419497f9722a3daafe3b4186f6b6457e060405160405180910390a35050565b6000815190506200032781620004b3565b92915050565b6000815190506200033e81620004cd565b92915050565b6000815190506200035581620004e7565b92915050565b600060208284031215620003745762000373620004ae565b5b600062000384848285016200032d565b91505092915050565b600080600080600060a08688031215620003ac57620003ab620004ae565b5b6000620003bc8882890162000344565b9550506020620003cf8882890162000344565b9450506040620003e28882890162000316565b9350506060620003f58882890162000316565b9250506080620004088882890162000316565b9150509295509295909350565b620004208162000464565b82525050565b6200043181620004a4565b82525050565b60006040820190506200044e600083018562000415565b6200045d602083018462000426565b9392505050565b6000620004718262000484565b9050919050565b60008115159050919050565b600073ffffffffffffffffffffffffffffffffffffffff82169050919050565b6000819050919050565b600080fd5b620004be8162000464565b8114620004ca57600080fd5b50565b620004d88162000478565b8114620004e457600080fd5b50565b620004f281620004a4565b8114620004fe57600080fd5b50565b61161280620005116000396000f3fe608060405234801561001057600080fd5b50600436106100cf5760003560e01c8063773778081161008c5780638da5cb5b116100665780638da5cb5b146101d8578063ad21f008146101f6578063d2720e6914610212578063f2fde38b1461022e576100cf565b8063773778081461016e578063839145401461019e57806388b89a7d146101bc576100cf565b8063113aa8b1146100d45780631dfda2e7146100f0578063294bd7381461010e5780633c91292b1461012c578063688f237b14610148578063715018a614610164575b600080fd5b6100ee60048036038101906100e99190610e9e565b61024a565b005b6100f861044a565b6040516101059190611254565b60405180910390f35b610116610450565b6040516101239190611254565b60405180910390f35b61014660048036038101906101419190610ecb565b610456565b005b610162600480360381019061015d9190610f38565b61076a565b005b61016c610900565b005b61018860048036038101906101839190610e9e565b610988565b6040516101959190611254565b60405180910390f35b6101a66109d1565b6040516101b39190611254565b60405180910390f35b6101d660048036038101906101d19190610f38565b6109d9565b005b6101e0610a5f565b6040516101ed91906110b4565b60405180910390f35b610210600480360381019061020b9190610f38565b610a88565b005b61022c60048036038101906102279190610f38565b610b0e565b005b61024860048036038101906102439190610e9e565b610c86565b005b610252610d7e565b73ffffffffffffffffffffffffffffffffffffffff16610270610a5f565b73ffffffffffffffffffffffffffffffffffffffff16146102c6576040517f08c379a00000000000000000000000000000000000000000000000000000000081526004016102bd906111f4565b60405180910390fd5b600073ffffffffffffffffffffffffffffffffffffffff168173ffffffffffffffffffffffffffffffffffffffff161415610336576040517f08c379a000000000000000000000000000000000000000000000000000000000815260040161032d90611174565b60405180910390fd5b80600260006101000a81548173ffffffffffffffffffffffffffffffffffffffff021916908373ffffffffffffffffffffffffffffffffffffffff160217905550600360009054906101000a900473ffffffffffffffffffffffffffffffffffffffff1673ffffffffffffffffffffffffffffffffffffffff1663095ea7b3827fffffffffffffffffffffffffffffffffffffffffffffffffffffffffffffffff6040518363ffffffff1660e01b81526004016103f49291906110cf565b602060405180830381600087803b15801561040e57600080fd5b505af1158015610422573d6000803e3d6000fd5b505050506040513d601f19601f820116820180604052508101906104469190610f0b565b5050565b60055481565b60065481565b60065481101580156104b25750600860008373ffffffffffffffffffffffffffffffffffffffff1673ffffffffffffffffffffffffffffffffffffffff16815260200190815260200160002060009054906101000a900460ff16155b1561059f57600160009054906101000a900473ffffffffffffffffffffffffffffffffffffffff1673ffffffffffffffffffffffffffffffffffffffff166340c10f1983836040518363ffffffff1660e01b81526004016105149291906110cf565b600060405180830381600087803b15801561052e57600080fd5b505af1158015610542573d6000803e3d6000fd5b505050506001600860008473ffffffffffffffffffffffffffffffffffffffff1673ffffffffffffffffffffffffffffffffffffffff16815260200190815260200160002060006101000a81548160ff0219169083151502179055505b600073ffffffffffffffffffffffffffffffffffffffff168273ffffffffffffffffffffffffffffffffffffffff16141561060f576040517f08c379a0000000000000000000000000000000000000000000000000000000008152600401610606906111d4565b60405180910390fd5b60008111610652576040517f08c379a0000000000000000000000000000000000000000000000000000000008152600401610649906111b4565b60405180910390fd5b6000600554826301e133806106679190611307565b61067191906112d6565b905042600760008573ffffffffffffffffffffffffffffffffffffffff1673ffffffffffffffffffffffffffffffffffffffff16815260200190815260200160002054101561070e5780426106c69190611280565b600760008573ffffffffffffffffffffffffffffffffffffffff1673ffffffffffffffffffffffffffffffffffffffff16815260200190815260200160002081905550610765565b80600760008573ffffffffffffffffffffffffffffffffffffffff1673ffffffffffffffffffffffffffffffffffffffff168152602001908152602001600020600082825461075d9190611280565b925050819055505b505050565b610772610d7e565b73ffffffffffffffffffffffffffffffffffffffff16610790610a5f565b73ffffffffffffffffffffffffffffffffffffffff16146107e6576040517f08c379a00000000000000000000000000000000000000000000000000000000081526004016107dd906111f4565b60405180910390fd5b60008111610829576040517f08c379a000000000000000000000000000000000000000000000000000000000815260040161082090611214565b60405180910390fd5b600260009054906101000a900473ffffffffffffffffffffffffffffffffffffffff1673ffffffffffffffffffffffffffffffffffffffff166369328dec600460009054906101000a900473ffffffffffffffffffffffffffffffffffffffff1683306040518463ffffffff1660e01b81526004016108aa939291906110f8565b602060405180830381600087803b1580156108c457600080fd5b505af11580156108d8573d6000803e3d6000fd5b505050506040513d601f19601f820116820180604052508101906108fc9190610f65565b5050565b610908610d7e565b73ffffffffffffffffffffffffffffffffffffffff16610926610a5f565b73ffffffffffffffffffffffffffffffffffffffff161461097c576040517f08c379a0000000000000000000000000000000000000000000000000000000008152600401610973906111f4565b60405180910390fd5b6109866000610d86565b565b6000600760008373ffffffffffffffffffffffffffffffffffffffff1673ffffffffffffffffffffffffffffffffffffffff168152602001908152602001600020549050919050565b6301e1338081565b6109e1610d7e565b73ffffffffffffffffffffffffffffffffffffffff166109ff610a5f565b73ffffffffffffffffffffffffffffffffffffffff1614610a55576040517f08c379a0000000000000000000000000000000000000000000000000000000008152600401610a4c906111f4565b60405180910390fd5b8060058190555050565b60008060009054906101000a900473ffffffffffffffffffffffffffffffffffffffff16905090565b610a90610d7e565b73ffffffffffffffffffffffffffffffffffffffff16610aae610a5f565b73ffffffffffffffffffffffffffffffffffffffff1614610b04576040517f08c379a0000000000000000000000000000000000000000000000000000000008152600401610afb906111f4565b60405180910390fd5b8060068190555050565b610b16610d7e565b73ffffffffffffffffffffffffffffffffffffffff16610b34610a5f565b73ffffffffffffffffffffffffffffffffffffffff1614610b8a576040517f08c379a0000000000000000000000000000000000000000000000000000000008152600401610b81906111f4565b60405180910390fd5b60008111610bcd576040517f08c379a0000000000000000000000000000000000000000000000000000000008152600401610bc490611234565b60405180910390fd5b600260009054906101000a900473ffffffffffffffffffffffffffffffffffffffff1673ffffffffffffffffffffffffffffffffffffffff1663e8eda9df600460009054906101000a900473ffffffffffffffffffffffffffffffffffffffff16833060006040518563ffffffff1660e01b8152600401610c51949392919061112f565b600060405180830381600087803b158015610c6b57600080fd5b505af1158015610c7f573d6000803e3d6000fd5b5050505050565b610c8e610d7e565b73ffffffffffffffffffffffffffffffffffffffff16610cac610a5f565b73ffffffffffffffffffffffffffffffffffffffff1614610d02576040517f08c379a0000000000000000000000000000000000000000000000000000000008152600401610cf9906111f4565b60405180910390fd5b600073ffffffffffffffffffffffffffffffffffffffff168173ffffffffffffffffffffffffffffffffffffffff161415610d72576040517f08c379a0000000000000000000000000000000000000000000000000000000008152600401610d6990611194565b60405180910390fd5b610d7b81610d86565b50565b600033905090565b60008060009054906101000a900473ffffffffffffffffffffffffffffffffffffffff169050816000806101000a81548173ffffffffffffffffffffffffffffffffffffffff021916908373ffffffffffffffffffffffffffffffffffffffff1602179055508173ffffffffffffffffffffffffffffffffffffffff168173ffffffffffffffffffffffffffffffffffffffff167f8be0079c531659141344cd1fd0a4f28419497f9722a3daafe3b4186f6b6457e060405160405180910390a35050565b600081359050610e5981611597565b92915050565b600081519050610e6e816115ae565b92915050565b600081359050610e83816115c5565b92915050565b600081519050610e98816115c5565b92915050565b600060208284031215610eb457610eb3611427565b5b6000610ec284828501610e4a565b91505092915050565b60008060408385031215610ee257610ee1611427565b5b6000610ef085828601610e4a565b9250506020610f0185828601610e74565b9150509250929050565b600060208284031215610f2157610f20611427565b5b6000610f2f84828501610e5f565b91505092915050565b600060208284031215610f4e57610f4d611427565b5b6000610f5c84828501610e74565b91505092915050565b600060208284031215610f7b57610f7a611427565b5b6000610f8984828501610e89565b91505092915050565b610f9b81611361565b82525050565b610faa816113b7565b82525050565b6000610fbd601d8361126f565b9150610fc88261142c565b602082019050919050565b6000610fe060268361126f565b9150610feb82611455565b604082019050919050565b600061100360208361126f565b915061100e826114a4565b602082019050919050565b600061102660238361126f565b9150611031826114cd565b604082019050919050565b600061104960208361126f565b91506110548261151c565b602082019050919050565b600061106c601e8361126f565b915061107782611545565b602082019050919050565b600061108f601d8361126f565b915061109a8261156e565b602082019050919050565b6110ae816113ad565b82525050565b60006020820190506110c96000830184610f92565b92915050565b60006040820190506110e46000830185610f92565b6110f160208301846110a5565b9392505050565b600060608201905061110d6000830186610f92565b61111a60208301856110a5565b6111276040830184610f92565b949350505050565b60006080820190506111446000830187610f92565b61115160208301866110a5565b61115e6040830185610f92565b61116b6060830184610fa1565b95945050505050565b6000602082019050818103600083015261118d81610fb0565b9050919050565b600060208201905081810360008301526111ad81610fd3565b9050919050565b600060208201905081810360008301526111cd81610ff6565b9050919050565b600060208201905081810360008301526111ed81611019565b9050919050565b6000602082019050818103600083015261120d8161103c565b9050919050565b6000602082019050818103600083015261122d8161105f565b9050919050565b6000602082019050818103600083015261124d81611082565b9050919050565b600060208201905061126960008301846110a5565b92915050565b600082825260208201905092915050565b600061128b826113ad565b9150611296836113ad565b9250827fffffffffffffffffffffffffffffffffffffffffffffffffffffffffffffffff038211156112cb576112ca6113c9565b5b828201905092915050565b60006112e1826113ad565b91506112ec836113ad565b9250826112fc576112fb6113f8565b5b828204905092915050565b6000611312826113ad565b915061131d836113ad565b9250817fffffffffffffffffffffffffffffffffffffffffffffffffffffffffffffffff0483118215151615611356576113556113c9565b5b828202905092915050565b600061136c8261138d565b9050919050565b60008115159050919050565b600061ffff82169050919050565b600073ffffffffffffffffffffffffffffffffffffffff82169050919050565b6000819050919050565b60006113c28261137f565b9050919050565b7f4e487b7100000000000000000000000000000000000000000000000000000000600052601160045260246000fd5b7f4e487b7100000000000000000000000000000000000000000000000000000000600052601260045260246000fd5b600080fd5b7f46455252593a2043414e275420555345205a45524f2041444452455353000000600082015250565b7f4f776e61626c653a206e6577206f776e657220697320746865207a65726f206160008201527f6464726573730000000000000000000000000000000000000000000000000000602082015250565b7f46455252593a2050415920534f4d452044414920544f20535542534352494245600082015250565b7f46455252593a205a45524f20414444524553532043414e27542053554253435260008201527f4942450000000000000000000000000000000000000000000000000000000000602082015250565b7f4f776e61626c653a2063616c6c6572206973206e6f7420746865206f776e6572600082015250565b7f46455252593a205749544844524157204d4f5245205448414e205a45524f0000600082015250565b7f46455252593a204445504f534954204d4f5245205448414e205a45524f000000600082015250565b6115a081611361565b81146115ab57600080fd5b50565b6115b781611373565b81146115c257600080fd5b50565b6115ce816113ad565b81146115d957600080fd5b5056fea2646970667358221220c20beca45089fbc059287d0ff3002f043220593774d4d268d7baa2dfa48dcdc364736f6c63430008060033",
  "linkReferences": {},
  "deployedLinkReferences": {}
}