{
  "_format": "hh-sol-artifact-1",
  "contractName": "Ferry",
  "sourceName": "contracts/Ferry.sol",
  "abi": [
    {
      "inputs": [
        {
          "internalType": "uint256",
          "name": "_annualFee",
          "type": "uint256"
        },
        {
          "internalType": "uint256",
          "name": "_maxMintedNFTs",
          "type": "uint256"
        },
        {
          "internalType": "uint256",
          "name": "_nftThreshold",
          "type": "uint256"
        },
        {
          "internalType": "uint256",
          "name": "_maxMembershipPeriod",
          "type": "uint256"
        },
        {
          "internalType": "address",
          "name": "_dai",
          "type": "address"
        },
        {
          "internalType": "address",
          "name": "_lendingPool",
          "type": "address"
        },
        {
          "internalType": "address",
          "name": "_nftMinter",
          "type": "address"
        }
      ],
      "stateMutability": "nonpayable",
      "type": "constructor"
    },
    {
      "anonymous": false,
      "inputs": [
        {
          "indexed": true,
          "internalType": "address",
          "name": "previousOwner",
          "type": "address"
        },
        {
          "indexed": true,
          "internalType": "address",
          "name": "newOwner",
          "type": "address"
        }
      ],
      "name": "OwnershipTransferred",
      "type": "event"
    },
    {
      "inputs": [],
      "name": "YEAR",
      "outputs": [
        {
          "internalType": "uint256",
          "name": "",
          "type": "uint256"
        }
      ],
      "stateMutability": "view",
      "type": "function"
    },
    {
      "inputs": [],
      "name": "annualFee",
      "outputs": [
        {
          "internalType": "uint256",
          "name": "",
          "type": "uint256"
        }
      ],
      "stateMutability": "view",
      "type": "function"
    },
    {
      "inputs": [],
      "name": "daiAddress",
      "outputs": [
        {
          "internalType": "address",
          "name": "",
          "type": "address"
        }
      ],
      "stateMutability": "view",
      "type": "function"
    },
    {
      "inputs": [
        {
          "internalType": "uint256",
          "name": "_amount",
          "type": "uint256"
        }
      ],
      "name": "depositInAave",
      "outputs": [],
      "stateMutability": "nonpayable",
      "type": "function"
    },
    {
      "inputs": [
        {
          "internalType": "address",
          "name": "_account",
          "type": "address"
        }
      ],
      "name": "getAccountNFT",
      "outputs": [
        {
          "internalType": "bool",
          "name": "",
          "type": "bool"
        }
      ],
      "stateMutability": "view",
      "type": "function"
    },
    {
      "inputs": [
        {
          "internalType": "address",
          "name": "_account",
          "type": "address"
        }
      ],
      "name": "getMembershipExpiryTime",
      "outputs": [
        {
          "internalType": "uint256",
          "name": "",
          "type": "uint256"
        }
      ],
      "stateMutability": "view",
      "type": "function"
    },
    {
      "inputs": [],
      "name": "maxMembershipPeriod",
      "outputs": [
        {
          "internalType": "uint256",
          "name": "",
          "type": "uint256"
        }
      ],
      "stateMutability": "view",
      "type": "function"
    },
    {
      "inputs": [],
      "name": "maxMintedNFTs",
      "outputs": [
        {
          "internalType": "uint256",
          "name": "",
          "type": "uint256"
        }
      ],
      "stateMutability": "view",
      "type": "function"
    },
    {
      "inputs": [],
      "name": "nftCount",
      "outputs": [
        {
          "internalType": "uint256",
          "name": "",
          "type": "uint256"
        }
      ],
      "stateMutability": "view",
      "type": "function"
    },
    {
      "inputs": [],
      "name": "nftThresholdPayment",
      "outputs": [
        {
          "internalType": "uint256",
          "name": "",
          "type": "uint256"
        }
      ],
      "stateMutability": "view",
      "type": "function"
    },
    {
      "inputs": [],
      "name": "nftsActive",
      "outputs": [
        {
          "internalType": "bool",
          "name": "",
          "type": "bool"
        }
      ],
      "stateMutability": "view",
      "type": "function"
    },
    {
      "inputs": [],
      "name": "owner",
      "outputs": [
        {
          "internalType": "address",
          "name": "",
          "type": "address"
        }
      ],
      "stateMutability": "view",
      "type": "function"
    },
    {
      "inputs": [
        {
          "internalType": "address",
          "name": "_account",
          "type": "address"
        },
        {
          "internalType": "uint256",
          "name": "_amount",
          "type": "uint256"
        }
      ],
      "name": "paySubscription",
      "outputs": [],
      "stateMutability": "nonpayable",
      "type": "function"
    },
    {
      "inputs": [],
      "name": "renounceOwnership",
      "outputs": [],
      "stateMutability": "nonpayable",
      "type": "function"
    },
    {
      "inputs": [
        {
          "internalType": "uint256",
          "name": "_annualFee",
          "type": "uint256"
        }
      ],
      "name": "setAnnualFee",
      "outputs": [],
      "stateMutability": "nonpayable",
      "type": "function"
    },
    {
      "inputs": [
        {
          "internalType": "address",
          "name": "_lendingPool",
          "type": "address"
        }
      ],
      "name": "setLendingPool",
      "outputs": [],
      "stateMutability": "nonpayable",
      "type": "function"
    },
    {
      "inputs": [
        {
          "internalType": "uint256",
          "name": "_maxPeriod",
          "type": "uint256"
        }
      ],
      "name": "setMaxMembershipPeriod",
      "outputs": [],
      "stateMutability": "nonpayable",
      "type": "function"
    },
    {
      "inputs": [
        {
          "internalType": "uint256",
          "name": "_max",
          "type": "uint256"
        }
      ],
      "name": "setMaxMintedNFTs",
      "outputs": [],
      "stateMutability": "nonpayable",
      "type": "function"
    },
    {
      "inputs": [
        {
          "internalType": "address",
          "name": "_minter",
          "type": "address"
        },
        {
          "internalType": "bool",
          "name": "_nftsActive",
          "type": "bool"
        }
      ],
      "name": "setNFTMinter",
      "outputs": [],
      "stateMutability": "nonpayable",
      "type": "function"
    },
    {
      "inputs": [
        {
          "internalType": "uint256",
          "name": "_threshold",
          "type": "uint256"
        }
      ],
      "name": "setNftThresholdPayment",
      "outputs": [],
      "stateMutability": "nonpayable",
      "type": "function"
    },
    {
      "inputs": [
        {
          "internalType": "address",
          "name": "newOwner",
          "type": "address"
        }
      ],
      "name": "transferOwnership",
      "outputs": [],
      "stateMutability": "nonpayable",
      "type": "function"
    },
    {
      "inputs": [],
      "name": "withdrawDAI",
      "outputs": [],
      "stateMutability": "nonpayable",
      "type": "function"
    },
    {
      "inputs": [
        {
          "internalType": "uint256",
          "name": "_amount",
          "type": "uint256"
        }
      ],
      "name": "withdrawFromAave",
      "outputs": [],
      "stateMutability": "nonpayable",
      "type": "function"
    }
  ],
  "bytecode": "0x60806040523480156200001157600080fd5b50604051620026013803806200260183398181016040528101906200003791906200039d565b620000576200004b6200025a60201b60201c565b6200026260201b60201c565b866005819055508360068190555084600a819055508560098190555082600360006101000a81548173ffffffffffffffffffffffffffffffffffffffff021916908373ffffffffffffffffffffffffffffffffffffffff16021790555082600460006101000a81548173ffffffffffffffffffffffffffffffffffffffff021916908373ffffffffffffffffffffffffffffffffffffffff16021790555081600260006101000a81548173ffffffffffffffffffffffffffffffffffffffff021916908373ffffffffffffffffffffffffffffffffffffffff16021790555080600160006101000a81548173ffffffffffffffffffffffffffffffffffffffff021916908373ffffffffffffffffffffffffffffffffffffffff160217905550600360009054906101000a900473ffffffffffffffffffffffffffffffffffffffff1673ffffffffffffffffffffffffffffffffffffffff1663095ea7b3837fffffffffffffffffffffffffffffffffffffffffffffffffffffffffffffffff6040518363ffffffff1660e01b8152600401620001f692919062000472565b602060405180830381600087803b1580156200021157600080fd5b505af115801562000226573d6000803e3d6000fd5b505050506040513d601f19601f820116820180604052508101906200024c91906200036b565b50505050505050506200053c565b600033905090565b60008060009054906101000a900473ffffffffffffffffffffffffffffffffffffffff169050816000806101000a81548173ffffffffffffffffffffffffffffffffffffffff021916908373ffffffffffffffffffffffffffffffffffffffff1602179055508173ffffffffffffffffffffffffffffffffffffffff168173ffffffffffffffffffffffffffffffffffffffff167f8be0079c531659141344cd1fd0a4f28419497f9722a3daafe3b4186f6b6457e060405160405180910390a35050565b6000815190506200033781620004ee565b92915050565b6000815190506200034e8162000508565b92915050565b600081519050620003658162000522565b92915050565b600060208284031215620003845762000383620004e9565b5b600062000394848285016200033d565b91505092915050565b600080600080600080600060e0888a031215620003bf57620003be620004e9565b5b6000620003cf8a828b0162000354565b9750506020620003e28a828b0162000354565b9650506040620003f58a828b0162000354565b9550506060620004088a828b0162000354565b94505060806200041b8a828b0162000326565b93505060a06200042e8a828b0162000326565b92505060c0620004418a828b0162000326565b91505092959891949750929550565b6200045b816200049f565b82525050565b6200046c81620004df565b82525050565b600060408201905062000489600083018562000450565b62000498602083018462000461565b9392505050565b6000620004ac82620004bf565b9050919050565b60008115159050919050565b600073ffffffffffffffffffffffffffffffffffffffff82169050919050565b6000819050919050565b600080fd5b620004f9816200049f565b81146200050557600080fd5b50565b6200051381620004b3565b81146200051f57600080fd5b50565b6200052d81620004df565b81146200053957600080fd5b50565b6120b5806200054c6000396000f3fe608060405234801561001057600080fd5b506004361061014d5760003560e01c8063715018a6116100c35780638da5cb5b1161007c5780638da5cb5b14610340578063ad21f0081461035e578063d2720e691461037a578063dee0297f14610396578063f2fde38b146103b2578063f515bae7146103ce5761014d565b8063715018a614610294578063773778081461029e5780637b7182ef146102ce57806383914540146102ea5780638443867e1461030857806388b89a7d146103245761014d565b80632c387275116101155780632c387275146101d257806334cac051146101f05780633c91292b146102205780634a0ab3db1461023c57806358980a261461025a578063688f237b146102785761014d565b8063020bcc9e146101525780630af2c6ca1461015c578063113aa8b11461017a5780631dfda2e714610196578063294bd738146101b4575b600080fd5b61015a6103ec565b005b610164610602565b6040516101719190611c28565b60405180910390f35b610194600480360381019061018f919061174b565b610608565b005b61019e610808565b6040516101ab9190611c28565b60405180910390f35b6101bc61080e565b6040516101c99190611c28565b60405180910390f35b6101da610814565b6040516101e791906119f6565b60405180910390f35b61020a6004803603810190610205919061174b565b61083a565b6040516102179190611aed565b60405180910390f35b61023a600480360381019061023591906117b8565b610890565b005b610244610d8c565b6040516102519190611aed565b60405180910390f35b610262610d9f565b60405161026f9190611c28565b60405180910390f35b610292600480360381019061028d9190611825565b610da5565b005b61029c610f3b565b005b6102b860048036038101906102b3919061174b565b610fc3565b6040516102c59190611c28565b60405180910390f35b6102e860048036038101906102e39190611825565b61100c565b005b6102f2611092565b6040516102ff9190611c28565b60405180910390f35b610322600480360381019061031d9190611825565b61109a565b005b61033e60048036038101906103399190611825565b611120565b005b6103486111a6565b60405161035591906119f6565b60405180910390f35b61037860048036038101906103739190611825565b6111cf565b005b610394600480360381019061038f9190611825565b611255565b005b6103b060048036038101906103ab9190611778565b6113cd565b005b6103cc60048036038101906103c7919061174b565b611518565b005b6103d6611610565b6040516103e39190611c28565b60405180910390f35b6103f4611616565b73ffffffffffffffffffffffffffffffffffffffff166104126111a6565b73ffffffffffffffffffffffffffffffffffffffff1614610468576040517f08c379a000000000000000000000000000000000000000000000000000000000815260040161045f90611bc8565b60405180910390fd5b600360009054906101000a900473ffffffffffffffffffffffffffffffffffffffff1673ffffffffffffffffffffffffffffffffffffffff1663a9059cbb33600360009054906101000a900473ffffffffffffffffffffffffffffffffffffffff1673ffffffffffffffffffffffffffffffffffffffff166370a08231306040518263ffffffff1660e01b815260040161050291906119f6565b60206040518083038186803b15801561051a57600080fd5b505afa15801561052e573d6000803e3d6000fd5b505050506040513d601f19601f820116820180604052508101906105529190611852565b6040518363ffffffff1660e01b815260040161056f929190611a48565b602060405180830381600087803b15801561058957600080fd5b505af115801561059d573d6000803e3d6000fd5b505050506040513d601f19601f820116820180604052508101906105c191906117f8565b610600576040517f08c379a00000000000000000000000000000000000000000000000000000000081526004016105f790611b88565b60405180910390fd5b565b60085481565b610610611616565b73ffffffffffffffffffffffffffffffffffffffff1661062e6111a6565b73ffffffffffffffffffffffffffffffffffffffff1614610684576040517f08c379a000000000000000000000000000000000000000000000000000000000815260040161067b90611bc8565b60405180910390fd5b600073ffffffffffffffffffffffffffffffffffffffff168173ffffffffffffffffffffffffffffffffffffffff1614156106f4576040517f08c379a00000000000000000000000000000000000000000000000000000000081526004016106eb90611b08565b60405180910390fd5b80600260006101000a81548173ffffffffffffffffffffffffffffffffffffffff021916908373ffffffffffffffffffffffffffffffffffffffff160217905550600360009054906101000a900473ffffffffffffffffffffffffffffffffffffffff1673ffffffffffffffffffffffffffffffffffffffff1663095ea7b3827fffffffffffffffffffffffffffffffffffffffffffffffffffffffffffffffff6040518363ffffffff1660e01b81526004016107b2929190611a48565b602060405180830381600087803b1580156107cc57600080fd5b505af11580156107e0573d6000803e3d6000fd5b505050506040513d601f19601f8201168201806040525081019061080491906117f8565b5050565b60055481565b600a5481565b600460009054906101000a900473ffffffffffffffffffffffffffffffffffffffff1681565b6000600c60008373ffffffffffffffffffffffffffffffffffffffff1673ffffffffffffffffffffffffffffffffffffffff16815260200190815260200160002060009054906101000a900460ff169050919050565b600073ffffffffffffffffffffffffffffffffffffffff168273ffffffffffffffffffffffffffffffffffffffff161415610900576040517f08c379a00000000000000000000000000000000000000000000000000000000081526004016108f790611ba8565b60405180910390fd5b60008111610943576040517f08c379a000000000000000000000000000000000000000000000000000000000815260040161093a90611b68565b60405180910390fd5b600360009054906101000a900473ffffffffffffffffffffffffffffffffffffffff1673ffffffffffffffffffffffffffffffffffffffff166323b872dd3330846040518463ffffffff1660e01b81526004016109a293929190611a11565b602060405180830381600087803b1580156109bc57600080fd5b505af11580156109d0573d6000803e3d6000fd5b505050506040513d601f19601f820116820180604052508101906109f491906117f8565b610a33576040517f08c379a0000000000000000000000000000000000000000000000000000000008152600401610a2a90611b28565b60405180910390fd5b6000600554826301e13380610a489190611cdb565b610a529190611caa565b905042600b60008573ffffffffffffffffffffffffffffffffffffffff1673ffffffffffffffffffffffffffffffffffffffff168152602001908152602001600020541015610b2057600654811115610acc5760065490506005546301e13380600654610abf9190611caa565b610ac99190611cdb565b91505b8042610ad89190611c54565b600b60008573ffffffffffffffffffffffffffffffffffffffff1673ffffffffffffffffffffffffffffffffffffffff16815260200190815260200160002081905550610bff565b6000600b60008573ffffffffffffffffffffffffffffffffffffffff1673ffffffffffffffffffffffffffffffffffffffff1681526020019081526020016000205460065442610b709190611c54565b610b7a9190611d35565b905080821115610ba7578091506005546301e1338082610b9a9190611caa565b610ba49190611cdb565b92505b81600b60008673ffffffffffffffffffffffffffffffffffffffff1673ffffffffffffffffffffffffffffffffffffffff1681526020019081526020016000206000828254610bf69190611c54565b92505081905550505b600760009054906101000a900460ff168015610c1d5750600a548210155b8015610c735750600c60008473ffffffffffffffffffffffffffffffffffffffff1673ffffffffffffffffffffffffffffffffffffffff16815260200190815260200160002060009054906101000a900460ff16155b8015610c825750600954600854105b15610d8757600160009054906101000a900473ffffffffffffffffffffffffffffffffffffffff1673ffffffffffffffffffffffffffffffffffffffff166340c10f1984846040518363ffffffff1660e01b8152600401610ce4929190611a48565b600060405180830381600087803b158015610cfe57600080fd5b505af1158015610d12573d6000803e3d6000fd5b505050506001600c60008573ffffffffffffffffffffffffffffffffffffffff1673ffffffffffffffffffffffffffffffffffffffff16815260200190815260200160002060006101000a81548160ff02191690831515021790555060086000815480929190610d8190611dd1565b91905055505b505050565b600760009054906101000a900460ff1681565b60065481565b610dad611616565b73ffffffffffffffffffffffffffffffffffffffff16610dcb6111a6565b73ffffffffffffffffffffffffffffffffffffffff1614610e21576040517f08c379a0000000000000000000000000000000000000000000000000000000008152600401610e1890611bc8565b60405180910390fd5b60008111610e64576040517f08c379a0000000000000000000000000000000000000000000000000000000008152600401610e5b90611be8565b60405180910390fd5b600260009054906101000a900473ffffffffffffffffffffffffffffffffffffffff1673ffffffffffffffffffffffffffffffffffffffff166369328dec600460009054906101000a900473ffffffffffffffffffffffffffffffffffffffff1683306040518463ffffffff1660e01b8152600401610ee593929190611a71565b602060405180830381600087803b158015610eff57600080fd5b505af1158015610f13573d6000803e3d6000fd5b505050506040513d601f19601f82011682018060405250810190610f379190611852565b5050565b610f43611616565b73ffffffffffffffffffffffffffffffffffffffff16610f616111a6565b73ffffffffffffffffffffffffffffffffffffffff1614610fb7576040517f08c379a0000000000000000000000000000000000000000000000000000000008152600401610fae90611bc8565b60405180910390fd5b610fc1600061161e565b565b6000600b60008373ffffffffffffffffffffffffffffffffffffffff1673ffffffffffffffffffffffffffffffffffffffff168152602001908152602001600020549050919050565b611014611616565b73ffffffffffffffffffffffffffffffffffffffff166110326111a6565b73ffffffffffffffffffffffffffffffffffffffff1614611088576040517f08c379a000000000000000000000000000000000000000000000000000000000815260040161107f90611bc8565b60405180910390fd5b8060068190555050565b6301e1338081565b6110a2611616565b73ffffffffffffffffffffffffffffffffffffffff166110c06111a6565b73ffffffffffffffffffffffffffffffffffffffff1614611116576040517f08c379a000000000000000000000000000000000000000000000000000000000815260040161110d90611bc8565b60405180910390fd5b8060098190555050565b611128611616565b73ffffffffffffffffffffffffffffffffffffffff166111466111a6565b73ffffffffffffffffffffffffffffffffffffffff161461119c576040517f08c379a000000000000000000000000000000000000000000000000000000000815260040161119390611bc8565b60405180910390fd5b8060058190555050565b60008060009054906101000a900473ffffffffffffffffffffffffffffffffffffffff16905090565b6111d7611616565b73ffffffffffffffffffffffffffffffffffffffff166111f56111a6565b73ffffffffffffffffffffffffffffffffffffffff161461124b576040517f08c379a000000000000000000000000000000000000000000000000000000000815260040161124290611bc8565b60405180910390fd5b80600a8190555050565b61125d611616565b73ffffffffffffffffffffffffffffffffffffffff1661127b6111a6565b73ffffffffffffffffffffffffffffffffffffffff16146112d1576040517f08c379a00000000000000000000000000000000000000000000000000000000081526004016112c890611bc8565b60405180910390fd5b60008111611314576040517f08c379a000000000000000000000000000000000000000000000000000000000815260040161130b90611c08565b60405180910390fd5b600260009054906101000a900473ffffffffffffffffffffffffffffffffffffffff1673ffffffffffffffffffffffffffffffffffffffff1663e8eda9df600460009054906101000a900473ffffffffffffffffffffffffffffffffffffffff16833060006040518563ffffffff1660e01b81526004016113989493929190611aa8565b600060405180830381600087803b1580156113b257600080fd5b505af11580156113c6573d6000803e3d6000fd5b5050505050565b6113d5611616565b73ffffffffffffffffffffffffffffffffffffffff166113f36111a6565b73ffffffffffffffffffffffffffffffffffffffff1614611449576040517f08c379a000000000000000000000000000000000000000000000000000000000815260040161144090611bc8565b60405180910390fd5b600073ffffffffffffffffffffffffffffffffffffffff168273ffffffffffffffffffffffffffffffffffffffff1614156114b9576040517f08c379a00000000000000000000000000000000000000000000000000000000081526004016114b090611b08565b60405180910390fd5b81600160006101000a81548173ffffffffffffffffffffffffffffffffffffffff021916908373ffffffffffffffffffffffffffffffffffffffff16021790555080600760006101000a81548160ff0219169083151502179055505050565b611520611616565b73ffffffffffffffffffffffffffffffffffffffff1661153e6111a6565b73ffffffffffffffffffffffffffffffffffffffff1614611594576040517f08c379a000000000000000000000000000000000000000000000000000000000815260040161158b90611bc8565b60405180910390fd5b600073ffffffffffffffffffffffffffffffffffffffff168173ffffffffffffffffffffffffffffffffffffffff161415611604576040517f08c379a00000000000000000000000000000000000000000000000000000000081526004016115fb90611b48565b60405180910390fd5b61160d8161161e565b50565b60095481565b600033905090565b60008060009054906101000a900473ffffffffffffffffffffffffffffffffffffffff169050816000806101000a81548173ffffffffffffffffffffffffffffffffffffffff021916908373ffffffffffffffffffffffffffffffffffffffff1602179055508173ffffffffffffffffffffffffffffffffffffffff168173ffffffffffffffffffffffffffffffffffffffff167f8be0079c531659141344cd1fd0a4f28419497f9722a3daafe3b4186f6b6457e060405160405180910390a35050565b6000813590506116f18161203a565b92915050565b60008135905061170681612051565b92915050565b60008151905061171b81612051565b92915050565b60008135905061173081612068565b92915050565b60008151905061174581612068565b92915050565b60006020828403121561176157611760611e78565b5b600061176f848285016116e2565b91505092915050565b6000806040838503121561178f5761178e611e78565b5b600061179d858286016116e2565b92505060206117ae858286016116f7565b9150509250929050565b600080604083850312156117cf576117ce611e78565b5b60006117dd858286016116e2565b92505060206117ee85828601611721565b9150509250929050565b60006020828403121561180e5761180d611e78565b5b600061181c8482850161170c565b91505092915050565b60006020828403121561183b5761183a611e78565b5b600061184984828501611721565b91505092915050565b60006020828403121561186857611867611e78565b5b600061187684828501611736565b91505092915050565b61188881611d69565b82525050565b61189781611d7b565b82525050565b6118a681611dbf565b82525050565b60006118b9601d83611c43565b91506118c482611e7d565b602082019050919050565b60006118dc601583611c43565b91506118e782611ea6565b602082019050919050565b60006118ff602683611c43565b915061190a82611ecf565b604082019050919050565b6000611922602083611c43565b915061192d82611f1e565b602082019050919050565b6000611945601a83611c43565b915061195082611f47565b602082019050919050565b6000611968602383611c43565b915061197382611f70565b604082019050919050565b600061198b602083611c43565b915061199682611fbf565b602082019050919050565b60006119ae601e83611c43565b91506119b982611fe8565b602082019050919050565b60006119d1601d83611c43565b91506119dc82612011565b602082019050919050565b6119f081611db5565b82525050565b6000602082019050611a0b600083018461187f565b92915050565b6000606082019050611a26600083018661187f565b611a33602083018561187f565b611a4060408301846119e7565b949350505050565b6000604082019050611a5d600083018561187f565b611a6a60208301846119e7565b9392505050565b6000606082019050611a86600083018661187f565b611a9360208301856119e7565b611aa0604083018461187f565b949350505050565b6000608082019050611abd600083018761187f565b611aca60208301866119e7565b611ad7604083018561187f565b611ae4606083018461189d565b95945050505050565b6000602082019050611b02600083018461188e565b92915050565b60006020820190508181036000830152611b21816118ac565b9050919050565b60006020820190508181036000830152611b41816118cf565b9050919050565b60006020820190508181036000830152611b61816118f2565b9050919050565b60006020820190508181036000830152611b8181611915565b9050919050565b60006020820190508181036000830152611ba181611938565b9050919050565b60006020820190508181036000830152611bc18161195b565b9050919050565b60006020820190508181036000830152611be18161197e565b9050919050565b60006020820190508181036000830152611c01816119a1565b9050919050565b60006020820190508181036000830152611c21816119c4565b9050919050565b6000602082019050611c3d60008301846119e7565b92915050565b600082825260208201905092915050565b6000611c5f82611db5565b9150611c6a83611db5565b9250827fffffffffffffffffffffffffffffffffffffffffffffffffffffffffffffffff03821115611c9f57611c9e611e1a565b5b828201905092915050565b6000611cb582611db5565b9150611cc083611db5565b925082611cd057611ccf611e49565b5b828204905092915050565b6000611ce682611db5565b9150611cf183611db5565b9250817fffffffffffffffffffffffffffffffffffffffffffffffffffffffffffffffff0483118215151615611d2a57611d29611e1a565b5b828202905092915050565b6000611d4082611db5565b9150611d4b83611db5565b925082821015611d5e57611d5d611e1a565b5b828203905092915050565b6000611d7482611d95565b9050919050565b60008115159050919050565b600061ffff82169050919050565b600073ffffffffffffffffffffffffffffffffffffffff82169050919050565b6000819050919050565b6000611dca82611d87565b9050919050565b6000611ddc82611db5565b91507fffffffffffffffffffffffffffffffffffffffffffffffffffffffffffffffff821415611e0f57611e0e611e1a565b5b600182019050919050565b7f4e487b7100000000000000000000000000000000000000000000000000000000600052601160045260246000fd5b7f4e487b7100000000000000000000000000000000000000000000000000000000600052601260045260246000fd5b600080fd5b7f46455252593a2043414e275420555345205a45524f2041444452455353000000600082015250565b7f46455252593a205041594d454e54204641494c45440000000000000000000000600082015250565b7f4f776e61626c653a206e6577206f776e657220697320746865207a65726f206160008201527f6464726573730000000000000000000000000000000000000000000000000000602082015250565b7f46455252593a2050415920534f4d452044414920544f20535542534352494245600082015250565b7f46455252593a20444149205749544844524157204641494c4544000000000000600082015250565b7f46455252593a205a45524f20414444524553532043414e27542053554253435260008201527f4942450000000000000000000000000000000000000000000000000000000000602082015250565b7f4f776e61626c653a2063616c6c6572206973206e6f7420746865206f776e6572600082015250565b7f46455252593a205749544844524157204d4f5245205448414e205a45524f0000600082015250565b7f46455252593a204445504f534954204d4f5245205448414e205a45524f000000600082015250565b61204381611d69565b811461204e57600080fd5b50565b61205a81611d7b565b811461206557600080fd5b50565b61207181611db5565b811461207c57600080fd5b5056fea2646970667358221220c6e79244a1db5aa2ec6896af8d165919189f40bbb76782be25a6f84777a737b164736f6c63430008060033",
  "linkReferences": {},
  "deployedLinkReferences": {}
}