{
  "_format": "hh-sol-artifact-1",
  "contractName": "Ferry",
  "sourceName": "contracts/Ferry.sol",
  "abi": [
    {
      "inputs": [
        {
          "internalType": "uint256",
          "name": "_annualFee",
          "type": "uint256"
        },
        {
          "internalType": "address",
          "name": "_lendingPool",
          "type": "address"
        }
      ],
      "stateMutability": "nonpayable",
      "type": "constructor"
    },
    {
      "anonymous": false,
      "inputs": [
        {
          "indexed": true,
          "internalType": "address",
          "name": "previousOwner",
          "type": "address"
        },
        {
          "indexed": true,
          "internalType": "address",
          "name": "newOwner",
          "type": "address"
        }
      ],
      "name": "OwnershipTransferred",
      "type": "event"
    },
    {
      "inputs": [],
      "name": "YEAR",
      "outputs": [
        {
          "internalType": "uint256",
          "name": "",
          "type": "uint256"
        }
      ],
      "stateMutability": "view",
      "type": "function"
    },
    {
      "inputs": [],
      "name": "annualFee",
      "outputs": [
        {
          "internalType": "uint256",
          "name": "",
          "type": "uint256"
        }
      ],
      "stateMutability": "view",
      "type": "function"
    },
    {
      "inputs": [
        {
          "internalType": "uint256",
          "name": "_amount",
          "type": "uint256"
        }
      ],
      "name": "depositInAave",
      "outputs": [],
      "stateMutability": "nonpayable",
      "type": "function"
    },
    {
      "inputs": [
        {
          "internalType": "address",
          "name": "_account",
          "type": "address"
        }
      ],
      "name": "getMembershipTimeLeft",
      "outputs": [
        {
          "internalType": "uint256",
          "name": "",
          "type": "uint256"
        }
      ],
      "stateMutability": "view",
      "type": "function"
    },
    {
      "inputs": [],
      "name": "owner",
      "outputs": [
        {
          "internalType": "address",
          "name": "",
          "type": "address"
        }
      ],
      "stateMutability": "view",
      "type": "function"
    },
    {
      "inputs": [
        {
          "internalType": "address",
          "name": "_account",
          "type": "address"
        },
        {
          "internalType": "uint256",
          "name": "_amount",
          "type": "uint256"
        }
      ],
      "name": "paySubscription",
      "outputs": [],
      "stateMutability": "nonpayable",
      "type": "function"
    },
    {
      "inputs": [],
      "name": "renounceOwnership",
      "outputs": [],
      "stateMutability": "nonpayable",
      "type": "function"
    },
    {
      "inputs": [
        {
          "internalType": "uint256",
          "name": "_annualFee",
          "type": "uint256"
        }
      ],
      "name": "setAnnualFee",
      "outputs": [],
      "stateMutability": "nonpayable",
      "type": "function"
    },
    {
      "inputs": [
        {
          "internalType": "address",
          "name": "newOwner",
          "type": "address"
        }
      ],
      "name": "transferOwnership",
      "outputs": [],
      "stateMutability": "nonpayable",
      "type": "function"
    },
    {
      "inputs": [
        {
          "internalType": "uint256",
          "name": "_amount",
          "type": "uint256"
        }
      ],
      "name": "withdrawFromAave",
      "outputs": [],
      "stateMutability": "nonpayable",
      "type": "function"
    }
  ],
  "bytecode": "0x60806040523480156200001157600080fd5b5060405162000f4a38038062000f4a8339818101604052810190620000379190620001a1565b620000576200004b620000a760201b60201c565b620000af60201b60201c565b80600160006101000a81548173ffffffffffffffffffffffffffffffffffffffff021916908373ffffffffffffffffffffffffffffffffffffffff1602179055508160028190555050506200025f565b600033905090565b60008060009054906101000a900473ffffffffffffffffffffffffffffffffffffffff169050816000806101000a81548173ffffffffffffffffffffffffffffffffffffffff021916908373ffffffffffffffffffffffffffffffffffffffff1602179055508173ffffffffffffffffffffffffffffffffffffffff168173ffffffffffffffffffffffffffffffffffffffff167f8be0079c531659141344cd1fd0a4f28419497f9722a3daafe3b4186f6b6457e060405160405180910390a35050565b60008151905062000184816200022b565b92915050565b6000815190506200019b8162000245565b92915050565b60008060408385031215620001bb57620001ba62000226565b5b6000620001cb858286016200018a565b9250506020620001de8582860162000173565b9150509250929050565b6000620001f582620001fc565b9050919050565b600073ffffffffffffffffffffffffffffffffffffffff82169050919050565b6000819050919050565b600080fd5b6200023681620001e8565b81146200024257600080fd5b50565b62000250816200021c565b81146200025c57600080fd5b50565b610cdb806200026f6000396000f3fe608060405234801561001057600080fd5b506004361061009e5760003560e01c806388b89a7d1161006657806388b89a7d146101215780638da5cb5b1461013d578063d2720e691461015b578063e46cc03f14610177578063f2fde38b146101a75761009e565b80631dfda2e7146100a35780633c91292b146100c1578063688f237b146100dd578063715018a6146100f95780638391454014610103575b600080fd5b6100ab6101c3565b6040516100b891906109a7565b60405180910390f35b6100db60048036038101906100d691906107f5565b6101c9565b005b6100f760048036038101906100f29190610835565b6102f8565b005b610101610377565b005b61010b6103ff565b60405161011891906109a7565b60405180910390f35b61013b60048036038101906101369190610835565b610407565b005b61014561048d565b604051610152919061090c565b60405180910390f35b61017560048036038101906101709190610835565b6104b6565b005b610191600480360381019061018c91906107c8565b610535565b60405161019e91906109a7565b60405180910390f35b6101c160048036038101906101bc91906107c8565b6105da565b005b60025481565b600073ffffffffffffffffffffffffffffffffffffffff168273ffffffffffffffffffffffffffffffffffffffff161415610239576040517f08c379a000000000000000000000000000000000000000000000000000000000815260040161023090610967565b60405180910390fd5b6000811161027c576040517f08c379a000000000000000000000000000000000000000000000000000000000815260040161027390610947565b60405180910390fd5b6000600254826301e133806102919190610a5a565b61029b9190610a29565b905080600360008573ffffffffffffffffffffffffffffffffffffffff1673ffffffffffffffffffffffffffffffffffffffff16815260200190815260200160002060008282546102ec91906109d3565b92505081905550505050565b6103006106d2565b73ffffffffffffffffffffffffffffffffffffffff1661031e61048d565b73ffffffffffffffffffffffffffffffffffffffff1614610374576040517f08c379a000000000000000000000000000000000000000000000000000000000815260040161036b90610987565b60405180910390fd5b50565b61037f6106d2565b73ffffffffffffffffffffffffffffffffffffffff1661039d61048d565b73ffffffffffffffffffffffffffffffffffffffff16146103f3576040517f08c379a00000000000000000000000000000000000000000000000000000000081526004016103ea90610987565b60405180910390fd5b6103fd60006106da565b565b6301e1338081565b61040f6106d2565b73ffffffffffffffffffffffffffffffffffffffff1661042d61048d565b73ffffffffffffffffffffffffffffffffffffffff1614610483576040517f08c379a000000000000000000000000000000000000000000000000000000000815260040161047a90610987565b60405180910390fd5b8060028190555050565b60008060009054906101000a900473ffffffffffffffffffffffffffffffffffffffff16905090565b6104be6106d2565b73ffffffffffffffffffffffffffffffffffffffff166104dc61048d565b73ffffffffffffffffffffffffffffffffffffffff1614610532576040517f08c379a000000000000000000000000000000000000000000000000000000000815260040161052990610987565b60405180910390fd5b50565b600042600360008473ffffffffffffffffffffffffffffffffffffffff1673ffffffffffffffffffffffffffffffffffffffff1681526020019081526020016000205411156105d05742600360008473ffffffffffffffffffffffffffffffffffffffff1673ffffffffffffffffffffffffffffffffffffffff168152602001908152602001600020546105c99190610ab4565b90506105d5565b600090505b919050565b6105e26106d2565b73ffffffffffffffffffffffffffffffffffffffff1661060061048d565b73ffffffffffffffffffffffffffffffffffffffff1614610656576040517f08c379a000000000000000000000000000000000000000000000000000000000815260040161064d90610987565b60405180910390fd5b600073ffffffffffffffffffffffffffffffffffffffff168173ffffffffffffffffffffffffffffffffffffffff1614156106c6576040517f08c379a00000000000000000000000000000000000000000000000000000000081526004016106bd90610927565b60405180910390fd5b6106cf816106da565b50565b600033905090565b60008060009054906101000a900473ffffffffffffffffffffffffffffffffffffffff169050816000806101000a81548173ffffffffffffffffffffffffffffffffffffffff021916908373ffffffffffffffffffffffffffffffffffffffff1602179055508173ffffffffffffffffffffffffffffffffffffffff168173ffffffffffffffffffffffffffffffffffffffff167f8be0079c531659141344cd1fd0a4f28419497f9722a3daafe3b4186f6b6457e060405160405180910390a35050565b6000813590506107ad81610c77565b92915050565b6000813590506107c281610c8e565b92915050565b6000602082840312156107de576107dd610b82565b5b60006107ec8482850161079e565b91505092915050565b6000806040838503121561080c5761080b610b82565b5b600061081a8582860161079e565b925050602061082b858286016107b3565b9150509250929050565b60006020828403121561084b5761084a610b82565b5b6000610859848285016107b3565b91505092915050565b61086b81610ae8565b82525050565b600061087e6026836109c2565b915061088982610b87565b604082019050919050565b60006108a16020836109c2565b91506108ac82610bd6565b602082019050919050565b60006108c46023836109c2565b91506108cf82610bff565b604082019050919050565b60006108e76020836109c2565b91506108f282610c4e565b602082019050919050565b61090681610b1a565b82525050565b60006020820190506109216000830184610862565b92915050565b6000602082019050818103600083015261094081610871565b9050919050565b6000602082019050818103600083015261096081610894565b9050919050565b60006020820190508181036000830152610980816108b7565b9050919050565b600060208201905081810360008301526109a0816108da565b9050919050565b60006020820190506109bc60008301846108fd565b92915050565b600082825260208201905092915050565b60006109de82610b1a565b91506109e983610b1a565b9250827fffffffffffffffffffffffffffffffffffffffffffffffffffffffffffffffff03821115610a1e57610a1d610b24565b5b828201905092915050565b6000610a3482610b1a565b9150610a3f83610b1a565b925082610a4f57610a4e610b53565b5b828204905092915050565b6000610a6582610b1a565b9150610a7083610b1a565b9250817fffffffffffffffffffffffffffffffffffffffffffffffffffffffffffffffff0483118215151615610aa957610aa8610b24565b5b828202905092915050565b6000610abf82610b1a565b9150610aca83610b1a565b925082821015610add57610adc610b24565b5b828203905092915050565b6000610af382610afa565b9050919050565b600073ffffffffffffffffffffffffffffffffffffffff82169050919050565b6000819050919050565b7f4e487b7100000000000000000000000000000000000000000000000000000000600052601160045260246000fd5b7f4e487b7100000000000000000000000000000000000000000000000000000000600052601260045260246000fd5b600080fd5b7f4f776e61626c653a206e6577206f776e657220697320746865207a65726f206160008201527f6464726573730000000000000000000000000000000000000000000000000000602082015250565b7f46455252593a2050415920534f4d452044414920544f20535542534352494245600082015250565b7f46455252593a205a45524f20414444524553532043414e27542053554253435260008201527f4942450000000000000000000000000000000000000000000000000000000000602082015250565b7f4f776e61626c653a2063616c6c6572206973206e6f7420746865206f776e6572600082015250565b610c8081610ae8565b8114610c8b57600080fd5b50565b610c9781610b1a565b8114610ca257600080fd5b5056fea26469706673582212206bfd5b916ceb104cd08375b0c131f3eac1aa438e9135cc8dd9808f99a13a248764736f6c63430008060033",
  "linkReferences": {},
  "deployedLinkReferences": {}
}