{
  "_format": "hh-sol-artifact-1",
  "contractName": "Ferry",
  "sourceName": "contracts/Ferry.sol",
  "abi": [
    {
      "inputs": [
        {
          "internalType": "uint256",
          "name": "_annualFee",
          "type": "uint256"
        },
        {
          "internalType": "uint256",
          "name": "_maxMintedNFTs",
          "type": "uint256"
        },
        {
          "internalType": "uint256",
          "name": "_nftThreshold",
          "type": "uint256"
        },
        {
          "internalType": "uint256",
          "name": "_maxMembershipPeriod",
          "type": "uint256"
        },
        {
          "internalType": "address",
          "name": "_dai",
          "type": "address"
        },
        {
          "internalType": "address",
          "name": "_lendingPool",
          "type": "address"
        },
        {
          "internalType": "address",
          "name": "_nftMinter",
          "type": "address"
        }
      ],
      "stateMutability": "nonpayable",
      "type": "constructor"
    },
    {
      "anonymous": false,
      "inputs": [
        {
          "indexed": true,
          "internalType": "address",
          "name": "account",
          "type": "address"
        },
        {
          "indexed": false,
          "internalType": "uint256",
          "name": "index",
          "type": "uint256"
        },
        {
          "indexed": false,
          "internalType": "uint256",
          "name": "tokenID",
          "type": "uint256"
        }
      ],
      "name": "NFTMinted",
      "type": "event"
    },
    {
      "anonymous": false,
      "inputs": [
        {
          "indexed": true,
          "internalType": "address",
          "name": "account",
          "type": "address"
        },
        {
          "indexed": false,
          "internalType": "uint256",
          "name": "randomNumber",
          "type": "uint256"
        }
      ],
      "name": "NFTNumberGenerated",
      "type": "event"
    },
    {
      "anonymous": false,
      "inputs": [
        {
          "indexed": true,
          "internalType": "address",
          "name": "previousOwner",
          "type": "address"
        },
        {
          "indexed": true,
          "internalType": "address",
          "name": "newOwner",
          "type": "address"
        }
      ],
      "name": "OwnershipTransferred",
      "type": "event"
    },
    {
      "anonymous": false,
      "inputs": [
        {
          "indexed": true,
          "internalType": "address",
          "name": "account",
          "type": "address"
        },
        {
          "indexed": false,
          "internalType": "uint256",
          "name": "amount",
          "type": "uint256"
        },
        {
          "indexed": false,
          "internalType": "uint256",
          "name": "expiry",
          "type": "uint256"
        }
      ],
      "name": "SubscriptionPaid",
      "type": "event"
    },
    {
      "inputs": [],
      "name": "YEAR",
      "outputs": [
        {
          "internalType": "uint256",
          "name": "",
          "type": "uint256"
        }
      ],
      "stateMutability": "view",
      "type": "function"
    },
    {
      "inputs": [],
      "name": "annualFee",
      "outputs": [
        {
          "internalType": "uint256",
          "name": "",
          "type": "uint256"
        }
      ],
      "stateMutability": "view",
      "type": "function"
    },
    {
      "inputs": [],
      "name": "daiAddress",
      "outputs": [
        {
          "internalType": "address",
          "name": "",
          "type": "address"
        }
      ],
      "stateMutability": "view",
      "type": "function"
    },
    {
      "inputs": [
        {
          "internalType": "uint256",
          "name": "_amount",
          "type": "uint256"
        }
      ],
      "name": "depositInAave",
      "outputs": [],
      "stateMutability": "nonpayable",
      "type": "function"
    },
    {
      "inputs": [
        {
          "internalType": "address",
          "name": "_account",
          "type": "address"
        }
      ],
      "name": "getAccountNFT",
      "outputs": [
        {
          "internalType": "uint256",
          "name": "randomNum",
          "type": "uint256"
        },
        {
          "internalType": "uint256",
          "name": "index",
          "type": "uint256"
        },
        {
          "internalType": "uint256",
          "name": "tokenID",
          "type": "uint256"
        }
      ],
      "stateMutability": "view",
      "type": "function"
    },
    {
      "inputs": [
        {
          "internalType": "address",
          "name": "_account",
          "type": "address"
        }
      ],
      "name": "getMembershipExpiryTime",
      "outputs": [
        {
          "internalType": "uint256",
          "name": "",
          "type": "uint256"
        }
      ],
      "stateMutability": "view",
      "type": "function"
    },
    {
      "inputs": [],
      "name": "maxMembershipPeriod",
      "outputs": [
        {
          "internalType": "uint256",
          "name": "",
          "type": "uint256"
        }
      ],
      "stateMutability": "view",
      "type": "function"
    },
    {
      "inputs": [],
      "name": "maxMintedNFTs",
      "outputs": [
        {
          "internalType": "uint256",
          "name": "",
          "type": "uint256"
        }
      ],
      "stateMutability": "view",
      "type": "function"
    },
    {
      "inputs": [
        {
          "internalType": "address",
          "name": "_account",
          "type": "address"
        }
      ],
      "name": "mintNFT",
      "outputs": [],
      "stateMutability": "nonpayable",
      "type": "function"
    },
    {
      "inputs": [],
      "name": "minterAddress",
      "outputs": [
        {
          "internalType": "address",
          "name": "",
          "type": "address"
        }
      ],
      "stateMutability": "view",
      "type": "function"
    },
    {
      "inputs": [],
      "name": "nftCount",
      "outputs": [
        {
          "internalType": "uint256",
          "name": "",
          "type": "uint256"
        }
      ],
      "stateMutability": "view",
      "type": "function"
    },
    {
      "inputs": [
        {
          "internalType": "address",
          "name": "_account",
          "type": "address"
        },
        {
          "internalType": "uint256",
          "name": "_randomNum",
          "type": "uint256"
        }
      ],
      "name": "nftCreatedCallback",
      "outputs": [],
      "stateMutability": "nonpayable",
      "type": "function"
    },
    {
      "inputs": [],
      "name": "nftThresholdPayment",
      "outputs": [
        {
          "internalType": "uint256",
          "name": "",
          "type": "uint256"
        }
      ],
      "stateMutability": "view",
      "type": "function"
    },
    {
      "inputs": [],
      "name": "nftsActive",
      "outputs": [
        {
          "internalType": "bool",
          "name": "",
          "type": "bool"
        }
      ],
      "stateMutability": "view",
      "type": "function"
    },
    {
      "inputs": [],
      "name": "owner",
      "outputs": [
        {
          "internalType": "address",
          "name": "",
          "type": "address"
        }
      ],
      "stateMutability": "view",
      "type": "function"
    },
    {
      "inputs": [
        {
          "internalType": "address",
          "name": "_account",
          "type": "address"
        },
        {
          "internalType": "uint256",
          "name": "_amount",
          "type": "uint256"
        }
      ],
      "name": "paySubscription",
      "outputs": [],
      "stateMutability": "nonpayable",
      "type": "function"
    },
    {
      "inputs": [],
      "name": "renounceOwnership",
      "outputs": [],
      "stateMutability": "nonpayable",
      "type": "function"
    },
    {
      "inputs": [
        {
          "internalType": "uint256",
          "name": "_annualFee",
          "type": "uint256"
        }
      ],
      "name": "setAnnualFee",
      "outputs": [],
      "stateMutability": "nonpayable",
      "type": "function"
    },
    {
      "inputs": [
        {
          "internalType": "address",
          "name": "_lendingPool",
          "type": "address"
        }
      ],
      "name": "setLendingPool",
      "outputs": [],
      "stateMutability": "nonpayable",
      "type": "function"
    },
    {
      "inputs": [
        {
          "internalType": "uint256",
          "name": "_maxPeriod",
          "type": "uint256"
        }
      ],
      "name": "setMaxMembershipPeriod",
      "outputs": [],
      "stateMutability": "nonpayable",
      "type": "function"
    },
    {
      "inputs": [
        {
          "internalType": "uint256",
          "name": "_max",
          "type": "uint256"
        }
      ],
      "name": "setMaxMintedNFTs",
      "outputs": [],
      "stateMutability": "nonpayable",
      "type": "function"
    },
    {
      "inputs": [
        {
          "internalType": "address",
          "name": "_minter",
          "type": "address"
        },
        {
          "internalType": "bool",
          "name": "_nftsActive",
          "type": "bool"
        }
      ],
      "name": "setNFTMinter",
      "outputs": [],
      "stateMutability": "nonpayable",
      "type": "function"
    },
    {
      "inputs": [
        {
          "internalType": "uint256",
          "name": "_threshold",
          "type": "uint256"
        }
      ],
      "name": "setNftThresholdPayment",
      "outputs": [],
      "stateMutability": "nonpayable",
      "type": "function"
    },
    {
      "inputs": [
        {
          "internalType": "address",
          "name": "newOwner",
          "type": "address"
        }
      ],
      "name": "transferOwnership",
      "outputs": [],
      "stateMutability": "nonpayable",
      "type": "function"
    },
    {
      "inputs": [
        {
          "internalType": "address",
          "name": "_account",
          "type": "address"
        },
        {
          "internalType": "uint256",
          "name": "_tokenID",
          "type": "uint256"
        }
      ],
      "name": "updateNFTData",
      "outputs": [],
      "stateMutability": "nonpayable",
      "type": "function"
    },
    {
      "inputs": [],
      "name": "withdrawDAI",
      "outputs": [],
      "stateMutability": "nonpayable",
      "type": "function"
    },
    {
      "inputs": [
        {
          "internalType": "uint256",
          "name": "_amount",
          "type": "uint256"
        }
      ],
      "name": "withdrawFromAave",
      "outputs": [],
      "stateMutability": "nonpayable",
      "type": "function"
    }
  ],
  "bytecode": "0x60806040523480156200001157600080fd5b5060405162002d7838038062002d788339818101604052810190620000379190620003de565b620000576200004b6200029b60201b60201c565b620002a360201b60201c565b866006819055508360078190555084600b8190555085600a8190555082600460006101000a81548173ffffffffffffffffffffffffffffffffffffffff021916908373ffffffffffffffffffffffffffffffffffffffff16021790555082600560006101000a81548173ffffffffffffffffffffffffffffffffffffffff021916908373ffffffffffffffffffffffffffffffffffffffff16021790555081600360006101000a81548173ffffffffffffffffffffffffffffffffffffffff021916908373ffffffffffffffffffffffffffffffffffffffff16021790555080600160006101000a81548173ffffffffffffffffffffffffffffffffffffffff021916908373ffffffffffffffffffffffffffffffffffffffff16021790555080600260006101000a81548173ffffffffffffffffffffffffffffffffffffffff021916908373ffffffffffffffffffffffffffffffffffffffff160217905550600460009054906101000a900473ffffffffffffffffffffffffffffffffffffffff1673ffffffffffffffffffffffffffffffffffffffff1663095ea7b3837fffffffffffffffffffffffffffffffffffffffffffffffffffffffffffffffff6040518363ffffffff1660e01b815260040162000237929190620004b3565b602060405180830381600087803b1580156200025257600080fd5b505af115801562000267573d6000803e3d6000fd5b505050506040513d601f19601f820116820180604052508101906200028d9190620003ac565b50505050505050506200057d565b600033905090565b60008060009054906101000a900473ffffffffffffffffffffffffffffffffffffffff169050816000806101000a81548173ffffffffffffffffffffffffffffffffffffffff021916908373ffffffffffffffffffffffffffffffffffffffff1602179055508173ffffffffffffffffffffffffffffffffffffffff168173ffffffffffffffffffffffffffffffffffffffff167f8be0079c531659141344cd1fd0a4f28419497f9722a3daafe3b4186f6b6457e060405160405180910390a35050565b60008151905062000378816200052f565b92915050565b6000815190506200038f8162000549565b92915050565b600081519050620003a68162000563565b92915050565b600060208284031215620003c557620003c46200052a565b5b6000620003d5848285016200037e565b91505092915050565b600080600080600080600060e0888a0312156200040057620003ff6200052a565b5b6000620004108a828b0162000395565b9750506020620004238a828b0162000395565b9650506040620004368a828b0162000395565b9550506060620004498a828b0162000395565b94505060806200045c8a828b0162000367565b93505060a06200046f8a828b0162000367565b92505060c0620004828a828b0162000367565b91505092959891949750929550565b6200049c81620004e0565b82525050565b620004ad8162000520565b82525050565b6000604082019050620004ca600083018562000491565b620004d96020830184620004a2565b9392505050565b6000620004ed8262000500565b9050919050565b60008115159050919050565b600073ffffffffffffffffffffffffffffffffffffffff82169050919050565b6000819050919050565b600080fd5b6200053a81620004e0565b81146200054657600080fd5b50565b6200055481620004f4565b81146200056057600080fd5b50565b6200056e8162000520565b81146200057a57600080fd5b50565b6127eb806200058d6000396000f3fe608060405234801561001057600080fd5b50600436106101a95760003560e01c806358980a26116100f957806388b89a7d11610097578063d2720e6911610071578063d2720e691461044a578063dee0297f14610466578063f2fde38b14610482578063f515bae71461049e576101a9565b806388b89a7d146103f45780638da5cb5b14610410578063ad21f0081461042e576101a9565b806377377808116100d3578063773778081461036e5780637b7182ef1461039e57806383914540146103ba5780638443867e146103d8576101a9565b806358980a261461032a578063688f237b14610348578063715018a614610364576101a9565b80632c387275116101665780633c91292b116101405780633c91292b146102b857806340e0e9e2146102d45780634a0ab3db146102f057806354ba0f271461030e576101a9565b80632c3872751461024a57806334cac0511461026857806334d722c91461029a576101a9565b8063020bcc9e146101ae5780630af2c6ca146101b8578063113aa8b1146101d657806319683a7c146101f25780631dfda2e71461020e578063294bd7381461022c575b600080fd5b6101b66104bc565b005b6101c06106d2565b6040516101cd91906122ac565b60405180910390f35b6101f060048036038101906101eb9190611d49565b6106d8565b005b61020c60048036038101906102079190611db6565b6108d8565b005b610216610a01565b60405161022391906122ac565b60405180910390f35b610234610a07565b60405161024191906122ac565b60405180910390f35b610252610a0d565b60405161025f919061203a565b60405180910390f35b610282600480360381019061027d9190611d49565b610a33565b604051610291939291906122f0565b60405180910390f35b6102a2610b0e565b6040516102af919061203a565b60405180910390f35b6102d260048036038101906102cd9190611db6565b610b34565b005b6102ee60048036038101906102e99190611db6565b6110a5565b005b6102f86111d2565b6040516103059190612131565b60405180910390f35b61032860048036038101906103239190611d49565b6111e5565b005b61033261135c565b60405161033f91906122ac565b60405180910390f35b610362600480360381019061035d9190611e23565b611362565b005b61036c6114f8565b005b61038860048036038101906103839190611d49565b611580565b60405161039591906122ac565b60405180910390f35b6103b860048036038101906103b39190611e23565b6115c9565b005b6103c261164f565b6040516103cf91906122ac565b60405180910390f35b6103f260048036038101906103ed9190611e23565b611657565b005b61040e60048036038101906104099190611e23565b6116dd565b005b610418611763565b604051610425919061203a565b60405180910390f35b61044860048036038101906104439190611e23565b61178c565b005b610464600480360381019061045f9190611e23565b611812565b005b610480600480360381019061047b9190611d76565b61198a565b005b61049c60048036038101906104979190611d49565b611b16565b005b6104a6611c0e565b6040516104b391906122ac565b60405180910390f35b6104c4611c14565b73ffffffffffffffffffffffffffffffffffffffff166104e2611763565b73ffffffffffffffffffffffffffffffffffffffff1614610538576040517f08c379a000000000000000000000000000000000000000000000000000000000815260040161052f9061224c565b60405180910390fd5b600460009054906101000a900473ffffffffffffffffffffffffffffffffffffffff1673ffffffffffffffffffffffffffffffffffffffff1663a9059cbb33600460009054906101000a900473ffffffffffffffffffffffffffffffffffffffff1673ffffffffffffffffffffffffffffffffffffffff166370a08231306040518263ffffffff1660e01b81526004016105d2919061203a565b60206040518083038186803b1580156105ea57600080fd5b505afa1580156105fe573d6000803e3d6000fd5b505050506040513d601f19601f820116820180604052508101906106229190611e50565b6040518363ffffffff1660e01b815260040161063f92919061208c565b602060405180830381600087803b15801561065957600080fd5b505af115801561066d573d6000803e3d6000fd5b505050506040513d601f19601f820116820180604052508101906106919190611df6565b6106d0576040517f08c379a00000000000000000000000000000000000000000000000000000000081526004016106c79061220c565b60405180910390fd5b565b60095481565b6106e0611c14565b73ffffffffffffffffffffffffffffffffffffffff166106fe611763565b73ffffffffffffffffffffffffffffffffffffffff1614610754576040517f08c379a000000000000000000000000000000000000000000000000000000000815260040161074b9061224c565b60405180910390fd5b600073ffffffffffffffffffffffffffffffffffffffff168173ffffffffffffffffffffffffffffffffffffffff1614156107c4576040517f08c379a00000000000000000000000000000000000000000000000000000000081526004016107bb9061216c565b60405180910390fd5b80600360006101000a81548173ffffffffffffffffffffffffffffffffffffffff021916908373ffffffffffffffffffffffffffffffffffffffff160217905550600460009054906101000a900473ffffffffffffffffffffffffffffffffffffffff1673ffffffffffffffffffffffffffffffffffffffff1663095ea7b3827fffffffffffffffffffffffffffffffffffffffffffffffffffffffffffffffff6040518363ffffffff1660e01b815260040161088292919061208c565b602060405180830381600087803b15801561089c57600080fd5b505af11580156108b0573d6000803e3d6000fd5b505050506040513d601f19601f820116820180604052508101906108d49190611df6565b5050565b3373ffffffffffffffffffffffffffffffffffffffff16600260009054906101000a900473ffffffffffffffffffffffffffffffffffffffff1673ffffffffffffffffffffffffffffffffffffffff1614610968576040517f08c379a000000000000000000000000000000000000000000000000000000000815260040161095f906121cc565b60405180910390fd5b80600d60008473ffffffffffffffffffffffffffffffffffffffff1673ffffffffffffffffffffffffffffffffffffffff168152602001908152602001600020600101819055508173ffffffffffffffffffffffffffffffffffffffff167fe9c455aa7a000d120ca8d5f98894b63c6fc07c55d379bd98280997c258409d13826040516109f591906122ac565b60405180910390a25050565b60065481565b600b5481565b600560009054906101000a900473ffffffffffffffffffffffffffffffffffffffff1681565b6000806000600d60008573ffffffffffffffffffffffffffffffffffffffff1673ffffffffffffffffffffffffffffffffffffffff16815260200190815260200160002060010154600d60008673ffffffffffffffffffffffffffffffffffffffff1673ffffffffffffffffffffffffffffffffffffffff16815260200190815260200160002060000154600d60008773ffffffffffffffffffffffffffffffffffffffff1673ffffffffffffffffffffffffffffffffffffffff168152602001908152602001600020600201549250925092509193909250565b600260009054906101000a900473ffffffffffffffffffffffffffffffffffffffff1681565b600073ffffffffffffffffffffffffffffffffffffffff168273ffffffffffffffffffffffffffffffffffffffff161415610ba4576040517f08c379a0000000000000000000000000000000000000000000000000000000008152600401610b9b9061222c565b60405180910390fd5b60008111610be7576040517f08c379a0000000000000000000000000000000000000000000000000000000008152600401610bde906121ec565b60405180910390fd5b600460009054906101000a900473ffffffffffffffffffffffffffffffffffffffff1673ffffffffffffffffffffffffffffffffffffffff166323b872dd3330846040518463ffffffff1660e01b8152600401610c4693929190612055565b602060405180830381600087803b158015610c6057600080fd5b505af1158015610c74573d6000803e3d6000fd5b505050506040513d601f19601f82011682018060405250810190610c989190611df6565b610cd7576040517f08c379a0000000000000000000000000000000000000000000000000000000008152600401610cce9061218c565b60405180910390fd5b6000600654826301e13380610cec91906123bf565b610cf6919061238e565b905042600c60008573ffffffffffffffffffffffffffffffffffffffff1673ffffffffffffffffffffffffffffffffffffffff168152602001908152602001600020541015610dc457600754811115610d705760075490506006546301e13380600754610d63919061238e565b610d6d91906123bf565b91505b8042610d7c9190612338565b600c60008573ffffffffffffffffffffffffffffffffffffffff1673ffffffffffffffffffffffffffffffffffffffff16815260200190815260200160002081905550610ea3565b6000600c60008573ffffffffffffffffffffffffffffffffffffffff1673ffffffffffffffffffffffffffffffffffffffff1681526020019081526020016000205460075442610e149190612338565b610e1e9190612419565b905080821115610e4b578091506006546301e1338082610e3e919061238e565b610e4891906123bf565b92505b81600c60008673ffffffffffffffffffffffffffffffffffffffff1673ffffffffffffffffffffffffffffffffffffffff1681526020019081526020016000206000828254610e9a9190612338565b92505081905550505b600860009054906101000a900460ff168015610ec15750600b548210155b8015610f175750600e60008473ffffffffffffffffffffffffffffffffffffffff1673ffffffffffffffffffffffffffffffffffffffff16815260200190815260200160002060009054906101000a900460ff16155b8015610f265750600a54600954105b15611011576001600e60008573ffffffffffffffffffffffffffffffffffffffff1673ffffffffffffffffffffffffffffffffffffffff16815260200190815260200160002060006101000a81548160ff021916908315150217905550600160009054906101000a900473ffffffffffffffffffffffffffffffffffffffff1673ffffffffffffffffffffffffffffffffffffffff166317e5883c846040518263ffffffff1660e01b8152600401610fde919061203a565b600060405180830381600087803b158015610ff857600080fd5b505af115801561100c573d6000803e3d6000fd5b505050505b8273ffffffffffffffffffffffffffffffffffffffff167f6cd9d6bebf8cc2076dd424f83deb0559d8774d1c44178b4f676f9d50709fb1be83600c60008773ffffffffffffffffffffffffffffffffffffffff1673ffffffffffffffffffffffffffffffffffffffff168152602001908152602001600020546040516110989291906122c7565b60405180910390a2505050565b3373ffffffffffffffffffffffffffffffffffffffff16600260009054906101000a900473ffffffffffffffffffffffffffffffffffffffff1673ffffffffffffffffffffffffffffffffffffffff1614611135576040517f08c379a000000000000000000000000000000000000000000000000000000000815260040161112c906121cc565b60405180910390fd5b80600d60008473ffffffffffffffffffffffffffffffffffffffff1673ffffffffffffffffffffffffffffffffffffffff168152602001908152602001600020600201819055508173ffffffffffffffffffffffffffffffffffffffff167f3a8a89b59a31c39a36febecb987e0657ab7b7c73b60ebacb44dcb9886c2d5c8a600954836040516111c69291906122c7565b60405180910390a25050565b600860009054906101000a900460ff1681565b6000600d60008373ffffffffffffffffffffffffffffffffffffffff1673ffffffffffffffffffffffffffffffffffffffff16815260200190815260200160002060010154141561126b576040517f08c379a00000000000000000000000000000000000000000000000000000000081526004016112629061214c565b60405180910390fd5b6009600081548092919061127e906124b5565b9190505550600954600d60008373ffffffffffffffffffffffffffffffffffffffff1673ffffffffffffffffffffffffffffffffffffffff16815260200190815260200160002060000181905550600160009054906101000a900473ffffffffffffffffffffffffffffffffffffffff1673ffffffffffffffffffffffffffffffffffffffff166354ba0f27826040518263ffffffff1660e01b8152600401611327919061203a565b600060405180830381600087803b15801561134157600080fd5b505af1158015611355573d6000803e3d6000fd5b5050505050565b60075481565b61136a611c14565b73ffffffffffffffffffffffffffffffffffffffff16611388611763565b73ffffffffffffffffffffffffffffffffffffffff16146113de576040517f08c379a00000000000000000000000000000000000000000000000000000000081526004016113d59061224c565b60405180910390fd5b60008111611421576040517f08c379a00000000000000000000000000000000000000000000000000000000081526004016114189061226c565b60405180910390fd5b600360009054906101000a900473ffffffffffffffffffffffffffffffffffffffff1673ffffffffffffffffffffffffffffffffffffffff166369328dec600560009054906101000a900473ffffffffffffffffffffffffffffffffffffffff1683306040518463ffffffff1660e01b81526004016114a2939291906120b5565b602060405180830381600087803b1580156114bc57600080fd5b505af11580156114d0573d6000803e3d6000fd5b505050506040513d601f19601f820116820180604052508101906114f49190611e50565b5050565b611500611c14565b73ffffffffffffffffffffffffffffffffffffffff1661151e611763565b73ffffffffffffffffffffffffffffffffffffffff1614611574576040517f08c379a000000000000000000000000000000000000000000000000000000000815260040161156b9061224c565b60405180910390fd5b61157e6000611c1c565b565b6000600c60008373ffffffffffffffffffffffffffffffffffffffff1673ffffffffffffffffffffffffffffffffffffffff168152602001908152602001600020549050919050565b6115d1611c14565b73ffffffffffffffffffffffffffffffffffffffff166115ef611763565b73ffffffffffffffffffffffffffffffffffffffff1614611645576040517f08c379a000000000000000000000000000000000000000000000000000000000815260040161163c9061224c565b60405180910390fd5b8060078190555050565b6301e1338081565b61165f611c14565b73ffffffffffffffffffffffffffffffffffffffff1661167d611763565b73ffffffffffffffffffffffffffffffffffffffff16146116d3576040517f08c379a00000000000000000000000000000000000000000000000000000000081526004016116ca9061224c565b60405180910390fd5b80600a8190555050565b6116e5611c14565b73ffffffffffffffffffffffffffffffffffffffff16611703611763565b73ffffffffffffffffffffffffffffffffffffffff1614611759576040517f08c379a00000000000000000000000000000000000000000000000000000000081526004016117509061224c565b60405180910390fd5b8060068190555050565b60008060009054906101000a900473ffffffffffffffffffffffffffffffffffffffff16905090565b611794611c14565b73ffffffffffffffffffffffffffffffffffffffff166117b2611763565b73ffffffffffffffffffffffffffffffffffffffff1614611808576040517f08c379a00000000000000000000000000000000000000000000000000000000081526004016117ff9061224c565b60405180910390fd5b80600b8190555050565b61181a611c14565b73ffffffffffffffffffffffffffffffffffffffff16611838611763565b73ffffffffffffffffffffffffffffffffffffffff161461188e576040517f08c379a00000000000000000000000000000000000000000000000000000000081526004016118859061224c565b60405180910390fd5b600081116118d1576040517f08c379a00000000000000000000000000000000000000000000000000000000081526004016118c89061228c565b60405180910390fd5b600360009054906101000a900473ffffffffffffffffffffffffffffffffffffffff1673ffffffffffffffffffffffffffffffffffffffff1663e8eda9df600560009054906101000a900473ffffffffffffffffffffffffffffffffffffffff16833060006040518563ffffffff1660e01b815260040161195594939291906120ec565b600060405180830381600087803b15801561196f57600080fd5b505af1158015611983573d6000803e3d6000fd5b5050505050565b611992611c14565b73ffffffffffffffffffffffffffffffffffffffff166119b0611763565b73ffffffffffffffffffffffffffffffffffffffff1614611a06576040517f08c379a00000000000000000000000000000000000000000000000000000000081526004016119fd9061224c565b60405180910390fd5b600073ffffffffffffffffffffffffffffffffffffffff168273ffffffffffffffffffffffffffffffffffffffff161415611a76576040517f08c379a0000000000000000000000000000000000000000000000000000000008152600401611a6d9061216c565b60405180910390fd5b81600160006101000a81548173ffffffffffffffffffffffffffffffffffffffff021916908373ffffffffffffffffffffffffffffffffffffffff16021790555081600260006101000a81548173ffffffffffffffffffffffffffffffffffffffff021916908373ffffffffffffffffffffffffffffffffffffffff16021790555080600860006101000a81548160ff0219169083151502179055505050565b611b1e611c14565b73ffffffffffffffffffffffffffffffffffffffff16611b3c611763565b73ffffffffffffffffffffffffffffffffffffffff1614611b92576040517f08c379a0000000000000000000000000000000000000000000000000000000008152600401611b899061224c565b60405180910390fd5b600073ffffffffffffffffffffffffffffffffffffffff168173ffffffffffffffffffffffffffffffffffffffff161415611c02576040517f08c379a0000000000000000000000000000000000000000000000000000000008152600401611bf9906121ac565b60405180910390fd5b611c0b81611c1c565b50565b600a5481565b600033905090565b60008060009054906101000a900473ffffffffffffffffffffffffffffffffffffffff169050816000806101000a81548173ffffffffffffffffffffffffffffffffffffffff021916908373ffffffffffffffffffffffffffffffffffffffff1602179055508173ffffffffffffffffffffffffffffffffffffffff168173ffffffffffffffffffffffffffffffffffffffff167f8be0079c531659141344cd1fd0a4f28419497f9722a3daafe3b4186f6b6457e060405160405180910390a35050565b600081359050611cef81612770565b92915050565b600081359050611d0481612787565b92915050565b600081519050611d1981612787565b92915050565b600081359050611d2e8161279e565b92915050565b600081519050611d438161279e565b92915050565b600060208284031215611d5f57611d5e61255c565b5b6000611d6d84828501611ce0565b91505092915050565b60008060408385031215611d8d57611d8c61255c565b5b6000611d9b85828601611ce0565b9250506020611dac85828601611cf5565b9150509250929050565b60008060408385031215611dcd57611dcc61255c565b5b6000611ddb85828601611ce0565b9250506020611dec85828601611d1f565b9150509250929050565b600060208284031215611e0c57611e0b61255c565b5b6000611e1a84828501611d0a565b91505092915050565b600060208284031215611e3957611e3861255c565b5b6000611e4784828501611d1f565b91505092915050565b600060208284031215611e6657611e6561255c565b5b6000611e7484828501611d34565b91505092915050565b611e868161244d565b82525050565b611e958161245f565b82525050565b611ea4816124a3565b82525050565b6000611eb7601483612327565b9150611ec282612561565b602082019050919050565b6000611eda601d83612327565b9150611ee58261258a565b602082019050919050565b6000611efd601583612327565b9150611f08826125b3565b602082019050919050565b6000611f20602683612327565b9150611f2b826125dc565b604082019050919050565b6000611f43602083612327565b9150611f4e8261262b565b602082019050919050565b6000611f66602083612327565b9150611f7182612654565b602082019050919050565b6000611f89601a83612327565b9150611f948261267d565b602082019050919050565b6000611fac602383612327565b9150611fb7826126a6565b604082019050919050565b6000611fcf602083612327565b9150611fda826126f5565b602082019050919050565b6000611ff2601e83612327565b9150611ffd8261271e565b602082019050919050565b6000612015601d83612327565b915061202082612747565b602082019050919050565b61203481612499565b82525050565b600060208201905061204f6000830184611e7d565b92915050565b600060608201905061206a6000830186611e7d565b6120776020830185611e7d565b612084604083018461202b565b949350505050565b60006040820190506120a16000830185611e7d565b6120ae602083018461202b565b9392505050565b60006060820190506120ca6000830186611e7d565b6120d7602083018561202b565b6120e46040830184611e7d565b949350505050565b60006080820190506121016000830187611e7d565b61210e602083018661202b565b61211b6040830185611e7d565b6121286060830184611e9b565b95945050505050565b60006020820190506121466000830184611e8c565b92915050565b6000602082019050818103600083015261216581611eaa565b9050919050565b6000602082019050818103600083015261218581611ecd565b9050919050565b600060208201905081810360008301526121a581611ef0565b9050919050565b600060208201905081810360008301526121c581611f13565b9050919050565b600060208201905081810360008301526121e581611f36565b9050919050565b6000602082019050818103600083015261220581611f59565b9050919050565b6000602082019050818103600083015261222581611f7c565b9050919050565b6000602082019050818103600083015261224581611f9f565b9050919050565b6000602082019050818103600083015261226581611fc2565b9050919050565b6000602082019050818103600083015261228581611fe5565b9050919050565b600060208201905081810360008301526122a581612008565b9050919050565b60006020820190506122c1600083018461202b565b92915050565b60006040820190506122dc600083018561202b565b6122e9602083018461202b565b9392505050565b6000606082019050612305600083018661202b565b612312602083018561202b565b61231f604083018461202b565b949350505050565b600082825260208201905092915050565b600061234382612499565b915061234e83612499565b9250827fffffffffffffffffffffffffffffffffffffffffffffffffffffffffffffffff03821115612383576123826124fe565b5b828201905092915050565b600061239982612499565b91506123a483612499565b9250826123b4576123b361252d565b5b828204905092915050565b60006123ca82612499565b91506123d583612499565b9250817fffffffffffffffffffffffffffffffffffffffffffffffffffffffffffffffff048311821515161561240e5761240d6124fe565b5b828202905092915050565b600061242482612499565b915061242f83612499565b925082821015612442576124416124fe565b5b828203905092915050565b600061245882612479565b9050919050565b60008115159050919050565b600061ffff82169050919050565b600073ffffffffffffffffffffffffffffffffffffffff82169050919050565b6000819050919050565b60006124ae8261246b565b9050919050565b60006124c082612499565b91507fffffffffffffffffffffffffffffffffffffffffffffffffffffffffffffffff8214156124f3576124f26124fe565b5b600182019050919050565b7f4e487b7100000000000000000000000000000000000000000000000000000000600052601160045260246000fd5b7f4e487b7100000000000000000000000000000000000000000000000000000000600052601260045260246000fd5b600080fd5b7f46455252593a2043414e54204d494e54204e4654000000000000000000000000600082015250565b7f46455252593a2043414e275420555345205a45524f2041444452455353000000600082015250565b7f46455252593a205041594d454e54204641494c45440000000000000000000000600082015250565b7f4f776e61626c653a206e6577206f776e657220697320746865207a65726f206160008201527f6464726573730000000000000000000000000000000000000000000000000000602082015250565b7f46455252593a204f4e4c59204d494e54455220495320415554484f52495a4544600082015250565b7f46455252593a2050415920534f4d452044414920544f20535542534352494245600082015250565b7f46455252593a20444149205749544844524157204641494c4544000000000000600082015250565b7f46455252593a205a45524f20414444524553532043414e27542053554253435260008201527f4942450000000000000000000000000000000000000000000000000000000000602082015250565b7f4f776e61626c653a2063616c6c6572206973206e6f7420746865206f776e6572600082015250565b7f46455252593a205749544844524157204d4f5245205448414e205a45524f0000600082015250565b7f46455252593a204445504f534954204d4f5245205448414e205a45524f000000600082015250565b6127798161244d565b811461278457600080fd5b50565b6127908161245f565b811461279b57600080fd5b50565b6127a781612499565b81146127b257600080fd5b5056fea2646970667358221220b5b2e767a54ed37a37e371bd2f2569be921b196a08a38ce93962d96ec84e88c164736f6c63430008060033",
  "linkReferences": {},
  "deployedLinkReferences": {}
}