{
  "_format": "hh-sol-artifact-1",
  "contractName": "Ferry",
  "sourceName": "contracts/Ferry.sol",
  "abi": [
    {
      "inputs": [
        {
          "internalType": "uint256",
          "name": "_annualFee",
          "type": "uint256"
        },
        {
          "internalType": "address",
          "name": "_dai",
          "type": "address"
        },
        {
          "internalType": "address",
          "name": "_lendingPool",
          "type": "address"
        }
      ],
      "stateMutability": "nonpayable",
      "type": "constructor"
    },
    {
      "anonymous": false,
      "inputs": [
        {
          "indexed": true,
          "internalType": "address",
          "name": "previousOwner",
          "type": "address"
        },
        {
          "indexed": true,
          "internalType": "address",
          "name": "newOwner",
          "type": "address"
        }
      ],
      "name": "OwnershipTransferred",
      "type": "event"
    },
    {
      "inputs": [],
      "name": "YEAR",
      "outputs": [
        {
          "internalType": "uint256",
          "name": "",
          "type": "uint256"
        }
      ],
      "stateMutability": "view",
      "type": "function"
    },
    {
      "inputs": [],
      "name": "annualFee",
      "outputs": [
        {
          "internalType": "uint256",
          "name": "",
          "type": "uint256"
        }
      ],
      "stateMutability": "view",
      "type": "function"
    },
    {
      "inputs": [
        {
          "internalType": "uint256",
          "name": "_amount",
          "type": "uint256"
        }
      ],
      "name": "depositInAave",
      "outputs": [],
      "stateMutability": "nonpayable",
      "type": "function"
    },
    {
      "inputs": [
        {
          "internalType": "address",
          "name": "_account",
          "type": "address"
        }
      ],
      "name": "getMembershipTimeLeft",
      "outputs": [
        {
          "internalType": "uint256",
          "name": "",
          "type": "uint256"
        }
      ],
      "stateMutability": "view",
      "type": "function"
    },
    {
      "inputs": [],
      "name": "owner",
      "outputs": [
        {
          "internalType": "address",
          "name": "",
          "type": "address"
        }
      ],
      "stateMutability": "view",
      "type": "function"
    },
    {
      "inputs": [
        {
          "internalType": "address",
          "name": "_account",
          "type": "address"
        },
        {
          "internalType": "uint256",
          "name": "_amount",
          "type": "uint256"
        }
      ],
      "name": "paySubscription",
      "outputs": [],
      "stateMutability": "nonpayable",
      "type": "function"
    },
    {
      "inputs": [],
      "name": "renounceOwnership",
      "outputs": [],
      "stateMutability": "nonpayable",
      "type": "function"
    },
    {
      "inputs": [
        {
          "internalType": "uint256",
          "name": "_annualFee",
          "type": "uint256"
        }
      ],
      "name": "setAnnualFee",
      "outputs": [],
      "stateMutability": "nonpayable",
      "type": "function"
    },
    {
      "inputs": [
        {
          "internalType": "address",
          "name": "_lendingPool",
          "type": "address"
        }
      ],
      "name": "setLendingPool",
      "outputs": [],
      "stateMutability": "nonpayable",
      "type": "function"
    },
    {
      "inputs": [
        {
          "internalType": "address",
          "name": "newOwner",
          "type": "address"
        }
      ],
      "name": "transferOwnership",
      "outputs": [],
      "stateMutability": "nonpayable",
      "type": "function"
    },
    {
      "inputs": [
        {
          "internalType": "uint256",
          "name": "_amount",
          "type": "uint256"
        }
      ],
      "name": "withdrawFromAave",
      "outputs": [],
      "stateMutability": "nonpayable",
      "type": "function"
    }
  ],
  "bytecode": "0x60806040523480156200001157600080fd5b506040516200186c3803806200186c833981810160405281019062000037919062000343565b620000576200004b6200020060201b60201c565b6200020860201b60201c565b8260048190555081600260006101000a81548173ffffffffffffffffffffffffffffffffffffffff021916908373ffffffffffffffffffffffffffffffffffffffff16021790555081600360006101000a81548173ffffffffffffffffffffffffffffffffffffffff021916908373ffffffffffffffffffffffffffffffffffffffff16021790555080600160006101000a81548173ffffffffffffffffffffffffffffffffffffffff021916908373ffffffffffffffffffffffffffffffffffffffff160217905550600260009054906101000a900473ffffffffffffffffffffffffffffffffffffffff1673ffffffffffffffffffffffffffffffffffffffff1663095ea7b3827fffffffffffffffffffffffffffffffffffffffffffffffffffffffffffffffff6040518363ffffffff1660e01b8152600401620001a0929190620003c1565b602060405180830381600087803b158015620001bb57600080fd5b505af1158015620001d0573d6000803e3d6000fd5b505050506040513d601f19601f82011682018060405250810190620001f6919062000311565b505050506200048b565b600033905090565b60008060009054906101000a900473ffffffffffffffffffffffffffffffffffffffff169050816000806101000a81548173ffffffffffffffffffffffffffffffffffffffff021916908373ffffffffffffffffffffffffffffffffffffffff1602179055508173ffffffffffffffffffffffffffffffffffffffff168173ffffffffffffffffffffffffffffffffffffffff167f8be0079c531659141344cd1fd0a4f28419497f9722a3daafe3b4186f6b6457e060405160405180910390a35050565b600081519050620002dd816200043d565b92915050565b600081519050620002f48162000457565b92915050565b6000815190506200030b8162000471565b92915050565b6000602082840312156200032a576200032962000438565b5b60006200033a84828501620002e3565b91505092915050565b6000806000606084860312156200035f576200035e62000438565b5b60006200036f86828701620002fa565b93505060206200038286828701620002cc565b92505060406200039586828701620002cc565b9150509250925092565b620003aa81620003ee565b82525050565b620003bb816200042e565b82525050565b6000604082019050620003d860008301856200039f565b620003e76020830184620003b0565b9392505050565b6000620003fb826200040e565b9050919050565b60008115159050919050565b600073ffffffffffffffffffffffffffffffffffffffff82169050919050565b6000819050919050565b600080fd5b6200044881620003ee565b81146200045457600080fd5b50565b620004628162000402565b81146200046e57600080fd5b50565b6200047c816200042e565b81146200048857600080fd5b50565b6113d1806200049b6000396000f3fe608060405234801561001057600080fd5b50600436106100a95760003560e01c80638391454011610071578063839145401461012a57806388b89a7d146101485780638da5cb5b14610164578063d2720e6914610182578063e46cc03f1461019e578063f2fde38b146101ce576100a9565b8063113aa8b1146100ae5780631dfda2e7146100ca5780633c91292b146100e8578063688f237b14610104578063715018a614610120575b600080fd5b6100c860048036038101906100c39190610c29565b6101ea565b005b6100d26103ea565b6040516100df9190610fdf565b60405180910390f35b61010260048036038101906100fd9190610c56565b6103f0565b005b61011e60048036038101906101199190610cc3565b61051f565b005b6101286106b5565b005b61013261073d565b60405161013f9190610fdf565b60405180910390f35b610162600480360381019061015d9190610cc3565b610745565b005b61016c6107cb565b6040516101799190610e3f565b60405180910390f35b61019c60048036038101906101979190610cc3565b6107f4565b005b6101b860048036038101906101b39190610c29565b61096c565b6040516101c59190610fdf565b60405180910390f35b6101e860048036038101906101e39190610c29565b610a11565b005b6101f2610b09565b73ffffffffffffffffffffffffffffffffffffffff166102106107cb565b73ffffffffffffffffffffffffffffffffffffffff1614610266576040517f08c379a000000000000000000000000000000000000000000000000000000000815260040161025d90610f7f565b60405180910390fd5b600073ffffffffffffffffffffffffffffffffffffffff168173ffffffffffffffffffffffffffffffffffffffff1614156102d6576040517f08c379a00000000000000000000000000000000000000000000000000000000081526004016102cd90610eff565b60405180910390fd5b80600160006101000a81548173ffffffffffffffffffffffffffffffffffffffff021916908373ffffffffffffffffffffffffffffffffffffffff160217905550600260009054906101000a900473ffffffffffffffffffffffffffffffffffffffff1673ffffffffffffffffffffffffffffffffffffffff1663095ea7b3827fffffffffffffffffffffffffffffffffffffffffffffffffffffffffffffffff6040518363ffffffff1660e01b8152600401610394929190610e5a565b602060405180830381600087803b1580156103ae57600080fd5b505af11580156103c2573d6000803e3d6000fd5b505050506040513d601f19601f820116820180604052508101906103e69190610c96565b5050565b60045481565b600073ffffffffffffffffffffffffffffffffffffffff168273ffffffffffffffffffffffffffffffffffffffff161415610460576040517f08c379a000000000000000000000000000000000000000000000000000000000815260040161045790610f5f565b60405180910390fd5b600081116104a3576040517f08c379a000000000000000000000000000000000000000000000000000000000815260040161049a90610f3f565b60405180910390fd5b6000600454826301e133806104b89190611092565b6104c29190611061565b905080600560008573ffffffffffffffffffffffffffffffffffffffff1673ffffffffffffffffffffffffffffffffffffffff1681526020019081526020016000206000828254610513919061100b565b92505081905550505050565b610527610b09565b73ffffffffffffffffffffffffffffffffffffffff166105456107cb565b73ffffffffffffffffffffffffffffffffffffffff161461059b576040517f08c379a000000000000000000000000000000000000000000000000000000000815260040161059290610f7f565b60405180910390fd5b600081116105de576040517f08c379a00000000000000000000000000000000000000000000000000000000081526004016105d590610f9f565b60405180910390fd5b600160009054906101000a900473ffffffffffffffffffffffffffffffffffffffff1673ffffffffffffffffffffffffffffffffffffffff166369328dec600360009054906101000a900473ffffffffffffffffffffffffffffffffffffffff1683306040518463ffffffff1660e01b815260040161065f93929190610e83565b602060405180830381600087803b15801561067957600080fd5b505af115801561068d573d6000803e3d6000fd5b505050506040513d601f19601f820116820180604052508101906106b19190610cf0565b5050565b6106bd610b09565b73ffffffffffffffffffffffffffffffffffffffff166106db6107cb565b73ffffffffffffffffffffffffffffffffffffffff1614610731576040517f08c379a000000000000000000000000000000000000000000000000000000000815260040161072890610f7f565b60405180910390fd5b61073b6000610b11565b565b6301e1338081565b61074d610b09565b73ffffffffffffffffffffffffffffffffffffffff1661076b6107cb565b73ffffffffffffffffffffffffffffffffffffffff16146107c1576040517f08c379a00000000000000000000000000000000000000000000000000000000081526004016107b890610f7f565b60405180910390fd5b8060048190555050565b60008060009054906101000a900473ffffffffffffffffffffffffffffffffffffffff16905090565b6107fc610b09565b73ffffffffffffffffffffffffffffffffffffffff1661081a6107cb565b73ffffffffffffffffffffffffffffffffffffffff1614610870576040517f08c379a000000000000000000000000000000000000000000000000000000000815260040161086790610f7f565b60405180910390fd5b600081116108b3576040517f08c379a00000000000000000000000000000000000000000000000000000000081526004016108aa90610fbf565b60405180910390fd5b600160009054906101000a900473ffffffffffffffffffffffffffffffffffffffff1673ffffffffffffffffffffffffffffffffffffffff1663e8eda9df600360009054906101000a900473ffffffffffffffffffffffffffffffffffffffff16833060006040518563ffffffff1660e01b81526004016109379493929190610eba565b600060405180830381600087803b15801561095157600080fd5b505af1158015610965573d6000803e3d6000fd5b5050505050565b600042600560008473ffffffffffffffffffffffffffffffffffffffff1673ffffffffffffffffffffffffffffffffffffffff168152602001908152602001600020541115610a075742600560008473ffffffffffffffffffffffffffffffffffffffff1673ffffffffffffffffffffffffffffffffffffffff16815260200190815260200160002054610a0091906110ec565b9050610a0c565b600090505b919050565b610a19610b09565b73ffffffffffffffffffffffffffffffffffffffff16610a376107cb565b73ffffffffffffffffffffffffffffffffffffffff1614610a8d576040517f08c379a0000000000000000000000000000000000000000000000000000000008152600401610a8490610f7f565b60405180910390fd5b600073ffffffffffffffffffffffffffffffffffffffff168173ffffffffffffffffffffffffffffffffffffffff161415610afd576040517f08c379a0000000000000000000000000000000000000000000000000000000008152600401610af490610f1f565b60405180910390fd5b610b0681610b11565b50565b600033905090565b60008060009054906101000a900473ffffffffffffffffffffffffffffffffffffffff169050816000806101000a81548173ffffffffffffffffffffffffffffffffffffffff021916908373ffffffffffffffffffffffffffffffffffffffff1602179055508173ffffffffffffffffffffffffffffffffffffffff168173ffffffffffffffffffffffffffffffffffffffff167f8be0079c531659141344cd1fd0a4f28419497f9722a3daafe3b4186f6b6457e060405160405180910390a35050565b600081359050610be481611356565b92915050565b600081519050610bf98161136d565b92915050565b600081359050610c0e81611384565b92915050565b600081519050610c2381611384565b92915050565b600060208284031215610c3f57610c3e6111e6565b5b6000610c4d84828501610bd5565b91505092915050565b60008060408385031215610c6d57610c6c6111e6565b5b6000610c7b85828601610bd5565b9250506020610c8c85828601610bff565b9150509250929050565b600060208284031215610cac57610cab6111e6565b5b6000610cba84828501610bea565b91505092915050565b600060208284031215610cd957610cd86111e6565b5b6000610ce784828501610bff565b91505092915050565b600060208284031215610d0657610d056111e6565b5b6000610d1484828501610c14565b91505092915050565b610d2681611120565b82525050565b610d3581611176565b82525050565b6000610d48601d83610ffa565b9150610d53826111eb565b602082019050919050565b6000610d6b602683610ffa565b9150610d7682611214565b604082019050919050565b6000610d8e602083610ffa565b9150610d9982611263565b602082019050919050565b6000610db1602383610ffa565b9150610dbc8261128c565b604082019050919050565b6000610dd4602083610ffa565b9150610ddf826112db565b602082019050919050565b6000610df7601e83610ffa565b9150610e0282611304565b602082019050919050565b6000610e1a601d83610ffa565b9150610e258261132d565b602082019050919050565b610e398161116c565b82525050565b6000602082019050610e546000830184610d1d565b92915050565b6000604082019050610e6f6000830185610d1d565b610e7c6020830184610e30565b9392505050565b6000606082019050610e986000830186610d1d565b610ea56020830185610e30565b610eb26040830184610d1d565b949350505050565b6000608082019050610ecf6000830187610d1d565b610edc6020830186610e30565b610ee96040830185610d1d565b610ef66060830184610d2c565b95945050505050565b60006020820190508181036000830152610f1881610d3b565b9050919050565b60006020820190508181036000830152610f3881610d5e565b9050919050565b60006020820190508181036000830152610f5881610d81565b9050919050565b60006020820190508181036000830152610f7881610da4565b9050919050565b60006020820190508181036000830152610f9881610dc7565b9050919050565b60006020820190508181036000830152610fb881610dea565b9050919050565b60006020820190508181036000830152610fd881610e0d565b9050919050565b6000602082019050610ff46000830184610e30565b92915050565b600082825260208201905092915050565b60006110168261116c565b91506110218361116c565b9250827fffffffffffffffffffffffffffffffffffffffffffffffffffffffffffffffff0382111561105657611055611188565b5b828201905092915050565b600061106c8261116c565b91506110778361116c565b925082611087576110866111b7565b5b828204905092915050565b600061109d8261116c565b91506110a88361116c565b9250817fffffffffffffffffffffffffffffffffffffffffffffffffffffffffffffffff04831182151516156110e1576110e0611188565b5b828202905092915050565b60006110f78261116c565b91506111028361116c565b92508282101561111557611114611188565b5b828203905092915050565b600061112b8261114c565b9050919050565b60008115159050919050565b600061ffff82169050919050565b600073ffffffffffffffffffffffffffffffffffffffff82169050919050565b6000819050919050565b60006111818261113e565b9050919050565b7f4e487b7100000000000000000000000000000000000000000000000000000000600052601160045260246000fd5b7f4e487b7100000000000000000000000000000000000000000000000000000000600052601260045260246000fd5b600080fd5b7f46455252593a2043414e275420555345205a45524f2041444452455353000000600082015250565b7f4f776e61626c653a206e6577206f776e657220697320746865207a65726f206160008201527f6464726573730000000000000000000000000000000000000000000000000000602082015250565b7f46455252593a2050415920534f4d452044414920544f20535542534352494245600082015250565b7f46455252593a205a45524f20414444524553532043414e27542053554253435260008201527f4942450000000000000000000000000000000000000000000000000000000000602082015250565b7f4f776e61626c653a2063616c6c6572206973206e6f7420746865206f776e6572600082015250565b7f46455252593a205749544844524157204d4f5245205448414e205a45524f0000600082015250565b7f46455252593a204445504f534954204d4f5245205448414e205a45524f000000600082015250565b61135f81611120565b811461136a57600080fd5b50565b61137681611132565b811461138157600080fd5b50565b61138d8161116c565b811461139857600080fd5b5056fea2646970667358221220312b2bc74a434d0b760031a7ffda3a4ab3242925b9086f7517cb7ea54954b8fa64736f6c63430008060033",
  "linkReferences": {},
  "deployedLinkReferences": {}
}