{
  "_format": "hh-sol-artifact-1",
  "contractName": "Ferry",
  "sourceName": "contracts/Ferry.sol",
  "abi": [
    {
      "inputs": [
        {
          "internalType": "uint256",
          "name": "_annualFee",
          "type": "uint256"
        },
        {
          "internalType": "uint256",
          "name": "_maxMintedNFTs",
          "type": "uint256"
        },
        {
          "internalType": "uint256",
          "name": "_nftThreshold",
          "type": "uint256"
        },
        {
          "internalType": "uint256",
          "name": "_maxMembershipPeriod",
          "type": "uint256"
        },
        {
          "internalType": "address",
          "name": "_dai",
          "type": "address"
        },
        {
          "internalType": "address",
          "name": "_lendingPool",
          "type": "address"
        },
        {
          "internalType": "address",
          "name": "_nftMinter",
          "type": "address"
        }
      ],
      "stateMutability": "nonpayable",
      "type": "constructor"
    },
    {
      "anonymous": false,
      "inputs": [
        {
          "indexed": true,
          "internalType": "address",
          "name": "previousOwner",
          "type": "address"
        },
        {
          "indexed": true,
          "internalType": "address",
          "name": "newOwner",
          "type": "address"
        }
      ],
      "name": "OwnershipTransferred",
      "type": "event"
    },
    {
      "inputs": [],
      "name": "YEAR",
      "outputs": [
        {
          "internalType": "uint256",
          "name": "",
          "type": "uint256"
        }
      ],
      "stateMutability": "view",
      "type": "function"
    },
    {
      "inputs": [],
      "name": "annualFee",
      "outputs": [
        {
          "internalType": "uint256",
          "name": "",
          "type": "uint256"
        }
      ],
      "stateMutability": "view",
      "type": "function"
    },
    {
      "inputs": [],
      "name": "daiAddress",
      "outputs": [
        {
          "internalType": "address",
          "name": "",
          "type": "address"
        }
      ],
      "stateMutability": "view",
      "type": "function"
    },
    {
      "inputs": [
        {
          "internalType": "uint256",
          "name": "_amount",
          "type": "uint256"
        }
      ],
      "name": "depositInAave",
      "outputs": [],
      "stateMutability": "nonpayable",
      "type": "function"
    },
    {
      "inputs": [
        {
          "internalType": "address",
          "name": "_account",
          "type": "address"
        }
      ],
      "name": "getAccountNFT",
      "outputs": [
        {
          "internalType": "uint256",
          "name": "randomNum",
          "type": "uint256"
        },
        {
          "internalType": "uint256",
          "name": "index",
          "type": "uint256"
        }
      ],
      "stateMutability": "view",
      "type": "function"
    },
    {
      "inputs": [
        {
          "internalType": "address",
          "name": "_account",
          "type": "address"
        }
      ],
      "name": "getMembershipExpiryTime",
      "outputs": [
        {
          "internalType": "uint256",
          "name": "",
          "type": "uint256"
        }
      ],
      "stateMutability": "view",
      "type": "function"
    },
    {
      "inputs": [],
      "name": "latestZoraID",
      "outputs": [
        {
          "internalType": "uint256",
          "name": "",
          "type": "uint256"
        }
      ],
      "stateMutability": "view",
      "type": "function"
    },
    {
      "inputs": [],
      "name": "maxMembershipPeriod",
      "outputs": [
        {
          "internalType": "uint256",
          "name": "",
          "type": "uint256"
        }
      ],
      "stateMutability": "view",
      "type": "function"
    },
    {
      "inputs": [],
      "name": "maxMintedNFTs",
      "outputs": [
        {
          "internalType": "uint256",
          "name": "",
          "type": "uint256"
        }
      ],
      "stateMutability": "view",
      "type": "function"
    },
    {
      "inputs": [
        {
          "internalType": "address",
          "name": "_account",
          "type": "address"
        }
      ],
      "name": "mintNFT",
      "outputs": [],
      "stateMutability": "nonpayable",
      "type": "function"
    },
    {
      "inputs": [],
      "name": "minterAddress",
      "outputs": [
        {
          "internalType": "address",
          "name": "",
          "type": "address"
        }
      ],
      "stateMutability": "view",
      "type": "function"
    },
    {
      "inputs": [],
      "name": "nftCount",
      "outputs": [
        {
          "internalType": "uint256",
          "name": "",
          "type": "uint256"
        }
      ],
      "stateMutability": "view",
      "type": "function"
    },
    {
      "inputs": [
        {
          "internalType": "address",
          "name": "_account",
          "type": "address"
        },
        {
          "internalType": "uint256",
          "name": "_randomNum",
          "type": "uint256"
        }
      ],
      "name": "nftCreatedCallback",
      "outputs": [],
      "stateMutability": "nonpayable",
      "type": "function"
    },
    {
      "inputs": [],
      "name": "nftThresholdPayment",
      "outputs": [
        {
          "internalType": "uint256",
          "name": "",
          "type": "uint256"
        }
      ],
      "stateMutability": "view",
      "type": "function"
    },
    {
      "inputs": [],
      "name": "nftsActive",
      "outputs": [
        {
          "internalType": "bool",
          "name": "",
          "type": "bool"
        }
      ],
      "stateMutability": "view",
      "type": "function"
    },
    {
      "inputs": [],
      "name": "owner",
      "outputs": [
        {
          "internalType": "address",
          "name": "",
          "type": "address"
        }
      ],
      "stateMutability": "view",
      "type": "function"
    },
    {
      "inputs": [
        {
          "internalType": "address",
          "name": "_account",
          "type": "address"
        },
        {
          "internalType": "uint256",
          "name": "_amount",
          "type": "uint256"
        }
      ],
      "name": "paySubscription",
      "outputs": [],
      "stateMutability": "nonpayable",
      "type": "function"
    },
    {
      "inputs": [],
      "name": "renounceOwnership",
      "outputs": [],
      "stateMutability": "nonpayable",
      "type": "function"
    },
    {
      "inputs": [
        {
          "internalType": "uint256",
          "name": "_annualFee",
          "type": "uint256"
        }
      ],
      "name": "setAnnualFee",
      "outputs": [],
      "stateMutability": "nonpayable",
      "type": "function"
    },
    {
      "inputs": [
        {
          "internalType": "address",
          "name": "_lendingPool",
          "type": "address"
        }
      ],
      "name": "setLendingPool",
      "outputs": [],
      "stateMutability": "nonpayable",
      "type": "function"
    },
    {
      "inputs": [
        {
          "internalType": "uint256",
          "name": "_maxPeriod",
          "type": "uint256"
        }
      ],
      "name": "setMaxMembershipPeriod",
      "outputs": [],
      "stateMutability": "nonpayable",
      "type": "function"
    },
    {
      "inputs": [
        {
          "internalType": "uint256",
          "name": "_max",
          "type": "uint256"
        }
      ],
      "name": "setMaxMintedNFTs",
      "outputs": [],
      "stateMutability": "nonpayable",
      "type": "function"
    },
    {
      "inputs": [
        {
          "internalType": "address",
          "name": "_minter",
          "type": "address"
        },
        {
          "internalType": "bool",
          "name": "_nftsActive",
          "type": "bool"
        }
      ],
      "name": "setNFTMinter",
      "outputs": [],
      "stateMutability": "nonpayable",
      "type": "function"
    },
    {
      "inputs": [
        {
          "internalType": "uint256",
          "name": "_threshold",
          "type": "uint256"
        }
      ],
      "name": "setNftThresholdPayment",
      "outputs": [],
      "stateMutability": "nonpayable",
      "type": "function"
    },
    {
      "inputs": [
        {
          "internalType": "address",
          "name": "newOwner",
          "type": "address"
        }
      ],
      "name": "transferOwnership",
      "outputs": [],
      "stateMutability": "nonpayable",
      "type": "function"
    },
    {
      "inputs": [
        {
          "internalType": "uint256",
          "name": "_tokenID",
          "type": "uint256"
        }
      ],
      "name": "updateNFTData",
      "outputs": [],
      "stateMutability": "nonpayable",
      "type": "function"
    },
    {
      "inputs": [],
      "name": "withdrawDAI",
      "outputs": [],
      "stateMutability": "nonpayable",
      "type": "function"
    },
    {
      "inputs": [
        {
          "internalType": "uint256",
          "name": "_amount",
          "type": "uint256"
        }
      ],
      "name": "withdrawFromAave",
      "outputs": [],
      "stateMutability": "nonpayable",
      "type": "function"
    }
  ],
  "bytecode": "0x60806040523480156200001157600080fd5b5060405162002b3638038062002b368339818101604052810190620000379190620003de565b620000576200004b6200029b60201b60201c565b620002a360201b60201c565b866006819055508360078190555084600b8190555085600a8190555082600460006101000a81548173ffffffffffffffffffffffffffffffffffffffff021916908373ffffffffffffffffffffffffffffffffffffffff16021790555082600560006101000a81548173ffffffffffffffffffffffffffffffffffffffff021916908373ffffffffffffffffffffffffffffffffffffffff16021790555081600360006101000a81548173ffffffffffffffffffffffffffffffffffffffff021916908373ffffffffffffffffffffffffffffffffffffffff16021790555080600160006101000a81548173ffffffffffffffffffffffffffffffffffffffff021916908373ffffffffffffffffffffffffffffffffffffffff16021790555080600260006101000a81548173ffffffffffffffffffffffffffffffffffffffff021916908373ffffffffffffffffffffffffffffffffffffffff160217905550600460009054906101000a900473ffffffffffffffffffffffffffffffffffffffff1673ffffffffffffffffffffffffffffffffffffffff1663095ea7b3837fffffffffffffffffffffffffffffffffffffffffffffffffffffffffffffffff6040518363ffffffff1660e01b815260040162000237929190620004b3565b602060405180830381600087803b1580156200025257600080fd5b505af115801562000267573d6000803e3d6000fd5b505050506040513d601f19601f820116820180604052508101906200028d9190620003ac565b50505050505050506200057d565b600033905090565b60008060009054906101000a900473ffffffffffffffffffffffffffffffffffffffff169050816000806101000a81548173ffffffffffffffffffffffffffffffffffffffff021916908373ffffffffffffffffffffffffffffffffffffffff1602179055508173ffffffffffffffffffffffffffffffffffffffff168173ffffffffffffffffffffffffffffffffffffffff167f8be0079c531659141344cd1fd0a4f28419497f9722a3daafe3b4186f6b6457e060405160405180910390a35050565b60008151905062000378816200052f565b92915050565b6000815190506200038f8162000549565b92915050565b600081519050620003a68162000563565b92915050565b600060208284031215620003c557620003c46200052a565b5b6000620003d5848285016200037e565b91505092915050565b600080600080600080600060e0888a0312156200040057620003ff6200052a565b5b6000620004108a828b0162000395565b9750506020620004238a828b0162000395565b9650506040620004368a828b0162000395565b9550506060620004498a828b0162000395565b94505060806200045c8a828b0162000367565b93505060a06200046f8a828b0162000367565b92505060c0620004828a828b0162000367565b91505092959891949750929550565b6200049c81620004e0565b82525050565b620004ad8162000520565b82525050565b6000604082019050620004ca600083018562000491565b620004d96020830184620004a2565b9392505050565b6000620004ed8262000500565b9050919050565b60008115159050919050565b600073ffffffffffffffffffffffffffffffffffffffff82169050919050565b6000819050919050565b600080fd5b6200053a81620004e0565b81146200054657600080fd5b50565b6200055481620004f4565b81146200056057600080fd5b50565b6200056e8162000520565b81146200057a57600080fd5b50565b6125a9806200058d6000396000f3fe608060405234801561001057600080fd5b50600436106101c45760003560e01c8063688f237b116100f957806388b89a7d11610097578063d2720e6911610071578063d2720e6914610482578063dee0297f1461049e578063f2fde38b146104ba578063f515bae7146104d6576101c4565b806388b89a7d1461042c5780638da5cb5b14610448578063ad21f00814610466576101c4565b806377377808116100d357806377377808146103a65780637b7182ef146103d657806383914540146103f25780638443867e14610410576101c4565b8063688f237b146103645780636bd1a3f814610380578063715018a61461039c576101c4565b80632c387275116101665780633c91292b116101405780633c91292b146102f05780634a0ab3db1461030c57806354ba0f271461032a57806358980a2614610346576101c4565b80632c3872751461028357806334cac051146102a157806334d722c9146102d2576101c4565b806319683a7c116101a257806319683a7c1461020d5780631dfda2e714610229578063294bd7381461024757806329e7446a14610265576101c4565b8063020bcc9e146101c95780630af2c6ca146101d3578063113aa8b1146101f1575b600080fd5b6101d16104f4565b005b6101db61070a565b6040516101e891906120a1565b60405180910390f35b61020b60048036038101906102069190611b3e565b610710565b005b61022760048036038101906102229190611bab565b610910565b005b6102316109eb565b60405161023e91906120a1565b60405180910390f35b61024f6109f1565b60405161025c91906120a1565b60405180910390f35b61026d6109f7565b60405161027a91906120a1565b60405180910390f35b61028b6109fd565b6040516102989190611e2f565b60405180910390f35b6102bb60048036038101906102b69190611b3e565b610a23565b6040516102c99291906120bc565b60405180910390f35b6102da610ab5565b6040516102e79190611e2f565b60405180910390f35b61030a60048036038101906103059190611bab565b610adb565b005b610314610fbd565b6040516103219190611f26565b60405180910390f35b610344600480360381019061033f9190611b3e565b610fd0565b005b61034e611147565b60405161035b91906120a1565b60405180910390f35b61037e60048036038101906103799190611c18565b61114d565b005b61039a60048036038101906103959190611c18565b6112e3565b005b6103a46112ed565b005b6103c060048036038101906103bb9190611b3e565b611375565b6040516103cd91906120a1565b60405180910390f35b6103f060048036038101906103eb9190611c18565b6113be565b005b6103fa611444565b60405161040791906120a1565b60405180910390f35b61042a60048036038101906104259190611c18565b61144c565b005b61044660048036038101906104419190611c18565b6114d2565b005b610450611558565b60405161045d9190611e2f565b60405180910390f35b610480600480360381019061047b9190611c18565b611581565b005b61049c60048036038101906104979190611c18565b611607565b005b6104b860048036038101906104b39190611b6b565b61177f565b005b6104d460048036038101906104cf9190611b3e565b61190b565b005b6104de611a03565b6040516104eb91906120a1565b60405180910390f35b6104fc611a09565b73ffffffffffffffffffffffffffffffffffffffff1661051a611558565b73ffffffffffffffffffffffffffffffffffffffff1614610570576040517f08c379a000000000000000000000000000000000000000000000000000000000815260040161056790612041565b60405180910390fd5b600460009054906101000a900473ffffffffffffffffffffffffffffffffffffffff1673ffffffffffffffffffffffffffffffffffffffff1663a9059cbb33600460009054906101000a900473ffffffffffffffffffffffffffffffffffffffff1673ffffffffffffffffffffffffffffffffffffffff166370a08231306040518263ffffffff1660e01b815260040161060a9190611e2f565b60206040518083038186803b15801561062257600080fd5b505afa158015610636573d6000803e3d6000fd5b505050506040513d601f19601f8201168201806040525081019061065a9190611c45565b6040518363ffffffff1660e01b8152600401610677929190611e81565b602060405180830381600087803b15801561069157600080fd5b505af11580156106a5573d6000803e3d6000fd5b505050506040513d601f19601f820116820180604052508101906106c99190611beb565b610708576040517f08c379a00000000000000000000000000000000000000000000000000000000081526004016106ff90612001565b60405180910390fd5b565b60095481565b610718611a09565b73ffffffffffffffffffffffffffffffffffffffff16610736611558565b73ffffffffffffffffffffffffffffffffffffffff161461078c576040517f08c379a000000000000000000000000000000000000000000000000000000000815260040161078390612041565b60405180910390fd5b600073ffffffffffffffffffffffffffffffffffffffff168173ffffffffffffffffffffffffffffffffffffffff1614156107fc576040517f08c379a00000000000000000000000000000000000000000000000000000000081526004016107f390611f61565b60405180910390fd5b80600360006101000a81548173ffffffffffffffffffffffffffffffffffffffff021916908373ffffffffffffffffffffffffffffffffffffffff160217905550600460009054906101000a900473ffffffffffffffffffffffffffffffffffffffff1673ffffffffffffffffffffffffffffffffffffffff1663095ea7b3827fffffffffffffffffffffffffffffffffffffffffffffffffffffffffffffffff6040518363ffffffff1660e01b81526004016108ba929190611e81565b602060405180830381600087803b1580156108d457600080fd5b505af11580156108e8573d6000803e3d6000fd5b505050506040513d601f19601f8201168201806040525081019061090c9190611beb565b5050565b3373ffffffffffffffffffffffffffffffffffffffff16600260009054906101000a900473ffffffffffffffffffffffffffffffffffffffff1673ffffffffffffffffffffffffffffffffffffffff16146109a0576040517f08c379a000000000000000000000000000000000000000000000000000000000815260040161099790611fc1565b60405180910390fd5b80600e60008473ffffffffffffffffffffffffffffffffffffffff1673ffffffffffffffffffffffffffffffffffffffff168152602001908152602001600020600101819055505050565b60065481565b600b5481565b600c5481565b600560009054906101000a900473ffffffffffffffffffffffffffffffffffffffff1681565b600080600e60008473ffffffffffffffffffffffffffffffffffffffff1673ffffffffffffffffffffffffffffffffffffffff16815260200190815260200160002060010154600e60008573ffffffffffffffffffffffffffffffffffffffff1673ffffffffffffffffffffffffffffffffffffffff1681526020019081526020016000206000015491509150915091565b600260009054906101000a900473ffffffffffffffffffffffffffffffffffffffff1681565b600073ffffffffffffffffffffffffffffffffffffffff168273ffffffffffffffffffffffffffffffffffffffff161415610b4b576040517f08c379a0000000000000000000000000000000000000000000000000000000008152600401610b4290612021565b60405180910390fd5b60008111610b8e576040517f08c379a0000000000000000000000000000000000000000000000000000000008152600401610b8590611fe1565b60405180910390fd5b600460009054906101000a900473ffffffffffffffffffffffffffffffffffffffff1673ffffffffffffffffffffffffffffffffffffffff166323b872dd3330846040518463ffffffff1660e01b8152600401610bed93929190611e4a565b602060405180830381600087803b158015610c0757600080fd5b505af1158015610c1b573d6000803e3d6000fd5b505050506040513d601f19601f82011682018060405250810190610c3f9190611beb565b610c7e576040517f08c379a0000000000000000000000000000000000000000000000000000000008152600401610c7590611f81565b60405180910390fd5b6000600654826301e13380610c93919061217d565b610c9d919061214c565b905042600d60008573ffffffffffffffffffffffffffffffffffffffff1673ffffffffffffffffffffffffffffffffffffffff168152602001908152602001600020541015610d6b57600754811115610d175760075490506006546301e13380600754610d0a919061214c565b610d14919061217d565b91505b8042610d2391906120f6565b600d60008573ffffffffffffffffffffffffffffffffffffffff1673ffffffffffffffffffffffffffffffffffffffff16815260200190815260200160002081905550610e4a565b6000600d60008573ffffffffffffffffffffffffffffffffffffffff1673ffffffffffffffffffffffffffffffffffffffff1681526020019081526020016000205460075442610dbb91906120f6565b610dc591906121d7565b905080821115610df2578091506006546301e1338082610de5919061214c565b610def919061217d565b92505b81600d60008673ffffffffffffffffffffffffffffffffffffffff1673ffffffffffffffffffffffffffffffffffffffff1681526020019081526020016000206000828254610e4191906120f6565b92505081905550505b600860009054906101000a900460ff168015610e685750600b548210155b8015610ebe5750600f60008473ffffffffffffffffffffffffffffffffffffffff1673ffffffffffffffffffffffffffffffffffffffff16815260200190815260200160002060009054906101000a900460ff16155b8015610ecd5750600a54600954105b15610fb8576001600f60008573ffffffffffffffffffffffffffffffffffffffff1673ffffffffffffffffffffffffffffffffffffffff16815260200190815260200160002060006101000a81548160ff021916908315150217905550600160009054906101000a900473ffffffffffffffffffffffffffffffffffffffff1673ffffffffffffffffffffffffffffffffffffffff166317e5883c846040518263ffffffff1660e01b8152600401610f859190611e2f565b600060405180830381600087803b158015610f9f57600080fd5b505af1158015610fb3573d6000803e3d6000fd5b505050505b505050565b600860009054906101000a900460ff1681565b6000600e60008373ffffffffffffffffffffffffffffffffffffffff1673ffffffffffffffffffffffffffffffffffffffff168152602001908152602001600020600101541415611056576040517f08c379a000000000000000000000000000000000000000000000000000000000815260040161104d90611f41565b60405180910390fd5b600160009054906101000a900473ffffffffffffffffffffffffffffffffffffffff1673ffffffffffffffffffffffffffffffffffffffff166354ba0f27826040518263ffffffff1660e01b81526004016110b19190611e2f565b600060405180830381600087803b1580156110cb57600080fd5b505af11580156110df573d6000803e3d6000fd5b50505050600960008154809291906110f690612273565b9190505550600954600e60008373ffffffffffffffffffffffffffffffffffffffff1673ffffffffffffffffffffffffffffffffffffffff1681526020019081526020016000206000018190555050565b60075481565b611155611a09565b73ffffffffffffffffffffffffffffffffffffffff16611173611558565b73ffffffffffffffffffffffffffffffffffffffff16146111c9576040517f08c379a00000000000000000000000000000000000000000000000000000000081526004016111c090612041565b60405180910390fd5b6000811161120c576040517f08c379a000000000000000000000000000000000000000000000000000000000815260040161120390612061565b60405180910390fd5b600360009054906101000a900473ffffffffffffffffffffffffffffffffffffffff1673ffffffffffffffffffffffffffffffffffffffff166369328dec600560009054906101000a900473ffffffffffffffffffffffffffffffffffffffff1683306040518463ffffffff1660e01b815260040161128d93929190611eaa565b602060405180830381600087803b1580156112a757600080fd5b505af11580156112bb573d6000803e3d6000fd5b505050506040513d601f19601f820116820180604052508101906112df9190611c45565b5050565b80600c8190555050565b6112f5611a09565b73ffffffffffffffffffffffffffffffffffffffff16611313611558565b73ffffffffffffffffffffffffffffffffffffffff1614611369576040517f08c379a000000000000000000000000000000000000000000000000000000000815260040161136090612041565b60405180910390fd5b6113736000611a11565b565b6000600d60008373ffffffffffffffffffffffffffffffffffffffff1673ffffffffffffffffffffffffffffffffffffffff168152602001908152602001600020549050919050565b6113c6611a09565b73ffffffffffffffffffffffffffffffffffffffff166113e4611558565b73ffffffffffffffffffffffffffffffffffffffff161461143a576040517f08c379a000000000000000000000000000000000000000000000000000000000815260040161143190612041565b60405180910390fd5b8060078190555050565b6301e1338081565b611454611a09565b73ffffffffffffffffffffffffffffffffffffffff16611472611558565b73ffffffffffffffffffffffffffffffffffffffff16146114c8576040517f08c379a00000000000000000000000000000000000000000000000000000000081526004016114bf90612041565b60405180910390fd5b80600a8190555050565b6114da611a09565b73ffffffffffffffffffffffffffffffffffffffff166114f8611558565b73ffffffffffffffffffffffffffffffffffffffff161461154e576040517f08c379a000000000000000000000000000000000000000000000000000000000815260040161154590612041565b60405180910390fd5b8060068190555050565b60008060009054906101000a900473ffffffffffffffffffffffffffffffffffffffff16905090565b611589611a09565b73ffffffffffffffffffffffffffffffffffffffff166115a7611558565b73ffffffffffffffffffffffffffffffffffffffff16146115fd576040517f08c379a00000000000000000000000000000000000000000000000000000000081526004016115f490612041565b60405180910390fd5b80600b8190555050565b61160f611a09565b73ffffffffffffffffffffffffffffffffffffffff1661162d611558565b73ffffffffffffffffffffffffffffffffffffffff1614611683576040517f08c379a000000000000000000000000000000000000000000000000000000000815260040161167a90612041565b60405180910390fd5b600081116116c6576040517f08c379a00000000000000000000000000000000000000000000000000000000081526004016116bd90612081565b60405180910390fd5b600360009054906101000a900473ffffffffffffffffffffffffffffffffffffffff1673ffffffffffffffffffffffffffffffffffffffff1663e8eda9df600560009054906101000a900473ffffffffffffffffffffffffffffffffffffffff16833060006040518563ffffffff1660e01b815260040161174a9493929190611ee1565b600060405180830381600087803b15801561176457600080fd5b505af1158015611778573d6000803e3d6000fd5b5050505050565b611787611a09565b73ffffffffffffffffffffffffffffffffffffffff166117a5611558565b73ffffffffffffffffffffffffffffffffffffffff16146117fb576040517f08c379a00000000000000000000000000000000000000000000000000000000081526004016117f290612041565b60405180910390fd5b600073ffffffffffffffffffffffffffffffffffffffff168273ffffffffffffffffffffffffffffffffffffffff16141561186b576040517f08c379a000000000000000000000000000000000000000000000000000000000815260040161186290611f61565b60405180910390fd5b81600160006101000a81548173ffffffffffffffffffffffffffffffffffffffff021916908373ffffffffffffffffffffffffffffffffffffffff16021790555081600260006101000a81548173ffffffffffffffffffffffffffffffffffffffff021916908373ffffffffffffffffffffffffffffffffffffffff16021790555080600860006101000a81548160ff0219169083151502179055505050565b611913611a09565b73ffffffffffffffffffffffffffffffffffffffff16611931611558565b73ffffffffffffffffffffffffffffffffffffffff1614611987576040517f08c379a000000000000000000000000000000000000000000000000000000000815260040161197e90612041565b60405180910390fd5b600073ffffffffffffffffffffffffffffffffffffffff168173ffffffffffffffffffffffffffffffffffffffff1614156119f7576040517f08c379a00000000000000000000000000000000000000000000000000000000081526004016119ee90611fa1565b60405180910390fd5b611a0081611a11565b50565b600a5481565b600033905090565b60008060009054906101000a900473ffffffffffffffffffffffffffffffffffffffff169050816000806101000a81548173ffffffffffffffffffffffffffffffffffffffff021916908373ffffffffffffffffffffffffffffffffffffffff1602179055508173ffffffffffffffffffffffffffffffffffffffff168173ffffffffffffffffffffffffffffffffffffffff167f8be0079c531659141344cd1fd0a4f28419497f9722a3daafe3b4186f6b6457e060405160405180910390a35050565b600081359050611ae48161252e565b92915050565b600081359050611af981612545565b92915050565b600081519050611b0e81612545565b92915050565b600081359050611b238161255c565b92915050565b600081519050611b388161255c565b92915050565b600060208284031215611b5457611b5361231a565b5b6000611b6284828501611ad5565b91505092915050565b60008060408385031215611b8257611b8161231a565b5b6000611b9085828601611ad5565b9250506020611ba185828601611aea565b9150509250929050565b60008060408385031215611bc257611bc161231a565b5b6000611bd085828601611ad5565b9250506020611be185828601611b14565b9150509250929050565b600060208284031215611c0157611c0061231a565b5b6000611c0f84828501611aff565b91505092915050565b600060208284031215611c2e57611c2d61231a565b5b6000611c3c84828501611b14565b91505092915050565b600060208284031215611c5b57611c5a61231a565b5b6000611c6984828501611b29565b91505092915050565b611c7b8161220b565b82525050565b611c8a8161221d565b82525050565b611c9981612261565b82525050565b6000611cac6014836120e5565b9150611cb78261231f565b602082019050919050565b6000611ccf601d836120e5565b9150611cda82612348565b602082019050919050565b6000611cf26015836120e5565b9150611cfd82612371565b602082019050919050565b6000611d156026836120e5565b9150611d208261239a565b604082019050919050565b6000611d386020836120e5565b9150611d43826123e9565b602082019050919050565b6000611d5b6020836120e5565b9150611d6682612412565b602082019050919050565b6000611d7e601a836120e5565b9150611d898261243b565b602082019050919050565b6000611da16023836120e5565b9150611dac82612464565b604082019050919050565b6000611dc46020836120e5565b9150611dcf826124b3565b602082019050919050565b6000611de7601e836120e5565b9150611df2826124dc565b602082019050919050565b6000611e0a601d836120e5565b9150611e1582612505565b602082019050919050565b611e2981612257565b82525050565b6000602082019050611e446000830184611c72565b92915050565b6000606082019050611e5f6000830186611c72565b611e6c6020830185611c72565b611e796040830184611e20565b949350505050565b6000604082019050611e966000830185611c72565b611ea36020830184611e20565b9392505050565b6000606082019050611ebf6000830186611c72565b611ecc6020830185611e20565b611ed96040830184611c72565b949350505050565b6000608082019050611ef66000830187611c72565b611f036020830186611e20565b611f106040830185611c72565b611f1d6060830184611c90565b95945050505050565b6000602082019050611f3b6000830184611c81565b92915050565b60006020820190508181036000830152611f5a81611c9f565b9050919050565b60006020820190508181036000830152611f7a81611cc2565b9050919050565b60006020820190508181036000830152611f9a81611ce5565b9050919050565b60006020820190508181036000830152611fba81611d08565b9050919050565b60006020820190508181036000830152611fda81611d2b565b9050919050565b60006020820190508181036000830152611ffa81611d4e565b9050919050565b6000602082019050818103600083015261201a81611d71565b9050919050565b6000602082019050818103600083015261203a81611d94565b9050919050565b6000602082019050818103600083015261205a81611db7565b9050919050565b6000602082019050818103600083015261207a81611dda565b9050919050565b6000602082019050818103600083015261209a81611dfd565b9050919050565b60006020820190506120b66000830184611e20565b92915050565b60006040820190506120d16000830185611e20565b6120de6020830184611e20565b9392505050565b600082825260208201905092915050565b600061210182612257565b915061210c83612257565b9250827fffffffffffffffffffffffffffffffffffffffffffffffffffffffffffffffff03821115612141576121406122bc565b5b828201905092915050565b600061215782612257565b915061216283612257565b925082612172576121716122eb565b5b828204905092915050565b600061218882612257565b915061219383612257565b9250817fffffffffffffffffffffffffffffffffffffffffffffffffffffffffffffffff04831182151516156121cc576121cb6122bc565b5b828202905092915050565b60006121e282612257565b91506121ed83612257565b925082821015612200576121ff6122bc565b5b828203905092915050565b600061221682612237565b9050919050565b60008115159050919050565b600061ffff82169050919050565b600073ffffffffffffffffffffffffffffffffffffffff82169050919050565b6000819050919050565b600061226c82612229565b9050919050565b600061227e82612257565b91507fffffffffffffffffffffffffffffffffffffffffffffffffffffffffffffffff8214156122b1576122b06122bc565b5b600182019050919050565b7f4e487b7100000000000000000000000000000000000000000000000000000000600052601160045260246000fd5b7f4e487b7100000000000000000000000000000000000000000000000000000000600052601260045260246000fd5b600080fd5b7f46455252593a2043414e54204d494e54204e4654000000000000000000000000600082015250565b7f46455252593a2043414e275420555345205a45524f2041444452455353000000600082015250565b7f46455252593a205041594d454e54204641494c45440000000000000000000000600082015250565b7f4f776e61626c653a206e6577206f776e657220697320746865207a65726f206160008201527f6464726573730000000000000000000000000000000000000000000000000000602082015250565b7f46455252593a204f4e4c59204d494e54455220495320415554484f52495a4544600082015250565b7f46455252593a2050415920534f4d452044414920544f20535542534352494245600082015250565b7f46455252593a20444149205749544844524157204641494c4544000000000000600082015250565b7f46455252593a205a45524f20414444524553532043414e27542053554253435260008201527f4942450000000000000000000000000000000000000000000000000000000000602082015250565b7f4f776e61626c653a2063616c6c6572206973206e6f7420746865206f776e6572600082015250565b7f46455252593a205749544844524157204d4f5245205448414e205a45524f0000600082015250565b7f46455252593a204445504f534954204d4f5245205448414e205a45524f000000600082015250565b6125378161220b565b811461254257600080fd5b50565b61254e8161221d565b811461255957600080fd5b50565b61256581612257565b811461257057600080fd5b5056fea2646970667358221220ed9e8d076e102ebac374e522146e9de16d079caf21df2704202583545910ff0d64736f6c63430008060033",
  "linkReferences": {},
  "deployedLinkReferences": {}
}