{
  "_format": "hh-sol-artifact-1",
  "contractName": "Ferry",
  "sourceName": "contracts/Ferry.sol",
  "abi": [
    {
      "inputs": [
        {
          "internalType": "uint256",
          "name": "_annualFee",
          "type": "uint256"
        },
        {
          "internalType": "address",
          "name": "_dai",
          "type": "address"
        },
        {
          "internalType": "address",
          "name": "_lendingPool",
          "type": "address"
        }
      ],
      "stateMutability": "nonpayable",
      "type": "constructor"
    },
    {
      "anonymous": false,
      "inputs": [
        {
          "indexed": true,
          "internalType": "address",
          "name": "previousOwner",
          "type": "address"
        },
        {
          "indexed": true,
          "internalType": "address",
          "name": "newOwner",
          "type": "address"
        }
      ],
      "name": "OwnershipTransferred",
      "type": "event"
    },
    {
      "inputs": [],
      "name": "YEAR",
      "outputs": [
        {
          "internalType": "uint256",
          "name": "",
          "type": "uint256"
        }
      ],
      "stateMutability": "view",
      "type": "function"
    },
    {
      "inputs": [],
      "name": "annualFee",
      "outputs": [
        {
          "internalType": "uint256",
          "name": "",
          "type": "uint256"
        }
      ],
      "stateMutability": "view",
      "type": "function"
    },
    {
      "inputs": [
        {
          "internalType": "uint256",
          "name": "_amount",
          "type": "uint256"
        }
      ],
      "name": "depositInAave",
      "outputs": [],
      "stateMutability": "nonpayable",
      "type": "function"
    },
    {
      "inputs": [
        {
          "internalType": "address",
          "name": "_account",
          "type": "address"
        }
      ],
      "name": "getMembershipExpiryTime",
      "outputs": [
        {
          "internalType": "uint256",
          "name": "",
          "type": "uint256"
        }
      ],
      "stateMutability": "view",
      "type": "function"
    },
    {
      "inputs": [],
      "name": "owner",
      "outputs": [
        {
          "internalType": "address",
          "name": "",
          "type": "address"
        }
      ],
      "stateMutability": "view",
      "type": "function"
    },
    {
      "inputs": [
        {
          "internalType": "address",
          "name": "_account",
          "type": "address"
        },
        {
          "internalType": "uint256",
          "name": "_amount",
          "type": "uint256"
        }
      ],
      "name": "paySubscription",
      "outputs": [],
      "stateMutability": "nonpayable",
      "type": "function"
    },
    {
      "inputs": [],
      "name": "renounceOwnership",
      "outputs": [],
      "stateMutability": "nonpayable",
      "type": "function"
    },
    {
      "inputs": [
        {
          "internalType": "uint256",
          "name": "_annualFee",
          "type": "uint256"
        }
      ],
      "name": "setAnnualFee",
      "outputs": [],
      "stateMutability": "nonpayable",
      "type": "function"
    },
    {
      "inputs": [
        {
          "internalType": "address",
          "name": "_lendingPool",
          "type": "address"
        }
      ],
      "name": "setLendingPool",
      "outputs": [],
      "stateMutability": "nonpayable",
      "type": "function"
    },
    {
      "inputs": [
        {
          "internalType": "address",
          "name": "newOwner",
          "type": "address"
        }
      ],
      "name": "transferOwnership",
      "outputs": [],
      "stateMutability": "nonpayable",
      "type": "function"
    },
    {
      "inputs": [
        {
          "internalType": "uint256",
          "name": "_amount",
          "type": "uint256"
        }
      ],
      "name": "withdrawFromAave",
      "outputs": [],
      "stateMutability": "nonpayable",
      "type": "function"
    }
  ],
  "bytecode": "0x60806040523480156200001157600080fd5b506040516200187838038062001878833981810160405281019062000037919062000343565b620000576200004b6200020060201b60201c565b6200020860201b60201c565b8260058190555081600360006101000a81548173ffffffffffffffffffffffffffffffffffffffff021916908373ffffffffffffffffffffffffffffffffffffffff16021790555081600460006101000a81548173ffffffffffffffffffffffffffffffffffffffff021916908373ffffffffffffffffffffffffffffffffffffffff16021790555080600260006101000a81548173ffffffffffffffffffffffffffffffffffffffff021916908373ffffffffffffffffffffffffffffffffffffffff160217905550600360009054906101000a900473ffffffffffffffffffffffffffffffffffffffff1673ffffffffffffffffffffffffffffffffffffffff1663095ea7b3827fffffffffffffffffffffffffffffffffffffffffffffffffffffffffffffffff6040518363ffffffff1660e01b8152600401620001a0929190620003c1565b602060405180830381600087803b158015620001bb57600080fd5b505af1158015620001d0573d6000803e3d6000fd5b505050506040513d601f19601f82011682018060405250810190620001f6919062000311565b505050506200048b565b600033905090565b60008060009054906101000a900473ffffffffffffffffffffffffffffffffffffffff169050816000806101000a81548173ffffffffffffffffffffffffffffffffffffffff021916908373ffffffffffffffffffffffffffffffffffffffff1602179055508173ffffffffffffffffffffffffffffffffffffffff168173ffffffffffffffffffffffffffffffffffffffff167f8be0079c531659141344cd1fd0a4f28419497f9722a3daafe3b4186f6b6457e060405160405180910390a35050565b600081519050620002dd816200043d565b92915050565b600081519050620002f48162000457565b92915050565b6000815190506200030b8162000471565b92915050565b6000602082840312156200032a576200032962000438565b5b60006200033a84828501620002e3565b91505092915050565b6000806000606084860312156200035f576200035e62000438565b5b60006200036f86828701620002fa565b93505060206200038286828701620002cc565b92505060406200039586828701620002cc565b9150509250925092565b620003aa81620003ee565b82525050565b620003bb816200042e565b82525050565b6000604082019050620003d860008301856200039f565b620003e76020830184620003b0565b9392505050565b6000620003fb826200040e565b9050919050565b60008115159050919050565b600073ffffffffffffffffffffffffffffffffffffffff82169050919050565b6000819050919050565b600080fd5b6200044881620003ee565b81146200045457600080fd5b50565b620004628162000402565b81146200046e57600080fd5b50565b6200047c816200042e565b81146200048857600080fd5b50565b6113dd806200049b6000396000f3fe608060405234801561001057600080fd5b50600436106100a95760003560e01c80637737780811610071578063773778081461012a578063839145401461015a57806388b89a7d146101785780638da5cb5b14610194578063d2720e69146101b2578063f2fde38b146101ce576100a9565b8063113aa8b1146100ae5780631dfda2e7146100ca5780633c91292b146100e8578063688f237b14610104578063715018a614610120575b600080fd5b6100c860048036038101906100c39190610c69565b6101ea565b005b6100d26103ea565b6040516100df919061101f565b60405180910390f35b61010260048036038101906100fd9190610c96565b6103f0565b005b61011e60048036038101906101199190610d03565b6105bb565b005b610128610751565b005b610144600480360381019061013f9190610c69565b6107d9565b604051610151919061101f565b60405180910390f35b610162610822565b60405161016f919061101f565b60405180910390f35b610192600480360381019061018d9190610d03565b61082a565b005b61019c6108b0565b6040516101a99190610e7f565b60405180910390f35b6101cc60048036038101906101c79190610d03565b6108d9565b005b6101e860048036038101906101e39190610c69565b610a51565b005b6101f2610b49565b73ffffffffffffffffffffffffffffffffffffffff166102106108b0565b73ffffffffffffffffffffffffffffffffffffffff1614610266576040517f08c379a000000000000000000000000000000000000000000000000000000000815260040161025d90610fbf565b60405180910390fd5b600073ffffffffffffffffffffffffffffffffffffffff168173ffffffffffffffffffffffffffffffffffffffff1614156102d6576040517f08c379a00000000000000000000000000000000000000000000000000000000081526004016102cd90610f3f565b60405180910390fd5b80600260006101000a81548173ffffffffffffffffffffffffffffffffffffffff021916908373ffffffffffffffffffffffffffffffffffffffff160217905550600360009054906101000a900473ffffffffffffffffffffffffffffffffffffffff1673ffffffffffffffffffffffffffffffffffffffff1663095ea7b3827fffffffffffffffffffffffffffffffffffffffffffffffffffffffffffffffff6040518363ffffffff1660e01b8152600401610394929190610e9a565b602060405180830381600087803b1580156103ae57600080fd5b505af11580156103c2573d6000803e3d6000fd5b505050506040513d601f19601f820116820180604052508101906103e69190610cd6565b5050565b60055481565b600073ffffffffffffffffffffffffffffffffffffffff168273ffffffffffffffffffffffffffffffffffffffff161415610460576040517f08c379a000000000000000000000000000000000000000000000000000000000815260040161045790610f9f565b60405180910390fd5b600081116104a3576040517f08c379a000000000000000000000000000000000000000000000000000000000815260040161049a90610f7f565b60405180910390fd5b6000600554826301e133806104b891906110d2565b6104c291906110a1565b905042600660008573ffffffffffffffffffffffffffffffffffffffff1673ffffffffffffffffffffffffffffffffffffffff16815260200190815260200160002054101561055f578042610517919061104b565b600660008573ffffffffffffffffffffffffffffffffffffffff1673ffffffffffffffffffffffffffffffffffffffff168152602001908152602001600020819055506105b6565b80600660008573ffffffffffffffffffffffffffffffffffffffff1673ffffffffffffffffffffffffffffffffffffffff16815260200190815260200160002060008282546105ae919061104b565b925050819055505b505050565b6105c3610b49565b73ffffffffffffffffffffffffffffffffffffffff166105e16108b0565b73ffffffffffffffffffffffffffffffffffffffff1614610637576040517f08c379a000000000000000000000000000000000000000000000000000000000815260040161062e90610fbf565b60405180910390fd5b6000811161067a576040517f08c379a000000000000000000000000000000000000000000000000000000000815260040161067190610fdf565b60405180910390fd5b600260009054906101000a900473ffffffffffffffffffffffffffffffffffffffff1673ffffffffffffffffffffffffffffffffffffffff166369328dec600460009054906101000a900473ffffffffffffffffffffffffffffffffffffffff1683306040518463ffffffff1660e01b81526004016106fb93929190610ec3565b602060405180830381600087803b15801561071557600080fd5b505af1158015610729573d6000803e3d6000fd5b505050506040513d601f19601f8201168201806040525081019061074d9190610d30565b5050565b610759610b49565b73ffffffffffffffffffffffffffffffffffffffff166107776108b0565b73ffffffffffffffffffffffffffffffffffffffff16146107cd576040517f08c379a00000000000000000000000000000000000000000000000000000000081526004016107c490610fbf565b60405180910390fd5b6107d76000610b51565b565b6000600660008373ffffffffffffffffffffffffffffffffffffffff1673ffffffffffffffffffffffffffffffffffffffff168152602001908152602001600020549050919050565b6301e1338081565b610832610b49565b73ffffffffffffffffffffffffffffffffffffffff166108506108b0565b73ffffffffffffffffffffffffffffffffffffffff16146108a6576040517f08c379a000000000000000000000000000000000000000000000000000000000815260040161089d90610fbf565b60405180910390fd5b8060058190555050565b60008060009054906101000a900473ffffffffffffffffffffffffffffffffffffffff16905090565b6108e1610b49565b73ffffffffffffffffffffffffffffffffffffffff166108ff6108b0565b73ffffffffffffffffffffffffffffffffffffffff1614610955576040517f08c379a000000000000000000000000000000000000000000000000000000000815260040161094c90610fbf565b60405180910390fd5b60008111610998576040517f08c379a000000000000000000000000000000000000000000000000000000000815260040161098f90610fff565b60405180910390fd5b600260009054906101000a900473ffffffffffffffffffffffffffffffffffffffff1673ffffffffffffffffffffffffffffffffffffffff1663e8eda9df600460009054906101000a900473ffffffffffffffffffffffffffffffffffffffff16833060006040518563ffffffff1660e01b8152600401610a1c9493929190610efa565b600060405180830381600087803b158015610a3657600080fd5b505af1158015610a4a573d6000803e3d6000fd5b5050505050565b610a59610b49565b73ffffffffffffffffffffffffffffffffffffffff16610a776108b0565b73ffffffffffffffffffffffffffffffffffffffff1614610acd576040517f08c379a0000000000000000000000000000000000000000000000000000000008152600401610ac490610fbf565b60405180910390fd5b600073ffffffffffffffffffffffffffffffffffffffff168173ffffffffffffffffffffffffffffffffffffffff161415610b3d576040517f08c379a0000000000000000000000000000000000000000000000000000000008152600401610b3490610f5f565b60405180910390fd5b610b4681610b51565b50565b600033905090565b60008060009054906101000a900473ffffffffffffffffffffffffffffffffffffffff169050816000806101000a81548173ffffffffffffffffffffffffffffffffffffffff021916908373ffffffffffffffffffffffffffffffffffffffff1602179055508173ffffffffffffffffffffffffffffffffffffffff168173ffffffffffffffffffffffffffffffffffffffff167f8be0079c531659141344cd1fd0a4f28419497f9722a3daafe3b4186f6b6457e060405160405180910390a35050565b600081359050610c2481611362565b92915050565b600081519050610c3981611379565b92915050565b600081359050610c4e81611390565b92915050565b600081519050610c6381611390565b92915050565b600060208284031215610c7f57610c7e6111f2565b5b6000610c8d84828501610c15565b91505092915050565b60008060408385031215610cad57610cac6111f2565b5b6000610cbb85828601610c15565b9250506020610ccc85828601610c3f565b9150509250929050565b600060208284031215610cec57610ceb6111f2565b5b6000610cfa84828501610c2a565b91505092915050565b600060208284031215610d1957610d186111f2565b5b6000610d2784828501610c3f565b91505092915050565b600060208284031215610d4657610d456111f2565b5b6000610d5484828501610c54565b91505092915050565b610d668161112c565b82525050565b610d7581611182565b82525050565b6000610d88601d8361103a565b9150610d93826111f7565b602082019050919050565b6000610dab60268361103a565b9150610db682611220565b604082019050919050565b6000610dce60208361103a565b9150610dd98261126f565b602082019050919050565b6000610df160238361103a565b9150610dfc82611298565b604082019050919050565b6000610e1460208361103a565b9150610e1f826112e7565b602082019050919050565b6000610e37601e8361103a565b9150610e4282611310565b602082019050919050565b6000610e5a601d8361103a565b9150610e6582611339565b602082019050919050565b610e7981611178565b82525050565b6000602082019050610e946000830184610d5d565b92915050565b6000604082019050610eaf6000830185610d5d565b610ebc6020830184610e70565b9392505050565b6000606082019050610ed86000830186610d5d565b610ee56020830185610e70565b610ef26040830184610d5d565b949350505050565b6000608082019050610f0f6000830187610d5d565b610f1c6020830186610e70565b610f296040830185610d5d565b610f366060830184610d6c565b95945050505050565b60006020820190508181036000830152610f5881610d7b565b9050919050565b60006020820190508181036000830152610f7881610d9e565b9050919050565b60006020820190508181036000830152610f9881610dc1565b9050919050565b60006020820190508181036000830152610fb881610de4565b9050919050565b60006020820190508181036000830152610fd881610e07565b9050919050565b60006020820190508181036000830152610ff881610e2a565b9050919050565b6000602082019050818103600083015261101881610e4d565b9050919050565b60006020820190506110346000830184610e70565b92915050565b600082825260208201905092915050565b600061105682611178565b915061106183611178565b9250827fffffffffffffffffffffffffffffffffffffffffffffffffffffffffffffffff0382111561109657611095611194565b5b828201905092915050565b60006110ac82611178565b91506110b783611178565b9250826110c7576110c66111c3565b5b828204905092915050565b60006110dd82611178565b91506110e883611178565b9250817fffffffffffffffffffffffffffffffffffffffffffffffffffffffffffffffff048311821515161561112157611120611194565b5b828202905092915050565b600061113782611158565b9050919050565b60008115159050919050565b600061ffff82169050919050565b600073ffffffffffffffffffffffffffffffffffffffff82169050919050565b6000819050919050565b600061118d8261114a565b9050919050565b7f4e487b7100000000000000000000000000000000000000000000000000000000600052601160045260246000fd5b7f4e487b7100000000000000000000000000000000000000000000000000000000600052601260045260246000fd5b600080fd5b7f46455252593a2043414e275420555345205a45524f2041444452455353000000600082015250565b7f4f776e61626c653a206e6577206f776e657220697320746865207a65726f206160008201527f6464726573730000000000000000000000000000000000000000000000000000602082015250565b7f46455252593a2050415920534f4d452044414920544f20535542534352494245600082015250565b7f46455252593a205a45524f20414444524553532043414e27542053554253435260008201527f4942450000000000000000000000000000000000000000000000000000000000602082015250565b7f4f776e61626c653a2063616c6c6572206973206e6f7420746865206f776e6572600082015250565b7f46455252593a205749544844524157204d4f5245205448414e205a45524f0000600082015250565b7f46455252593a204445504f534954204d4f5245205448414e205a45524f000000600082015250565b61136b8161112c565b811461137657600080fd5b50565b6113828161113e565b811461138d57600080fd5b50565b61139981611178565b81146113a457600080fd5b5056fea26469706673582212209105448a70a7d77d2a76d229889902bd8ec076051d996dd14eaadcb12e9d543d64736f6c63430008060033",
  "linkReferences": {},
  "deployedLinkReferences": {}
}