{
  "_format": "hh-sol-artifact-1",
  "contractName": "Ferry",
  "sourceName": "contracts/Ferry.sol",
  "abi": [
    {
      "inputs": [
        {
          "internalType": "uint256",
          "name": "_annualFee",
          "type": "uint256"
        },
        {
          "internalType": "uint256",
          "name": "_maxMintedNFTs",
          "type": "uint256"
        },
        {
          "internalType": "uint256",
          "name": "_nftThreshold",
          "type": "uint256"
        },
        {
          "internalType": "uint256",
          "name": "_maxMembershipPeriod",
          "type": "uint256"
        },
        {
          "internalType": "address",
          "name": "_dai",
          "type": "address"
        },
        {
          "internalType": "address",
          "name": "_lendingPool",
          "type": "address"
        },
        {
          "internalType": "address",
          "name": "_nftMinter",
          "type": "address"
        }
      ],
      "stateMutability": "nonpayable",
      "type": "constructor"
    },
    {
      "anonymous": false,
      "inputs": [
        {
          "indexed": true,
          "internalType": "address",
          "name": "previousOwner",
          "type": "address"
        },
        {
          "indexed": true,
          "internalType": "address",
          "name": "newOwner",
          "type": "address"
        }
      ],
      "name": "OwnershipTransferred",
      "type": "event"
    },
    {
      "inputs": [],
      "name": "YEAR",
      "outputs": [
        {
          "internalType": "uint256",
          "name": "",
          "type": "uint256"
        }
      ],
      "stateMutability": "view",
      "type": "function"
    },
    {
      "inputs": [],
      "name": "annualFee",
      "outputs": [
        {
          "internalType": "uint256",
          "name": "",
          "type": "uint256"
        }
      ],
      "stateMutability": "view",
      "type": "function"
    },
    {
      "inputs": [],
      "name": "daiAddress",
      "outputs": [
        {
          "internalType": "address",
          "name": "",
          "type": "address"
        }
      ],
      "stateMutability": "view",
      "type": "function"
    },
    {
      "inputs": [
        {
          "internalType": "uint256",
          "name": "_amount",
          "type": "uint256"
        }
      ],
      "name": "depositInAave",
      "outputs": [],
      "stateMutability": "nonpayable",
      "type": "function"
    },
    {
      "inputs": [
        {
          "internalType": "address",
          "name": "_account",
          "type": "address"
        }
      ],
      "name": "getAccountNFT",
      "outputs": [
        {
          "internalType": "uint256",
          "name": "randomNum",
          "type": "uint256"
        },
        {
          "internalType": "uint256",
          "name": "index",
          "type": "uint256"
        }
      ],
      "stateMutability": "view",
      "type": "function"
    },
    {
      "inputs": [
        {
          "internalType": "address",
          "name": "_account",
          "type": "address"
        }
      ],
      "name": "getMembershipExpiryTime",
      "outputs": [
        {
          "internalType": "uint256",
          "name": "",
          "type": "uint256"
        }
      ],
      "stateMutability": "view",
      "type": "function"
    },
    {
      "inputs": [],
      "name": "latestZoraID",
      "outputs": [
        {
          "internalType": "uint256",
          "name": "",
          "type": "uint256"
        }
      ],
      "stateMutability": "view",
      "type": "function"
    },
    {
      "inputs": [],
      "name": "maxMembershipPeriod",
      "outputs": [
        {
          "internalType": "uint256",
          "name": "",
          "type": "uint256"
        }
      ],
      "stateMutability": "view",
      "type": "function"
    },
    {
      "inputs": [],
      "name": "maxMintedNFTs",
      "outputs": [
        {
          "internalType": "uint256",
          "name": "",
          "type": "uint256"
        }
      ],
      "stateMutability": "view",
      "type": "function"
    },
    {
      "inputs": [
        {
          "internalType": "address",
          "name": "_account",
          "type": "address"
        }
      ],
      "name": "mintNFT",
      "outputs": [],
      "stateMutability": "nonpayable",
      "type": "function"
    },
    {
      "inputs": [],
      "name": "minterAddress",
      "outputs": [
        {
          "internalType": "address",
          "name": "",
          "type": "address"
        }
      ],
      "stateMutability": "view",
      "type": "function"
    },
    {
      "inputs": [],
      "name": "nftCount",
      "outputs": [
        {
          "internalType": "uint256",
          "name": "",
          "type": "uint256"
        }
      ],
      "stateMutability": "view",
      "type": "function"
    },
    {
      "inputs": [
        {
          "internalType": "address",
          "name": "_account",
          "type": "address"
        },
        {
          "internalType": "uint256",
          "name": "_randomNum",
          "type": "uint256"
        }
      ],
      "name": "nftCreatedCallback",
      "outputs": [],
      "stateMutability": "nonpayable",
      "type": "function"
    },
    {
      "inputs": [],
      "name": "nftThresholdPayment",
      "outputs": [
        {
          "internalType": "uint256",
          "name": "",
          "type": "uint256"
        }
      ],
      "stateMutability": "view",
      "type": "function"
    },
    {
      "inputs": [],
      "name": "nftsActive",
      "outputs": [
        {
          "internalType": "bool",
          "name": "",
          "type": "bool"
        }
      ],
      "stateMutability": "view",
      "type": "function"
    },
    {
      "inputs": [],
      "name": "owner",
      "outputs": [
        {
          "internalType": "address",
          "name": "",
          "type": "address"
        }
      ],
      "stateMutability": "view",
      "type": "function"
    },
    {
      "inputs": [
        {
          "internalType": "address",
          "name": "_account",
          "type": "address"
        },
        {
          "internalType": "uint256",
          "name": "_amount",
          "type": "uint256"
        }
      ],
      "name": "paySubscription",
      "outputs": [],
      "stateMutability": "nonpayable",
      "type": "function"
    },
    {
      "inputs": [],
      "name": "renounceOwnership",
      "outputs": [],
      "stateMutability": "nonpayable",
      "type": "function"
    },
    {
      "inputs": [
        {
          "internalType": "uint256",
          "name": "_annualFee",
          "type": "uint256"
        }
      ],
      "name": "setAnnualFee",
      "outputs": [],
      "stateMutability": "nonpayable",
      "type": "function"
    },
    {
      "inputs": [
        {
          "internalType": "address",
          "name": "_lendingPool",
          "type": "address"
        }
      ],
      "name": "setLendingPool",
      "outputs": [],
      "stateMutability": "nonpayable",
      "type": "function"
    },
    {
      "inputs": [
        {
          "internalType": "uint256",
          "name": "_maxPeriod",
          "type": "uint256"
        }
      ],
      "name": "setMaxMembershipPeriod",
      "outputs": [],
      "stateMutability": "nonpayable",
      "type": "function"
    },
    {
      "inputs": [
        {
          "internalType": "uint256",
          "name": "_max",
          "type": "uint256"
        }
      ],
      "name": "setMaxMintedNFTs",
      "outputs": [],
      "stateMutability": "nonpayable",
      "type": "function"
    },
    {
      "inputs": [
        {
          "internalType": "address",
          "name": "_minter",
          "type": "address"
        },
        {
          "internalType": "bool",
          "name": "_nftsActive",
          "type": "bool"
        }
      ],
      "name": "setNFTMinter",
      "outputs": [],
      "stateMutability": "nonpayable",
      "type": "function"
    },
    {
      "inputs": [
        {
          "internalType": "uint256",
          "name": "_threshold",
          "type": "uint256"
        }
      ],
      "name": "setNftThresholdPayment",
      "outputs": [],
      "stateMutability": "nonpayable",
      "type": "function"
    },
    {
      "inputs": [
        {
          "internalType": "address",
          "name": "newOwner",
          "type": "address"
        }
      ],
      "name": "transferOwnership",
      "outputs": [],
      "stateMutability": "nonpayable",
      "type": "function"
    },
    {
      "inputs": [
        {
          "internalType": "uint256",
          "name": "_tokenID",
          "type": "uint256"
        }
      ],
      "name": "updateNFTData",
      "outputs": [],
      "stateMutability": "nonpayable",
      "type": "function"
    },
    {
      "inputs": [],
      "name": "withdrawDAI",
      "outputs": [],
      "stateMutability": "nonpayable",
      "type": "function"
    },
    {
      "inputs": [
        {
          "internalType": "uint256",
          "name": "_amount",
          "type": "uint256"
        }
      ],
      "name": "withdrawFromAave",
      "outputs": [],
      "stateMutability": "nonpayable",
      "type": "function"
    }
  ],
  "bytecode": "0x60806040523480156200001157600080fd5b5060405162002c0138038062002c018339818101604052810190620000379190620003de565b620000576200004b6200029b60201b60201c565b620002a360201b60201c565b866006819055508360078190555084600b8190555085600a8190555082600460006101000a81548173ffffffffffffffffffffffffffffffffffffffff021916908373ffffffffffffffffffffffffffffffffffffffff16021790555082600560006101000a81548173ffffffffffffffffffffffffffffffffffffffff021916908373ffffffffffffffffffffffffffffffffffffffff16021790555081600360006101000a81548173ffffffffffffffffffffffffffffffffffffffff021916908373ffffffffffffffffffffffffffffffffffffffff16021790555080600160006101000a81548173ffffffffffffffffffffffffffffffffffffffff021916908373ffffffffffffffffffffffffffffffffffffffff16021790555080600260006101000a81548173ffffffffffffffffffffffffffffffffffffffff021916908373ffffffffffffffffffffffffffffffffffffffff160217905550600460009054906101000a900473ffffffffffffffffffffffffffffffffffffffff1673ffffffffffffffffffffffffffffffffffffffff1663095ea7b3837fffffffffffffffffffffffffffffffffffffffffffffffffffffffffffffffff6040518363ffffffff1660e01b815260040162000237929190620004b3565b602060405180830381600087803b1580156200025257600080fd5b505af115801562000267573d6000803e3d6000fd5b505050506040513d601f19601f820116820180604052508101906200028d9190620003ac565b50505050505050506200057d565b600033905090565b60008060009054906101000a900473ffffffffffffffffffffffffffffffffffffffff169050816000806101000a81548173ffffffffffffffffffffffffffffffffffffffff021916908373ffffffffffffffffffffffffffffffffffffffff1602179055508173ffffffffffffffffffffffffffffffffffffffff168173ffffffffffffffffffffffffffffffffffffffff167f8be0079c531659141344cd1fd0a4f28419497f9722a3daafe3b4186f6b6457e060405160405180910390a35050565b60008151905062000378816200052f565b92915050565b6000815190506200038f8162000549565b92915050565b600081519050620003a68162000563565b92915050565b600060208284031215620003c557620003c46200052a565b5b6000620003d5848285016200037e565b91505092915050565b600080600080600080600060e0888a0312156200040057620003ff6200052a565b5b6000620004108a828b0162000395565b9750506020620004238a828b0162000395565b9650506040620004368a828b0162000395565b9550506060620004498a828b0162000395565b94505060806200045c8a828b0162000367565b93505060a06200046f8a828b0162000367565b92505060c0620004828a828b0162000367565b91505092959891949750929550565b6200049c81620004e0565b82525050565b620004ad8162000520565b82525050565b6000604082019050620004ca600083018562000491565b620004d96020830184620004a2565b9392505050565b6000620004ed8262000500565b9050919050565b60008115159050919050565b600073ffffffffffffffffffffffffffffffffffffffff82169050919050565b6000819050919050565b600080fd5b6200053a81620004e0565b81146200054657600080fd5b50565b6200055481620004f4565b81146200056057600080fd5b50565b6200056e8162000520565b81146200057a57600080fd5b50565b612674806200058d6000396000f3fe608060405234801561001057600080fd5b50600436106101c45760003560e01c8063688f237b116100f957806388b89a7d11610097578063d2720e6911610071578063d2720e6914610482578063dee0297f1461049e578063f2fde38b146104ba578063f515bae7146104d6576101c4565b806388b89a7d1461042c5780638da5cb5b14610448578063ad21f00814610466576101c4565b806377377808116100d357806377377808146103a65780637b7182ef146103d657806383914540146103f25780638443867e14610410576101c4565b8063688f237b146103645780636bd1a3f814610380578063715018a61461039c576101c4565b80632c387275116101665780633c91292b116101405780633c91292b146102f05780634a0ab3db1461030c57806354ba0f271461032a57806358980a2614610346576101c4565b80632c3872751461028357806334cac051146102a157806334d722c9146102d2576101c4565b806319683a7c116101a257806319683a7c1461020d5780631dfda2e714610229578063294bd7381461024757806329e7446a14610265576101c4565b8063020bcc9e146101c95780630af2c6ca146101d3578063113aa8b1146101f1575b600080fd5b6101d16104f4565b005b6101db61070a565b6040516101e8919061216c565b60405180910390f35b61020b60048036038101906102069190611c09565b610710565b005b61022760048036038101906102229190611c76565b610910565b005b6102316109eb565b60405161023e919061216c565b60405180910390f35b61024f6109f1565b60405161025c919061216c565b60405180910390f35b61026d6109f7565b60405161027a919061216c565b60405180910390f35b61028b6109fd565b6040516102989190611efa565b60405180910390f35b6102bb60048036038101906102b69190611c09565b610a23565b6040516102c9929190612187565b60405180910390f35b6102da610ab5565b6040516102e79190611efa565b60405180910390f35b61030a60048036038101906103059190611c76565b610adb565b005b610314610fbd565b6040516103219190611ff1565b60405180910390f35b610344600480360381019061033f9190611c09565b610fd0565b005b61034e611147565b60405161035b919061216c565b60405180910390f35b61037e60048036038101906103799190611ce3565b61114d565b005b61039a60048036038101906103959190611ce3565b6112e3565b005b6103a46112f6565b005b6103c060048036038101906103bb9190611c09565b61137e565b6040516103cd919061216c565b60405180910390f35b6103f060048036038101906103eb9190611ce3565b6113c7565b005b6103fa61144d565b604051610407919061216c565b60405180910390f35b61042a60048036038101906104259190611ce3565b611455565b005b61044660048036038101906104419190611ce3565b6114db565b005b610450611561565b60405161045d9190611efa565b60405180910390f35b610480600480360381019061047b9190611ce3565b61158a565b005b61049c60048036038101906104979190611ce3565b611610565b005b6104b860048036038101906104b39190611c36565b611788565b005b6104d460048036038101906104cf9190611c09565b611914565b005b6104de611a0c565b6040516104eb919061216c565b60405180910390f35b6104fc611a12565b73ffffffffffffffffffffffffffffffffffffffff1661051a611561565b73ffffffffffffffffffffffffffffffffffffffff1614610570576040517f08c379a00000000000000000000000000000000000000000000000000000000081526004016105679061210c565b60405180910390fd5b600460009054906101000a900473ffffffffffffffffffffffffffffffffffffffff1673ffffffffffffffffffffffffffffffffffffffff1663a9059cbb33600460009054906101000a900473ffffffffffffffffffffffffffffffffffffffff1673ffffffffffffffffffffffffffffffffffffffff166370a08231306040518263ffffffff1660e01b815260040161060a9190611efa565b60206040518083038186803b15801561062257600080fd5b505afa158015610636573d6000803e3d6000fd5b505050506040513d601f19601f8201168201806040525081019061065a9190611d10565b6040518363ffffffff1660e01b8152600401610677929190611f4c565b602060405180830381600087803b15801561069157600080fd5b505af11580156106a5573d6000803e3d6000fd5b505050506040513d601f19601f820116820180604052508101906106c99190611cb6565b610708576040517f08c379a00000000000000000000000000000000000000000000000000000000081526004016106ff906120cc565b60405180910390fd5b565b60095481565b610718611a12565b73ffffffffffffffffffffffffffffffffffffffff16610736611561565b73ffffffffffffffffffffffffffffffffffffffff161461078c576040517f08c379a00000000000000000000000000000000000000000000000000000000081526004016107839061210c565b60405180910390fd5b600073ffffffffffffffffffffffffffffffffffffffff168173ffffffffffffffffffffffffffffffffffffffff1614156107fc576040517f08c379a00000000000000000000000000000000000000000000000000000000081526004016107f39061202c565b60405180910390fd5b80600360006101000a81548173ffffffffffffffffffffffffffffffffffffffff021916908373ffffffffffffffffffffffffffffffffffffffff160217905550600460009054906101000a900473ffffffffffffffffffffffffffffffffffffffff1673ffffffffffffffffffffffffffffffffffffffff1663095ea7b3827fffffffffffffffffffffffffffffffffffffffffffffffffffffffffffffffff6040518363ffffffff1660e01b81526004016108ba929190611f4c565b602060405180830381600087803b1580156108d457600080fd5b505af11580156108e8573d6000803e3d6000fd5b505050506040513d601f19601f8201168201806040525081019061090c9190611cb6565b5050565b3373ffffffffffffffffffffffffffffffffffffffff16600260009054906101000a900473ffffffffffffffffffffffffffffffffffffffff1673ffffffffffffffffffffffffffffffffffffffff16146109a0576040517f08c379a00000000000000000000000000000000000000000000000000000000081526004016109979061208c565b60405180910390fd5b80600e60008473ffffffffffffffffffffffffffffffffffffffff1673ffffffffffffffffffffffffffffffffffffffff168152602001908152602001600020600101819055505050565b60065481565b600b5481565b600c5481565b600560009054906101000a900473ffffffffffffffffffffffffffffffffffffffff1681565b600080600e60008473ffffffffffffffffffffffffffffffffffffffff1673ffffffffffffffffffffffffffffffffffffffff16815260200190815260200160002060010154600e60008573ffffffffffffffffffffffffffffffffffffffff1673ffffffffffffffffffffffffffffffffffffffff1681526020019081526020016000206000015491509150915091565b600260009054906101000a900473ffffffffffffffffffffffffffffffffffffffff1681565b600073ffffffffffffffffffffffffffffffffffffffff168273ffffffffffffffffffffffffffffffffffffffff161415610b4b576040517f08c379a0000000000000000000000000000000000000000000000000000000008152600401610b42906120ec565b60405180910390fd5b60008111610b8e576040517f08c379a0000000000000000000000000000000000000000000000000000000008152600401610b85906120ac565b60405180910390fd5b600460009054906101000a900473ffffffffffffffffffffffffffffffffffffffff1673ffffffffffffffffffffffffffffffffffffffff166323b872dd3330846040518463ffffffff1660e01b8152600401610bed93929190611f15565b602060405180830381600087803b158015610c0757600080fd5b505af1158015610c1b573d6000803e3d6000fd5b505050506040513d601f19601f82011682018060405250810190610c3f9190611cb6565b610c7e576040517f08c379a0000000000000000000000000000000000000000000000000000000008152600401610c759061204c565b60405180910390fd5b6000600654826301e13380610c939190612248565b610c9d9190612217565b905042600d60008573ffffffffffffffffffffffffffffffffffffffff1673ffffffffffffffffffffffffffffffffffffffff168152602001908152602001600020541015610d6b57600754811115610d175760075490506006546301e13380600754610d0a9190612217565b610d149190612248565b91505b8042610d2391906121c1565b600d60008573ffffffffffffffffffffffffffffffffffffffff1673ffffffffffffffffffffffffffffffffffffffff16815260200190815260200160002081905550610e4a565b6000600d60008573ffffffffffffffffffffffffffffffffffffffff1673ffffffffffffffffffffffffffffffffffffffff1681526020019081526020016000205460075442610dbb91906121c1565b610dc591906122a2565b905080821115610df2578091506006546301e1338082610de59190612217565b610def9190612248565b92505b81600d60008673ffffffffffffffffffffffffffffffffffffffff1673ffffffffffffffffffffffffffffffffffffffff1681526020019081526020016000206000828254610e4191906121c1565b92505081905550505b600860009054906101000a900460ff168015610e685750600b548210155b8015610ebe5750600f60008473ffffffffffffffffffffffffffffffffffffffff1673ffffffffffffffffffffffffffffffffffffffff16815260200190815260200160002060009054906101000a900460ff16155b8015610ecd5750600a54600954105b15610fb8576001600f60008573ffffffffffffffffffffffffffffffffffffffff1673ffffffffffffffffffffffffffffffffffffffff16815260200190815260200160002060006101000a81548160ff021916908315150217905550600160009054906101000a900473ffffffffffffffffffffffffffffffffffffffff1673ffffffffffffffffffffffffffffffffffffffff166317e5883c846040518263ffffffff1660e01b8152600401610f859190611efa565b600060405180830381600087803b158015610f9f57600080fd5b505af1158015610fb3573d6000803e3d6000fd5b505050505b505050565b600860009054906101000a900460ff1681565b6000600e60008373ffffffffffffffffffffffffffffffffffffffff1673ffffffffffffffffffffffffffffffffffffffff168152602001908152602001600020600101541415611056576040517f08c379a000000000000000000000000000000000000000000000000000000000815260040161104d9061200c565b60405180910390fd5b600160009054906101000a900473ffffffffffffffffffffffffffffffffffffffff1673ffffffffffffffffffffffffffffffffffffffff166354ba0f27826040518263ffffffff1660e01b81526004016110b19190611efa565b600060405180830381600087803b1580156110cb57600080fd5b505af11580156110df573d6000803e3d6000fd5b50505050600960008154809291906110f69061233e565b9190505550600954600e60008373ffffffffffffffffffffffffffffffffffffffff1673ffffffffffffffffffffffffffffffffffffffff1681526020019081526020016000206000018190555050565b60075481565b611155611a12565b73ffffffffffffffffffffffffffffffffffffffff16611173611561565b73ffffffffffffffffffffffffffffffffffffffff16146111c9576040517f08c379a00000000000000000000000000000000000000000000000000000000081526004016111c09061210c565b60405180910390fd5b6000811161120c576040517f08c379a00000000000000000000000000000000000000000000000000000000081526004016112039061212c565b60405180910390fd5b600360009054906101000a900473ffffffffffffffffffffffffffffffffffffffff1673ffffffffffffffffffffffffffffffffffffffff166369328dec600560009054906101000a900473ffffffffffffffffffffffffffffffffffffffff1683306040518463ffffffff1660e01b815260040161128d93929190611f75565b602060405180830381600087803b1580156112a757600080fd5b505af11580156112bb573d6000803e3d6000fd5b505050506040513d601f19601f820116820180604052508101906112df9190611d10565b5050565b6112ec33611a1a565b80600c8190555050565b6112fe611a12565b73ffffffffffffffffffffffffffffffffffffffff1661131c611561565b73ffffffffffffffffffffffffffffffffffffffff1614611372576040517f08c379a00000000000000000000000000000000000000000000000000000000081526004016113699061210c565b60405180910390fd5b61137c6000611ab3565b565b6000600d60008373ffffffffffffffffffffffffffffffffffffffff1673ffffffffffffffffffffffffffffffffffffffff168152602001908152602001600020549050919050565b6113cf611a12565b73ffffffffffffffffffffffffffffffffffffffff166113ed611561565b73ffffffffffffffffffffffffffffffffffffffff1614611443576040517f08c379a000000000000000000000000000000000000000000000000000000000815260040161143a9061210c565b60405180910390fd5b8060078190555050565b6301e1338081565b61145d611a12565b73ffffffffffffffffffffffffffffffffffffffff1661147b611561565b73ffffffffffffffffffffffffffffffffffffffff16146114d1576040517f08c379a00000000000000000000000000000000000000000000000000000000081526004016114c89061210c565b60405180910390fd5b80600a8190555050565b6114e3611a12565b73ffffffffffffffffffffffffffffffffffffffff16611501611561565b73ffffffffffffffffffffffffffffffffffffffff1614611557576040517f08c379a000000000000000000000000000000000000000000000000000000000815260040161154e9061210c565b60405180910390fd5b8060068190555050565b60008060009054906101000a900473ffffffffffffffffffffffffffffffffffffffff16905090565b611592611a12565b73ffffffffffffffffffffffffffffffffffffffff166115b0611561565b73ffffffffffffffffffffffffffffffffffffffff1614611606576040517f08c379a00000000000000000000000000000000000000000000000000000000081526004016115fd9061210c565b60405180910390fd5b80600b8190555050565b611618611a12565b73ffffffffffffffffffffffffffffffffffffffff16611636611561565b73ffffffffffffffffffffffffffffffffffffffff161461168c576040517f08c379a00000000000000000000000000000000000000000000000000000000081526004016116839061210c565b60405180910390fd5b600081116116cf576040517f08c379a00000000000000000000000000000000000000000000000000000000081526004016116c69061214c565b60405180910390fd5b600360009054906101000a900473ffffffffffffffffffffffffffffffffffffffff1673ffffffffffffffffffffffffffffffffffffffff1663e8eda9df600560009054906101000a900473ffffffffffffffffffffffffffffffffffffffff16833060006040518563ffffffff1660e01b81526004016117539493929190611fac565b600060405180830381600087803b15801561176d57600080fd5b505af1158015611781573d6000803e3d6000fd5b5050505050565b611790611a12565b73ffffffffffffffffffffffffffffffffffffffff166117ae611561565b73ffffffffffffffffffffffffffffffffffffffff1614611804576040517f08c379a00000000000000000000000000000000000000000000000000000000081526004016117fb9061210c565b60405180910390fd5b600073ffffffffffffffffffffffffffffffffffffffff168273ffffffffffffffffffffffffffffffffffffffff161415611874576040517f08c379a000000000000000000000000000000000000000000000000000000000815260040161186b9061202c565b60405180910390fd5b81600160006101000a81548173ffffffffffffffffffffffffffffffffffffffff021916908373ffffffffffffffffffffffffffffffffffffffff16021790555081600260006101000a81548173ffffffffffffffffffffffffffffffffffffffff021916908373ffffffffffffffffffffffffffffffffffffffff16021790555080600860006101000a81548160ff0219169083151502179055505050565b61191c611a12565b73ffffffffffffffffffffffffffffffffffffffff1661193a611561565b73ffffffffffffffffffffffffffffffffffffffff1614611990576040517f08c379a00000000000000000000000000000000000000000000000000000000081526004016119879061210c565b60405180910390fd5b600073ffffffffffffffffffffffffffffffffffffffff168173ffffffffffffffffffffffffffffffffffffffff161415611a00576040517f08c379a00000000000000000000000000000000000000000000000000000000081526004016119f79061206c565b60405180910390fd5b611a0981611ab3565b50565b600a5481565b600033905090565b611ab081604051602401611a2e9190611efa565b6040516020818303038152906040527f2c2ecbc2000000000000000000000000000000000000000000000000000000007bffffffffffffffffffffffffffffffffffffffffffffffffffffffff19166020820180517bffffffffffffffffffffffffffffffffffffffffffffffffffffffff8381831617835250505050611b77565b50565b60008060009054906101000a900473ffffffffffffffffffffffffffffffffffffffff169050816000806101000a81548173ffffffffffffffffffffffffffffffffffffffff021916908373ffffffffffffffffffffffffffffffffffffffff1602179055508173ffffffffffffffffffffffffffffffffffffffff168173ffffffffffffffffffffffffffffffffffffffff167f8be0079c531659141344cd1fd0a4f28419497f9722a3daafe3b4186f6b6457e060405160405180910390a35050565b60008151905060006a636f6e736f6c652e6c6f679050602083016000808483855afa5050505050565b600081359050611baf816125f9565b92915050565b600081359050611bc481612610565b92915050565b600081519050611bd981612610565b92915050565b600081359050611bee81612627565b92915050565b600081519050611c0381612627565b92915050565b600060208284031215611c1f57611c1e6123e5565b5b6000611c2d84828501611ba0565b91505092915050565b60008060408385031215611c4d57611c4c6123e5565b5b6000611c5b85828601611ba0565b9250506020611c6c85828601611bb5565b9150509250929050565b60008060408385031215611c8d57611c8c6123e5565b5b6000611c9b85828601611ba0565b9250506020611cac85828601611bdf565b9150509250929050565b600060208284031215611ccc57611ccb6123e5565b5b6000611cda84828501611bca565b91505092915050565b600060208284031215611cf957611cf86123e5565b5b6000611d0784828501611bdf565b91505092915050565b600060208284031215611d2657611d256123e5565b5b6000611d3484828501611bf4565b91505092915050565b611d46816122d6565b82525050565b611d55816122e8565b82525050565b611d648161232c565b82525050565b6000611d776014836121b0565b9150611d82826123ea565b602082019050919050565b6000611d9a601d836121b0565b9150611da582612413565b602082019050919050565b6000611dbd6015836121b0565b9150611dc88261243c565b602082019050919050565b6000611de06026836121b0565b9150611deb82612465565b604082019050919050565b6000611e036020836121b0565b9150611e0e826124b4565b602082019050919050565b6000611e266020836121b0565b9150611e31826124dd565b602082019050919050565b6000611e49601a836121b0565b9150611e5482612506565b602082019050919050565b6000611e6c6023836121b0565b9150611e778261252f565b604082019050919050565b6000611e8f6020836121b0565b9150611e9a8261257e565b602082019050919050565b6000611eb2601e836121b0565b9150611ebd826125a7565b602082019050919050565b6000611ed5601d836121b0565b9150611ee0826125d0565b602082019050919050565b611ef481612322565b82525050565b6000602082019050611f0f6000830184611d3d565b92915050565b6000606082019050611f2a6000830186611d3d565b611f376020830185611d3d565b611f446040830184611eeb565b949350505050565b6000604082019050611f616000830185611d3d565b611f6e6020830184611eeb565b9392505050565b6000606082019050611f8a6000830186611d3d565b611f976020830185611eeb565b611fa46040830184611d3d565b949350505050565b6000608082019050611fc16000830187611d3d565b611fce6020830186611eeb565b611fdb6040830185611d3d565b611fe86060830184611d5b565b95945050505050565b60006020820190506120066000830184611d4c565b92915050565b6000602082019050818103600083015261202581611d6a565b9050919050565b6000602082019050818103600083015261204581611d8d565b9050919050565b6000602082019050818103600083015261206581611db0565b9050919050565b6000602082019050818103600083015261208581611dd3565b9050919050565b600060208201905081810360008301526120a581611df6565b9050919050565b600060208201905081810360008301526120c581611e19565b9050919050565b600060208201905081810360008301526120e581611e3c565b9050919050565b6000602082019050818103600083015261210581611e5f565b9050919050565b6000602082019050818103600083015261212581611e82565b9050919050565b6000602082019050818103600083015261214581611ea5565b9050919050565b6000602082019050818103600083015261216581611ec8565b9050919050565b60006020820190506121816000830184611eeb565b92915050565b600060408201905061219c6000830185611eeb565b6121a96020830184611eeb565b9392505050565b600082825260208201905092915050565b60006121cc82612322565b91506121d783612322565b9250827fffffffffffffffffffffffffffffffffffffffffffffffffffffffffffffffff0382111561220c5761220b612387565b5b828201905092915050565b600061222282612322565b915061222d83612322565b92508261223d5761223c6123b6565b5b828204905092915050565b600061225382612322565b915061225e83612322565b9250817fffffffffffffffffffffffffffffffffffffffffffffffffffffffffffffffff048311821515161561229757612296612387565b5b828202905092915050565b60006122ad82612322565b91506122b883612322565b9250828210156122cb576122ca612387565b5b828203905092915050565b60006122e182612302565b9050919050565b60008115159050919050565b600061ffff82169050919050565b600073ffffffffffffffffffffffffffffffffffffffff82169050919050565b6000819050919050565b6000612337826122f4565b9050919050565b600061234982612322565b91507fffffffffffffffffffffffffffffffffffffffffffffffffffffffffffffffff82141561237c5761237b612387565b5b600182019050919050565b7f4e487b7100000000000000000000000000000000000000000000000000000000600052601160045260246000fd5b7f4e487b7100000000000000000000000000000000000000000000000000000000600052601260045260246000fd5b600080fd5b7f46455252593a2043414e54204d494e54204e4654000000000000000000000000600082015250565b7f46455252593a2043414e275420555345205a45524f2041444452455353000000600082015250565b7f46455252593a205041594d454e54204641494c45440000000000000000000000600082015250565b7f4f776e61626c653a206e6577206f776e657220697320746865207a65726f206160008201527f6464726573730000000000000000000000000000000000000000000000000000602082015250565b7f46455252593a204f4e4c59204d494e54455220495320415554484f52495a4544600082015250565b7f46455252593a2050415920534f4d452044414920544f20535542534352494245600082015250565b7f46455252593a20444149205749544844524157204641494c4544000000000000600082015250565b7f46455252593a205a45524f20414444524553532043414e27542053554253435260008201527f4942450000000000000000000000000000000000000000000000000000000000602082015250565b7f4f776e61626c653a2063616c6c6572206973206e6f7420746865206f776e6572600082015250565b7f46455252593a205749544844524157204d4f5245205448414e205a45524f0000600082015250565b7f46455252593a204445504f534954204d4f5245205448414e205a45524f000000600082015250565b612602816122d6565b811461260d57600080fd5b50565b612619816122e8565b811461262457600080fd5b50565b61263081612322565b811461263b57600080fd5b5056fea26469706673582212200c76e8e2c67011646bfc263ff91ddf380b18126ff10ae30b5299be42b20d8deb64736f6c63430008060033",
  "linkReferences": {},
  "deployedLinkReferences": {}
}