{
  "_format": "hh-sol-artifact-1",
  "contractName": "Ferry",
  "sourceName": "contracts/Ferry.sol",
  "abi": [
    {
      "inputs": [
        {
          "internalType": "uint256",
          "name": "_annualFee",
          "type": "uint256"
        },
        {
          "internalType": "uint256",
          "name": "_nftThreshold",
          "type": "uint256"
        },
        {
          "internalType": "address",
          "name": "_dai",
          "type": "address"
        },
        {
          "internalType": "address",
          "name": "_lendingPool",
          "type": "address"
        },
        {
          "internalType": "address",
          "name": "_nftMinter",
          "type": "address"
        }
      ],
      "stateMutability": "nonpayable",
      "type": "constructor"
    },
    {
      "anonymous": false,
      "inputs": [
        {
          "indexed": true,
          "internalType": "address",
          "name": "previousOwner",
          "type": "address"
        },
        {
          "indexed": true,
          "internalType": "address",
          "name": "newOwner",
          "type": "address"
        }
      ],
      "name": "OwnershipTransferred",
      "type": "event"
    },
    {
      "inputs": [],
      "name": "YEAR",
      "outputs": [
        {
          "internalType": "uint256",
          "name": "",
          "type": "uint256"
        }
      ],
      "stateMutability": "view",
      "type": "function"
    },
    {
      "inputs": [],
      "name": "annualFee",
      "outputs": [
        {
          "internalType": "uint256",
          "name": "",
          "type": "uint256"
        }
      ],
      "stateMutability": "view",
      "type": "function"
    },
    {
      "inputs": [],
      "name": "daiAddress",
      "outputs": [
        {
          "internalType": "address",
          "name": "",
          "type": "address"
        }
      ],
      "stateMutability": "view",
      "type": "function"
    },
    {
      "inputs": [
        {
          "internalType": "uint256",
          "name": "_amount",
          "type": "uint256"
        }
      ],
      "name": "depositInAave",
      "outputs": [],
      "stateMutability": "nonpayable",
      "type": "function"
    },
    {
      "inputs": [
        {
          "internalType": "address",
          "name": "_account",
          "type": "address"
        }
      ],
      "name": "getMembershipExpiryTime",
      "outputs": [
        {
          "internalType": "uint256",
          "name": "",
          "type": "uint256"
        }
      ],
      "stateMutability": "view",
      "type": "function"
    },
    {
      "inputs": [],
      "name": "nftThresholdPayment",
      "outputs": [
        {
          "internalType": "uint256",
          "name": "",
          "type": "uint256"
        }
      ],
      "stateMutability": "view",
      "type": "function"
    },
    {
      "inputs": [],
      "name": "nftsActive",
      "outputs": [
        {
          "internalType": "bool",
          "name": "",
          "type": "bool"
        }
      ],
      "stateMutability": "view",
      "type": "function"
    },
    {
      "inputs": [],
      "name": "owner",
      "outputs": [
        {
          "internalType": "address",
          "name": "",
          "type": "address"
        }
      ],
      "stateMutability": "view",
      "type": "function"
    },
    {
      "inputs": [
        {
          "internalType": "address",
          "name": "_account",
          "type": "address"
        },
        {
          "internalType": "uint256",
          "name": "_amount",
          "type": "uint256"
        }
      ],
      "name": "paySubscription",
      "outputs": [],
      "stateMutability": "nonpayable",
      "type": "function"
    },
    {
      "inputs": [],
      "name": "renounceOwnership",
      "outputs": [],
      "stateMutability": "nonpayable",
      "type": "function"
    },
    {
      "inputs": [
        {
          "internalType": "uint256",
          "name": "_annualFee",
          "type": "uint256"
        }
      ],
      "name": "setAnnualFee",
      "outputs": [],
      "stateMutability": "nonpayable",
      "type": "function"
    },
    {
      "inputs": [
        {
          "internalType": "address",
          "name": "_lendingPool",
          "type": "address"
        }
      ],
      "name": "setLendingPool",
      "outputs": [],
      "stateMutability": "nonpayable",
      "type": "function"
    },
    {
      "inputs": [
        {
          "internalType": "address",
          "name": "_minter",
          "type": "address"
        },
        {
          "internalType": "bool",
          "name": "_nftsActive",
          "type": "bool"
        }
      ],
      "name": "setNFTMinter",
      "outputs": [],
      "stateMutability": "nonpayable",
      "type": "function"
    },
    {
      "inputs": [
        {
          "internalType": "uint256",
          "name": "_threshold",
          "type": "uint256"
        }
      ],
      "name": "setNftThresholdPayment",
      "outputs": [],
      "stateMutability": "nonpayable",
      "type": "function"
    },
    {
      "inputs": [
        {
          "internalType": "address",
          "name": "newOwner",
          "type": "address"
        }
      ],
      "name": "transferOwnership",
      "outputs": [],
      "stateMutability": "nonpayable",
      "type": "function"
    },
    {
      "inputs": [
        {
          "internalType": "uint256",
          "name": "_amount",
          "type": "uint256"
        }
      ],
      "name": "withdrawFromAave",
      "outputs": [],
      "stateMutability": "nonpayable",
      "type": "function"
    }
  ],
  "bytecode": "0x60806040523480156200001157600080fd5b5060405162001daf38038062001daf83398181016040528101906200003791906200038d565b620000576200004b6200024a60201b60201c565b6200025260201b60201c565b846005819055508360068190555082600360006101000a81548173ffffffffffffffffffffffffffffffffffffffff021916908373ffffffffffffffffffffffffffffffffffffffff16021790555082600460006101000a81548173ffffffffffffffffffffffffffffffffffffffff021916908373ffffffffffffffffffffffffffffffffffffffff16021790555081600260006101000a81548173ffffffffffffffffffffffffffffffffffffffff021916908373ffffffffffffffffffffffffffffffffffffffff16021790555080600160006101000a81548173ffffffffffffffffffffffffffffffffffffffff021916908373ffffffffffffffffffffffffffffffffffffffff160217905550600360009054906101000a900473ffffffffffffffffffffffffffffffffffffffff1673ffffffffffffffffffffffffffffffffffffffff1663095ea7b3837fffffffffffffffffffffffffffffffffffffffffffffffffffffffffffffffff6040518363ffffffff1660e01b8152600401620001e892919062000437565b602060405180830381600087803b1580156200020357600080fd5b505af115801562000218573d6000803e3d6000fd5b505050506040513d601f19601f820116820180604052508101906200023e91906200035b565b50505050505062000501565b600033905090565b60008060009054906101000a900473ffffffffffffffffffffffffffffffffffffffff169050816000806101000a81548173ffffffffffffffffffffffffffffffffffffffff021916908373ffffffffffffffffffffffffffffffffffffffff1602179055508173ffffffffffffffffffffffffffffffffffffffff168173ffffffffffffffffffffffffffffffffffffffff167f8be0079c531659141344cd1fd0a4f28419497f9722a3daafe3b4186f6b6457e060405160405180910390a35050565b6000815190506200032781620004b3565b92915050565b6000815190506200033e81620004cd565b92915050565b6000815190506200035581620004e7565b92915050565b600060208284031215620003745762000373620004ae565b5b600062000384848285016200032d565b91505092915050565b600080600080600060a08688031215620003ac57620003ab620004ae565b5b6000620003bc8882890162000344565b9550506020620003cf8882890162000344565b9450506040620003e28882890162000316565b9350506060620003f58882890162000316565b9250506080620004088882890162000316565b9150509295509295909350565b620004208162000464565b82525050565b6200043181620004a4565b82525050565b60006040820190506200044e600083018562000415565b6200045d602083018462000426565b9392505050565b6000620004718262000484565b9050919050565b60008115159050919050565b600073ffffffffffffffffffffffffffffffffffffffff82169050919050565b6000819050919050565b600080fd5b620004be8162000464565b8114620004ca57600080fd5b50565b620004d88162000478565b8114620004e457600080fd5b50565b620004f281620004a4565b8114620004fe57600080fd5b50565b61189e80620005116000396000f3fe608060405234801561001057600080fd5b50600436106101005760003560e01c80637737780811610097578063ad21f00811610066578063ad21f00814610263578063d2720e691461027f578063dee0297f1461029b578063f2fde38b146102b757610100565b806377377808146101db578063839145401461020b57806388b89a7d146102295780638da5cb5b1461024557610100565b80633c91292b116100d35780633c91292b1461017b5780634a0ab3db14610197578063688f237b146101b5578063715018a6146101d157610100565b8063113aa8b1146101055780631dfda2e714610121578063294bd7381461013f5780632c3872751461015d575b600080fd5b61011f600480360381019061011a91906110c0565b6102d3565b005b6101296104d3565b60405161013691906114e0565b60405180910390f35b6101476104d9565b60405161015491906114e0565b60405180910390f35b6101656104df565b6040516101729190611325565b60405180910390f35b6101956004803603810190610190919061112d565b610505565b005b61019f610819565b6040516101ac91906113e5565b60405180910390f35b6101cf60048036038101906101ca919061119a565b61082c565b005b6101d96109c2565b005b6101f560048036038101906101f091906110c0565b610a4a565b60405161020291906114e0565b60405180910390f35b610213610a93565b60405161022091906114e0565b60405180910390f35b610243600480360381019061023e919061119a565b610a9b565b005b61024d610b21565b60405161025a9190611325565b60405180910390f35b61027d6004803603810190610278919061119a565b610b4a565b005b6102996004803603810190610294919061119a565b610bd0565b005b6102b560048036038101906102b091906110ed565b610d48565b005b6102d160048036038101906102cc91906110c0565b610e93565b005b6102db610f8b565b73ffffffffffffffffffffffffffffffffffffffff166102f9610b21565b73ffffffffffffffffffffffffffffffffffffffff161461034f576040517f08c379a000000000000000000000000000000000000000000000000000000000815260040161034690611480565b60405180910390fd5b600073ffffffffffffffffffffffffffffffffffffffff168173ffffffffffffffffffffffffffffffffffffffff1614156103bf576040517f08c379a00000000000000000000000000000000000000000000000000000000081526004016103b690611400565b60405180910390fd5b80600260006101000a81548173ffffffffffffffffffffffffffffffffffffffff021916908373ffffffffffffffffffffffffffffffffffffffff160217905550600360009054906101000a900473ffffffffffffffffffffffffffffffffffffffff1673ffffffffffffffffffffffffffffffffffffffff1663095ea7b3827fffffffffffffffffffffffffffffffffffffffffffffffffffffffffffffffff6040518363ffffffff1660e01b815260040161047d929190611340565b602060405180830381600087803b15801561049757600080fd5b505af11580156104ab573d6000803e3d6000fd5b505050506040513d601f19601f820116820180604052508101906104cf919061116d565b5050565b60055481565b60065481565b600460009054906101000a900473ffffffffffffffffffffffffffffffffffffffff1681565b60065481101580156105615750600860008373ffffffffffffffffffffffffffffffffffffffff1673ffffffffffffffffffffffffffffffffffffffff16815260200190815260200160002060009054906101000a900460ff16155b1561064e57600160009054906101000a900473ffffffffffffffffffffffffffffffffffffffff1673ffffffffffffffffffffffffffffffffffffffff166340c10f1983836040518363ffffffff1660e01b81526004016105c3929190611340565b600060405180830381600087803b1580156105dd57600080fd5b505af11580156105f1573d6000803e3d6000fd5b505050506001600860008473ffffffffffffffffffffffffffffffffffffffff1673ffffffffffffffffffffffffffffffffffffffff16815260200190815260200160002060006101000a81548160ff0219169083151502179055505b600073ffffffffffffffffffffffffffffffffffffffff168273ffffffffffffffffffffffffffffffffffffffff1614156106be576040517f08c379a00000000000000000000000000000000000000000000000000000000081526004016106b590611460565b60405180910390fd5b60008111610701576040517f08c379a00000000000000000000000000000000000000000000000000000000081526004016106f890611440565b60405180910390fd5b6000600554826301e133806107169190611593565b6107209190611562565b905042600760008573ffffffffffffffffffffffffffffffffffffffff1673ffffffffffffffffffffffffffffffffffffffff1681526020019081526020016000205410156107bd578042610775919061150c565b600760008573ffffffffffffffffffffffffffffffffffffffff1673ffffffffffffffffffffffffffffffffffffffff16815260200190815260200160002081905550610814565b80600760008573ffffffffffffffffffffffffffffffffffffffff1673ffffffffffffffffffffffffffffffffffffffff168152602001908152602001600020600082825461080c919061150c565b925050819055505b505050565b600160149054906101000a900460ff1681565b610834610f8b565b73ffffffffffffffffffffffffffffffffffffffff16610852610b21565b73ffffffffffffffffffffffffffffffffffffffff16146108a8576040517f08c379a000000000000000000000000000000000000000000000000000000000815260040161089f90611480565b60405180910390fd5b600081116108eb576040517f08c379a00000000000000000000000000000000000000000000000000000000081526004016108e2906114a0565b60405180910390fd5b600260009054906101000a900473ffffffffffffffffffffffffffffffffffffffff1673ffffffffffffffffffffffffffffffffffffffff166369328dec600460009054906101000a900473ffffffffffffffffffffffffffffffffffffffff1683306040518463ffffffff1660e01b815260040161096c93929190611369565b602060405180830381600087803b15801561098657600080fd5b505af115801561099a573d6000803e3d6000fd5b505050506040513d601f19601f820116820180604052508101906109be91906111c7565b5050565b6109ca610f8b565b73ffffffffffffffffffffffffffffffffffffffff166109e8610b21565b73ffffffffffffffffffffffffffffffffffffffff1614610a3e576040517f08c379a0000000000000000000000000000000000000000000000000000000008152600401610a3590611480565b60405180910390fd5b610a486000610f93565b565b6000600760008373ffffffffffffffffffffffffffffffffffffffff1673ffffffffffffffffffffffffffffffffffffffff168152602001908152602001600020549050919050565b6301e1338081565b610aa3610f8b565b73ffffffffffffffffffffffffffffffffffffffff16610ac1610b21565b73ffffffffffffffffffffffffffffffffffffffff1614610b17576040517f08c379a0000000000000000000000000000000000000000000000000000000008152600401610b0e90611480565b60405180910390fd5b8060058190555050565b60008060009054906101000a900473ffffffffffffffffffffffffffffffffffffffff16905090565b610b52610f8b565b73ffffffffffffffffffffffffffffffffffffffff16610b70610b21565b73ffffffffffffffffffffffffffffffffffffffff1614610bc6576040517f08c379a0000000000000000000000000000000000000000000000000000000008152600401610bbd90611480565b60405180910390fd5b8060068190555050565b610bd8610f8b565b73ffffffffffffffffffffffffffffffffffffffff16610bf6610b21565b73ffffffffffffffffffffffffffffffffffffffff1614610c4c576040517f08c379a0000000000000000000000000000000000000000000000000000000008152600401610c4390611480565b60405180910390fd5b60008111610c8f576040517f08c379a0000000000000000000000000000000000000000000000000000000008152600401610c86906114c0565b60405180910390fd5b600260009054906101000a900473ffffffffffffffffffffffffffffffffffffffff1673ffffffffffffffffffffffffffffffffffffffff1663e8eda9df600460009054906101000a900473ffffffffffffffffffffffffffffffffffffffff16833060006040518563ffffffff1660e01b8152600401610d1394939291906113a0565b600060405180830381600087803b158015610d2d57600080fd5b505af1158015610d41573d6000803e3d6000fd5b5050505050565b610d50610f8b565b73ffffffffffffffffffffffffffffffffffffffff16610d6e610b21565b73ffffffffffffffffffffffffffffffffffffffff1614610dc4576040517f08c379a0000000000000000000000000000000000000000000000000000000008152600401610dbb90611480565b60405180910390fd5b600073ffffffffffffffffffffffffffffffffffffffff168273ffffffffffffffffffffffffffffffffffffffff161415610e34576040517f08c379a0000000000000000000000000000000000000000000000000000000008152600401610e2b90611400565b60405180910390fd5b81600160006101000a81548173ffffffffffffffffffffffffffffffffffffffff021916908373ffffffffffffffffffffffffffffffffffffffff16021790555080600160146101000a81548160ff0219169083151502179055505050565b610e9b610f8b565b73ffffffffffffffffffffffffffffffffffffffff16610eb9610b21565b73ffffffffffffffffffffffffffffffffffffffff1614610f0f576040517f08c379a0000000000000000000000000000000000000000000000000000000008152600401610f0690611480565b60405180910390fd5b600073ffffffffffffffffffffffffffffffffffffffff168173ffffffffffffffffffffffffffffffffffffffff161415610f7f576040517f08c379a0000000000000000000000000000000000000000000000000000000008152600401610f7690611420565b60405180910390fd5b610f8881610f93565b50565b600033905090565b60008060009054906101000a900473ffffffffffffffffffffffffffffffffffffffff169050816000806101000a81548173ffffffffffffffffffffffffffffffffffffffff021916908373ffffffffffffffffffffffffffffffffffffffff1602179055508173ffffffffffffffffffffffffffffffffffffffff168173ffffffffffffffffffffffffffffffffffffffff167f8be0079c531659141344cd1fd0a4f28419497f9722a3daafe3b4186f6b6457e060405160405180910390a35050565b60008135905061106681611823565b92915050565b60008135905061107b8161183a565b92915050565b6000815190506110908161183a565b92915050565b6000813590506110a581611851565b92915050565b6000815190506110ba81611851565b92915050565b6000602082840312156110d6576110d56116b3565b5b60006110e484828501611057565b91505092915050565b60008060408385031215611104576111036116b3565b5b600061111285828601611057565b92505060206111238582860161106c565b9150509250929050565b60008060408385031215611144576111436116b3565b5b600061115285828601611057565b925050602061116385828601611096565b9150509250929050565b600060208284031215611183576111826116b3565b5b600061119184828501611081565b91505092915050565b6000602082840312156111b0576111af6116b3565b5b60006111be84828501611096565b91505092915050565b6000602082840312156111dd576111dc6116b3565b5b60006111eb848285016110ab565b91505092915050565b6111fd816115ed565b82525050565b61120c816115ff565b82525050565b61121b81611643565b82525050565b600061122e601d836114fb565b9150611239826116b8565b602082019050919050565b60006112516026836114fb565b915061125c826116e1565b604082019050919050565b60006112746020836114fb565b915061127f82611730565b602082019050919050565b60006112976023836114fb565b91506112a282611759565b604082019050919050565b60006112ba6020836114fb565b91506112c5826117a8565b602082019050919050565b60006112dd601e836114fb565b91506112e8826117d1565b602082019050919050565b6000611300601d836114fb565b915061130b826117fa565b602082019050919050565b61131f81611639565b82525050565b600060208201905061133a60008301846111f4565b92915050565b600060408201905061135560008301856111f4565b6113626020830184611316565b9392505050565b600060608201905061137e60008301866111f4565b61138b6020830185611316565b61139860408301846111f4565b949350505050565b60006080820190506113b560008301876111f4565b6113c26020830186611316565b6113cf60408301856111f4565b6113dc6060830184611212565b95945050505050565b60006020820190506113fa6000830184611203565b92915050565b6000602082019050818103600083015261141981611221565b9050919050565b6000602082019050818103600083015261143981611244565b9050919050565b6000602082019050818103600083015261145981611267565b9050919050565b600060208201905081810360008301526114798161128a565b9050919050565b60006020820190508181036000830152611499816112ad565b9050919050565b600060208201905081810360008301526114b9816112d0565b9050919050565b600060208201905081810360008301526114d9816112f3565b9050919050565b60006020820190506114f56000830184611316565b92915050565b600082825260208201905092915050565b600061151782611639565b915061152283611639565b9250827fffffffffffffffffffffffffffffffffffffffffffffffffffffffffffffffff0382111561155757611556611655565b5b828201905092915050565b600061156d82611639565b915061157883611639565b92508261158857611587611684565b5b828204905092915050565b600061159e82611639565b91506115a983611639565b9250817fffffffffffffffffffffffffffffffffffffffffffffffffffffffffffffffff04831182151516156115e2576115e1611655565b5b828202905092915050565b60006115f882611619565b9050919050565b60008115159050919050565b600061ffff82169050919050565b600073ffffffffffffffffffffffffffffffffffffffff82169050919050565b6000819050919050565b600061164e8261160b565b9050919050565b7f4e487b7100000000000000000000000000000000000000000000000000000000600052601160045260246000fd5b7f4e487b7100000000000000000000000000000000000000000000000000000000600052601260045260246000fd5b600080fd5b7f46455252593a2043414e275420555345205a45524f2041444452455353000000600082015250565b7f4f776e61626c653a206e6577206f776e657220697320746865207a65726f206160008201527f6464726573730000000000000000000000000000000000000000000000000000602082015250565b7f46455252593a2050415920534f4d452044414920544f20535542534352494245600082015250565b7f46455252593a205a45524f20414444524553532043414e27542053554253435260008201527f4942450000000000000000000000000000000000000000000000000000000000602082015250565b7f4f776e61626c653a2063616c6c6572206973206e6f7420746865206f776e6572600082015250565b7f46455252593a205749544844524157204d4f5245205448414e205a45524f0000600082015250565b7f46455252593a204445504f534954204d4f5245205448414e205a45524f000000600082015250565b61182c816115ed565b811461183757600080fd5b50565b611843816115ff565b811461184e57600080fd5b50565b61185a81611639565b811461186557600080fd5b5056fea2646970667358221220642af64fca727b6ea61d6c7308808d980ca42e70eace2a83bfa31138499ea6fd64736f6c63430008060033",
  "linkReferences": {},
  "deployedLinkReferences": {}
}