{
  "_format": "hh-sol-artifact-1",
  "contractName": "Ferry",
  "sourceName": "contracts/Ferry.sol",
  "abi": [
    {
      "inputs": [
        {
          "internalType": "uint256",
          "name": "_annualFee",
          "type": "uint256"
        },
        {
          "internalType": "uint256",
          "name": "_maxMintedNFTs",
          "type": "uint256"
        },
        {
          "internalType": "uint256",
          "name": "_nftThreshold",
          "type": "uint256"
        },
        {
          "internalType": "uint256",
          "name": "_maxMembershipPeriod",
          "type": "uint256"
        },
        {
          "internalType": "address",
          "name": "_dai",
          "type": "address"
        },
        {
          "internalType": "address",
          "name": "_lendingPool",
          "type": "address"
        },
        {
          "internalType": "address",
          "name": "_nftMinter",
          "type": "address"
        }
      ],
      "stateMutability": "nonpayable",
      "type": "constructor"
    },
    {
      "anonymous": false,
      "inputs": [
        {
          "indexed": true,
          "internalType": "address",
          "name": "previousOwner",
          "type": "address"
        },
        {
          "indexed": true,
          "internalType": "address",
          "name": "newOwner",
          "type": "address"
        }
      ],
      "name": "OwnershipTransferred",
      "type": "event"
    },
    {
      "inputs": [],
      "name": "YEAR",
      "outputs": [
        {
          "internalType": "uint256",
          "name": "",
          "type": "uint256"
        }
      ],
      "stateMutability": "view",
      "type": "function"
    },
    {
      "inputs": [],
      "name": "annualFee",
      "outputs": [
        {
          "internalType": "uint256",
          "name": "",
          "type": "uint256"
        }
      ],
      "stateMutability": "view",
      "type": "function"
    },
    {
      "inputs": [],
      "name": "daiAddress",
      "outputs": [
        {
          "internalType": "address",
          "name": "",
          "type": "address"
        }
      ],
      "stateMutability": "view",
      "type": "function"
    },
    {
      "inputs": [
        {
          "internalType": "uint256",
          "name": "_amount",
          "type": "uint256"
        }
      ],
      "name": "depositInAave",
      "outputs": [],
      "stateMutability": "nonpayable",
      "type": "function"
    },
    {
      "inputs": [
        {
          "internalType": "address",
          "name": "_account",
          "type": "address"
        }
      ],
      "name": "getAccountNFT",
      "outputs": [
        {
          "internalType": "uint256",
          "name": "randomNum",
          "type": "uint256"
        },
        {
          "internalType": "uint256",
          "name": "index",
          "type": "uint256"
        }
      ],
      "stateMutability": "view",
      "type": "function"
    },
    {
      "inputs": [
        {
          "internalType": "address",
          "name": "_account",
          "type": "address"
        }
      ],
      "name": "getMembershipExpiryTime",
      "outputs": [
        {
          "internalType": "uint256",
          "name": "",
          "type": "uint256"
        }
      ],
      "stateMutability": "view",
      "type": "function"
    },
    {
      "inputs": [],
      "name": "maxMembershipPeriod",
      "outputs": [
        {
          "internalType": "uint256",
          "name": "",
          "type": "uint256"
        }
      ],
      "stateMutability": "view",
      "type": "function"
    },
    {
      "inputs": [],
      "name": "maxMintedNFTs",
      "outputs": [
        {
          "internalType": "uint256",
          "name": "",
          "type": "uint256"
        }
      ],
      "stateMutability": "view",
      "type": "function"
    },
    {
      "inputs": [
        {
          "internalType": "address",
          "name": "_account",
          "type": "address"
        }
      ],
      "name": "mintNFT",
      "outputs": [],
      "stateMutability": "nonpayable",
      "type": "function"
    },
    {
      "inputs": [],
      "name": "minterAddress",
      "outputs": [
        {
          "internalType": "address",
          "name": "",
          "type": "address"
        }
      ],
      "stateMutability": "view",
      "type": "function"
    },
    {
      "inputs": [],
      "name": "nftCount",
      "outputs": [
        {
          "internalType": "uint256",
          "name": "",
          "type": "uint256"
        }
      ],
      "stateMutability": "view",
      "type": "function"
    },
    {
      "inputs": [
        {
          "internalType": "address",
          "name": "_account",
          "type": "address"
        },
        {
          "internalType": "uint256",
          "name": "_randomNum",
          "type": "uint256"
        }
      ],
      "name": "nftCreatedCallback",
      "outputs": [],
      "stateMutability": "nonpayable",
      "type": "function"
    },
    {
      "inputs": [],
      "name": "nftThresholdPayment",
      "outputs": [
        {
          "internalType": "uint256",
          "name": "",
          "type": "uint256"
        }
      ],
      "stateMutability": "view",
      "type": "function"
    },
    {
      "inputs": [],
      "name": "nftsActive",
      "outputs": [
        {
          "internalType": "bool",
          "name": "",
          "type": "bool"
        }
      ],
      "stateMutability": "view",
      "type": "function"
    },
    {
      "inputs": [],
      "name": "owner",
      "outputs": [
        {
          "internalType": "address",
          "name": "",
          "type": "address"
        }
      ],
      "stateMutability": "view",
      "type": "function"
    },
    {
      "inputs": [
        {
          "internalType": "address",
          "name": "_account",
          "type": "address"
        },
        {
          "internalType": "uint256",
          "name": "_amount",
          "type": "uint256"
        }
      ],
      "name": "paySubscription",
      "outputs": [],
      "stateMutability": "nonpayable",
      "type": "function"
    },
    {
      "inputs": [],
      "name": "renounceOwnership",
      "outputs": [],
      "stateMutability": "nonpayable",
      "type": "function"
    },
    {
      "inputs": [
        {
          "internalType": "uint256",
          "name": "_annualFee",
          "type": "uint256"
        }
      ],
      "name": "setAnnualFee",
      "outputs": [],
      "stateMutability": "nonpayable",
      "type": "function"
    },
    {
      "inputs": [
        {
          "internalType": "address",
          "name": "_lendingPool",
          "type": "address"
        }
      ],
      "name": "setLendingPool",
      "outputs": [],
      "stateMutability": "nonpayable",
      "type": "function"
    },
    {
      "inputs": [
        {
          "internalType": "uint256",
          "name": "_maxPeriod",
          "type": "uint256"
        }
      ],
      "name": "setMaxMembershipPeriod",
      "outputs": [],
      "stateMutability": "nonpayable",
      "type": "function"
    },
    {
      "inputs": [
        {
          "internalType": "uint256",
          "name": "_max",
          "type": "uint256"
        }
      ],
      "name": "setMaxMintedNFTs",
      "outputs": [],
      "stateMutability": "nonpayable",
      "type": "function"
    },
    {
      "inputs": [
        {
          "internalType": "address",
          "name": "_minter",
          "type": "address"
        },
        {
          "internalType": "bool",
          "name": "_nftsActive",
          "type": "bool"
        }
      ],
      "name": "setNFTMinter",
      "outputs": [],
      "stateMutability": "nonpayable",
      "type": "function"
    },
    {
      "inputs": [
        {
          "internalType": "uint256",
          "name": "_threshold",
          "type": "uint256"
        }
      ],
      "name": "setNftThresholdPayment",
      "outputs": [],
      "stateMutability": "nonpayable",
      "type": "function"
    },
    {
      "inputs": [
        {
          "internalType": "address",
          "name": "newOwner",
          "type": "address"
        }
      ],
      "name": "transferOwnership",
      "outputs": [],
      "stateMutability": "nonpayable",
      "type": "function"
    },
    {
      "inputs": [],
      "name": "withdrawDAI",
      "outputs": [],
      "stateMutability": "nonpayable",
      "type": "function"
    },
    {
      "inputs": [
        {
          "internalType": "uint256",
          "name": "_amount",
          "type": "uint256"
        }
      ],
      "name": "withdrawFromAave",
      "outputs": [],
      "stateMutability": "nonpayable",
      "type": "function"
    }
  ],
  "bytecode": "0x60806040523480156200001157600080fd5b5060405162002ab638038062002ab68339818101604052810190620000379190620003de565b620000576200004b6200029b60201b60201c565b620002a360201b60201c565b866006819055508360078190555084600b8190555085600a8190555082600460006101000a81548173ffffffffffffffffffffffffffffffffffffffff021916908373ffffffffffffffffffffffffffffffffffffffff16021790555082600560006101000a81548173ffffffffffffffffffffffffffffffffffffffff021916908373ffffffffffffffffffffffffffffffffffffffff16021790555081600360006101000a81548173ffffffffffffffffffffffffffffffffffffffff021916908373ffffffffffffffffffffffffffffffffffffffff16021790555080600160006101000a81548173ffffffffffffffffffffffffffffffffffffffff021916908373ffffffffffffffffffffffffffffffffffffffff16021790555080600260006101000a81548173ffffffffffffffffffffffffffffffffffffffff021916908373ffffffffffffffffffffffffffffffffffffffff160217905550600460009054906101000a900473ffffffffffffffffffffffffffffffffffffffff1673ffffffffffffffffffffffffffffffffffffffff1663095ea7b3837fffffffffffffffffffffffffffffffffffffffffffffffffffffffffffffffff6040518363ffffffff1660e01b815260040162000237929190620004b3565b602060405180830381600087803b1580156200025257600080fd5b505af115801562000267573d6000803e3d6000fd5b505050506040513d601f19601f820116820180604052508101906200028d9190620003ac565b50505050505050506200057d565b600033905090565b60008060009054906101000a900473ffffffffffffffffffffffffffffffffffffffff169050816000806101000a81548173ffffffffffffffffffffffffffffffffffffffff021916908373ffffffffffffffffffffffffffffffffffffffff1602179055508173ffffffffffffffffffffffffffffffffffffffff168173ffffffffffffffffffffffffffffffffffffffff167f8be0079c531659141344cd1fd0a4f28419497f9722a3daafe3b4186f6b6457e060405160405180910390a35050565b60008151905062000378816200052f565b92915050565b6000815190506200038f8162000549565b92915050565b600081519050620003a68162000563565b92915050565b600060208284031215620003c557620003c46200052a565b5b6000620003d5848285016200037e565b91505092915050565b600080600080600080600060e0888a0312156200040057620003ff6200052a565b5b6000620004108a828b0162000395565b9750506020620004238a828b0162000395565b9650506040620004368a828b0162000395565b9550506060620004498a828b0162000395565b94505060806200045c8a828b0162000367565b93505060a06200046f8a828b0162000367565b92505060c0620004828a828b0162000367565b91505092959891949750929550565b6200049c81620004e0565b82525050565b620004ad8162000520565b82525050565b6000604082019050620004ca600083018562000491565b620004d96020830184620004a2565b9392505050565b6000620004ed8262000500565b9050919050565b60008115159050919050565b600073ffffffffffffffffffffffffffffffffffffffff82169050919050565b6000819050919050565b600080fd5b6200053a81620004e0565b81146200054657600080fd5b50565b6200055481620004f4565b81146200056057600080fd5b50565b6200056e8162000520565b81146200057a57600080fd5b50565b612529806200058d6000396000f3fe608060405234801561001057600080fd5b506004361061018e5760003560e01c8063688f237b116100de57806388b89a7d11610097578063d2720e6911610071578063d2720e6914610412578063dee0297f1461042e578063f2fde38b1461044a578063f515bae7146104665761018e565b806388b89a7d146103bc5780638da5cb5b146103d8578063ad21f008146103f65761018e565b8063688f237b14610310578063715018a61461032c57806377377808146103365780637b7182ef1461036657806383914540146103825780638443867e146103a05761018e565b80632c3872751161014b5780633c91292b116101255780633c91292b1461029c5780634a0ab3db146102b857806354ba0f27146102d657806358980a26146102f25761018e565b80632c3872751461022f57806334cac0511461024d57806334d722c91461027e5761018e565b8063020bcc9e146101935780630af2c6ca1461019d578063113aa8b1146101bb57806319683a7c146101d75780631dfda2e7146101f3578063294bd73814610211575b600080fd5b61019b610484565b005b6101a561069a565b6040516101b29190612021565b60405180910390f35b6101d560048036038101906101d09190611abe565b6106a0565b005b6101f160048036038101906101ec9190611b2b565b6108a0565b005b6101fb61097b565b6040516102089190612021565b60405180910390f35b610219610981565b6040516102269190612021565b60405180910390f35b610237610987565b6040516102449190611daf565b60405180910390f35b61026760048036038101906102629190611abe565b6109ad565b60405161027592919061203c565b60405180910390f35b610286610a3f565b6040516102939190611daf565b60405180910390f35b6102b660048036038101906102b19190611b2b565b610a65565b005b6102c0610f47565b6040516102cd9190611ea6565b60405180910390f35b6102f060048036038101906102eb9190611abe565b610f5a565b005b6102fa6110d1565b6040516103079190612021565b60405180910390f35b61032a60048036038101906103259190611b98565b6110d7565b005b61033461126d565b005b610350600480360381019061034b9190611abe565b6112f5565b60405161035d9190612021565b60405180910390f35b610380600480360381019061037b9190611b98565b61133e565b005b61038a6113c4565b6040516103979190612021565b60405180910390f35b6103ba60048036038101906103b59190611b98565b6113cc565b005b6103d660048036038101906103d19190611b98565b611452565b005b6103e06114d8565b6040516103ed9190611daf565b60405180910390f35b610410600480360381019061040b9190611b98565b611501565b005b61042c60048036038101906104279190611b98565b611587565b005b61044860048036038101906104439190611aeb565b6116ff565b005b610464600480360381019061045f9190611abe565b61188b565b005b61046e611983565b60405161047b9190612021565b60405180910390f35b61048c611989565b73ffffffffffffffffffffffffffffffffffffffff166104aa6114d8565b73ffffffffffffffffffffffffffffffffffffffff1614610500576040517f08c379a00000000000000000000000000000000000000000000000000000000081526004016104f790611fc1565b60405180910390fd5b600460009054906101000a900473ffffffffffffffffffffffffffffffffffffffff1673ffffffffffffffffffffffffffffffffffffffff1663a9059cbb33600460009054906101000a900473ffffffffffffffffffffffffffffffffffffffff1673ffffffffffffffffffffffffffffffffffffffff166370a08231306040518263ffffffff1660e01b815260040161059a9190611daf565b60206040518083038186803b1580156105b257600080fd5b505afa1580156105c6573d6000803e3d6000fd5b505050506040513d601f19601f820116820180604052508101906105ea9190611bc5565b6040518363ffffffff1660e01b8152600401610607929190611e01565b602060405180830381600087803b15801561062157600080fd5b505af1158015610635573d6000803e3d6000fd5b505050506040513d601f19601f820116820180604052508101906106599190611b6b565b610698576040517f08c379a000000000000000000000000000000000000000000000000000000000815260040161068f90611f81565b60405180910390fd5b565b60095481565b6106a8611989565b73ffffffffffffffffffffffffffffffffffffffff166106c66114d8565b73ffffffffffffffffffffffffffffffffffffffff161461071c576040517f08c379a000000000000000000000000000000000000000000000000000000000815260040161071390611fc1565b60405180910390fd5b600073ffffffffffffffffffffffffffffffffffffffff168173ffffffffffffffffffffffffffffffffffffffff16141561078c576040517f08c379a000000000000000000000000000000000000000000000000000000000815260040161078390611ee1565b60405180910390fd5b80600360006101000a81548173ffffffffffffffffffffffffffffffffffffffff021916908373ffffffffffffffffffffffffffffffffffffffff160217905550600460009054906101000a900473ffffffffffffffffffffffffffffffffffffffff1673ffffffffffffffffffffffffffffffffffffffff1663095ea7b3827fffffffffffffffffffffffffffffffffffffffffffffffffffffffffffffffff6040518363ffffffff1660e01b815260040161084a929190611e01565b602060405180830381600087803b15801561086457600080fd5b505af1158015610878573d6000803e3d6000fd5b505050506040513d601f19601f8201168201806040525081019061089c9190611b6b565b5050565b3373ffffffffffffffffffffffffffffffffffffffff16600260009054906101000a900473ffffffffffffffffffffffffffffffffffffffff1673ffffffffffffffffffffffffffffffffffffffff1614610930576040517f08c379a000000000000000000000000000000000000000000000000000000000815260040161092790611f41565b60405180910390fd5b80600d60008473ffffffffffffffffffffffffffffffffffffffff1673ffffffffffffffffffffffffffffffffffffffff168152602001908152602001600020600101819055505050565b60065481565b600b5481565b600560009054906101000a900473ffffffffffffffffffffffffffffffffffffffff1681565b600080600d60008473ffffffffffffffffffffffffffffffffffffffff1673ffffffffffffffffffffffffffffffffffffffff16815260200190815260200160002060010154600d60008573ffffffffffffffffffffffffffffffffffffffff1673ffffffffffffffffffffffffffffffffffffffff1681526020019081526020016000206000015491509150915091565b600260009054906101000a900473ffffffffffffffffffffffffffffffffffffffff1681565b600073ffffffffffffffffffffffffffffffffffffffff168273ffffffffffffffffffffffffffffffffffffffff161415610ad5576040517f08c379a0000000000000000000000000000000000000000000000000000000008152600401610acc90611fa1565b60405180910390fd5b60008111610b18576040517f08c379a0000000000000000000000000000000000000000000000000000000008152600401610b0f90611f61565b60405180910390fd5b600460009054906101000a900473ffffffffffffffffffffffffffffffffffffffff1673ffffffffffffffffffffffffffffffffffffffff166323b872dd3330846040518463ffffffff1660e01b8152600401610b7793929190611dca565b602060405180830381600087803b158015610b9157600080fd5b505af1158015610ba5573d6000803e3d6000fd5b505050506040513d601f19601f82011682018060405250810190610bc99190611b6b565b610c08576040517f08c379a0000000000000000000000000000000000000000000000000000000008152600401610bff90611f01565b60405180910390fd5b6000600654826301e13380610c1d91906120fd565b610c2791906120cc565b905042600c60008573ffffffffffffffffffffffffffffffffffffffff1673ffffffffffffffffffffffffffffffffffffffff168152602001908152602001600020541015610cf557600754811115610ca15760075490506006546301e13380600754610c9491906120cc565b610c9e91906120fd565b91505b8042610cad9190612076565b600c60008573ffffffffffffffffffffffffffffffffffffffff1673ffffffffffffffffffffffffffffffffffffffff16815260200190815260200160002081905550610dd4565b6000600c60008573ffffffffffffffffffffffffffffffffffffffff1673ffffffffffffffffffffffffffffffffffffffff1681526020019081526020016000205460075442610d459190612076565b610d4f9190612157565b905080821115610d7c578091506006546301e1338082610d6f91906120cc565b610d7991906120fd565b92505b81600c60008673ffffffffffffffffffffffffffffffffffffffff1673ffffffffffffffffffffffffffffffffffffffff1681526020019081526020016000206000828254610dcb9190612076565b92505081905550505b600860009054906101000a900460ff168015610df25750600b548210155b8015610e485750600e60008473ffffffffffffffffffffffffffffffffffffffff1673ffffffffffffffffffffffffffffffffffffffff16815260200190815260200160002060009054906101000a900460ff16155b8015610e575750600a54600954105b15610f42576001600e60008573ffffffffffffffffffffffffffffffffffffffff1673ffffffffffffffffffffffffffffffffffffffff16815260200190815260200160002060006101000a81548160ff021916908315150217905550600160009054906101000a900473ffffffffffffffffffffffffffffffffffffffff1673ffffffffffffffffffffffffffffffffffffffff166317e5883c846040518263ffffffff1660e01b8152600401610f0f9190611daf565b600060405180830381600087803b158015610f2957600080fd5b505af1158015610f3d573d6000803e3d6000fd5b505050505b505050565b600860009054906101000a900460ff1681565b6000600d60008373ffffffffffffffffffffffffffffffffffffffff1673ffffffffffffffffffffffffffffffffffffffff168152602001908152602001600020600101541415610fe0576040517f08c379a0000000000000000000000000000000000000000000000000000000008152600401610fd790611ec1565b60405180910390fd5b600160009054906101000a900473ffffffffffffffffffffffffffffffffffffffff1673ffffffffffffffffffffffffffffffffffffffff166354ba0f27826040518263ffffffff1660e01b815260040161103b9190611daf565b600060405180830381600087803b15801561105557600080fd5b505af1158015611069573d6000803e3d6000fd5b5050505060096000815480929190611080906121f3565b9190505550600954600d60008373ffffffffffffffffffffffffffffffffffffffff1673ffffffffffffffffffffffffffffffffffffffff1681526020019081526020016000206000018190555050565b60075481565b6110df611989565b73ffffffffffffffffffffffffffffffffffffffff166110fd6114d8565b73ffffffffffffffffffffffffffffffffffffffff1614611153576040517f08c379a000000000000000000000000000000000000000000000000000000000815260040161114a90611fc1565b60405180910390fd5b60008111611196576040517f08c379a000000000000000000000000000000000000000000000000000000000815260040161118d90611fe1565b60405180910390fd5b600360009054906101000a900473ffffffffffffffffffffffffffffffffffffffff1673ffffffffffffffffffffffffffffffffffffffff166369328dec600560009054906101000a900473ffffffffffffffffffffffffffffffffffffffff1683306040518463ffffffff1660e01b815260040161121793929190611e2a565b602060405180830381600087803b15801561123157600080fd5b505af1158015611245573d6000803e3d6000fd5b505050506040513d601f19601f820116820180604052508101906112699190611bc5565b5050565b611275611989565b73ffffffffffffffffffffffffffffffffffffffff166112936114d8565b73ffffffffffffffffffffffffffffffffffffffff16146112e9576040517f08c379a00000000000000000000000000000000000000000000000000000000081526004016112e090611fc1565b60405180910390fd5b6112f36000611991565b565b6000600c60008373ffffffffffffffffffffffffffffffffffffffff1673ffffffffffffffffffffffffffffffffffffffff168152602001908152602001600020549050919050565b611346611989565b73ffffffffffffffffffffffffffffffffffffffff166113646114d8565b73ffffffffffffffffffffffffffffffffffffffff16146113ba576040517f08c379a00000000000000000000000000000000000000000000000000000000081526004016113b190611fc1565b60405180910390fd5b8060078190555050565b6301e1338081565b6113d4611989565b73ffffffffffffffffffffffffffffffffffffffff166113f26114d8565b73ffffffffffffffffffffffffffffffffffffffff1614611448576040517f08c379a000000000000000000000000000000000000000000000000000000000815260040161143f90611fc1565b60405180910390fd5b80600a8190555050565b61145a611989565b73ffffffffffffffffffffffffffffffffffffffff166114786114d8565b73ffffffffffffffffffffffffffffffffffffffff16146114ce576040517f08c379a00000000000000000000000000000000000000000000000000000000081526004016114c590611fc1565b60405180910390fd5b8060068190555050565b60008060009054906101000a900473ffffffffffffffffffffffffffffffffffffffff16905090565b611509611989565b73ffffffffffffffffffffffffffffffffffffffff166115276114d8565b73ffffffffffffffffffffffffffffffffffffffff161461157d576040517f08c379a000000000000000000000000000000000000000000000000000000000815260040161157490611fc1565b60405180910390fd5b80600b8190555050565b61158f611989565b73ffffffffffffffffffffffffffffffffffffffff166115ad6114d8565b73ffffffffffffffffffffffffffffffffffffffff1614611603576040517f08c379a00000000000000000000000000000000000000000000000000000000081526004016115fa90611fc1565b60405180910390fd5b60008111611646576040517f08c379a000000000000000000000000000000000000000000000000000000000815260040161163d90612001565b60405180910390fd5b600360009054906101000a900473ffffffffffffffffffffffffffffffffffffffff1673ffffffffffffffffffffffffffffffffffffffff1663e8eda9df600560009054906101000a900473ffffffffffffffffffffffffffffffffffffffff16833060006040518563ffffffff1660e01b81526004016116ca9493929190611e61565b600060405180830381600087803b1580156116e457600080fd5b505af11580156116f8573d6000803e3d6000fd5b5050505050565b611707611989565b73ffffffffffffffffffffffffffffffffffffffff166117256114d8565b73ffffffffffffffffffffffffffffffffffffffff161461177b576040517f08c379a000000000000000000000000000000000000000000000000000000000815260040161177290611fc1565b60405180910390fd5b600073ffffffffffffffffffffffffffffffffffffffff168273ffffffffffffffffffffffffffffffffffffffff1614156117eb576040517f08c379a00000000000000000000000000000000000000000000000000000000081526004016117e290611ee1565b60405180910390fd5b81600160006101000a81548173ffffffffffffffffffffffffffffffffffffffff021916908373ffffffffffffffffffffffffffffffffffffffff16021790555081600260006101000a81548173ffffffffffffffffffffffffffffffffffffffff021916908373ffffffffffffffffffffffffffffffffffffffff16021790555080600860006101000a81548160ff0219169083151502179055505050565b611893611989565b73ffffffffffffffffffffffffffffffffffffffff166118b16114d8565b73ffffffffffffffffffffffffffffffffffffffff1614611907576040517f08c379a00000000000000000000000000000000000000000000000000000000081526004016118fe90611fc1565b60405180910390fd5b600073ffffffffffffffffffffffffffffffffffffffff168173ffffffffffffffffffffffffffffffffffffffff161415611977576040517f08c379a000000000000000000000000000000000000000000000000000000000815260040161196e90611f21565b60405180910390fd5b61198081611991565b50565b600a5481565b600033905090565b60008060009054906101000a900473ffffffffffffffffffffffffffffffffffffffff169050816000806101000a81548173ffffffffffffffffffffffffffffffffffffffff021916908373ffffffffffffffffffffffffffffffffffffffff1602179055508173ffffffffffffffffffffffffffffffffffffffff168173ffffffffffffffffffffffffffffffffffffffff167f8be0079c531659141344cd1fd0a4f28419497f9722a3daafe3b4186f6b6457e060405160405180910390a35050565b600081359050611a64816124ae565b92915050565b600081359050611a79816124c5565b92915050565b600081519050611a8e816124c5565b92915050565b600081359050611aa3816124dc565b92915050565b600081519050611ab8816124dc565b92915050565b600060208284031215611ad457611ad361229a565b5b6000611ae284828501611a55565b91505092915050565b60008060408385031215611b0257611b0161229a565b5b6000611b1085828601611a55565b9250506020611b2185828601611a6a565b9150509250929050565b60008060408385031215611b4257611b4161229a565b5b6000611b5085828601611a55565b9250506020611b6185828601611a94565b9150509250929050565b600060208284031215611b8157611b8061229a565b5b6000611b8f84828501611a7f565b91505092915050565b600060208284031215611bae57611bad61229a565b5b6000611bbc84828501611a94565b91505092915050565b600060208284031215611bdb57611bda61229a565b5b6000611be984828501611aa9565b91505092915050565b611bfb8161218b565b82525050565b611c0a8161219d565b82525050565b611c19816121e1565b82525050565b6000611c2c601483612065565b9150611c378261229f565b602082019050919050565b6000611c4f601d83612065565b9150611c5a826122c8565b602082019050919050565b6000611c72601583612065565b9150611c7d826122f1565b602082019050919050565b6000611c95602683612065565b9150611ca08261231a565b604082019050919050565b6000611cb8602083612065565b9150611cc382612369565b602082019050919050565b6000611cdb602083612065565b9150611ce682612392565b602082019050919050565b6000611cfe601a83612065565b9150611d09826123bb565b602082019050919050565b6000611d21602383612065565b9150611d2c826123e4565b604082019050919050565b6000611d44602083612065565b9150611d4f82612433565b602082019050919050565b6000611d67601e83612065565b9150611d728261245c565b602082019050919050565b6000611d8a601d83612065565b9150611d9582612485565b602082019050919050565b611da9816121d7565b82525050565b6000602082019050611dc46000830184611bf2565b92915050565b6000606082019050611ddf6000830186611bf2565b611dec6020830185611bf2565b611df96040830184611da0565b949350505050565b6000604082019050611e166000830185611bf2565b611e236020830184611da0565b9392505050565b6000606082019050611e3f6000830186611bf2565b611e4c6020830185611da0565b611e596040830184611bf2565b949350505050565b6000608082019050611e766000830187611bf2565b611e836020830186611da0565b611e906040830185611bf2565b611e9d6060830184611c10565b95945050505050565b6000602082019050611ebb6000830184611c01565b92915050565b60006020820190508181036000830152611eda81611c1f565b9050919050565b60006020820190508181036000830152611efa81611c42565b9050919050565b60006020820190508181036000830152611f1a81611c65565b9050919050565b60006020820190508181036000830152611f3a81611c88565b9050919050565b60006020820190508181036000830152611f5a81611cab565b9050919050565b60006020820190508181036000830152611f7a81611cce565b9050919050565b60006020820190508181036000830152611f9a81611cf1565b9050919050565b60006020820190508181036000830152611fba81611d14565b9050919050565b60006020820190508181036000830152611fda81611d37565b9050919050565b60006020820190508181036000830152611ffa81611d5a565b9050919050565b6000602082019050818103600083015261201a81611d7d565b9050919050565b60006020820190506120366000830184611da0565b92915050565b60006040820190506120516000830185611da0565b61205e6020830184611da0565b9392505050565b600082825260208201905092915050565b6000612081826121d7565b915061208c836121d7565b9250827fffffffffffffffffffffffffffffffffffffffffffffffffffffffffffffffff038211156120c1576120c061223c565b5b828201905092915050565b60006120d7826121d7565b91506120e2836121d7565b9250826120f2576120f161226b565b5b828204905092915050565b6000612108826121d7565b9150612113836121d7565b9250817fffffffffffffffffffffffffffffffffffffffffffffffffffffffffffffffff048311821515161561214c5761214b61223c565b5b828202905092915050565b6000612162826121d7565b915061216d836121d7565b9250828210156121805761217f61223c565b5b828203905092915050565b6000612196826121b7565b9050919050565b60008115159050919050565b600061ffff82169050919050565b600073ffffffffffffffffffffffffffffffffffffffff82169050919050565b6000819050919050565b60006121ec826121a9565b9050919050565b60006121fe826121d7565b91507fffffffffffffffffffffffffffffffffffffffffffffffffffffffffffffffff8214156122315761223061223c565b5b600182019050919050565b7f4e487b7100000000000000000000000000000000000000000000000000000000600052601160045260246000fd5b7f4e487b7100000000000000000000000000000000000000000000000000000000600052601260045260246000fd5b600080fd5b7f46455252593a2043414e54204d494e54204e4654000000000000000000000000600082015250565b7f46455252593a2043414e275420555345205a45524f2041444452455353000000600082015250565b7f46455252593a205041594d454e54204641494c45440000000000000000000000600082015250565b7f4f776e61626c653a206e6577206f776e657220697320746865207a65726f206160008201527f6464726573730000000000000000000000000000000000000000000000000000602082015250565b7f46455252593a204f4e4c59204d494e54455220495320415554484f52495a4544600082015250565b7f46455252593a2050415920534f4d452044414920544f20535542534352494245600082015250565b7f46455252593a20444149205749544844524157204641494c4544000000000000600082015250565b7f46455252593a205a45524f20414444524553532043414e27542053554253435260008201527f4942450000000000000000000000000000000000000000000000000000000000602082015250565b7f4f776e61626c653a2063616c6c6572206973206e6f7420746865206f776e6572600082015250565b7f46455252593a205749544844524157204d4f5245205448414e205a45524f0000600082015250565b7f46455252593a204445504f534954204d4f5245205448414e205a45524f000000600082015250565b6124b78161218b565b81146124c257600080fd5b50565b6124ce8161219d565b81146124d957600080fd5b50565b6124e5816121d7565b81146124f057600080fd5b5056fea26469706673582212203342ca1053cb8c8caaa702f502e8c0157d352b66b1ccc0039633479d404c146264736f6c63430008060033",
  "linkReferences": {},
  "deployedLinkReferences": {}
}