{
  "_format": "hh-sol-artifact-1",
  "contractName": "Ferry",
  "sourceName": "contracts/Ferry.sol",
  "abi": [
    {
      "inputs": [
        {
          "internalType": "uint256",
          "name": "_annualFee",
          "type": "uint256"
        },
        {
          "internalType": "uint256",
          "name": "_maxMintedNFTs",
          "type": "uint256"
        },
        {
          "internalType": "uint256",
          "name": "_nftThreshold",
          "type": "uint256"
        },
        {
          "internalType": "uint256",
          "name": "_maxMembershipPeriod",
          "type": "uint256"
        },
        {
          "internalType": "address",
          "name": "_dai",
          "type": "address"
        },
        {
          "internalType": "address",
          "name": "_lendingPool",
          "type": "address"
        },
        {
          "internalType": "address",
          "name": "_nftMinter",
          "type": "address"
        }
      ],
      "stateMutability": "nonpayable",
      "type": "constructor"
    },
    {
      "anonymous": false,
      "inputs": [
        {
          "indexed": true,
          "internalType": "address",
          "name": "previousOwner",
          "type": "address"
        },
        {
          "indexed": true,
          "internalType": "address",
          "name": "newOwner",
          "type": "address"
        }
      ],
      "name": "OwnershipTransferred",
      "type": "event"
    },
    {
      "inputs": [],
      "name": "YEAR",
      "outputs": [
        {
          "internalType": "uint256",
          "name": "",
          "type": "uint256"
        }
      ],
      "stateMutability": "view",
      "type": "function"
    },
    {
      "inputs": [],
      "name": "annualFee",
      "outputs": [
        {
          "internalType": "uint256",
          "name": "",
          "type": "uint256"
        }
      ],
      "stateMutability": "view",
      "type": "function"
    },
    {
      "inputs": [],
      "name": "daiAddress",
      "outputs": [
        {
          "internalType": "address",
          "name": "",
          "type": "address"
        }
      ],
      "stateMutability": "view",
      "type": "function"
    },
    {
      "inputs": [
        {
          "internalType": "uint256",
          "name": "_amount",
          "type": "uint256"
        }
      ],
      "name": "depositInAave",
      "outputs": [],
      "stateMutability": "nonpayable",
      "type": "function"
    },
    {
      "inputs": [
        {
          "internalType": "address",
          "name": "_account",
          "type": "address"
        }
      ],
      "name": "getAccountNFT",
      "outputs": [
        {
          "internalType": "uint256",
          "name": "randomNum",
          "type": "uint256"
        },
        {
          "internalType": "uint256",
          "name": "index",
          "type": "uint256"
        }
      ],
      "stateMutability": "view",
      "type": "function"
    },
    {
      "inputs": [
        {
          "internalType": "address",
          "name": "_account",
          "type": "address"
        }
      ],
      "name": "getMembershipExpiryTime",
      "outputs": [
        {
          "internalType": "uint256",
          "name": "",
          "type": "uint256"
        }
      ],
      "stateMutability": "view",
      "type": "function"
    },
    {
      "inputs": [],
      "name": "maxMembershipPeriod",
      "outputs": [
        {
          "internalType": "uint256",
          "name": "",
          "type": "uint256"
        }
      ],
      "stateMutability": "view",
      "type": "function"
    },
    {
      "inputs": [],
      "name": "maxMintedNFTs",
      "outputs": [
        {
          "internalType": "uint256",
          "name": "",
          "type": "uint256"
        }
      ],
      "stateMutability": "view",
      "type": "function"
    },
    {
      "inputs": [
        {
          "internalType": "address",
          "name": "_account",
          "type": "address"
        }
      ],
      "name": "mintNFT",
      "outputs": [],
      "stateMutability": "nonpayable",
      "type": "function"
    },
    {
      "inputs": [],
      "name": "minterAddress",
      "outputs": [
        {
          "internalType": "address",
          "name": "",
          "type": "address"
        }
      ],
      "stateMutability": "view",
      "type": "function"
    },
    {
      "inputs": [],
      "name": "nftCount",
      "outputs": [
        {
          "internalType": "uint256",
          "name": "",
          "type": "uint256"
        }
      ],
      "stateMutability": "view",
      "type": "function"
    },
    {
      "inputs": [
        {
          "internalType": "address",
          "name": "_account",
          "type": "address"
        },
        {
          "internalType": "uint256",
          "name": "_randomNum",
          "type": "uint256"
        }
      ],
      "name": "nftCreatedCallback",
      "outputs": [],
      "stateMutability": "nonpayable",
      "type": "function"
    },
    {
      "inputs": [],
      "name": "nftThresholdPayment",
      "outputs": [
        {
          "internalType": "uint256",
          "name": "",
          "type": "uint256"
        }
      ],
      "stateMutability": "view",
      "type": "function"
    },
    {
      "inputs": [],
      "name": "nftsActive",
      "outputs": [
        {
          "internalType": "bool",
          "name": "",
          "type": "bool"
        }
      ],
      "stateMutability": "view",
      "type": "function"
    },
    {
      "inputs": [],
      "name": "owner",
      "outputs": [
        {
          "internalType": "address",
          "name": "",
          "type": "address"
        }
      ],
      "stateMutability": "view",
      "type": "function"
    },
    {
      "inputs": [
        {
          "internalType": "address",
          "name": "_account",
          "type": "address"
        },
        {
          "internalType": "uint256",
          "name": "_amount",
          "type": "uint256"
        }
      ],
      "name": "paySubscription",
      "outputs": [],
      "stateMutability": "nonpayable",
      "type": "function"
    },
    {
      "inputs": [],
      "name": "renounceOwnership",
      "outputs": [],
      "stateMutability": "nonpayable",
      "type": "function"
    },
    {
      "inputs": [
        {
          "internalType": "uint256",
          "name": "_annualFee",
          "type": "uint256"
        }
      ],
      "name": "setAnnualFee",
      "outputs": [],
      "stateMutability": "nonpayable",
      "type": "function"
    },
    {
      "inputs": [
        {
          "internalType": "address",
          "name": "_lendingPool",
          "type": "address"
        }
      ],
      "name": "setLendingPool",
      "outputs": [],
      "stateMutability": "nonpayable",
      "type": "function"
    },
    {
      "inputs": [
        {
          "internalType": "uint256",
          "name": "_maxPeriod",
          "type": "uint256"
        }
      ],
      "name": "setMaxMembershipPeriod",
      "outputs": [],
      "stateMutability": "nonpayable",
      "type": "function"
    },
    {
      "inputs": [
        {
          "internalType": "uint256",
          "name": "_max",
          "type": "uint256"
        }
      ],
      "name": "setMaxMintedNFTs",
      "outputs": [],
      "stateMutability": "nonpayable",
      "type": "function"
    },
    {
      "inputs": [
        {
          "internalType": "address",
          "name": "_minter",
          "type": "address"
        },
        {
          "internalType": "bool",
          "name": "_nftsActive",
          "type": "bool"
        }
      ],
      "name": "setNFTMinter",
      "outputs": [],
      "stateMutability": "nonpayable",
      "type": "function"
    },
    {
      "inputs": [
        {
          "internalType": "uint256",
          "name": "_threshold",
          "type": "uint256"
        }
      ],
      "name": "setNftThresholdPayment",
      "outputs": [],
      "stateMutability": "nonpayable",
      "type": "function"
    },
    {
      "inputs": [
        {
          "internalType": "address",
          "name": "newOwner",
          "type": "address"
        }
      ],
      "name": "transferOwnership",
      "outputs": [],
      "stateMutability": "nonpayable",
      "type": "function"
    },
    {
      "inputs": [],
      "name": "withdrawDAI",
      "outputs": [],
      "stateMutability": "nonpayable",
      "type": "function"
    },
    {
      "inputs": [
        {
          "internalType": "uint256",
          "name": "_amount",
          "type": "uint256"
        }
      ],
      "name": "withdrawFromAave",
      "outputs": [],
      "stateMutability": "nonpayable",
      "type": "function"
    }
  ],
  "bytecode": "0x60806040523480156200001157600080fd5b5060405162002b0a38038062002b0a8339818101604052810190620000379190620003de565b620000576200004b6200029b60201b60201c565b620002a360201b60201c565b866006819055508360078190555084600b8190555085600a8190555082600460006101000a81548173ffffffffffffffffffffffffffffffffffffffff021916908373ffffffffffffffffffffffffffffffffffffffff16021790555082600560006101000a81548173ffffffffffffffffffffffffffffffffffffffff021916908373ffffffffffffffffffffffffffffffffffffffff16021790555081600360006101000a81548173ffffffffffffffffffffffffffffffffffffffff021916908373ffffffffffffffffffffffffffffffffffffffff16021790555080600160006101000a81548173ffffffffffffffffffffffffffffffffffffffff021916908373ffffffffffffffffffffffffffffffffffffffff16021790555080600260006101000a81548173ffffffffffffffffffffffffffffffffffffffff021916908373ffffffffffffffffffffffffffffffffffffffff160217905550600460009054906101000a900473ffffffffffffffffffffffffffffffffffffffff1673ffffffffffffffffffffffffffffffffffffffff1663095ea7b3837fffffffffffffffffffffffffffffffffffffffffffffffffffffffffffffffff6040518363ffffffff1660e01b815260040162000237929190620004b3565b602060405180830381600087803b1580156200025257600080fd5b505af115801562000267573d6000803e3d6000fd5b505050506040513d601f19601f820116820180604052508101906200028d9190620003ac565b50505050505050506200057d565b600033905090565b60008060009054906101000a900473ffffffffffffffffffffffffffffffffffffffff169050816000806101000a81548173ffffffffffffffffffffffffffffffffffffffff021916908373ffffffffffffffffffffffffffffffffffffffff1602179055508173ffffffffffffffffffffffffffffffffffffffff168173ffffffffffffffffffffffffffffffffffffffff167f8be0079c531659141344cd1fd0a4f28419497f9722a3daafe3b4186f6b6457e060405160405180910390a35050565b60008151905062000378816200052f565b92915050565b6000815190506200038f8162000549565b92915050565b600081519050620003a68162000563565b92915050565b600060208284031215620003c557620003c46200052a565b5b6000620003d5848285016200037e565b91505092915050565b600080600080600080600060e0888a0312156200040057620003ff6200052a565b5b6000620004108a828b0162000395565b9750506020620004238a828b0162000395565b9650506040620004368a828b0162000395565b9550506060620004498a828b0162000395565b94505060806200045c8a828b0162000367565b93505060a06200046f8a828b0162000367565b92505060c0620004828a828b0162000367565b91505092959891949750929550565b6200049c81620004e0565b82525050565b620004ad8162000520565b82525050565b6000604082019050620004ca600083018562000491565b620004d96020830184620004a2565b9392505050565b6000620004ed8262000500565b9050919050565b60008115159050919050565b600073ffffffffffffffffffffffffffffffffffffffff82169050919050565b6000819050919050565b600080fd5b6200053a81620004e0565b81146200054657600080fd5b50565b6200055481620004f4565b81146200056057600080fd5b50565b6200056e8162000520565b81146200057a57600080fd5b50565b61257d806200058d6000396000f3fe608060405234801561001057600080fd5b506004361061018e5760003560e01c8063688f237b116100de57806388b89a7d11610097578063d2720e6911610071578063d2720e6914610412578063dee0297f1461042e578063f2fde38b1461044a578063f515bae7146104665761018e565b806388b89a7d146103bc5780638da5cb5b146103d8578063ad21f008146103f65761018e565b8063688f237b14610310578063715018a61461032c57806377377808146103365780637b7182ef1461036657806383914540146103825780638443867e146103a05761018e565b80632c3872751161014b5780633c91292b116101255780633c91292b1461029c5780634a0ab3db146102b857806354ba0f27146102d657806358980a26146102f25761018e565b80632c3872751461022f57806334cac0511461024d57806334d722c91461027e5761018e565b8063020bcc9e146101935780630af2c6ca1461019d578063113aa8b1146101bb57806319683a7c146101d75780631dfda2e7146101f3578063294bd73814610211575b600080fd5b61019b610484565b005b6101a561069a565b6040516101b29190612075565b60405180910390f35b6101d560048036038101906101d09190611b12565b6106a0565b005b6101f160048036038101906101ec9190611b7f565b6108a0565b005b6101fb61097b565b6040516102089190612075565b60405180910390f35b610219610981565b6040516102269190612075565b60405180910390f35b610237610987565b6040516102449190611e03565b60405180910390f35b61026760048036038101906102629190611b12565b6109ad565b604051610275929190612090565b60405180910390f35b610286610a3f565b6040516102939190611e03565b60405180910390f35b6102b660048036038101906102b19190611b7f565b610a65565b005b6102c0610f47565b6040516102cd9190611efa565b60405180910390f35b6102f060048036038101906102eb9190611b12565b610f5a565b005b6102fa611125565b6040516103079190612075565b60405180910390f35b61032a60048036038101906103259190611bec565b61112b565b005b6103346112c1565b005b610350600480360381019061034b9190611b12565b611349565b60405161035d9190612075565b60405180910390f35b610380600480360381019061037b9190611bec565b611392565b005b61038a611418565b6040516103979190612075565b60405180910390f35b6103ba60048036038101906103b59190611bec565b611420565b005b6103d660048036038101906103d19190611bec565b6114a6565b005b6103e061152c565b6040516103ed9190611e03565b60405180910390f35b610410600480360381019061040b9190611bec565b611555565b005b61042c60048036038101906104279190611bec565b6115db565b005b61044860048036038101906104439190611b3f565b611753565b005b610464600480360381019061045f9190611b12565b6118df565b005b61046e6119d7565b60405161047b9190612075565b60405180910390f35b61048c6119dd565b73ffffffffffffffffffffffffffffffffffffffff166104aa61152c565b73ffffffffffffffffffffffffffffffffffffffff1614610500576040517f08c379a00000000000000000000000000000000000000000000000000000000081526004016104f790611ff5565b60405180910390fd5b600460009054906101000a900473ffffffffffffffffffffffffffffffffffffffff1673ffffffffffffffffffffffffffffffffffffffff1663a9059cbb33600460009054906101000a900473ffffffffffffffffffffffffffffffffffffffff1673ffffffffffffffffffffffffffffffffffffffff166370a08231306040518263ffffffff1660e01b815260040161059a9190611e03565b60206040518083038186803b1580156105b257600080fd5b505afa1580156105c6573d6000803e3d6000fd5b505050506040513d601f19601f820116820180604052508101906105ea9190611c19565b6040518363ffffffff1660e01b8152600401610607929190611e55565b602060405180830381600087803b15801561062157600080fd5b505af1158015610635573d6000803e3d6000fd5b505050506040513d601f19601f820116820180604052508101906106599190611bbf565b610698576040517f08c379a000000000000000000000000000000000000000000000000000000000815260040161068f90611fb5565b60405180910390fd5b565b60095481565b6106a86119dd565b73ffffffffffffffffffffffffffffffffffffffff166106c661152c565b73ffffffffffffffffffffffffffffffffffffffff161461071c576040517f08c379a000000000000000000000000000000000000000000000000000000000815260040161071390611ff5565b60405180910390fd5b600073ffffffffffffffffffffffffffffffffffffffff168173ffffffffffffffffffffffffffffffffffffffff16141561078c576040517f08c379a000000000000000000000000000000000000000000000000000000000815260040161078390611f15565b60405180910390fd5b80600360006101000a81548173ffffffffffffffffffffffffffffffffffffffff021916908373ffffffffffffffffffffffffffffffffffffffff160217905550600460009054906101000a900473ffffffffffffffffffffffffffffffffffffffff1673ffffffffffffffffffffffffffffffffffffffff1663095ea7b3827fffffffffffffffffffffffffffffffffffffffffffffffffffffffffffffffff6040518363ffffffff1660e01b815260040161084a929190611e55565b602060405180830381600087803b15801561086457600080fd5b505af1158015610878573d6000803e3d6000fd5b505050506040513d601f19601f8201168201806040525081019061089c9190611bbf565b5050565b3373ffffffffffffffffffffffffffffffffffffffff16600260009054906101000a900473ffffffffffffffffffffffffffffffffffffffff1673ffffffffffffffffffffffffffffffffffffffff1614610930576040517f08c379a000000000000000000000000000000000000000000000000000000000815260040161092790611f75565b60405180910390fd5b80600d60008473ffffffffffffffffffffffffffffffffffffffff1673ffffffffffffffffffffffffffffffffffffffff168152602001908152602001600020600101819055505050565b60065481565b600b5481565b600560009054906101000a900473ffffffffffffffffffffffffffffffffffffffff1681565b600080600d60008473ffffffffffffffffffffffffffffffffffffffff1673ffffffffffffffffffffffffffffffffffffffff16815260200190815260200160002060010154600d60008573ffffffffffffffffffffffffffffffffffffffff1673ffffffffffffffffffffffffffffffffffffffff1681526020019081526020016000206000015491509150915091565b600260009054906101000a900473ffffffffffffffffffffffffffffffffffffffff1681565b600073ffffffffffffffffffffffffffffffffffffffff168273ffffffffffffffffffffffffffffffffffffffff161415610ad5576040517f08c379a0000000000000000000000000000000000000000000000000000000008152600401610acc90611fd5565b60405180910390fd5b60008111610b18576040517f08c379a0000000000000000000000000000000000000000000000000000000008152600401610b0f90611f95565b60405180910390fd5b600460009054906101000a900473ffffffffffffffffffffffffffffffffffffffff1673ffffffffffffffffffffffffffffffffffffffff166323b872dd3330846040518463ffffffff1660e01b8152600401610b7793929190611e1e565b602060405180830381600087803b158015610b9157600080fd5b505af1158015610ba5573d6000803e3d6000fd5b505050506040513d601f19601f82011682018060405250810190610bc99190611bbf565b610c08576040517f08c379a0000000000000000000000000000000000000000000000000000000008152600401610bff90611f35565b60405180910390fd5b6000600654826301e13380610c1d9190612151565b610c279190612120565b905042600c60008573ffffffffffffffffffffffffffffffffffffffff1673ffffffffffffffffffffffffffffffffffffffff168152602001908152602001600020541015610cf557600754811115610ca15760075490506006546301e13380600754610c949190612120565b610c9e9190612151565b91505b8042610cad91906120ca565b600c60008573ffffffffffffffffffffffffffffffffffffffff1673ffffffffffffffffffffffffffffffffffffffff16815260200190815260200160002081905550610dd4565b6000600c60008573ffffffffffffffffffffffffffffffffffffffff1673ffffffffffffffffffffffffffffffffffffffff1681526020019081526020016000205460075442610d4591906120ca565b610d4f91906121ab565b905080821115610d7c578091506006546301e1338082610d6f9190612120565b610d799190612151565b92505b81600c60008673ffffffffffffffffffffffffffffffffffffffff1673ffffffffffffffffffffffffffffffffffffffff1681526020019081526020016000206000828254610dcb91906120ca565b92505081905550505b600860009054906101000a900460ff168015610df25750600b548210155b8015610e485750600e60008473ffffffffffffffffffffffffffffffffffffffff1673ffffffffffffffffffffffffffffffffffffffff16815260200190815260200160002060009054906101000a900460ff16155b8015610e575750600a54600954105b15610f42576001600e60008573ffffffffffffffffffffffffffffffffffffffff1673ffffffffffffffffffffffffffffffffffffffff16815260200190815260200160002060006101000a81548160ff021916908315150217905550600160009054906101000a900473ffffffffffffffffffffffffffffffffffffffff1673ffffffffffffffffffffffffffffffffffffffff166317e5883c846040518263ffffffff1660e01b8152600401610f0f9190611e03565b600060405180830381600087803b158015610f2957600080fd5b505af1158015610f3d573d6000803e3d6000fd5b505050505b505050565b600860009054906101000a900460ff1681565b600e60008273ffffffffffffffffffffffffffffffffffffffff1673ffffffffffffffffffffffffffffffffffffffff16815260200190815260200160002060009054906101000a900460ff168015610ff557506000600d60008373ffffffffffffffffffffffffffffffffffffffff1673ffffffffffffffffffffffffffffffffffffffff16815260200190815260200160002060010154145b611034576040517f08c379a000000000000000000000000000000000000000000000000000000000815260040161102b90612055565b60405180910390fd5b600160009054906101000a900473ffffffffffffffffffffffffffffffffffffffff1673ffffffffffffffffffffffffffffffffffffffff166354ba0f27826040518263ffffffff1660e01b815260040161108f9190611e03565b600060405180830381600087803b1580156110a957600080fd5b505af11580156110bd573d6000803e3d6000fd5b50505050600960008154809291906110d490612247565b9190505550600954600d60008373ffffffffffffffffffffffffffffffffffffffff1673ffffffffffffffffffffffffffffffffffffffff1681526020019081526020016000206000018190555050565b60075481565b6111336119dd565b73ffffffffffffffffffffffffffffffffffffffff1661115161152c565b73ffffffffffffffffffffffffffffffffffffffff16146111a7576040517f08c379a000000000000000000000000000000000000000000000000000000000815260040161119e90611ff5565b60405180910390fd5b600081116111ea576040517f08c379a00000000000000000000000000000000000000000000000000000000081526004016111e190612015565b60405180910390fd5b600360009054906101000a900473ffffffffffffffffffffffffffffffffffffffff1673ffffffffffffffffffffffffffffffffffffffff166369328dec600560009054906101000a900473ffffffffffffffffffffffffffffffffffffffff1683306040518463ffffffff1660e01b815260040161126b93929190611e7e565b602060405180830381600087803b15801561128557600080fd5b505af1158015611299573d6000803e3d6000fd5b505050506040513d601f19601f820116820180604052508101906112bd9190611c19565b5050565b6112c96119dd565b73ffffffffffffffffffffffffffffffffffffffff166112e761152c565b73ffffffffffffffffffffffffffffffffffffffff161461133d576040517f08c379a000000000000000000000000000000000000000000000000000000000815260040161133490611ff5565b60405180910390fd5b61134760006119e5565b565b6000600c60008373ffffffffffffffffffffffffffffffffffffffff1673ffffffffffffffffffffffffffffffffffffffff168152602001908152602001600020549050919050565b61139a6119dd565b73ffffffffffffffffffffffffffffffffffffffff166113b861152c565b73ffffffffffffffffffffffffffffffffffffffff161461140e576040517f08c379a000000000000000000000000000000000000000000000000000000000815260040161140590611ff5565b60405180910390fd5b8060078190555050565b6301e1338081565b6114286119dd565b73ffffffffffffffffffffffffffffffffffffffff1661144661152c565b73ffffffffffffffffffffffffffffffffffffffff161461149c576040517f08c379a000000000000000000000000000000000000000000000000000000000815260040161149390611ff5565b60405180910390fd5b80600a8190555050565b6114ae6119dd565b73ffffffffffffffffffffffffffffffffffffffff166114cc61152c565b73ffffffffffffffffffffffffffffffffffffffff1614611522576040517f08c379a000000000000000000000000000000000000000000000000000000000815260040161151990611ff5565b60405180910390fd5b8060068190555050565b60008060009054906101000a900473ffffffffffffffffffffffffffffffffffffffff16905090565b61155d6119dd565b73ffffffffffffffffffffffffffffffffffffffff1661157b61152c565b73ffffffffffffffffffffffffffffffffffffffff16146115d1576040517f08c379a00000000000000000000000000000000000000000000000000000000081526004016115c890611ff5565b60405180910390fd5b80600b8190555050565b6115e36119dd565b73ffffffffffffffffffffffffffffffffffffffff1661160161152c565b73ffffffffffffffffffffffffffffffffffffffff1614611657576040517f08c379a000000000000000000000000000000000000000000000000000000000815260040161164e90611ff5565b60405180910390fd5b6000811161169a576040517f08c379a000000000000000000000000000000000000000000000000000000000815260040161169190612035565b60405180910390fd5b600360009054906101000a900473ffffffffffffffffffffffffffffffffffffffff1673ffffffffffffffffffffffffffffffffffffffff1663e8eda9df600560009054906101000a900473ffffffffffffffffffffffffffffffffffffffff16833060006040518563ffffffff1660e01b815260040161171e9493929190611eb5565b600060405180830381600087803b15801561173857600080fd5b505af115801561174c573d6000803e3d6000fd5b5050505050565b61175b6119dd565b73ffffffffffffffffffffffffffffffffffffffff1661177961152c565b73ffffffffffffffffffffffffffffffffffffffff16146117cf576040517f08c379a00000000000000000000000000000000000000000000000000000000081526004016117c690611ff5565b60405180910390fd5b600073ffffffffffffffffffffffffffffffffffffffff168273ffffffffffffffffffffffffffffffffffffffff16141561183f576040517f08c379a000000000000000000000000000000000000000000000000000000000815260040161183690611f15565b60405180910390fd5b81600160006101000a81548173ffffffffffffffffffffffffffffffffffffffff021916908373ffffffffffffffffffffffffffffffffffffffff16021790555081600260006101000a81548173ffffffffffffffffffffffffffffffffffffffff021916908373ffffffffffffffffffffffffffffffffffffffff16021790555080600860006101000a81548160ff0219169083151502179055505050565b6118e76119dd565b73ffffffffffffffffffffffffffffffffffffffff1661190561152c565b73ffffffffffffffffffffffffffffffffffffffff161461195b576040517f08c379a000000000000000000000000000000000000000000000000000000000815260040161195290611ff5565b60405180910390fd5b600073ffffffffffffffffffffffffffffffffffffffff168173ffffffffffffffffffffffffffffffffffffffff1614156119cb576040517f08c379a00000000000000000000000000000000000000000000000000000000081526004016119c290611f55565b60405180910390fd5b6119d4816119e5565b50565b600a5481565b600033905090565b60008060009054906101000a900473ffffffffffffffffffffffffffffffffffffffff169050816000806101000a81548173ffffffffffffffffffffffffffffffffffffffff021916908373ffffffffffffffffffffffffffffffffffffffff1602179055508173ffffffffffffffffffffffffffffffffffffffff168173ffffffffffffffffffffffffffffffffffffffff167f8be0079c531659141344cd1fd0a4f28419497f9722a3daafe3b4186f6b6457e060405160405180910390a35050565b600081359050611ab881612502565b92915050565b600081359050611acd81612519565b92915050565b600081519050611ae281612519565b92915050565b600081359050611af781612530565b92915050565b600081519050611b0c81612530565b92915050565b600060208284031215611b2857611b276122ee565b5b6000611b3684828501611aa9565b91505092915050565b60008060408385031215611b5657611b556122ee565b5b6000611b6485828601611aa9565b9250506020611b7585828601611abe565b9150509250929050565b60008060408385031215611b9657611b956122ee565b5b6000611ba485828601611aa9565b9250506020611bb585828601611ae8565b9150509250929050565b600060208284031215611bd557611bd46122ee565b5b6000611be384828501611ad3565b91505092915050565b600060208284031215611c0257611c016122ee565b5b6000611c1084828501611ae8565b91505092915050565b600060208284031215611c2f57611c2e6122ee565b5b6000611c3d84828501611afd565b91505092915050565b611c4f816121df565b82525050565b611c5e816121f1565b82525050565b611c6d81612235565b82525050565b6000611c80601d836120b9565b9150611c8b826122f3565b602082019050919050565b6000611ca36015836120b9565b9150611cae8261231c565b602082019050919050565b6000611cc66026836120b9565b9150611cd182612345565b604082019050919050565b6000611ce96020836120b9565b9150611cf482612394565b602082019050919050565b6000611d0c6020836120b9565b9150611d17826123bd565b602082019050919050565b6000611d2f601a836120b9565b9150611d3a826123e6565b602082019050919050565b6000611d526023836120b9565b9150611d5d8261240f565b604082019050919050565b6000611d756020836120b9565b9150611d808261245e565b602082019050919050565b6000611d98601e836120b9565b9150611da382612487565b602082019050919050565b6000611dbb601d836120b9565b9150611dc6826124b0565b602082019050919050565b6000611dde6015836120b9565b9150611de9826124d9565b602082019050919050565b611dfd8161222b565b82525050565b6000602082019050611e186000830184611c46565b92915050565b6000606082019050611e336000830186611c46565b611e406020830185611c46565b611e4d6040830184611df4565b949350505050565b6000604082019050611e6a6000830185611c46565b611e776020830184611df4565b9392505050565b6000606082019050611e936000830186611c46565b611ea06020830185611df4565b611ead6040830184611c46565b949350505050565b6000608082019050611eca6000830187611c46565b611ed76020830186611df4565b611ee46040830185611c46565b611ef16060830184611c64565b95945050505050565b6000602082019050611f0f6000830184611c55565b92915050565b60006020820190508181036000830152611f2e81611c73565b9050919050565b60006020820190508181036000830152611f4e81611c96565b9050919050565b60006020820190508181036000830152611f6e81611cb9565b9050919050565b60006020820190508181036000830152611f8e81611cdc565b9050919050565b60006020820190508181036000830152611fae81611cff565b9050919050565b60006020820190508181036000830152611fce81611d22565b9050919050565b60006020820190508181036000830152611fee81611d45565b9050919050565b6000602082019050818103600083015261200e81611d68565b9050919050565b6000602082019050818103600083015261202e81611d8b565b9050919050565b6000602082019050818103600083015261204e81611dae565b9050919050565b6000602082019050818103600083015261206e81611dd1565b9050919050565b600060208201905061208a6000830184611df4565b92915050565b60006040820190506120a56000830185611df4565b6120b26020830184611df4565b9392505050565b600082825260208201905092915050565b60006120d58261222b565b91506120e08361222b565b9250827fffffffffffffffffffffffffffffffffffffffffffffffffffffffffffffffff0382111561211557612114612290565b5b828201905092915050565b600061212b8261222b565b91506121368361222b565b925082612146576121456122bf565b5b828204905092915050565b600061215c8261222b565b91506121678361222b565b9250817fffffffffffffffffffffffffffffffffffffffffffffffffffffffffffffffff04831182151516156121a05761219f612290565b5b828202905092915050565b60006121b68261222b565b91506121c18361222b565b9250828210156121d4576121d3612290565b5b828203905092915050565b60006121ea8261220b565b9050919050565b60008115159050919050565b600061ffff82169050919050565b600073ffffffffffffffffffffffffffffffffffffffff82169050919050565b6000819050919050565b6000612240826121fd565b9050919050565b60006122528261222b565b91507fffffffffffffffffffffffffffffffffffffffffffffffffffffffffffffffff82141561228557612284612290565b5b600182019050919050565b7f4e487b7100000000000000000000000000000000000000000000000000000000600052601160045260246000fd5b7f4e487b7100000000000000000000000000000000000000000000000000000000600052601260045260246000fd5b600080fd5b7f46455252593a2043414e275420555345205a45524f2041444452455353000000600082015250565b7f46455252593a205041594d454e54204641494c45440000000000000000000000600082015250565b7f4f776e61626c653a206e6577206f776e657220697320746865207a65726f206160008201527f6464726573730000000000000000000000000000000000000000000000000000602082015250565b7f46455252593a204f4e4c59204d494e54455220495320415554484f52495a4544600082015250565b7f46455252593a2050415920534f4d452044414920544f20535542534352494245600082015250565b7f46455252593a20444149205749544844524157204641494c4544000000000000600082015250565b7f46455252593a205a45524f20414444524553532043414e27542053554253435260008201527f4942450000000000000000000000000000000000000000000000000000000000602082015250565b7f4f776e61626c653a2063616c6c6572206973206e6f7420746865206f776e6572600082015250565b7f46455252593a205749544844524157204d4f5245205448414e205a45524f0000600082015250565b7f46455252593a204445504f534954204d4f5245205448414e205a45524f000000600082015250565b7f46455252593a2043414e2754204d494e54204e46540000000000000000000000600082015250565b61250b816121df565b811461251657600080fd5b50565b612522816121f1565b811461252d57600080fd5b50565b6125398161222b565b811461254457600080fd5b5056fea26469706673582212206e8f122f53817beeb71a0265877aa19bb2e178891dc85e761ca6b14f03989a6364736f6c63430008060033",
  "linkReferences": {},
  "deployedLinkReferences": {}
}