{
  "_format": "hh-sol-artifact-1",
  "contractName": "Ferry",
  "sourceName": "contracts/Ferry.sol",
  "abi": [
    {
      "inputs": [
        {
          "internalType": "uint256",
          "name": "_annualFee",
          "type": "uint256"
        },
        {
          "internalType": "address",
          "name": "_dai",
          "type": "address"
        },
        {
          "internalType": "address",
          "name": "_lendingPool",
          "type": "address"
        }
      ],
      "stateMutability": "nonpayable",
      "type": "constructor"
    },
    {
      "anonymous": false,
      "inputs": [
        {
          "indexed": true,
          "internalType": "address",
          "name": "previousOwner",
          "type": "address"
        },
        {
          "indexed": true,
          "internalType": "address",
          "name": "newOwner",
          "type": "address"
        }
      ],
      "name": "OwnershipTransferred",
      "type": "event"
    },
    {
      "inputs": [],
      "name": "YEAR",
      "outputs": [
        {
          "internalType": "uint256",
          "name": "",
          "type": "uint256"
        }
      ],
      "stateMutability": "view",
      "type": "function"
    },
    {
      "inputs": [],
      "name": "annualFee",
      "outputs": [
        {
          "internalType": "uint256",
          "name": "",
          "type": "uint256"
        }
      ],
      "stateMutability": "view",
      "type": "function"
    },
    {
      "inputs": [
        {
          "internalType": "uint256",
          "name": "_amount",
          "type": "uint256"
        }
      ],
      "name": "depositInAave",
      "outputs": [],
      "stateMutability": "nonpayable",
      "type": "function"
    },
    {
      "inputs": [
        {
          "internalType": "address",
          "name": "_account",
          "type": "address"
        }
      ],
      "name": "getMembershipTimeLeft",
      "outputs": [
        {
          "internalType": "uint256",
          "name": "",
          "type": "uint256"
        }
      ],
      "stateMutability": "view",
      "type": "function"
    },
    {
      "inputs": [],
      "name": "owner",
      "outputs": [
        {
          "internalType": "address",
          "name": "",
          "type": "address"
        }
      ],
      "stateMutability": "view",
      "type": "function"
    },
    {
      "inputs": [
        {
          "internalType": "address",
          "name": "_account",
          "type": "address"
        },
        {
          "internalType": "uint256",
          "name": "_amount",
          "type": "uint256"
        }
      ],
      "name": "paySubscription",
      "outputs": [],
      "stateMutability": "nonpayable",
      "type": "function"
    },
    {
      "inputs": [],
      "name": "renounceOwnership",
      "outputs": [],
      "stateMutability": "nonpayable",
      "type": "function"
    },
    {
      "inputs": [
        {
          "internalType": "uint256",
          "name": "_annualFee",
          "type": "uint256"
        }
      ],
      "name": "setAnnualFee",
      "outputs": [],
      "stateMutability": "nonpayable",
      "type": "function"
    },
    {
      "inputs": [
        {
          "internalType": "address",
          "name": "_lendingPool",
          "type": "address"
        }
      ],
      "name": "setLendingPool",
      "outputs": [],
      "stateMutability": "nonpayable",
      "type": "function"
    },
    {
      "inputs": [
        {
          "internalType": "address",
          "name": "newOwner",
          "type": "address"
        }
      ],
      "name": "transferOwnership",
      "outputs": [],
      "stateMutability": "nonpayable",
      "type": "function"
    },
    {
      "inputs": [
        {
          "internalType": "uint256",
          "name": "_amount",
          "type": "uint256"
        }
      ],
      "name": "withdrawFromAave",
      "outputs": [],
      "stateMutability": "nonpayable",
      "type": "function"
    }
  ],
  "bytecode": "0x60806040523480156200001157600080fd5b506040516200137a3803806200137a833981810160405281019062000037919062000302565b620000576200004b620001bf60201b60201c565b620001c760201b60201c565b8260038190555081600260006101000a81548173ffffffffffffffffffffffffffffffffffffffff021916908373ffffffffffffffffffffffffffffffffffffffff16021790555080600160006101000a81548173ffffffffffffffffffffffffffffffffffffffff021916908373ffffffffffffffffffffffffffffffffffffffff160217905550600260009054906101000a900473ffffffffffffffffffffffffffffffffffffffff1673ffffffffffffffffffffffffffffffffffffffff1663095ea7b3827fffffffffffffffffffffffffffffffffffffffffffffffffffffffffffffffff6040518363ffffffff1660e01b81526004016200015f92919062000380565b602060405180830381600087803b1580156200017a57600080fd5b505af11580156200018f573d6000803e3d6000fd5b505050506040513d601f19601f82011682018060405250810190620001b59190620002d0565b505050506200044a565b600033905090565b60008060009054906101000a900473ffffffffffffffffffffffffffffffffffffffff169050816000806101000a81548173ffffffffffffffffffffffffffffffffffffffff021916908373ffffffffffffffffffffffffffffffffffffffff1602179055508173ffffffffffffffffffffffffffffffffffffffff168173ffffffffffffffffffffffffffffffffffffffff167f8be0079c531659141344cd1fd0a4f28419497f9722a3daafe3b4186f6b6457e060405160405180910390a35050565b6000815190506200029c81620003fc565b92915050565b600081519050620002b38162000416565b92915050565b600081519050620002ca8162000430565b92915050565b600060208284031215620002e957620002e8620003f7565b5b6000620002f984828501620002a2565b91505092915050565b6000806000606084860312156200031e576200031d620003f7565b5b60006200032e86828701620002b9565b935050602062000341868287016200028b565b925050604062000354868287016200028b565b9150509250925092565b6200036981620003ad565b82525050565b6200037a81620003ed565b82525050565b60006040820190506200039760008301856200035e565b620003a660208301846200036f565b9392505050565b6000620003ba82620003cd565b9050919050565b60008115159050919050565b600073ffffffffffffffffffffffffffffffffffffffff82169050919050565b6000819050919050565b600080fd5b6200040781620003ad565b81146200041357600080fd5b50565b6200042181620003c1565b81146200042d57600080fd5b50565b6200043b81620003ed565b81146200044757600080fd5b50565b610f20806200045a6000396000f3fe608060405234801561001057600080fd5b50600436106100a95760003560e01c80638391454011610071578063839145401461012a57806388b89a7d146101485780638da5cb5b14610164578063d2720e6914610182578063e46cc03f1461019e578063f2fde38b146101ce576100a9565b8063113aa8b1146100ae5780631dfda2e7146100ca5780633c91292b146100e8578063688f237b14610104578063715018a614610120575b600080fd5b6100c860048036038101906100c39190610994565b6101ea565b005b6100d261037a565b6040516100df9190610bc9565b60405180910390f35b61010260048036038101906100fd91906109c1565b610380565b005b61011e60048036038101906101199190610a2e565b6104af565b005b61012861052e565b005b6101326105b6565b60405161013f9190610bc9565b60405180910390f35b610162600480360381019061015d9190610a2e565b6105be565b005b61016c610644565b6040516101799190610b05565b60405180910390f35b61019c60048036038101906101979190610a2e565b61066d565b005b6101b860048036038101906101b39190610994565b6106ec565b6040516101c59190610bc9565b60405180910390f35b6101e860048036038101906101e39190610994565b610791565b005b6101f2610889565b73ffffffffffffffffffffffffffffffffffffffff16610210610644565b73ffffffffffffffffffffffffffffffffffffffff1614610266576040517f08c379a000000000000000000000000000000000000000000000000000000000815260040161025d90610ba9565b60405180910390fd5b80600160006101000a81548173ffffffffffffffffffffffffffffffffffffffff021916908373ffffffffffffffffffffffffffffffffffffffff160217905550600260009054906101000a900473ffffffffffffffffffffffffffffffffffffffff1673ffffffffffffffffffffffffffffffffffffffff1663095ea7b3827fffffffffffffffffffffffffffffffffffffffffffffffffffffffffffffffff6040518363ffffffff1660e01b8152600401610324929190610b20565b602060405180830381600087803b15801561033e57600080fd5b505af1158015610352573d6000803e3d6000fd5b505050506040513d601f19601f820116820180604052508101906103769190610a01565b5050565b60035481565b600073ffffffffffffffffffffffffffffffffffffffff168273ffffffffffffffffffffffffffffffffffffffff1614156103f0576040517f08c379a00000000000000000000000000000000000000000000000000000000081526004016103e790610b89565b60405180910390fd5b60008111610433576040517f08c379a000000000000000000000000000000000000000000000000000000000815260040161042a90610b69565b60405180910390fd5b6000600354826301e133806104489190610c7c565b6104529190610c4b565b905080600460008573ffffffffffffffffffffffffffffffffffffffff1673ffffffffffffffffffffffffffffffffffffffff16815260200190815260200160002060008282546104a39190610bf5565b92505081905550505050565b6104b7610889565b73ffffffffffffffffffffffffffffffffffffffff166104d5610644565b73ffffffffffffffffffffffffffffffffffffffff161461052b576040517f08c379a000000000000000000000000000000000000000000000000000000000815260040161052290610ba9565b60405180910390fd5b50565b610536610889565b73ffffffffffffffffffffffffffffffffffffffff16610554610644565b73ffffffffffffffffffffffffffffffffffffffff16146105aa576040517f08c379a00000000000000000000000000000000000000000000000000000000081526004016105a190610ba9565b60405180910390fd5b6105b46000610891565b565b6301e1338081565b6105c6610889565b73ffffffffffffffffffffffffffffffffffffffff166105e4610644565b73ffffffffffffffffffffffffffffffffffffffff161461063a576040517f08c379a000000000000000000000000000000000000000000000000000000000815260040161063190610ba9565b60405180910390fd5b8060038190555050565b60008060009054906101000a900473ffffffffffffffffffffffffffffffffffffffff16905090565b610675610889565b73ffffffffffffffffffffffffffffffffffffffff16610693610644565b73ffffffffffffffffffffffffffffffffffffffff16146106e9576040517f08c379a00000000000000000000000000000000000000000000000000000000081526004016106e090610ba9565b60405180910390fd5b50565b600042600460008473ffffffffffffffffffffffffffffffffffffffff1673ffffffffffffffffffffffffffffffffffffffff1681526020019081526020016000205411156107875742600460008473ffffffffffffffffffffffffffffffffffffffff1673ffffffffffffffffffffffffffffffffffffffff168152602001908152602001600020546107809190610cd6565b905061078c565b600090505b919050565b610799610889565b73ffffffffffffffffffffffffffffffffffffffff166107b7610644565b73ffffffffffffffffffffffffffffffffffffffff161461080d576040517f08c379a000000000000000000000000000000000000000000000000000000000815260040161080490610ba9565b60405180910390fd5b600073ffffffffffffffffffffffffffffffffffffffff168173ffffffffffffffffffffffffffffffffffffffff16141561087d576040517f08c379a000000000000000000000000000000000000000000000000000000000815260040161087490610b49565b60405180910390fd5b61088681610891565b50565b600033905090565b60008060009054906101000a900473ffffffffffffffffffffffffffffffffffffffff169050816000806101000a81548173ffffffffffffffffffffffffffffffffffffffff021916908373ffffffffffffffffffffffffffffffffffffffff1602179055508173ffffffffffffffffffffffffffffffffffffffff168173ffffffffffffffffffffffffffffffffffffffff167f8be0079c531659141344cd1fd0a4f28419497f9722a3daafe3b4186f6b6457e060405160405180910390a35050565b60008135905061096481610ea5565b92915050565b60008151905061097981610ebc565b92915050565b60008135905061098e81610ed3565b92915050565b6000602082840312156109aa576109a9610db0565b5b60006109b884828501610955565b91505092915050565b600080604083850312156109d8576109d7610db0565b5b60006109e685828601610955565b92505060206109f78582860161097f565b9150509250929050565b600060208284031215610a1757610a16610db0565b5b6000610a258482850161096a565b91505092915050565b600060208284031215610a4457610a43610db0565b5b6000610a528482850161097f565b91505092915050565b610a6481610d0a565b82525050565b6000610a77602683610be4565b9150610a8282610db5565b604082019050919050565b6000610a9a602083610be4565b9150610aa582610e04565b602082019050919050565b6000610abd602383610be4565b9150610ac882610e2d565b604082019050919050565b6000610ae0602083610be4565b9150610aeb82610e7c565b602082019050919050565b610aff81610d48565b82525050565b6000602082019050610b1a6000830184610a5b565b92915050565b6000604082019050610b356000830185610a5b565b610b426020830184610af6565b9392505050565b60006020820190508181036000830152610b6281610a6a565b9050919050565b60006020820190508181036000830152610b8281610a8d565b9050919050565b60006020820190508181036000830152610ba281610ab0565b9050919050565b60006020820190508181036000830152610bc281610ad3565b9050919050565b6000602082019050610bde6000830184610af6565b92915050565b600082825260208201905092915050565b6000610c0082610d48565b9150610c0b83610d48565b9250827fffffffffffffffffffffffffffffffffffffffffffffffffffffffffffffffff03821115610c4057610c3f610d52565b5b828201905092915050565b6000610c5682610d48565b9150610c6183610d48565b925082610c7157610c70610d81565b5b828204905092915050565b6000610c8782610d48565b9150610c9283610d48565b9250817fffffffffffffffffffffffffffffffffffffffffffffffffffffffffffffffff0483118215151615610ccb57610cca610d52565b5b828202905092915050565b6000610ce182610d48565b9150610cec83610d48565b925082821015610cff57610cfe610d52565b5b828203905092915050565b6000610d1582610d28565b9050919050565b60008115159050919050565b600073ffffffffffffffffffffffffffffffffffffffff82169050919050565b6000819050919050565b7f4e487b7100000000000000000000000000000000000000000000000000000000600052601160045260246000fd5b7f4e487b7100000000000000000000000000000000000000000000000000000000600052601260045260246000fd5b600080fd5b7f4f776e61626c653a206e6577206f776e657220697320746865207a65726f206160008201527f6464726573730000000000000000000000000000000000000000000000000000602082015250565b7f46455252593a2050415920534f4d452044414920544f20535542534352494245600082015250565b7f46455252593a205a45524f20414444524553532043414e27542053554253435260008201527f4942450000000000000000000000000000000000000000000000000000000000602082015250565b7f4f776e61626c653a2063616c6c6572206973206e6f7420746865206f776e6572600082015250565b610eae81610d0a565b8114610eb957600080fd5b50565b610ec581610d1c565b8114610ed057600080fd5b50565b610edc81610d48565b8114610ee757600080fd5b5056fea26469706673582212201a8a64fa9d8ea1b856d31539a8a179c5e2430b240ed8ecb601248d40b028dc8e64736f6c63430008060033",
  "linkReferences": {},
  "deployedLinkReferences": {}
}