{
  "_format": "hh-sol-artifact-1",
  "contractName": "Ferry",
  "sourceName": "contracts/Ferry.sol",
  "abi": [
    {
      "inputs": [
        {
          "internalType": "uint256",
          "name": "_annualFee",
          "type": "uint256"
        },
        {
          "internalType": "uint256",
          "name": "_maxMintedNFTs",
          "type": "uint256"
        },
        {
          "internalType": "uint256",
          "name": "_nftThreshold",
          "type": "uint256"
        },
        {
          "internalType": "uint256",
          "name": "_maxMembershipPeriod",
          "type": "uint256"
        },
        {
          "internalType": "address",
          "name": "_dai",
          "type": "address"
        },
        {
          "internalType": "address",
          "name": "_lendingPool",
          "type": "address"
        },
        {
          "internalType": "address",
          "name": "_nftMinter",
          "type": "address"
        }
      ],
      "stateMutability": "nonpayable",
      "type": "constructor"
    },
    {
      "anonymous": false,
      "inputs": [
        {
          "indexed": true,
          "internalType": "address",
          "name": "previousOwner",
          "type": "address"
        },
        {
          "indexed": true,
          "internalType": "address",
          "name": "newOwner",
          "type": "address"
        }
      ],
      "name": "OwnershipTransferred",
      "type": "event"
    },
    {
      "inputs": [],
      "name": "YEAR",
      "outputs": [
        {
          "internalType": "uint256",
          "name": "",
          "type": "uint256"
        }
      ],
      "stateMutability": "view",
      "type": "function"
    },
    {
      "inputs": [],
      "name": "annualFee",
      "outputs": [
        {
          "internalType": "uint256",
          "name": "",
          "type": "uint256"
        }
      ],
      "stateMutability": "view",
      "type": "function"
    },
    {
      "inputs": [],
      "name": "daiAddress",
      "outputs": [
        {
          "internalType": "address",
          "name": "",
          "type": "address"
        }
      ],
      "stateMutability": "view",
      "type": "function"
    },
    {
      "inputs": [
        {
          "internalType": "uint256",
          "name": "_amount",
          "type": "uint256"
        }
      ],
      "name": "depositInAave",
      "outputs": [],
      "stateMutability": "nonpayable",
      "type": "function"
    },
    {
      "inputs": [
        {
          "internalType": "address",
          "name": "_account",
          "type": "address"
        }
      ],
      "name": "getAccountNFT",
      "outputs": [
        {
          "internalType": "uint256",
          "name": "",
          "type": "uint256"
        }
      ],
      "stateMutability": "view",
      "type": "function"
    },
    {
      "inputs": [
        {
          "internalType": "address",
          "name": "_account",
          "type": "address"
        }
      ],
      "name": "getMembershipExpiryTime",
      "outputs": [
        {
          "internalType": "uint256",
          "name": "",
          "type": "uint256"
        }
      ],
      "stateMutability": "view",
      "type": "function"
    },
    {
      "inputs": [],
      "name": "maxMembershipPeriod",
      "outputs": [
        {
          "internalType": "uint256",
          "name": "",
          "type": "uint256"
        }
      ],
      "stateMutability": "view",
      "type": "function"
    },
    {
      "inputs": [],
      "name": "maxMintedNFTs",
      "outputs": [
        {
          "internalType": "uint256",
          "name": "",
          "type": "uint256"
        }
      ],
      "stateMutability": "view",
      "type": "function"
    },
    {
      "inputs": [],
      "name": "minterAddress",
      "outputs": [
        {
          "internalType": "address",
          "name": "",
          "type": "address"
        }
      ],
      "stateMutability": "view",
      "type": "function"
    },
    {
      "inputs": [],
      "name": "nftCount",
      "outputs": [
        {
          "internalType": "uint256",
          "name": "",
          "type": "uint256"
        }
      ],
      "stateMutability": "view",
      "type": "function"
    },
    {
      "inputs": [
        {
          "internalType": "address",
          "name": "_account",
          "type": "address"
        },
        {
          "internalType": "uint256",
          "name": "_randomNum",
          "type": "uint256"
        }
      ],
      "name": "nftCreatedCallback",
      "outputs": [],
      "stateMutability": "nonpayable",
      "type": "function"
    },
    {
      "inputs": [],
      "name": "nftThresholdPayment",
      "outputs": [
        {
          "internalType": "uint256",
          "name": "",
          "type": "uint256"
        }
      ],
      "stateMutability": "view",
      "type": "function"
    },
    {
      "inputs": [],
      "name": "nftsActive",
      "outputs": [
        {
          "internalType": "bool",
          "name": "",
          "type": "bool"
        }
      ],
      "stateMutability": "view",
      "type": "function"
    },
    {
      "inputs": [],
      "name": "owner",
      "outputs": [
        {
          "internalType": "address",
          "name": "",
          "type": "address"
        }
      ],
      "stateMutability": "view",
      "type": "function"
    },
    {
      "inputs": [
        {
          "internalType": "address",
          "name": "_account",
          "type": "address"
        },
        {
          "internalType": "uint256",
          "name": "_amount",
          "type": "uint256"
        }
      ],
      "name": "paySubscription",
      "outputs": [],
      "stateMutability": "nonpayable",
      "type": "function"
    },
    {
      "inputs": [],
      "name": "renounceOwnership",
      "outputs": [],
      "stateMutability": "nonpayable",
      "type": "function"
    },
    {
      "inputs": [
        {
          "internalType": "uint256",
          "name": "_annualFee",
          "type": "uint256"
        }
      ],
      "name": "setAnnualFee",
      "outputs": [],
      "stateMutability": "nonpayable",
      "type": "function"
    },
    {
      "inputs": [
        {
          "internalType": "address",
          "name": "_lendingPool",
          "type": "address"
        }
      ],
      "name": "setLendingPool",
      "outputs": [],
      "stateMutability": "nonpayable",
      "type": "function"
    },
    {
      "inputs": [
        {
          "internalType": "uint256",
          "name": "_maxPeriod",
          "type": "uint256"
        }
      ],
      "name": "setMaxMembershipPeriod",
      "outputs": [],
      "stateMutability": "nonpayable",
      "type": "function"
    },
    {
      "inputs": [
        {
          "internalType": "uint256",
          "name": "_max",
          "type": "uint256"
        }
      ],
      "name": "setMaxMintedNFTs",
      "outputs": [],
      "stateMutability": "nonpayable",
      "type": "function"
    },
    {
      "inputs": [
        {
          "internalType": "address",
          "name": "_minter",
          "type": "address"
        },
        {
          "internalType": "bool",
          "name": "_nftsActive",
          "type": "bool"
        }
      ],
      "name": "setNFTMinter",
      "outputs": [],
      "stateMutability": "nonpayable",
      "type": "function"
    },
    {
      "inputs": [
        {
          "internalType": "uint256",
          "name": "_threshold",
          "type": "uint256"
        }
      ],
      "name": "setNftThresholdPayment",
      "outputs": [],
      "stateMutability": "nonpayable",
      "type": "function"
    },
    {
      "inputs": [
        {
          "internalType": "address",
          "name": "newOwner",
          "type": "address"
        }
      ],
      "name": "transferOwnership",
      "outputs": [],
      "stateMutability": "nonpayable",
      "type": "function"
    },
    {
      "inputs": [],
      "name": "withdrawDAI",
      "outputs": [],
      "stateMutability": "nonpayable",
      "type": "function"
    },
    {
      "inputs": [
        {
          "internalType": "uint256",
          "name": "_amount",
          "type": "uint256"
        }
      ],
      "name": "withdrawFromAave",
      "outputs": [],
      "stateMutability": "nonpayable",
      "type": "function"
    }
  ],
  "bytecode": "0x60806040523480156200001157600080fd5b506040516200283e3803806200283e8339818101604052810190620000379190620003de565b620000576200004b6200029b60201b60201c565b620002a360201b60201c565b866006819055508360078190555084600b8190555085600a8190555082600460006101000a81548173ffffffffffffffffffffffffffffffffffffffff021916908373ffffffffffffffffffffffffffffffffffffffff16021790555082600560006101000a81548173ffffffffffffffffffffffffffffffffffffffff021916908373ffffffffffffffffffffffffffffffffffffffff16021790555081600360006101000a81548173ffffffffffffffffffffffffffffffffffffffff021916908373ffffffffffffffffffffffffffffffffffffffff16021790555080600160006101000a81548173ffffffffffffffffffffffffffffffffffffffff021916908373ffffffffffffffffffffffffffffffffffffffff16021790555080600260006101000a81548173ffffffffffffffffffffffffffffffffffffffff021916908373ffffffffffffffffffffffffffffffffffffffff160217905550600460009054906101000a900473ffffffffffffffffffffffffffffffffffffffff1673ffffffffffffffffffffffffffffffffffffffff1663095ea7b3837fffffffffffffffffffffffffffffffffffffffffffffffffffffffffffffffff6040518363ffffffff1660e01b815260040162000237929190620004b3565b602060405180830381600087803b1580156200025257600080fd5b505af115801562000267573d6000803e3d6000fd5b505050506040513d601f19601f820116820180604052508101906200028d9190620003ac565b50505050505050506200057d565b600033905090565b60008060009054906101000a900473ffffffffffffffffffffffffffffffffffffffff169050816000806101000a81548173ffffffffffffffffffffffffffffffffffffffff021916908373ffffffffffffffffffffffffffffffffffffffff1602179055508173ffffffffffffffffffffffffffffffffffffffff168173ffffffffffffffffffffffffffffffffffffffff167f8be0079c531659141344cd1fd0a4f28419497f9722a3daafe3b4186f6b6457e060405160405180910390a35050565b60008151905062000378816200052f565b92915050565b6000815190506200038f8162000549565b92915050565b600081519050620003a68162000563565b92915050565b600060208284031215620003c557620003c46200052a565b5b6000620003d5848285016200037e565b91505092915050565b600080600080600080600060e0888a0312156200040057620003ff6200052a565b5b6000620004108a828b0162000395565b9750506020620004238a828b0162000395565b9650506040620004368a828b0162000395565b9550506060620004498a828b0162000395565b94505060806200045c8a828b0162000367565b93505060a06200046f8a828b0162000367565b92505060c0620004828a828b0162000367565b91505092959891949750929550565b6200049c81620004e0565b82525050565b620004ad8162000520565b82525050565b6000604082019050620004ca600083018562000491565b620004d96020830184620004a2565b9392505050565b6000620004ed8262000500565b9050919050565b60008115159050919050565b600073ffffffffffffffffffffffffffffffffffffffff82169050919050565b6000819050919050565b600080fd5b6200053a81620004e0565b81146200054657600080fd5b50565b6200055481620004f4565b81146200056057600080fd5b50565b6200056e8162000520565b81146200057a57600080fd5b50565b6122b1806200058d6000396000f3fe608060405234801561001057600080fd5b50600436106101735760003560e01c8063688f237b116100de57806388b89a7d11610097578063d2720e6911610071578063d2720e69146103da578063dee0297f146103f6578063f2fde38b14610412578063f515bae71461042e57610173565b806388b89a7d146103845780638da5cb5b146103a0578063ad21f008146103be57610173565b8063688f237b146102d8578063715018a6146102f457806377377808146102fe5780637b7182ef1461032e578063839145401461034a5780638443867e1461036857610173565b80632c387275116101305780632c3872751461021457806334cac0511461023257806334d722c9146102625780633c91292b146102805780634a0ab3db1461029c57806358980a26146102ba57610173565b8063020bcc9e146101785780630af2c6ca14610182578063113aa8b1146101a057806319683a7c146101bc5780631dfda2e7146101d8578063294bd738146101f6575b600080fd5b61018061044c565b005b61018a610662565b6040516101979190611dfb565b60405180910390f35b6101ba60048036038101906101b591906118db565b610668565b005b6101d660048036038101906101d19190611948565b610868565b005b6101e0610958565b6040516101ed9190611dfb565b60405180910390f35b6101fe61095e565b60405161020b9190611dfb565b60405180910390f35b61021c610964565b6040516102299190611ba9565b60405180910390f35b61024c600480360381019061024791906118db565b61098a565b6040516102599190611dfb565b60405180910390f35b61026a6109d3565b6040516102779190611ba9565b60405180910390f35b61029a60048036038101906102959190611948565b6109f9565b005b6102a4610edb565b6040516102b19190611ca0565b60405180910390f35b6102c2610eee565b6040516102cf9190611dfb565b60405180910390f35b6102f260048036038101906102ed91906119b5565b610ef4565b005b6102fc61108a565b005b610318600480360381019061031391906118db565b611112565b6040516103259190611dfb565b60405180910390f35b610348600480360381019061034391906119b5565b61115b565b005b6103526111e1565b60405161035f9190611dfb565b60405180910390f35b610382600480360381019061037d91906119b5565b6111e9565b005b61039e600480360381019061039991906119b5565b61126f565b005b6103a86112f5565b6040516103b59190611ba9565b60405180910390f35b6103d860048036038101906103d391906119b5565b61131e565b005b6103f460048036038101906103ef91906119b5565b6113a4565b005b610410600480360381019061040b9190611908565b61151c565b005b61042c600480360381019061042791906118db565b6116a8565b005b6104366117a0565b6040516104439190611dfb565b60405180910390f35b6104546117a6565b73ffffffffffffffffffffffffffffffffffffffff166104726112f5565b73ffffffffffffffffffffffffffffffffffffffff16146104c8576040517f08c379a00000000000000000000000000000000000000000000000000000000081526004016104bf90611d9b565b60405180910390fd5b600460009054906101000a900473ffffffffffffffffffffffffffffffffffffffff1673ffffffffffffffffffffffffffffffffffffffff1663a9059cbb33600460009054906101000a900473ffffffffffffffffffffffffffffffffffffffff1673ffffffffffffffffffffffffffffffffffffffff166370a08231306040518263ffffffff1660e01b81526004016105629190611ba9565b60206040518083038186803b15801561057a57600080fd5b505afa15801561058e573d6000803e3d6000fd5b505050506040513d601f19601f820116820180604052508101906105b291906119e2565b6040518363ffffffff1660e01b81526004016105cf929190611bfb565b602060405180830381600087803b1580156105e957600080fd5b505af11580156105fd573d6000803e3d6000fd5b505050506040513d601f19601f820116820180604052508101906106219190611988565b610660576040517f08c379a000000000000000000000000000000000000000000000000000000000815260040161065790611d5b565b60405180910390fd5b565b60095481565b6106706117a6565b73ffffffffffffffffffffffffffffffffffffffff1661068e6112f5565b73ffffffffffffffffffffffffffffffffffffffff16146106e4576040517f08c379a00000000000000000000000000000000000000000000000000000000081526004016106db90611d9b565b60405180910390fd5b600073ffffffffffffffffffffffffffffffffffffffff168173ffffffffffffffffffffffffffffffffffffffff161415610754576040517f08c379a000000000000000000000000000000000000000000000000000000000815260040161074b90611cbb565b60405180910390fd5b80600360006101000a81548173ffffffffffffffffffffffffffffffffffffffff021916908373ffffffffffffffffffffffffffffffffffffffff160217905550600460009054906101000a900473ffffffffffffffffffffffffffffffffffffffff1673ffffffffffffffffffffffffffffffffffffffff1663095ea7b3827fffffffffffffffffffffffffffffffffffffffffffffffffffffffffffffffff6040518363ffffffff1660e01b8152600401610812929190611bfb565b602060405180830381600087803b15801561082c57600080fd5b505af1158015610840573d6000803e3d6000fd5b505050506040513d601f19601f820116820180604052508101906108649190611988565b5050565b3373ffffffffffffffffffffffffffffffffffffffff16600260009054906101000a900473ffffffffffffffffffffffffffffffffffffffff1673ffffffffffffffffffffffffffffffffffffffff16146108f8576040517f08c379a00000000000000000000000000000000000000000000000000000000081526004016108ef90611d1b565b60405180910390fd5b80600d60008473ffffffffffffffffffffffffffffffffffffffff1673ffffffffffffffffffffffffffffffffffffffff168152602001908152602001600020819055506009600081548092919061094f90611fa4565b91905055505050565b60065481565b600b5481565b600560009054906101000a900473ffffffffffffffffffffffffffffffffffffffff1681565b6000600d60008373ffffffffffffffffffffffffffffffffffffffff1673ffffffffffffffffffffffffffffffffffffffff168152602001908152602001600020549050919050565b600260009054906101000a900473ffffffffffffffffffffffffffffffffffffffff1681565b600073ffffffffffffffffffffffffffffffffffffffff168273ffffffffffffffffffffffffffffffffffffffff161415610a69576040517f08c379a0000000000000000000000000000000000000000000000000000000008152600401610a6090611d7b565b60405180910390fd5b60008111610aac576040517f08c379a0000000000000000000000000000000000000000000000000000000008152600401610aa390611d3b565b60405180910390fd5b600460009054906101000a900473ffffffffffffffffffffffffffffffffffffffff1673ffffffffffffffffffffffffffffffffffffffff166323b872dd3330846040518463ffffffff1660e01b8152600401610b0b93929190611bc4565b602060405180830381600087803b158015610b2557600080fd5b505af1158015610b39573d6000803e3d6000fd5b505050506040513d601f19601f82011682018060405250810190610b5d9190611988565b610b9c576040517f08c379a0000000000000000000000000000000000000000000000000000000008152600401610b9390611cdb565b60405180910390fd5b6000600654826301e13380610bb19190611eae565b610bbb9190611e7d565b905042600c60008573ffffffffffffffffffffffffffffffffffffffff1673ffffffffffffffffffffffffffffffffffffffff168152602001908152602001600020541015610c8957600754811115610c355760075490506006546301e13380600754610c289190611e7d565b610c329190611eae565b91505b8042610c419190611e27565b600c60008573ffffffffffffffffffffffffffffffffffffffff1673ffffffffffffffffffffffffffffffffffffffff16815260200190815260200160002081905550610d68565b6000600c60008573ffffffffffffffffffffffffffffffffffffffff1673ffffffffffffffffffffffffffffffffffffffff1681526020019081526020016000205460075442610cd99190611e27565b610ce39190611f08565b905080821115610d10578091506006546301e1338082610d039190611e7d565b610d0d9190611eae565b92505b81600c60008673ffffffffffffffffffffffffffffffffffffffff1673ffffffffffffffffffffffffffffffffffffffff1681526020019081526020016000206000828254610d5f9190611e27565b92505081905550505b600860009054906101000a900460ff168015610d865750600b548210155b8015610ddc5750600e60008473ffffffffffffffffffffffffffffffffffffffff1673ffffffffffffffffffffffffffffffffffffffff16815260200190815260200160002060009054906101000a900460ff16155b8015610deb5750600a54600954105b15610ed6576001600e60008573ffffffffffffffffffffffffffffffffffffffff1673ffffffffffffffffffffffffffffffffffffffff16815260200190815260200160002060006101000a81548160ff021916908315150217905550600160009054906101000a900473ffffffffffffffffffffffffffffffffffffffff1673ffffffffffffffffffffffffffffffffffffffff166317e5883c846040518263ffffffff1660e01b8152600401610ea39190611ba9565b600060405180830381600087803b158015610ebd57600080fd5b505af1158015610ed1573d6000803e3d6000fd5b505050505b505050565b600860009054906101000a900460ff1681565b60075481565b610efc6117a6565b73ffffffffffffffffffffffffffffffffffffffff16610f1a6112f5565b73ffffffffffffffffffffffffffffffffffffffff1614610f70576040517f08c379a0000000000000000000000000000000000000000000000000000000008152600401610f6790611d9b565b60405180910390fd5b60008111610fb3576040517f08c379a0000000000000000000000000000000000000000000000000000000008152600401610faa90611dbb565b60405180910390fd5b600360009054906101000a900473ffffffffffffffffffffffffffffffffffffffff1673ffffffffffffffffffffffffffffffffffffffff166369328dec600560009054906101000a900473ffffffffffffffffffffffffffffffffffffffff1683306040518463ffffffff1660e01b815260040161103493929190611c24565b602060405180830381600087803b15801561104e57600080fd5b505af1158015611062573d6000803e3d6000fd5b505050506040513d601f19601f8201168201806040525081019061108691906119e2565b5050565b6110926117a6565b73ffffffffffffffffffffffffffffffffffffffff166110b06112f5565b73ffffffffffffffffffffffffffffffffffffffff1614611106576040517f08c379a00000000000000000000000000000000000000000000000000000000081526004016110fd90611d9b565b60405180910390fd5b61111060006117ae565b565b6000600c60008373ffffffffffffffffffffffffffffffffffffffff1673ffffffffffffffffffffffffffffffffffffffff168152602001908152602001600020549050919050565b6111636117a6565b73ffffffffffffffffffffffffffffffffffffffff166111816112f5565b73ffffffffffffffffffffffffffffffffffffffff16146111d7576040517f08c379a00000000000000000000000000000000000000000000000000000000081526004016111ce90611d9b565b60405180910390fd5b8060078190555050565b6301e1338081565b6111f16117a6565b73ffffffffffffffffffffffffffffffffffffffff1661120f6112f5565b73ffffffffffffffffffffffffffffffffffffffff1614611265576040517f08c379a000000000000000000000000000000000000000000000000000000000815260040161125c90611d9b565b60405180910390fd5b80600a8190555050565b6112776117a6565b73ffffffffffffffffffffffffffffffffffffffff166112956112f5565b73ffffffffffffffffffffffffffffffffffffffff16146112eb576040517f08c379a00000000000000000000000000000000000000000000000000000000081526004016112e290611d9b565b60405180910390fd5b8060068190555050565b60008060009054906101000a900473ffffffffffffffffffffffffffffffffffffffff16905090565b6113266117a6565b73ffffffffffffffffffffffffffffffffffffffff166113446112f5565b73ffffffffffffffffffffffffffffffffffffffff161461139a576040517f08c379a000000000000000000000000000000000000000000000000000000000815260040161139190611d9b565b60405180910390fd5b80600b8190555050565b6113ac6117a6565b73ffffffffffffffffffffffffffffffffffffffff166113ca6112f5565b73ffffffffffffffffffffffffffffffffffffffff1614611420576040517f08c379a000000000000000000000000000000000000000000000000000000000815260040161141790611d9b565b60405180910390fd5b60008111611463576040517f08c379a000000000000000000000000000000000000000000000000000000000815260040161145a90611ddb565b60405180910390fd5b600360009054906101000a900473ffffffffffffffffffffffffffffffffffffffff1673ffffffffffffffffffffffffffffffffffffffff1663e8eda9df600560009054906101000a900473ffffffffffffffffffffffffffffffffffffffff16833060006040518563ffffffff1660e01b81526004016114e79493929190611c5b565b600060405180830381600087803b15801561150157600080fd5b505af1158015611515573d6000803e3d6000fd5b5050505050565b6115246117a6565b73ffffffffffffffffffffffffffffffffffffffff166115426112f5565b73ffffffffffffffffffffffffffffffffffffffff1614611598576040517f08c379a000000000000000000000000000000000000000000000000000000000815260040161158f90611d9b565b60405180910390fd5b600073ffffffffffffffffffffffffffffffffffffffff168273ffffffffffffffffffffffffffffffffffffffff161415611608576040517f08c379a00000000000000000000000000000000000000000000000000000000081526004016115ff90611cbb565b60405180910390fd5b81600160006101000a81548173ffffffffffffffffffffffffffffffffffffffff021916908373ffffffffffffffffffffffffffffffffffffffff16021790555081600260006101000a81548173ffffffffffffffffffffffffffffffffffffffff021916908373ffffffffffffffffffffffffffffffffffffffff16021790555080600860006101000a81548160ff0219169083151502179055505050565b6116b06117a6565b73ffffffffffffffffffffffffffffffffffffffff166116ce6112f5565b73ffffffffffffffffffffffffffffffffffffffff1614611724576040517f08c379a000000000000000000000000000000000000000000000000000000000815260040161171b90611d9b565b60405180910390fd5b600073ffffffffffffffffffffffffffffffffffffffff168173ffffffffffffffffffffffffffffffffffffffff161415611794576040517f08c379a000000000000000000000000000000000000000000000000000000000815260040161178b90611cfb565b60405180910390fd5b61179d816117ae565b50565b600a5481565b600033905090565b60008060009054906101000a900473ffffffffffffffffffffffffffffffffffffffff169050816000806101000a81548173ffffffffffffffffffffffffffffffffffffffff021916908373ffffffffffffffffffffffffffffffffffffffff1602179055508173ffffffffffffffffffffffffffffffffffffffff168173ffffffffffffffffffffffffffffffffffffffff167f8be0079c531659141344cd1fd0a4f28419497f9722a3daafe3b4186f6b6457e060405160405180910390a35050565b60008135905061188181612236565b92915050565b6000813590506118968161224d565b92915050565b6000815190506118ab8161224d565b92915050565b6000813590506118c081612264565b92915050565b6000815190506118d581612264565b92915050565b6000602082840312156118f1576118f061204b565b5b60006118ff84828501611872565b91505092915050565b6000806040838503121561191f5761191e61204b565b5b600061192d85828601611872565b925050602061193e85828601611887565b9150509250929050565b6000806040838503121561195f5761195e61204b565b5b600061196d85828601611872565b925050602061197e858286016118b1565b9150509250929050565b60006020828403121561199e5761199d61204b565b5b60006119ac8482850161189c565b91505092915050565b6000602082840312156119cb576119ca61204b565b5b60006119d9848285016118b1565b91505092915050565b6000602082840312156119f8576119f761204b565b5b6000611a06848285016118c6565b91505092915050565b611a1881611f3c565b82525050565b611a2781611f4e565b82525050565b611a3681611f92565b82525050565b6000611a49601d83611e16565b9150611a5482612050565b602082019050919050565b6000611a6c601583611e16565b9150611a7782612079565b602082019050919050565b6000611a8f602683611e16565b9150611a9a826120a2565b604082019050919050565b6000611ab2602083611e16565b9150611abd826120f1565b602082019050919050565b6000611ad5602083611e16565b9150611ae08261211a565b602082019050919050565b6000611af8601a83611e16565b9150611b0382612143565b602082019050919050565b6000611b1b602383611e16565b9150611b268261216c565b604082019050919050565b6000611b3e602083611e16565b9150611b49826121bb565b602082019050919050565b6000611b61601e83611e16565b9150611b6c826121e4565b602082019050919050565b6000611b84601d83611e16565b9150611b8f8261220d565b602082019050919050565b611ba381611f88565b82525050565b6000602082019050611bbe6000830184611a0f565b92915050565b6000606082019050611bd96000830186611a0f565b611be66020830185611a0f565b611bf36040830184611b9a565b949350505050565b6000604082019050611c106000830185611a0f565b611c1d6020830184611b9a565b9392505050565b6000606082019050611c396000830186611a0f565b611c466020830185611b9a565b611c536040830184611a0f565b949350505050565b6000608082019050611c706000830187611a0f565b611c7d6020830186611b9a565b611c8a6040830185611a0f565b611c976060830184611a2d565b95945050505050565b6000602082019050611cb56000830184611a1e565b92915050565b60006020820190508181036000830152611cd481611a3c565b9050919050565b60006020820190508181036000830152611cf481611a5f565b9050919050565b60006020820190508181036000830152611d1481611a82565b9050919050565b60006020820190508181036000830152611d3481611aa5565b9050919050565b60006020820190508181036000830152611d5481611ac8565b9050919050565b60006020820190508181036000830152611d7481611aeb565b9050919050565b60006020820190508181036000830152611d9481611b0e565b9050919050565b60006020820190508181036000830152611db481611b31565b9050919050565b60006020820190508181036000830152611dd481611b54565b9050919050565b60006020820190508181036000830152611df481611b77565b9050919050565b6000602082019050611e106000830184611b9a565b92915050565b600082825260208201905092915050565b6000611e3282611f88565b9150611e3d83611f88565b9250827fffffffffffffffffffffffffffffffffffffffffffffffffffffffffffffffff03821115611e7257611e71611fed565b5b828201905092915050565b6000611e8882611f88565b9150611e9383611f88565b925082611ea357611ea261201c565b5b828204905092915050565b6000611eb982611f88565b9150611ec483611f88565b9250817fffffffffffffffffffffffffffffffffffffffffffffffffffffffffffffffff0483118215151615611efd57611efc611fed565b5b828202905092915050565b6000611f1382611f88565b9150611f1e83611f88565b925082821015611f3157611f30611fed565b5b828203905092915050565b6000611f4782611f68565b9050919050565b60008115159050919050565b600061ffff82169050919050565b600073ffffffffffffffffffffffffffffffffffffffff82169050919050565b6000819050919050565b6000611f9d82611f5a565b9050919050565b6000611faf82611f88565b91507fffffffffffffffffffffffffffffffffffffffffffffffffffffffffffffffff821415611fe257611fe1611fed565b5b600182019050919050565b7f4e487b7100000000000000000000000000000000000000000000000000000000600052601160045260246000fd5b7f4e487b7100000000000000000000000000000000000000000000000000000000600052601260045260246000fd5b600080fd5b7f46455252593a2043414e275420555345205a45524f2041444452455353000000600082015250565b7f46455252593a205041594d454e54204641494c45440000000000000000000000600082015250565b7f4f776e61626c653a206e6577206f776e657220697320746865207a65726f206160008201527f6464726573730000000000000000000000000000000000000000000000000000602082015250565b7f46455252593a204f4e4c59204d494e54455220495320415554484f52495a4544600082015250565b7f46455252593a2050415920534f4d452044414920544f20535542534352494245600082015250565b7f46455252593a20444149205749544844524157204641494c4544000000000000600082015250565b7f46455252593a205a45524f20414444524553532043414e27542053554253435260008201527f4942450000000000000000000000000000000000000000000000000000000000602082015250565b7f4f776e61626c653a2063616c6c6572206973206e6f7420746865206f776e6572600082015250565b7f46455252593a205749544844524157204d4f5245205448414e205a45524f0000600082015250565b7f46455252593a204445504f534954204d4f5245205448414e205a45524f000000600082015250565b61223f81611f3c565b811461224a57600080fd5b50565b61225681611f4e565b811461226157600080fd5b50565b61226d81611f88565b811461227857600080fd5b5056fea264697066735822122023c6c6258834c24141929833e05566262ee723260964323ce7a1edec5d82b6ac64736f6c63430008060033",
  "linkReferences": {},
  "deployedLinkReferences": {}
}