{
  "_format": "hh-sol-artifact-1",
  "contractName": "Ferry",
  "sourceName": "contracts/Ferry.sol",
  "abi": [
    {
      "inputs": [
        {
          "internalType": "uint256",
          "name": "_annualFee",
          "type": "uint256"
        },
        {
          "internalType": "uint256",
          "name": "_maxMintedNFTs",
          "type": "uint256"
        },
        {
          "internalType": "uint256",
          "name": "_nftThreshold",
          "type": "uint256"
        },
        {
          "internalType": "uint256",
          "name": "_maxMembershipPeriod",
          "type": "uint256"
        },
        {
          "internalType": "address",
          "name": "_dai",
          "type": "address"
        },
        {
          "internalType": "address",
          "name": "_lendingPool",
          "type": "address"
        },
        {
          "internalType": "address",
          "name": "_nftMinter",
          "type": "address"
        }
      ],
      "stateMutability": "nonpayable",
      "type": "constructor"
    },
    {
      "anonymous": false,
      "inputs": [
        {
          "indexed": true,
          "internalType": "address",
          "name": "previousOwner",
          "type": "address"
        },
        {
          "indexed": true,
          "internalType": "address",
          "name": "newOwner",
          "type": "address"
        }
      ],
      "name": "OwnershipTransferred",
      "type": "event"
    },
    {
      "inputs": [],
      "name": "YEAR",
      "outputs": [
        {
          "internalType": "uint256",
          "name": "",
          "type": "uint256"
        }
      ],
      "stateMutability": "view",
      "type": "function"
    },
    {
      "inputs": [],
      "name": "annualFee",
      "outputs": [
        {
          "internalType": "uint256",
          "name": "",
          "type": "uint256"
        }
      ],
      "stateMutability": "view",
      "type": "function"
    },
    {
      "inputs": [],
      "name": "daiAddress",
      "outputs": [
        {
          "internalType": "address",
          "name": "",
          "type": "address"
        }
      ],
      "stateMutability": "view",
      "type": "function"
    },
    {
      "inputs": [
        {
          "internalType": "uint256",
          "name": "_amount",
          "type": "uint256"
        }
      ],
      "name": "depositInAave",
      "outputs": [],
      "stateMutability": "nonpayable",
      "type": "function"
    },
    {
      "inputs": [
        {
          "internalType": "address",
          "name": "_account",
          "type": "address"
        }
      ],
      "name": "getAccountNFT",
      "outputs": [
        {
          "internalType": "bool",
          "name": "",
          "type": "bool"
        }
      ],
      "stateMutability": "view",
      "type": "function"
    },
    {
      "inputs": [
        {
          "internalType": "address",
          "name": "_account",
          "type": "address"
        }
      ],
      "name": "getMembershipExpiryTime",
      "outputs": [
        {
          "internalType": "uint256",
          "name": "",
          "type": "uint256"
        }
      ],
      "stateMutability": "view",
      "type": "function"
    },
    {
      "inputs": [],
      "name": "maxMembershipPeriod",
      "outputs": [
        {
          "internalType": "uint256",
          "name": "",
          "type": "uint256"
        }
      ],
      "stateMutability": "view",
      "type": "function"
    },
    {
      "inputs": [],
      "name": "maxMintedNFTs",
      "outputs": [
        {
          "internalType": "uint256",
          "name": "",
          "type": "uint256"
        }
      ],
      "stateMutability": "view",
      "type": "function"
    },
    {
      "inputs": [],
      "name": "nftCount",
      "outputs": [
        {
          "internalType": "uint256",
          "name": "",
          "type": "uint256"
        }
      ],
      "stateMutability": "view",
      "type": "function"
    },
    {
      "inputs": [],
      "name": "nftThresholdPayment",
      "outputs": [
        {
          "internalType": "uint256",
          "name": "",
          "type": "uint256"
        }
      ],
      "stateMutability": "view",
      "type": "function"
    },
    {
      "inputs": [],
      "name": "nftsActive",
      "outputs": [
        {
          "internalType": "bool",
          "name": "",
          "type": "bool"
        }
      ],
      "stateMutability": "view",
      "type": "function"
    },
    {
      "inputs": [],
      "name": "owner",
      "outputs": [
        {
          "internalType": "address",
          "name": "",
          "type": "address"
        }
      ],
      "stateMutability": "view",
      "type": "function"
    },
    {
      "inputs": [
        {
          "internalType": "address",
          "name": "_account",
          "type": "address"
        },
        {
          "internalType": "uint256",
          "name": "_amount",
          "type": "uint256"
        }
      ],
      "name": "paySubscription",
      "outputs": [],
      "stateMutability": "nonpayable",
      "type": "function"
    },
    {
      "inputs": [],
      "name": "renounceOwnership",
      "outputs": [],
      "stateMutability": "nonpayable",
      "type": "function"
    },
    {
      "inputs": [
        {
          "internalType": "uint256",
          "name": "_annualFee",
          "type": "uint256"
        }
      ],
      "name": "setAnnualFee",
      "outputs": [],
      "stateMutability": "nonpayable",
      "type": "function"
    },
    {
      "inputs": [
        {
          "internalType": "address",
          "name": "_lendingPool",
          "type": "address"
        }
      ],
      "name": "setLendingPool",
      "outputs": [],
      "stateMutability": "nonpayable",
      "type": "function"
    },
    {
      "inputs": [
        {
          "internalType": "uint256",
          "name": "_maxPeriod",
          "type": "uint256"
        }
      ],
      "name": "setMaxMembershipPeriod",
      "outputs": [],
      "stateMutability": "nonpayable",
      "type": "function"
    },
    {
      "inputs": [
        {
          "internalType": "uint256",
          "name": "_max",
          "type": "uint256"
        }
      ],
      "name": "setMaxMintedNFTs",
      "outputs": [],
      "stateMutability": "nonpayable",
      "type": "function"
    },
    {
      "inputs": [
        {
          "internalType": "address",
          "name": "_minter",
          "type": "address"
        },
        {
          "internalType": "bool",
          "name": "_nftsActive",
          "type": "bool"
        }
      ],
      "name": "setNFTMinter",
      "outputs": [],
      "stateMutability": "nonpayable",
      "type": "function"
    },
    {
      "inputs": [
        {
          "internalType": "uint256",
          "name": "_threshold",
          "type": "uint256"
        }
      ],
      "name": "setNftThresholdPayment",
      "outputs": [],
      "stateMutability": "nonpayable",
      "type": "function"
    },
    {
      "inputs": [
        {
          "internalType": "address",
          "name": "newOwner",
          "type": "address"
        }
      ],
      "name": "transferOwnership",
      "outputs": [],
      "stateMutability": "nonpayable",
      "type": "function"
    },
    {
      "inputs": [
        {
          "internalType": "uint256",
          "name": "_amount",
          "type": "uint256"
        }
      ],
      "name": "withdrawFromAave",
      "outputs": [],
      "stateMutability": "nonpayable",
      "type": "function"
    }
  ],
  "bytecode": "0x60806040523480156200001157600080fd5b506040516200236a3803806200236a83398181016040528101906200003791906200039d565b620000576200004b6200025a60201b60201c565b6200026260201b60201c565b866005819055508360068190555084600a819055508560098190555082600360006101000a81548173ffffffffffffffffffffffffffffffffffffffff021916908373ffffffffffffffffffffffffffffffffffffffff16021790555082600460006101000a81548173ffffffffffffffffffffffffffffffffffffffff021916908373ffffffffffffffffffffffffffffffffffffffff16021790555081600260006101000a81548173ffffffffffffffffffffffffffffffffffffffff021916908373ffffffffffffffffffffffffffffffffffffffff16021790555080600160006101000a81548173ffffffffffffffffffffffffffffffffffffffff021916908373ffffffffffffffffffffffffffffffffffffffff160217905550600360009054906101000a900473ffffffffffffffffffffffffffffffffffffffff1673ffffffffffffffffffffffffffffffffffffffff1663095ea7b3837fffffffffffffffffffffffffffffffffffffffffffffffffffffffffffffffff6040518363ffffffff1660e01b8152600401620001f692919062000472565b602060405180830381600087803b1580156200021157600080fd5b505af115801562000226573d6000803e3d6000fd5b505050506040513d601f19601f820116820180604052508101906200024c91906200036b565b50505050505050506200053c565b600033905090565b60008060009054906101000a900473ffffffffffffffffffffffffffffffffffffffff169050816000806101000a81548173ffffffffffffffffffffffffffffffffffffffff021916908373ffffffffffffffffffffffffffffffffffffffff1602179055508173ffffffffffffffffffffffffffffffffffffffff168173ffffffffffffffffffffffffffffffffffffffff167f8be0079c531659141344cd1fd0a4f28419497f9722a3daafe3b4186f6b6457e060405160405180910390a35050565b6000815190506200033781620004ee565b92915050565b6000815190506200034e8162000508565b92915050565b600081519050620003658162000522565b92915050565b600060208284031215620003845762000383620004e9565b5b600062000394848285016200033d565b91505092915050565b600080600080600080600060e0888a031215620003bf57620003be620004e9565b5b6000620003cf8a828b0162000354565b9750506020620003e28a828b0162000354565b9650506040620003f58a828b0162000354565b9550506060620004088a828b0162000354565b94505060806200041b8a828b0162000326565b93505060a06200042e8a828b0162000326565b92505060c0620004418a828b0162000326565b91505092959891949750929550565b6200045b816200049f565b82525050565b6200046c81620004df565b82525050565b600060408201905062000489600083018562000450565b62000498602083018462000461565b9392505050565b6000620004ac82620004bf565b9050919050565b60008115159050919050565b600073ffffffffffffffffffffffffffffffffffffffff82169050919050565b6000819050919050565b600080fd5b620004f9816200049f565b81146200050557600080fd5b50565b6200051381620004b3565b81146200051f57600080fd5b50565b6200052d81620004df565b81146200053957600080fd5b50565b611e1e806200054c6000396000f3fe608060405234801561001057600080fd5b50600436106101425760003560e01c806377377808116100b85780638da5cb5b1161007c5780638da5cb5b1461032b578063ad21f00814610349578063d2720e6914610365578063dee0297f14610381578063f2fde38b1461039d578063f515bae7146103b957610142565b806377377808146102895780637b7182ef146102b957806383914540146102d55780638443867e146102f357806388b89a7d1461030f57610142565b806334cac0511161010a57806334cac051146101db5780633c91292b1461020b5780634a0ab3db1461022757806358980a2614610245578063688f237b14610263578063715018a61461027f57610142565b80630af2c6ca14610147578063113aa8b1146101655780631dfda2e714610181578063294bd7381461019f5780632c387275146101bd575b600080fd5b61014f6103d7565b60405161015c91906119ba565b60405180910390f35b61017f600480360381019061017a9190611520565b6103dd565b005b6101896105dd565b60405161019691906119ba565b60405180910390f35b6101a76105e3565b6040516101b491906119ba565b60405180910390f35b6101c56105e9565b6040516101d291906117a8565b60405180910390f35b6101f560048036038101906101f09190611520565b61060f565b604051610202919061189f565b60405180910390f35b6102256004803603810190610220919061158d565b610665565b005b61022f610b61565b60405161023c919061189f565b60405180910390f35b61024d610b74565b60405161025a91906119ba565b60405180910390f35b61027d600480360381019061027891906115fa565b610b7a565b005b610287610d10565b005b6102a3600480360381019061029e9190611520565b610d98565b6040516102b091906119ba565b60405180910390f35b6102d360048036038101906102ce91906115fa565b610de1565b005b6102dd610e67565b6040516102ea91906119ba565b60405180910390f35b61030d600480360381019061030891906115fa565b610e6f565b005b610329600480360381019061032491906115fa565b610ef5565b005b610333610f7b565b60405161034091906117a8565b60405180910390f35b610363600480360381019061035e91906115fa565b610fa4565b005b61037f600480360381019061037a91906115fa565b61102a565b005b61039b6004803603810190610396919061154d565b6111a2565b005b6103b760048036038101906103b29190611520565b6112ed565b005b6103c16113e5565b6040516103ce91906119ba565b60405180910390f35b60085481565b6103e56113eb565b73ffffffffffffffffffffffffffffffffffffffff16610403610f7b565b73ffffffffffffffffffffffffffffffffffffffff1614610459576040517f08c379a00000000000000000000000000000000000000000000000000000000081526004016104509061195a565b60405180910390fd5b600073ffffffffffffffffffffffffffffffffffffffff168173ffffffffffffffffffffffffffffffffffffffff1614156104c9576040517f08c379a00000000000000000000000000000000000000000000000000000000081526004016104c0906118ba565b60405180910390fd5b80600260006101000a81548173ffffffffffffffffffffffffffffffffffffffff021916908373ffffffffffffffffffffffffffffffffffffffff160217905550600360009054906101000a900473ffffffffffffffffffffffffffffffffffffffff1673ffffffffffffffffffffffffffffffffffffffff1663095ea7b3827fffffffffffffffffffffffffffffffffffffffffffffffffffffffffffffffff6040518363ffffffff1660e01b81526004016105879291906117fa565b602060405180830381600087803b1580156105a157600080fd5b505af11580156105b5573d6000803e3d6000fd5b505050506040513d601f19601f820116820180604052508101906105d991906115cd565b5050565b60055481565b600a5481565b600460009054906101000a900473ffffffffffffffffffffffffffffffffffffffff1681565b6000600c60008373ffffffffffffffffffffffffffffffffffffffff1673ffffffffffffffffffffffffffffffffffffffff16815260200190815260200160002060009054906101000a900460ff169050919050565b600073ffffffffffffffffffffffffffffffffffffffff168273ffffffffffffffffffffffffffffffffffffffff1614156106d5576040517f08c379a00000000000000000000000000000000000000000000000000000000081526004016106cc9061193a565b60405180910390fd5b60008111610718576040517f08c379a000000000000000000000000000000000000000000000000000000000815260040161070f9061191a565b60405180910390fd5b600360009054906101000a900473ffffffffffffffffffffffffffffffffffffffff1673ffffffffffffffffffffffffffffffffffffffff166323b872dd3330846040518463ffffffff1660e01b8152600401610777939291906117c3565b602060405180830381600087803b15801561079157600080fd5b505af11580156107a5573d6000803e3d6000fd5b505050506040513d601f19601f820116820180604052508101906107c991906115cd565b610808576040517f08c379a00000000000000000000000000000000000000000000000000000000081526004016107ff906118da565b60405180910390fd5b6000600554826301e1338061081d9190611a6d565b6108279190611a3c565b905042600b60008573ffffffffffffffffffffffffffffffffffffffff1673ffffffffffffffffffffffffffffffffffffffff1681526020019081526020016000205410156108f5576006548111156108a15760065490506005546301e133806006546108949190611a3c565b61089e9190611a6d565b91505b80426108ad91906119e6565b600b60008573ffffffffffffffffffffffffffffffffffffffff1673ffffffffffffffffffffffffffffffffffffffff168152602001908152602001600020819055506109d4565b6000600b60008573ffffffffffffffffffffffffffffffffffffffff1673ffffffffffffffffffffffffffffffffffffffff168152602001908152602001600020546006544261094591906119e6565b61094f9190611ac7565b90508082111561097c578091506005546301e133808261096f9190611a3c565b6109799190611a6d565b92505b81600b60008673ffffffffffffffffffffffffffffffffffffffff1673ffffffffffffffffffffffffffffffffffffffff16815260200190815260200160002060008282546109cb91906119e6565b92505081905550505b600760009054906101000a900460ff1680156109f25750600a548210155b8015610a485750600c60008473ffffffffffffffffffffffffffffffffffffffff1673ffffffffffffffffffffffffffffffffffffffff16815260200190815260200160002060009054906101000a900460ff16155b8015610a575750600954600854105b15610b5c57600160009054906101000a900473ffffffffffffffffffffffffffffffffffffffff1673ffffffffffffffffffffffffffffffffffffffff166340c10f1984846040518363ffffffff1660e01b8152600401610ab99291906117fa565b600060405180830381600087803b158015610ad357600080fd5b505af1158015610ae7573d6000803e3d6000fd5b505050506001600c60008573ffffffffffffffffffffffffffffffffffffffff1673ffffffffffffffffffffffffffffffffffffffff16815260200190815260200160002060006101000a81548160ff02191690831515021790555060086000815480929190610b5690611b63565b91905055505b505050565b600760009054906101000a900460ff1681565b60065481565b610b826113eb565b73ffffffffffffffffffffffffffffffffffffffff16610ba0610f7b565b73ffffffffffffffffffffffffffffffffffffffff1614610bf6576040517f08c379a0000000000000000000000000000000000000000000000000000000008152600401610bed9061195a565b60405180910390fd5b60008111610c39576040517f08c379a0000000000000000000000000000000000000000000000000000000008152600401610c309061197a565b60405180910390fd5b600260009054906101000a900473ffffffffffffffffffffffffffffffffffffffff1673ffffffffffffffffffffffffffffffffffffffff166369328dec600460009054906101000a900473ffffffffffffffffffffffffffffffffffffffff1683306040518463ffffffff1660e01b8152600401610cba93929190611823565b602060405180830381600087803b158015610cd457600080fd5b505af1158015610ce8573d6000803e3d6000fd5b505050506040513d601f19601f82011682018060405250810190610d0c9190611627565b5050565b610d186113eb565b73ffffffffffffffffffffffffffffffffffffffff16610d36610f7b565b73ffffffffffffffffffffffffffffffffffffffff1614610d8c576040517f08c379a0000000000000000000000000000000000000000000000000000000008152600401610d839061195a565b60405180910390fd5b610d9660006113f3565b565b6000600b60008373ffffffffffffffffffffffffffffffffffffffff1673ffffffffffffffffffffffffffffffffffffffff168152602001908152602001600020549050919050565b610de96113eb565b73ffffffffffffffffffffffffffffffffffffffff16610e07610f7b565b73ffffffffffffffffffffffffffffffffffffffff1614610e5d576040517f08c379a0000000000000000000000000000000000000000000000000000000008152600401610e549061195a565b60405180910390fd5b8060068190555050565b6301e1338081565b610e776113eb565b73ffffffffffffffffffffffffffffffffffffffff16610e95610f7b565b73ffffffffffffffffffffffffffffffffffffffff1614610eeb576040517f08c379a0000000000000000000000000000000000000000000000000000000008152600401610ee29061195a565b60405180910390fd5b8060098190555050565b610efd6113eb565b73ffffffffffffffffffffffffffffffffffffffff16610f1b610f7b565b73ffffffffffffffffffffffffffffffffffffffff1614610f71576040517f08c379a0000000000000000000000000000000000000000000000000000000008152600401610f689061195a565b60405180910390fd5b8060058190555050565b60008060009054906101000a900473ffffffffffffffffffffffffffffffffffffffff16905090565b610fac6113eb565b73ffffffffffffffffffffffffffffffffffffffff16610fca610f7b565b73ffffffffffffffffffffffffffffffffffffffff1614611020576040517f08c379a00000000000000000000000000000000000000000000000000000000081526004016110179061195a565b60405180910390fd5b80600a8190555050565b6110326113eb565b73ffffffffffffffffffffffffffffffffffffffff16611050610f7b565b73ffffffffffffffffffffffffffffffffffffffff16146110a6576040517f08c379a000000000000000000000000000000000000000000000000000000000815260040161109d9061195a565b60405180910390fd5b600081116110e9576040517f08c379a00000000000000000000000000000000000000000000000000000000081526004016110e09061199a565b60405180910390fd5b600260009054906101000a900473ffffffffffffffffffffffffffffffffffffffff1673ffffffffffffffffffffffffffffffffffffffff1663e8eda9df600460009054906101000a900473ffffffffffffffffffffffffffffffffffffffff16833060006040518563ffffffff1660e01b815260040161116d949392919061185a565b600060405180830381600087803b15801561118757600080fd5b505af115801561119b573d6000803e3d6000fd5b5050505050565b6111aa6113eb565b73ffffffffffffffffffffffffffffffffffffffff166111c8610f7b565b73ffffffffffffffffffffffffffffffffffffffff161461121e576040517f08c379a00000000000000000000000000000000000000000000000000000000081526004016112159061195a565b60405180910390fd5b600073ffffffffffffffffffffffffffffffffffffffff168273ffffffffffffffffffffffffffffffffffffffff16141561128e576040517f08c379a0000000000000000000000000000000000000000000000000000000008152600401611285906118ba565b60405180910390fd5b81600160006101000a81548173ffffffffffffffffffffffffffffffffffffffff021916908373ffffffffffffffffffffffffffffffffffffffff16021790555080600760006101000a81548160ff0219169083151502179055505050565b6112f56113eb565b73ffffffffffffffffffffffffffffffffffffffff16611313610f7b565b73ffffffffffffffffffffffffffffffffffffffff1614611369576040517f08c379a00000000000000000000000000000000000000000000000000000000081526004016113609061195a565b60405180910390fd5b600073ffffffffffffffffffffffffffffffffffffffff168173ffffffffffffffffffffffffffffffffffffffff1614156113d9576040517f08c379a00000000000000000000000000000000000000000000000000000000081526004016113d0906118fa565b60405180910390fd5b6113e2816113f3565b50565b60095481565b600033905090565b60008060009054906101000a900473ffffffffffffffffffffffffffffffffffffffff169050816000806101000a81548173ffffffffffffffffffffffffffffffffffffffff021916908373ffffffffffffffffffffffffffffffffffffffff1602179055508173ffffffffffffffffffffffffffffffffffffffff168173ffffffffffffffffffffffffffffffffffffffff167f8be0079c531659141344cd1fd0a4f28419497f9722a3daafe3b4186f6b6457e060405160405180910390a35050565b6000813590506114c681611da3565b92915050565b6000813590506114db81611dba565b92915050565b6000815190506114f081611dba565b92915050565b60008135905061150581611dd1565b92915050565b60008151905061151a81611dd1565b92915050565b60006020828403121561153657611535611c0a565b5b6000611544848285016114b7565b91505092915050565b6000806040838503121561156457611563611c0a565b5b6000611572858286016114b7565b9250506020611583858286016114cc565b9150509250929050565b600080604083850312156115a4576115a3611c0a565b5b60006115b2858286016114b7565b92505060206115c3858286016114f6565b9150509250929050565b6000602082840312156115e3576115e2611c0a565b5b60006115f1848285016114e1565b91505092915050565b6000602082840312156116105761160f611c0a565b5b600061161e848285016114f6565b91505092915050565b60006020828403121561163d5761163c611c0a565b5b600061164b8482850161150b565b91505092915050565b61165d81611afb565b82525050565b61166c81611b0d565b82525050565b61167b81611b51565b82525050565b600061168e601d836119d5565b915061169982611c0f565b602082019050919050565b60006116b16015836119d5565b91506116bc82611c38565b602082019050919050565b60006116d46026836119d5565b91506116df82611c61565b604082019050919050565b60006116f76020836119d5565b915061170282611cb0565b602082019050919050565b600061171a6023836119d5565b915061172582611cd9565b604082019050919050565b600061173d6020836119d5565b915061174882611d28565b602082019050919050565b6000611760601e836119d5565b915061176b82611d51565b602082019050919050565b6000611783601d836119d5565b915061178e82611d7a565b602082019050919050565b6117a281611b47565b82525050565b60006020820190506117bd6000830184611654565b92915050565b60006060820190506117d86000830186611654565b6117e56020830185611654565b6117f26040830184611799565b949350505050565b600060408201905061180f6000830185611654565b61181c6020830184611799565b9392505050565b60006060820190506118386000830186611654565b6118456020830185611799565b6118526040830184611654565b949350505050565b600060808201905061186f6000830187611654565b61187c6020830186611799565b6118896040830185611654565b6118966060830184611672565b95945050505050565b60006020820190506118b46000830184611663565b92915050565b600060208201905081810360008301526118d381611681565b9050919050565b600060208201905081810360008301526118f3816116a4565b9050919050565b60006020820190508181036000830152611913816116c7565b9050919050565b60006020820190508181036000830152611933816116ea565b9050919050565b600060208201905081810360008301526119538161170d565b9050919050565b6000602082019050818103600083015261197381611730565b9050919050565b6000602082019050818103600083015261199381611753565b9050919050565b600060208201905081810360008301526119b381611776565b9050919050565b60006020820190506119cf6000830184611799565b92915050565b600082825260208201905092915050565b60006119f182611b47565b91506119fc83611b47565b9250827fffffffffffffffffffffffffffffffffffffffffffffffffffffffffffffffff03821115611a3157611a30611bac565b5b828201905092915050565b6000611a4782611b47565b9150611a5283611b47565b925082611a6257611a61611bdb565b5b828204905092915050565b6000611a7882611b47565b9150611a8383611b47565b9250817fffffffffffffffffffffffffffffffffffffffffffffffffffffffffffffffff0483118215151615611abc57611abb611bac565b5b828202905092915050565b6000611ad282611b47565b9150611add83611b47565b925082821015611af057611aef611bac565b5b828203905092915050565b6000611b0682611b27565b9050919050565b60008115159050919050565b600061ffff82169050919050565b600073ffffffffffffffffffffffffffffffffffffffff82169050919050565b6000819050919050565b6000611b5c82611b19565b9050919050565b6000611b6e82611b47565b91507fffffffffffffffffffffffffffffffffffffffffffffffffffffffffffffffff821415611ba157611ba0611bac565b5b600182019050919050565b7f4e487b7100000000000000000000000000000000000000000000000000000000600052601160045260246000fd5b7f4e487b7100000000000000000000000000000000000000000000000000000000600052601260045260246000fd5b600080fd5b7f46455252593a2043414e275420555345205a45524f2041444452455353000000600082015250565b7f46455252593a205041594d454e54204641494c45440000000000000000000000600082015250565b7f4f776e61626c653a206e6577206f776e657220697320746865207a65726f206160008201527f6464726573730000000000000000000000000000000000000000000000000000602082015250565b7f46455252593a2050415920534f4d452044414920544f20535542534352494245600082015250565b7f46455252593a205a45524f20414444524553532043414e27542053554253435260008201527f4942450000000000000000000000000000000000000000000000000000000000602082015250565b7f4f776e61626c653a2063616c6c6572206973206e6f7420746865206f776e6572600082015250565b7f46455252593a205749544844524157204d4f5245205448414e205a45524f0000600082015250565b7f46455252593a204445504f534954204d4f5245205448414e205a45524f000000600082015250565b611dac81611afb565b8114611db757600080fd5b50565b611dc381611b0d565b8114611dce57600080fd5b50565b611dda81611b47565b8114611de557600080fd5b5056fea26469706673582212203bf9eac323605417f67d8eb46463d9b2cf9bac7237e65f1121e3c1d7450d365f64736f6c63430008060033",
  "linkReferences": {},
  "deployedLinkReferences": {}
}