{
  "_format": "hh-sol-artifact-1",
  "contractName": "Ferry",
  "sourceName": "contracts/Ferry.sol",
  "abi": [
    {
      "inputs": [
        {
          "internalType": "uint256",
          "name": "_annualFee",
          "type": "uint256"
        },
        {
          "internalType": "uint256",
          "name": "_maxMintedNFTs",
          "type": "uint256"
        },
        {
          "internalType": "uint256",
          "name": "_nftThreshold",
          "type": "uint256"
        },
        {
          "internalType": "uint256",
          "name": "_maxMembershipPeriod",
          "type": "uint256"
        },
        {
          "internalType": "address",
          "name": "_dai",
          "type": "address"
        },
        {
          "internalType": "address",
          "name": "_lendingPool",
          "type": "address"
        },
        {
          "internalType": "address",
          "name": "_nftMinter",
          "type": "address"
        }
      ],
      "stateMutability": "nonpayable",
      "type": "constructor"
    },
    {
      "anonymous": false,
      "inputs": [
        {
          "indexed": true,
          "internalType": "address",
          "name": "previousOwner",
          "type": "address"
        },
        {
          "indexed": true,
          "internalType": "address",
          "name": "newOwner",
          "type": "address"
        }
      ],
      "name": "OwnershipTransferred",
      "type": "event"
    },
    {
      "inputs": [],
      "name": "YEAR",
      "outputs": [
        {
          "internalType": "uint256",
          "name": "",
          "type": "uint256"
        }
      ],
      "stateMutability": "view",
      "type": "function"
    },
    {
      "inputs": [],
      "name": "annualFee",
      "outputs": [
        {
          "internalType": "uint256",
          "name": "",
          "type": "uint256"
        }
      ],
      "stateMutability": "view",
      "type": "function"
    },
    {
      "inputs": [],
      "name": "daiAddress",
      "outputs": [
        {
          "internalType": "address",
          "name": "",
          "type": "address"
        }
      ],
      "stateMutability": "view",
      "type": "function"
    },
    {
      "inputs": [
        {
          "internalType": "uint256",
          "name": "_amount",
          "type": "uint256"
        }
      ],
      "name": "depositInAave",
      "outputs": [],
      "stateMutability": "nonpayable",
      "type": "function"
    },
    {
      "inputs": [
        {
          "internalType": "address",
          "name": "_account",
          "type": "address"
        }
      ],
      "name": "getAccountNFT",
      "outputs": [
        {
          "internalType": "uint256",
          "name": "",
          "type": "uint256"
        }
      ],
      "stateMutability": "view",
      "type": "function"
    },
    {
      "inputs": [
        {
          "internalType": "address",
          "name": "_account",
          "type": "address"
        }
      ],
      "name": "getMembershipExpiryTime",
      "outputs": [
        {
          "internalType": "uint256",
          "name": "",
          "type": "uint256"
        }
      ],
      "stateMutability": "view",
      "type": "function"
    },
    {
      "inputs": [],
      "name": "maxMembershipPeriod",
      "outputs": [
        {
          "internalType": "uint256",
          "name": "",
          "type": "uint256"
        }
      ],
      "stateMutability": "view",
      "type": "function"
    },
    {
      "inputs": [],
      "name": "maxMintedNFTs",
      "outputs": [
        {
          "internalType": "uint256",
          "name": "",
          "type": "uint256"
        }
      ],
      "stateMutability": "view",
      "type": "function"
    },
    {
      "inputs": [],
      "name": "minterAddress",
      "outputs": [
        {
          "internalType": "address",
          "name": "",
          "type": "address"
        }
      ],
      "stateMutability": "view",
      "type": "function"
    },
    {
      "inputs": [],
      "name": "nftCount",
      "outputs": [
        {
          "internalType": "uint256",
          "name": "",
          "type": "uint256"
        }
      ],
      "stateMutability": "view",
      "type": "function"
    },
    {
      "inputs": [
        {
          "internalType": "address",
          "name": "_account",
          "type": "address"
        },
        {
          "internalType": "uint256",
          "name": "_randomNum",
          "type": "uint256"
        }
      ],
      "name": "nftCreatedCallback",
      "outputs": [],
      "stateMutability": "nonpayable",
      "type": "function"
    },
    {
      "inputs": [],
      "name": "nftThresholdPayment",
      "outputs": [
        {
          "internalType": "uint256",
          "name": "",
          "type": "uint256"
        }
      ],
      "stateMutability": "view",
      "type": "function"
    },
    {
      "inputs": [],
      "name": "nftsActive",
      "outputs": [
        {
          "internalType": "bool",
          "name": "",
          "type": "bool"
        }
      ],
      "stateMutability": "view",
      "type": "function"
    },
    {
      "inputs": [],
      "name": "owner",
      "outputs": [
        {
          "internalType": "address",
          "name": "",
          "type": "address"
        }
      ],
      "stateMutability": "view",
      "type": "function"
    },
    {
      "inputs": [
        {
          "internalType": "address",
          "name": "_account",
          "type": "address"
        },
        {
          "internalType": "uint256",
          "name": "_amount",
          "type": "uint256"
        }
      ],
      "name": "paySubscription",
      "outputs": [],
      "stateMutability": "nonpayable",
      "type": "function"
    },
    {
      "inputs": [],
      "name": "renounceOwnership",
      "outputs": [],
      "stateMutability": "nonpayable",
      "type": "function"
    },
    {
      "inputs": [
        {
          "internalType": "uint256",
          "name": "_annualFee",
          "type": "uint256"
        }
      ],
      "name": "setAnnualFee",
      "outputs": [],
      "stateMutability": "nonpayable",
      "type": "function"
    },
    {
      "inputs": [
        {
          "internalType": "address",
          "name": "_lendingPool",
          "type": "address"
        }
      ],
      "name": "setLendingPool",
      "outputs": [],
      "stateMutability": "nonpayable",
      "type": "function"
    },
    {
      "inputs": [
        {
          "internalType": "uint256",
          "name": "_maxPeriod",
          "type": "uint256"
        }
      ],
      "name": "setMaxMembershipPeriod",
      "outputs": [],
      "stateMutability": "nonpayable",
      "type": "function"
    },
    {
      "inputs": [
        {
          "internalType": "uint256",
          "name": "_max",
          "type": "uint256"
        }
      ],
      "name": "setMaxMintedNFTs",
      "outputs": [],
      "stateMutability": "nonpayable",
      "type": "function"
    },
    {
      "inputs": [
        {
          "internalType": "address",
          "name": "_minter",
          "type": "address"
        },
        {
          "internalType": "bool",
          "name": "_nftsActive",
          "type": "bool"
        }
      ],
      "name": "setNFTMinter",
      "outputs": [],
      "stateMutability": "nonpayable",
      "type": "function"
    },
    {
      "inputs": [
        {
          "internalType": "uint256",
          "name": "_threshold",
          "type": "uint256"
        }
      ],
      "name": "setNftThresholdPayment",
      "outputs": [],
      "stateMutability": "nonpayable",
      "type": "function"
    },
    {
      "inputs": [
        {
          "internalType": "address",
          "name": "newOwner",
          "type": "address"
        }
      ],
      "name": "transferOwnership",
      "outputs": [],
      "stateMutability": "nonpayable",
      "type": "function"
    },
    {
      "inputs": [],
      "name": "withdrawDAI",
      "outputs": [],
      "stateMutability": "nonpayable",
      "type": "function"
    },
    {
      "inputs": [
        {
          "internalType": "uint256",
          "name": "_amount",
          "type": "uint256"
        }
      ],
      "name": "withdrawFromAave",
      "outputs": [],
      "stateMutability": "nonpayable",
      "type": "function"
    }
  ],
  "bytecode": "0x60806040523480156200001157600080fd5b506040516200279c3803806200279c8339818101604052810190620000379190620003de565b620000576200004b6200029b60201b60201c565b620002a360201b60201c565b866006819055508360078190555084600b8190555085600a8190555082600460006101000a81548173ffffffffffffffffffffffffffffffffffffffff021916908373ffffffffffffffffffffffffffffffffffffffff16021790555082600560006101000a81548173ffffffffffffffffffffffffffffffffffffffff021916908373ffffffffffffffffffffffffffffffffffffffff16021790555081600360006101000a81548173ffffffffffffffffffffffffffffffffffffffff021916908373ffffffffffffffffffffffffffffffffffffffff16021790555080600160006101000a81548173ffffffffffffffffffffffffffffffffffffffff021916908373ffffffffffffffffffffffffffffffffffffffff16021790555080600260006101000a81548173ffffffffffffffffffffffffffffffffffffffff021916908373ffffffffffffffffffffffffffffffffffffffff160217905550600460009054906101000a900473ffffffffffffffffffffffffffffffffffffffff1673ffffffffffffffffffffffffffffffffffffffff1663095ea7b3837fffffffffffffffffffffffffffffffffffffffffffffffffffffffffffffffff6040518363ffffffff1660e01b815260040162000237929190620004b3565b602060405180830381600087803b1580156200025257600080fd5b505af115801562000267573d6000803e3d6000fd5b505050506040513d601f19601f820116820180604052508101906200028d9190620003ac565b50505050505050506200057d565b600033905090565b60008060009054906101000a900473ffffffffffffffffffffffffffffffffffffffff169050816000806101000a81548173ffffffffffffffffffffffffffffffffffffffff021916908373ffffffffffffffffffffffffffffffffffffffff1602179055508173ffffffffffffffffffffffffffffffffffffffff168173ffffffffffffffffffffffffffffffffffffffff167f8be0079c531659141344cd1fd0a4f28419497f9722a3daafe3b4186f6b6457e060405160405180910390a35050565b60008151905062000378816200052f565b92915050565b6000815190506200038f8162000549565b92915050565b600081519050620003a68162000563565b92915050565b600060208284031215620003c557620003c46200052a565b5b6000620003d5848285016200037e565b91505092915050565b600080600080600080600060e0888a0312156200040057620003ff6200052a565b5b6000620004108a828b0162000395565b9750506020620004238a828b0162000395565b9650506040620004368a828b0162000395565b9550506060620004498a828b0162000395565b94505060806200045c8a828b0162000367565b93505060a06200046f8a828b0162000367565b92505060c0620004828a828b0162000367565b91505092959891949750929550565b6200049c81620004e0565b82525050565b620004ad8162000520565b82525050565b6000604082019050620004ca600083018562000491565b620004d96020830184620004a2565b9392505050565b6000620004ed8262000500565b9050919050565b60008115159050919050565b600073ffffffffffffffffffffffffffffffffffffffff82169050919050565b6000819050919050565b600080fd5b6200053a81620004e0565b81146200054657600080fd5b50565b6200055481620004f4565b81146200056057600080fd5b50565b6200056e8162000520565b81146200057a57600080fd5b50565b61220f806200058d6000396000f3fe608060405234801561001057600080fd5b50600436106101735760003560e01c8063688f237b116100de57806388b89a7d11610097578063d2720e6911610071578063d2720e69146103da578063dee0297f146103f6578063f2fde38b14610412578063f515bae71461042e57610173565b806388b89a7d146103845780638da5cb5b146103a0578063ad21f008146103be57610173565b8063688f237b146102d8578063715018a6146102f457806377377808146102fe5780637b7182ef1461032e578063839145401461034a5780638443867e1461036857610173565b80632c387275116101305780632c3872751461021457806334cac0511461023257806334d722c9146102625780633c91292b146102805780634a0ab3db1461029c57806358980a26146102ba57610173565b8063020bcc9e146101785780630af2c6ca14610182578063113aa8b1146101a057806319683a7c146101bc5780631dfda2e7146101d8578063294bd738146101f6575b600080fd5b61018061044c565b005b61018a610662565b6040516101979190611d82565b60405180910390f35b6101ba60048036038101906101b591906118a5565b610668565b005b6101d660048036038101906101d19190611912565b610868565b005b6101e0610922565b6040516101ed9190611d82565b60405180910390f35b6101fe610928565b60405161020b9190611d82565b60405180910390f35b61021c61092e565b6040516102299190611b50565b60405180910390f35b61024c600480360381019061024791906118a5565b610954565b6040516102599190611d82565b60405180910390f35b61026a61099d565b6040516102779190611b50565b60405180910390f35b61029a60048036038101906102959190611912565b6109c3565b005b6102a4610ea5565b6040516102b19190611c47565b60405180910390f35b6102c2610eb8565b6040516102cf9190611d82565b60405180910390f35b6102f260048036038101906102ed919061197f565b610ebe565b005b6102fc611054565b005b610318600480360381019061031391906118a5565b6110dc565b6040516103259190611d82565b60405180910390f35b6103486004803603810190610343919061197f565b611125565b005b6103526111ab565b60405161035f9190611d82565b60405180910390f35b610382600480360381019061037d919061197f565b6111b3565b005b61039e6004803603810190610399919061197f565b611239565b005b6103a86112bf565b6040516103b59190611b50565b60405180910390f35b6103d860048036038101906103d3919061197f565b6112e8565b005b6103f460048036038101906103ef919061197f565b61136e565b005b610410600480360381019061040b91906118d2565b6114e6565b005b61042c600480360381019061042791906118a5565b611672565b005b61043661176a565b6040516104439190611d82565b60405180910390f35b610454611770565b73ffffffffffffffffffffffffffffffffffffffff166104726112bf565b73ffffffffffffffffffffffffffffffffffffffff16146104c8576040517f08c379a00000000000000000000000000000000000000000000000000000000081526004016104bf90611d22565b60405180910390fd5b600460009054906101000a900473ffffffffffffffffffffffffffffffffffffffff1673ffffffffffffffffffffffffffffffffffffffff1663a9059cbb33600460009054906101000a900473ffffffffffffffffffffffffffffffffffffffff1673ffffffffffffffffffffffffffffffffffffffff166370a08231306040518263ffffffff1660e01b81526004016105629190611b50565b60206040518083038186803b15801561057a57600080fd5b505afa15801561058e573d6000803e3d6000fd5b505050506040513d601f19601f820116820180604052508101906105b291906119ac565b6040518363ffffffff1660e01b81526004016105cf929190611ba2565b602060405180830381600087803b1580156105e957600080fd5b505af11580156105fd573d6000803e3d6000fd5b505050506040513d601f19601f820116820180604052508101906106219190611952565b610660576040517f08c379a000000000000000000000000000000000000000000000000000000000815260040161065790611ce2565b60405180910390fd5b565b60095481565b610670611770565b73ffffffffffffffffffffffffffffffffffffffff1661068e6112bf565b73ffffffffffffffffffffffffffffffffffffffff16146106e4576040517f08c379a00000000000000000000000000000000000000000000000000000000081526004016106db90611d22565b60405180910390fd5b600073ffffffffffffffffffffffffffffffffffffffff168173ffffffffffffffffffffffffffffffffffffffff161415610754576040517f08c379a000000000000000000000000000000000000000000000000000000000815260040161074b90611c62565b60405180910390fd5b80600360006101000a81548173ffffffffffffffffffffffffffffffffffffffff021916908373ffffffffffffffffffffffffffffffffffffffff160217905550600460009054906101000a900473ffffffffffffffffffffffffffffffffffffffff1673ffffffffffffffffffffffffffffffffffffffff1663095ea7b3827fffffffffffffffffffffffffffffffffffffffffffffffffffffffffffffffff6040518363ffffffff1660e01b8152600401610812929190611ba2565b602060405180830381600087803b15801561082c57600080fd5b505af1158015610840573d6000803e3d6000fd5b505050506040513d601f19601f820116820180604052508101906108649190611952565b5050565b3373ffffffffffffffffffffffffffffffffffffffff16600260009054906101000a900473ffffffffffffffffffffffffffffffffffffffff1673ffffffffffffffffffffffffffffffffffffffff16146108c257600080fd5b80600d60008473ffffffffffffffffffffffffffffffffffffffff1673ffffffffffffffffffffffffffffffffffffffff168152602001908152602001600020819055506009600081548092919061091990611f2b565b91905055505050565b60065481565b600b5481565b600560009054906101000a900473ffffffffffffffffffffffffffffffffffffffff1681565b6000600d60008373ffffffffffffffffffffffffffffffffffffffff1673ffffffffffffffffffffffffffffffffffffffff168152602001908152602001600020549050919050565b600260009054906101000a900473ffffffffffffffffffffffffffffffffffffffff1681565b600073ffffffffffffffffffffffffffffffffffffffff168273ffffffffffffffffffffffffffffffffffffffff161415610a33576040517f08c379a0000000000000000000000000000000000000000000000000000000008152600401610a2a90611d02565b60405180910390fd5b60008111610a76576040517f08c379a0000000000000000000000000000000000000000000000000000000008152600401610a6d90611cc2565b60405180910390fd5b600460009054906101000a900473ffffffffffffffffffffffffffffffffffffffff1673ffffffffffffffffffffffffffffffffffffffff166323b872dd3330846040518463ffffffff1660e01b8152600401610ad593929190611b6b565b602060405180830381600087803b158015610aef57600080fd5b505af1158015610b03573d6000803e3d6000fd5b505050506040513d601f19601f82011682018060405250810190610b279190611952565b610b66576040517f08c379a0000000000000000000000000000000000000000000000000000000008152600401610b5d90611c82565b60405180910390fd5b6000600654826301e13380610b7b9190611e35565b610b859190611e04565b905042600c60008573ffffffffffffffffffffffffffffffffffffffff1673ffffffffffffffffffffffffffffffffffffffff168152602001908152602001600020541015610c5357600754811115610bff5760075490506006546301e13380600754610bf29190611e04565b610bfc9190611e35565b91505b8042610c0b9190611dae565b600c60008573ffffffffffffffffffffffffffffffffffffffff1673ffffffffffffffffffffffffffffffffffffffff16815260200190815260200160002081905550610d32565b6000600c60008573ffffffffffffffffffffffffffffffffffffffff1673ffffffffffffffffffffffffffffffffffffffff1681526020019081526020016000205460075442610ca39190611dae565b610cad9190611e8f565b905080821115610cda578091506006546301e1338082610ccd9190611e04565b610cd79190611e35565b92505b81600c60008673ffffffffffffffffffffffffffffffffffffffff1673ffffffffffffffffffffffffffffffffffffffff1681526020019081526020016000206000828254610d299190611dae565b92505081905550505b600860009054906101000a900460ff168015610d505750600b548210155b8015610da65750600e60008473ffffffffffffffffffffffffffffffffffffffff1673ffffffffffffffffffffffffffffffffffffffff16815260200190815260200160002060009054906101000a900460ff16155b8015610db55750600a54600954105b15610ea0576001600e60008573ffffffffffffffffffffffffffffffffffffffff1673ffffffffffffffffffffffffffffffffffffffff16815260200190815260200160002060006101000a81548160ff021916908315150217905550600160009054906101000a900473ffffffffffffffffffffffffffffffffffffffff1673ffffffffffffffffffffffffffffffffffffffff166317e5883c846040518263ffffffff1660e01b8152600401610e6d9190611b50565b600060405180830381600087803b158015610e8757600080fd5b505af1158015610e9b573d6000803e3d6000fd5b505050505b505050565b600860009054906101000a900460ff1681565b60075481565b610ec6611770565b73ffffffffffffffffffffffffffffffffffffffff16610ee46112bf565b73ffffffffffffffffffffffffffffffffffffffff1614610f3a576040517f08c379a0000000000000000000000000000000000000000000000000000000008152600401610f3190611d22565b60405180910390fd5b60008111610f7d576040517f08c379a0000000000000000000000000000000000000000000000000000000008152600401610f7490611d42565b60405180910390fd5b600360009054906101000a900473ffffffffffffffffffffffffffffffffffffffff1673ffffffffffffffffffffffffffffffffffffffff166369328dec600560009054906101000a900473ffffffffffffffffffffffffffffffffffffffff1683306040518463ffffffff1660e01b8152600401610ffe93929190611bcb565b602060405180830381600087803b15801561101857600080fd5b505af115801561102c573d6000803e3d6000fd5b505050506040513d601f19601f8201168201806040525081019061105091906119ac565b5050565b61105c611770565b73ffffffffffffffffffffffffffffffffffffffff1661107a6112bf565b73ffffffffffffffffffffffffffffffffffffffff16146110d0576040517f08c379a00000000000000000000000000000000000000000000000000000000081526004016110c790611d22565b60405180910390fd5b6110da6000611778565b565b6000600c60008373ffffffffffffffffffffffffffffffffffffffff1673ffffffffffffffffffffffffffffffffffffffff168152602001908152602001600020549050919050565b61112d611770565b73ffffffffffffffffffffffffffffffffffffffff1661114b6112bf565b73ffffffffffffffffffffffffffffffffffffffff16146111a1576040517f08c379a000000000000000000000000000000000000000000000000000000000815260040161119890611d22565b60405180910390fd5b8060078190555050565b6301e1338081565b6111bb611770565b73ffffffffffffffffffffffffffffffffffffffff166111d96112bf565b73ffffffffffffffffffffffffffffffffffffffff161461122f576040517f08c379a000000000000000000000000000000000000000000000000000000000815260040161122690611d22565b60405180910390fd5b80600a8190555050565b611241611770565b73ffffffffffffffffffffffffffffffffffffffff1661125f6112bf565b73ffffffffffffffffffffffffffffffffffffffff16146112b5576040517f08c379a00000000000000000000000000000000000000000000000000000000081526004016112ac90611d22565b60405180910390fd5b8060068190555050565b60008060009054906101000a900473ffffffffffffffffffffffffffffffffffffffff16905090565b6112f0611770565b73ffffffffffffffffffffffffffffffffffffffff1661130e6112bf565b73ffffffffffffffffffffffffffffffffffffffff1614611364576040517f08c379a000000000000000000000000000000000000000000000000000000000815260040161135b90611d22565b60405180910390fd5b80600b8190555050565b611376611770565b73ffffffffffffffffffffffffffffffffffffffff166113946112bf565b73ffffffffffffffffffffffffffffffffffffffff16146113ea576040517f08c379a00000000000000000000000000000000000000000000000000000000081526004016113e190611d22565b60405180910390fd5b6000811161142d576040517f08c379a000000000000000000000000000000000000000000000000000000000815260040161142490611d62565b60405180910390fd5b600360009054906101000a900473ffffffffffffffffffffffffffffffffffffffff1673ffffffffffffffffffffffffffffffffffffffff1663e8eda9df600560009054906101000a900473ffffffffffffffffffffffffffffffffffffffff16833060006040518563ffffffff1660e01b81526004016114b19493929190611c02565b600060405180830381600087803b1580156114cb57600080fd5b505af11580156114df573d6000803e3d6000fd5b5050505050565b6114ee611770565b73ffffffffffffffffffffffffffffffffffffffff1661150c6112bf565b73ffffffffffffffffffffffffffffffffffffffff1614611562576040517f08c379a000000000000000000000000000000000000000000000000000000000815260040161155990611d22565b60405180910390fd5b600073ffffffffffffffffffffffffffffffffffffffff168273ffffffffffffffffffffffffffffffffffffffff1614156115d2576040517f08c379a00000000000000000000000000000000000000000000000000000000081526004016115c990611c62565b60405180910390fd5b81600160006101000a81548173ffffffffffffffffffffffffffffffffffffffff021916908373ffffffffffffffffffffffffffffffffffffffff16021790555081600260006101000a81548173ffffffffffffffffffffffffffffffffffffffff021916908373ffffffffffffffffffffffffffffffffffffffff16021790555080600860006101000a81548160ff0219169083151502179055505050565b61167a611770565b73ffffffffffffffffffffffffffffffffffffffff166116986112bf565b73ffffffffffffffffffffffffffffffffffffffff16146116ee576040517f08c379a00000000000000000000000000000000000000000000000000000000081526004016116e590611d22565b60405180910390fd5b600073ffffffffffffffffffffffffffffffffffffffff168173ffffffffffffffffffffffffffffffffffffffff16141561175e576040517f08c379a000000000000000000000000000000000000000000000000000000000815260040161175590611ca2565b60405180910390fd5b61176781611778565b50565b600a5481565b600033905090565b60008060009054906101000a900473ffffffffffffffffffffffffffffffffffffffff169050816000806101000a81548173ffffffffffffffffffffffffffffffffffffffff021916908373ffffffffffffffffffffffffffffffffffffffff1602179055508173ffffffffffffffffffffffffffffffffffffffff168173ffffffffffffffffffffffffffffffffffffffff167f8be0079c531659141344cd1fd0a4f28419497f9722a3daafe3b4186f6b6457e060405160405180910390a35050565b60008135905061184b81612194565b92915050565b600081359050611860816121ab565b92915050565b600081519050611875816121ab565b92915050565b60008135905061188a816121c2565b92915050565b60008151905061189f816121c2565b92915050565b6000602082840312156118bb576118ba611fd2565b5b60006118c98482850161183c565b91505092915050565b600080604083850312156118e9576118e8611fd2565b5b60006118f78582860161183c565b925050602061190885828601611851565b9150509250929050565b6000806040838503121561192957611928611fd2565b5b60006119378582860161183c565b92505060206119488582860161187b565b9150509250929050565b60006020828403121561196857611967611fd2565b5b600061197684828501611866565b91505092915050565b60006020828403121561199557611994611fd2565b5b60006119a38482850161187b565b91505092915050565b6000602082840312156119c2576119c1611fd2565b5b60006119d084828501611890565b91505092915050565b6119e281611ec3565b82525050565b6119f181611ed5565b82525050565b611a0081611f19565b82525050565b6000611a13601d83611d9d565b9150611a1e82611fd7565b602082019050919050565b6000611a36601583611d9d565b9150611a4182612000565b602082019050919050565b6000611a59602683611d9d565b9150611a6482612029565b604082019050919050565b6000611a7c602083611d9d565b9150611a8782612078565b602082019050919050565b6000611a9f601a83611d9d565b9150611aaa826120a1565b602082019050919050565b6000611ac2602383611d9d565b9150611acd826120ca565b604082019050919050565b6000611ae5602083611d9d565b9150611af082612119565b602082019050919050565b6000611b08601e83611d9d565b9150611b1382612142565b602082019050919050565b6000611b2b601d83611d9d565b9150611b368261216b565b602082019050919050565b611b4a81611f0f565b82525050565b6000602082019050611b6560008301846119d9565b92915050565b6000606082019050611b8060008301866119d9565b611b8d60208301856119d9565b611b9a6040830184611b41565b949350505050565b6000604082019050611bb760008301856119d9565b611bc46020830184611b41565b9392505050565b6000606082019050611be060008301866119d9565b611bed6020830185611b41565b611bfa60408301846119d9565b949350505050565b6000608082019050611c1760008301876119d9565b611c246020830186611b41565b611c3160408301856119d9565b611c3e60608301846119f7565b95945050505050565b6000602082019050611c5c60008301846119e8565b92915050565b60006020820190508181036000830152611c7b81611a06565b9050919050565b60006020820190508181036000830152611c9b81611a29565b9050919050565b60006020820190508181036000830152611cbb81611a4c565b9050919050565b60006020820190508181036000830152611cdb81611a6f565b9050919050565b60006020820190508181036000830152611cfb81611a92565b9050919050565b60006020820190508181036000830152611d1b81611ab5565b9050919050565b60006020820190508181036000830152611d3b81611ad8565b9050919050565b60006020820190508181036000830152611d5b81611afb565b9050919050565b60006020820190508181036000830152611d7b81611b1e565b9050919050565b6000602082019050611d976000830184611b41565b92915050565b600082825260208201905092915050565b6000611db982611f0f565b9150611dc483611f0f565b9250827fffffffffffffffffffffffffffffffffffffffffffffffffffffffffffffffff03821115611df957611df8611f74565b5b828201905092915050565b6000611e0f82611f0f565b9150611e1a83611f0f565b925082611e2a57611e29611fa3565b5b828204905092915050565b6000611e4082611f0f565b9150611e4b83611f0f565b9250817fffffffffffffffffffffffffffffffffffffffffffffffffffffffffffffffff0483118215151615611e8457611e83611f74565b5b828202905092915050565b6000611e9a82611f0f565b9150611ea583611f0f565b925082821015611eb857611eb7611f74565b5b828203905092915050565b6000611ece82611eef565b9050919050565b60008115159050919050565b600061ffff82169050919050565b600073ffffffffffffffffffffffffffffffffffffffff82169050919050565b6000819050919050565b6000611f2482611ee1565b9050919050565b6000611f3682611f0f565b91507fffffffffffffffffffffffffffffffffffffffffffffffffffffffffffffffff821415611f6957611f68611f74565b5b600182019050919050565b7f4e487b7100000000000000000000000000000000000000000000000000000000600052601160045260246000fd5b7f4e487b7100000000000000000000000000000000000000000000000000000000600052601260045260246000fd5b600080fd5b7f46455252593a2043414e275420555345205a45524f2041444452455353000000600082015250565b7f46455252593a205041594d454e54204641494c45440000000000000000000000600082015250565b7f4f776e61626c653a206e6577206f776e657220697320746865207a65726f206160008201527f6464726573730000000000000000000000000000000000000000000000000000602082015250565b7f46455252593a2050415920534f4d452044414920544f20535542534352494245600082015250565b7f46455252593a20444149205749544844524157204641494c4544000000000000600082015250565b7f46455252593a205a45524f20414444524553532043414e27542053554253435260008201527f4942450000000000000000000000000000000000000000000000000000000000602082015250565b7f4f776e61626c653a2063616c6c6572206973206e6f7420746865206f776e6572600082015250565b7f46455252593a205749544844524157204d4f5245205448414e205a45524f0000600082015250565b7f46455252593a204445504f534954204d4f5245205448414e205a45524f000000600082015250565b61219d81611ec3565b81146121a857600080fd5b50565b6121b481611ed5565b81146121bf57600080fd5b50565b6121cb81611f0f565b81146121d657600080fd5b5056fea2646970667358221220d56c4e134e613a805861ef10d0025fd6aff717fcd1e7d60cef98405d848344b264736f6c63430008060033",
  "linkReferences": {},
  "deployedLinkReferences": {}
}