{
  "_format": "hh-sol-artifact-1",
  "contractName": "Ferry",
  "sourceName": "contracts/Ferry.sol",
  "abi": [
    {
      "inputs": [
        {
          "internalType": "uint256",
          "name": "_annualFee",
          "type": "uint256"
        },
        {
          "internalType": "uint256",
          "name": "_nftThreshold",
          "type": "uint256"
        },
        {
          "internalType": "address",
          "name": "_dai",
          "type": "address"
        },
        {
          "internalType": "address",
          "name": "_lendingPool",
          "type": "address"
        },
        {
          "internalType": "address",
          "name": "_nftMinter",
          "type": "address"
        }
      ],
      "stateMutability": "nonpayable",
      "type": "constructor"
    },
    {
      "anonymous": false,
      "inputs": [
        {
          "indexed": true,
          "internalType": "address",
          "name": "previousOwner",
          "type": "address"
        },
        {
          "indexed": true,
          "internalType": "address",
          "name": "newOwner",
          "type": "address"
        }
      ],
      "name": "OwnershipTransferred",
      "type": "event"
    },
    {
      "inputs": [],
      "name": "YEAR",
      "outputs": [
        {
          "internalType": "uint256",
          "name": "",
          "type": "uint256"
        }
      ],
      "stateMutability": "view",
      "type": "function"
    },
    {
      "inputs": [],
      "name": "annualFee",
      "outputs": [
        {
          "internalType": "uint256",
          "name": "",
          "type": "uint256"
        }
      ],
      "stateMutability": "view",
      "type": "function"
    },
    {
      "inputs": [],
      "name": "daiAddress",
      "outputs": [
        {
          "internalType": "address",
          "name": "",
          "type": "address"
        }
      ],
      "stateMutability": "view",
      "type": "function"
    },
    {
      "inputs": [
        {
          "internalType": "uint256",
          "name": "_amount",
          "type": "uint256"
        }
      ],
      "name": "depositInAave",
      "outputs": [],
      "stateMutability": "nonpayable",
      "type": "function"
    },
    {
      "inputs": [
        {
          "internalType": "address",
          "name": "_account",
          "type": "address"
        }
      ],
      "name": "getAccountNFT",
      "outputs": [
        {
          "internalType": "bool",
          "name": "",
          "type": "bool"
        }
      ],
      "stateMutability": "view",
      "type": "function"
    },
    {
      "inputs": [
        {
          "internalType": "address",
          "name": "_account",
          "type": "address"
        }
      ],
      "name": "getMembershipExpiryTime",
      "outputs": [
        {
          "internalType": "uint256",
          "name": "",
          "type": "uint256"
        }
      ],
      "stateMutability": "view",
      "type": "function"
    },
    {
      "inputs": [],
      "name": "maxMembershipPeriod",
      "outputs": [
        {
          "internalType": "uint256",
          "name": "",
          "type": "uint256"
        }
      ],
      "stateMutability": "view",
      "type": "function"
    },
    {
      "inputs": [],
      "name": "nftThresholdPayment",
      "outputs": [
        {
          "internalType": "uint256",
          "name": "",
          "type": "uint256"
        }
      ],
      "stateMutability": "view",
      "type": "function"
    },
    {
      "inputs": [],
      "name": "nftsActive",
      "outputs": [
        {
          "internalType": "bool",
          "name": "",
          "type": "bool"
        }
      ],
      "stateMutability": "view",
      "type": "function"
    },
    {
      "inputs": [],
      "name": "owner",
      "outputs": [
        {
          "internalType": "address",
          "name": "",
          "type": "address"
        }
      ],
      "stateMutability": "view",
      "type": "function"
    },
    {
      "inputs": [
        {
          "internalType": "address",
          "name": "_account",
          "type": "address"
        },
        {
          "internalType": "uint256",
          "name": "_amount",
          "type": "uint256"
        }
      ],
      "name": "paySubscription",
      "outputs": [],
      "stateMutability": "nonpayable",
      "type": "function"
    },
    {
      "inputs": [],
      "name": "renounceOwnership",
      "outputs": [],
      "stateMutability": "nonpayable",
      "type": "function"
    },
    {
      "inputs": [
        {
          "internalType": "uint256",
          "name": "_annualFee",
          "type": "uint256"
        }
      ],
      "name": "setAnnualFee",
      "outputs": [],
      "stateMutability": "nonpayable",
      "type": "function"
    },
    {
      "inputs": [
        {
          "internalType": "address",
          "name": "_lendingPool",
          "type": "address"
        }
      ],
      "name": "setLendingPool",
      "outputs": [],
      "stateMutability": "nonpayable",
      "type": "function"
    },
    {
      "inputs": [
        {
          "internalType": "uint256",
          "name": "_maxPeriod",
          "type": "uint256"
        }
      ],
      "name": "setMaxMembershipPeriod",
      "outputs": [],
      "stateMutability": "nonpayable",
      "type": "function"
    },
    {
      "inputs": [
        {
          "internalType": "address",
          "name": "_minter",
          "type": "address"
        },
        {
          "internalType": "bool",
          "name": "_nftsActive",
          "type": "bool"
        }
      ],
      "name": "setNFTMinter",
      "outputs": [],
      "stateMutability": "nonpayable",
      "type": "function"
    },
    {
      "inputs": [
        {
          "internalType": "uint256",
          "name": "_threshold",
          "type": "uint256"
        }
      ],
      "name": "setNftThresholdPayment",
      "outputs": [],
      "stateMutability": "nonpayable",
      "type": "function"
    },
    {
      "inputs": [
        {
          "internalType": "address",
          "name": "newOwner",
          "type": "address"
        }
      ],
      "name": "transferOwnership",
      "outputs": [],
      "stateMutability": "nonpayable",
      "type": "function"
    },
    {
      "inputs": [
        {
          "internalType": "uint256",
          "name": "_amount",
          "type": "uint256"
        }
      ],
      "name": "withdrawFromAave",
      "outputs": [],
      "stateMutability": "nonpayable",
      "type": "function"
    }
  ],
  "bytecode": "0x60806040527fffffffffffffffffffffffffffffffffffffffffffffffffffffffffffffffff6006553480156200003557600080fd5b50604051620021d8380380620021d883398181016040528101906200005b9190620003b1565b6200007b6200006f6200026e60201b60201c565b6200027660201b60201c565b846005819055508360078190555082600360006101000a81548173ffffffffffffffffffffffffffffffffffffffff021916908373ffffffffffffffffffffffffffffffffffffffff16021790555082600460006101000a81548173ffffffffffffffffffffffffffffffffffffffff021916908373ffffffffffffffffffffffffffffffffffffffff16021790555081600260006101000a81548173ffffffffffffffffffffffffffffffffffffffff021916908373ffffffffffffffffffffffffffffffffffffffff16021790555080600160006101000a81548173ffffffffffffffffffffffffffffffffffffffff021916908373ffffffffffffffffffffffffffffffffffffffff160217905550600360009054906101000a900473ffffffffffffffffffffffffffffffffffffffff1673ffffffffffffffffffffffffffffffffffffffff1663095ea7b3837fffffffffffffffffffffffffffffffffffffffffffffffffffffffffffffffff6040518363ffffffff1660e01b81526004016200020c9291906200045b565b602060405180830381600087803b1580156200022757600080fd5b505af11580156200023c573d6000803e3d6000fd5b505050506040513d601f19601f820116820180604052508101906200026291906200037f565b50505050505062000525565b600033905090565b60008060009054906101000a900473ffffffffffffffffffffffffffffffffffffffff169050816000806101000a81548173ffffffffffffffffffffffffffffffffffffffff021916908373ffffffffffffffffffffffffffffffffffffffff1602179055508173ffffffffffffffffffffffffffffffffffffffff168173ffffffffffffffffffffffffffffffffffffffff167f8be0079c531659141344cd1fd0a4f28419497f9722a3daafe3b4186f6b6457e060405160405180910390a35050565b6000815190506200034b81620004d7565b92915050565b6000815190506200036281620004f1565b92915050565b60008151905062000379816200050b565b92915050565b600060208284031215620003985762000397620004d2565b5b6000620003a88482850162000351565b91505092915050565b600080600080600060a08688031215620003d057620003cf620004d2565b5b6000620003e08882890162000368565b9550506020620003f38882890162000368565b945050604062000406888289016200033a565b935050606062000419888289016200033a565b92505060806200042c888289016200033a565b9150509295509295909350565b620004448162000488565b82525050565b6200045581620004c8565b82525050565b600060408201905062000472600083018562000439565b6200048160208301846200044a565b9392505050565b60006200049582620004a8565b9050919050565b60008115159050919050565b600073ffffffffffffffffffffffffffffffffffffffff82169050919050565b6000819050919050565b600080fd5b620004e28162000488565b8114620004ee57600080fd5b50565b620004fc816200049c565b81146200050857600080fd5b50565b6200051681620004c8565b81146200052257600080fd5b50565b611ca380620005356000396000f3fe608060405234801561001057600080fd5b50600436106101215760003560e01c8063715018a6116100ad5780638da5cb5b116100715780638da5cb5b146102d0578063ad21f008146102ee578063d2720e691461030a578063dee0297f14610326578063f2fde38b1461034257610121565b8063715018a614610240578063773778081461024a5780637b7182ef1461027a578063839145401461029657806388b89a7d146102b457610121565b806334cac051116100f457806334cac0511461019c5780633c91292b146101cc5780634a0ab3db146101e857806358980a2614610206578063688f237b1461022457610121565b8063113aa8b1146101265780631dfda2e714610142578063294bd738146101605780632c3872751461017e575b600080fd5b610140600480360381019061013b91906113ee565b61035e565b005b61014a61055e565b6040516101579190611888565b60405180910390f35b610168610564565b6040516101759190611888565b60405180910390f35b61018661056a565b6040516101939190611676565b60405180910390f35b6101b660048036038101906101b191906113ee565b610590565b6040516101c3919061176d565b60405180910390f35b6101e660048036038101906101e1919061145b565b6105e6565b005b6101f0610abb565b6040516101fd919061176d565b60405180910390f35b61020e610ace565b60405161021b9190611888565b60405180910390f35b61023e600480360381019061023991906114c8565b610ad4565b005b610248610c6a565b005b610264600480360381019061025f91906113ee565b610cf2565b6040516102719190611888565b60405180910390f35b610294600480360381019061028f91906114c8565b610d3b565b005b61029e610dc1565b6040516102ab9190611888565b60405180910390f35b6102ce60048036038101906102c991906114c8565b610dc9565b005b6102d8610e4f565b6040516102e59190611676565b60405180910390f35b610308600480360381019061030391906114c8565b610e78565b005b610324600480360381019061031f91906114c8565b610efe565b005b610340600480360381019061033b919061141b565b611076565b005b61035c600480360381019061035791906113ee565b6111c1565b005b6103666112b9565b73ffffffffffffffffffffffffffffffffffffffff16610384610e4f565b73ffffffffffffffffffffffffffffffffffffffff16146103da576040517f08c379a00000000000000000000000000000000000000000000000000000000081526004016103d190611828565b60405180910390fd5b600073ffffffffffffffffffffffffffffffffffffffff168173ffffffffffffffffffffffffffffffffffffffff16141561044a576040517f08c379a000000000000000000000000000000000000000000000000000000000815260040161044190611788565b60405180910390fd5b80600260006101000a81548173ffffffffffffffffffffffffffffffffffffffff021916908373ffffffffffffffffffffffffffffffffffffffff160217905550600360009054906101000a900473ffffffffffffffffffffffffffffffffffffffff1673ffffffffffffffffffffffffffffffffffffffff1663095ea7b3827fffffffffffffffffffffffffffffffffffffffffffffffffffffffffffffffff6040518363ffffffff1660e01b81526004016105089291906116c8565b602060405180830381600087803b15801561052257600080fd5b505af1158015610536573d6000803e3d6000fd5b505050506040513d601f19601f8201168201806040525081019061055a919061149b565b5050565b60055481565b60075481565b600460009054906101000a900473ffffffffffffffffffffffffffffffffffffffff1681565b6000600960008373ffffffffffffffffffffffffffffffffffffffff1673ffffffffffffffffffffffffffffffffffffffff16815260200190815260200160002060009054906101000a900460ff169050919050565b600073ffffffffffffffffffffffffffffffffffffffff168273ffffffffffffffffffffffffffffffffffffffff161415610656576040517f08c379a000000000000000000000000000000000000000000000000000000000815260040161064d90611808565b60405180910390fd5b60008111610699576040517f08c379a0000000000000000000000000000000000000000000000000000000008152600401610690906117e8565b60405180910390fd5b600360009054906101000a900473ffffffffffffffffffffffffffffffffffffffff1673ffffffffffffffffffffffffffffffffffffffff166323b872dd3330846040518463ffffffff1660e01b81526004016106f893929190611691565b602060405180830381600087803b15801561071257600080fd5b505af1158015610726573d6000803e3d6000fd5b505050506040513d601f19601f8201168201806040525081019061074a919061149b565b610789576040517f08c379a0000000000000000000000000000000000000000000000000000000008152600401610780906117a8565b60405180910390fd5b6000600554826301e1338061079e919061193b565b6107a8919061190a565b905042600860008573ffffffffffffffffffffffffffffffffffffffff1673ffffffffffffffffffffffffffffffffffffffff168152602001908152602001600020541015610876576006548111156108225760065490506005546301e13380600654610815919061190a565b61081f919061193b565b91505b804261082e91906118b4565b600860008573ffffffffffffffffffffffffffffffffffffffff1673ffffffffffffffffffffffffffffffffffffffff16815260200190815260200160002081905550610955565b6000600860008573ffffffffffffffffffffffffffffffffffffffff1673ffffffffffffffffffffffffffffffffffffffff16815260200190815260200160002054600654426108c691906118b4565b6108d09190611995565b9050808211156108fd578091506005546301e13380826108f0919061190a565b6108fa919061193b565b92505b81600860008673ffffffffffffffffffffffffffffffffffffffff1673ffffffffffffffffffffffffffffffffffffffff168152602001908152602001600020600082825461094c91906118b4565b92505081905550505b600160149054906101000a900460ff16801561097357506007548210155b80156109c95750600960008473ffffffffffffffffffffffffffffffffffffffff1673ffffffffffffffffffffffffffffffffffffffff16815260200190815260200160002060009054906101000a900460ff16155b15610ab657600160009054906101000a900473ffffffffffffffffffffffffffffffffffffffff1673ffffffffffffffffffffffffffffffffffffffff166340c10f1984846040518363ffffffff1660e01b8152600401610a2b9291906116c8565b600060405180830381600087803b158015610a4557600080fd5b505af1158015610a59573d6000803e3d6000fd5b505050506001600960008573ffffffffffffffffffffffffffffffffffffffff1673ffffffffffffffffffffffffffffffffffffffff16815260200190815260200160002060006101000a81548160ff0219169083151502179055505b505050565b600160149054906101000a900460ff1681565b60065481565b610adc6112b9565b73ffffffffffffffffffffffffffffffffffffffff16610afa610e4f565b73ffffffffffffffffffffffffffffffffffffffff1614610b50576040517f08c379a0000000000000000000000000000000000000000000000000000000008152600401610b4790611828565b60405180910390fd5b60008111610b93576040517f08c379a0000000000000000000000000000000000000000000000000000000008152600401610b8a90611848565b60405180910390fd5b600260009054906101000a900473ffffffffffffffffffffffffffffffffffffffff1673ffffffffffffffffffffffffffffffffffffffff166369328dec600460009054906101000a900473ffffffffffffffffffffffffffffffffffffffff1683306040518463ffffffff1660e01b8152600401610c14939291906116f1565b602060405180830381600087803b158015610c2e57600080fd5b505af1158015610c42573d6000803e3d6000fd5b505050506040513d601f19601f82011682018060405250810190610c6691906114f5565b5050565b610c726112b9565b73ffffffffffffffffffffffffffffffffffffffff16610c90610e4f565b73ffffffffffffffffffffffffffffffffffffffff1614610ce6576040517f08c379a0000000000000000000000000000000000000000000000000000000008152600401610cdd90611828565b60405180910390fd5b610cf060006112c1565b565b6000600860008373ffffffffffffffffffffffffffffffffffffffff1673ffffffffffffffffffffffffffffffffffffffff168152602001908152602001600020549050919050565b610d436112b9565b73ffffffffffffffffffffffffffffffffffffffff16610d61610e4f565b73ffffffffffffffffffffffffffffffffffffffff1614610db7576040517f08c379a0000000000000000000000000000000000000000000000000000000008152600401610dae90611828565b60405180910390fd5b8060068190555050565b6301e1338081565b610dd16112b9565b73ffffffffffffffffffffffffffffffffffffffff16610def610e4f565b73ffffffffffffffffffffffffffffffffffffffff1614610e45576040517f08c379a0000000000000000000000000000000000000000000000000000000008152600401610e3c90611828565b60405180910390fd5b8060058190555050565b60008060009054906101000a900473ffffffffffffffffffffffffffffffffffffffff16905090565b610e806112b9565b73ffffffffffffffffffffffffffffffffffffffff16610e9e610e4f565b73ffffffffffffffffffffffffffffffffffffffff1614610ef4576040517f08c379a0000000000000000000000000000000000000000000000000000000008152600401610eeb90611828565b60405180910390fd5b8060078190555050565b610f066112b9565b73ffffffffffffffffffffffffffffffffffffffff16610f24610e4f565b73ffffffffffffffffffffffffffffffffffffffff1614610f7a576040517f08c379a0000000000000000000000000000000000000000000000000000000008152600401610f7190611828565b60405180910390fd5b60008111610fbd576040517f08c379a0000000000000000000000000000000000000000000000000000000008152600401610fb490611868565b60405180910390fd5b600260009054906101000a900473ffffffffffffffffffffffffffffffffffffffff1673ffffffffffffffffffffffffffffffffffffffff1663e8eda9df600460009054906101000a900473ffffffffffffffffffffffffffffffffffffffff16833060006040518563ffffffff1660e01b81526004016110419493929190611728565b600060405180830381600087803b15801561105b57600080fd5b505af115801561106f573d6000803e3d6000fd5b5050505050565b61107e6112b9565b73ffffffffffffffffffffffffffffffffffffffff1661109c610e4f565b73ffffffffffffffffffffffffffffffffffffffff16146110f2576040517f08c379a00000000000000000000000000000000000000000000000000000000081526004016110e990611828565b60405180910390fd5b600073ffffffffffffffffffffffffffffffffffffffff168273ffffffffffffffffffffffffffffffffffffffff161415611162576040517f08c379a000000000000000000000000000000000000000000000000000000000815260040161115990611788565b60405180910390fd5b81600160006101000a81548173ffffffffffffffffffffffffffffffffffffffff021916908373ffffffffffffffffffffffffffffffffffffffff16021790555080600160146101000a81548160ff0219169083151502179055505050565b6111c96112b9565b73ffffffffffffffffffffffffffffffffffffffff166111e7610e4f565b73ffffffffffffffffffffffffffffffffffffffff161461123d576040517f08c379a000000000000000000000000000000000000000000000000000000000815260040161123490611828565b60405180910390fd5b600073ffffffffffffffffffffffffffffffffffffffff168173ffffffffffffffffffffffffffffffffffffffff1614156112ad576040517f08c379a00000000000000000000000000000000000000000000000000000000081526004016112a4906117c8565b60405180910390fd5b6112b6816112c1565b50565b600033905090565b60008060009054906101000a900473ffffffffffffffffffffffffffffffffffffffff169050816000806101000a81548173ffffffffffffffffffffffffffffffffffffffff021916908373ffffffffffffffffffffffffffffffffffffffff1602179055508173ffffffffffffffffffffffffffffffffffffffff168173ffffffffffffffffffffffffffffffffffffffff167f8be0079c531659141344cd1fd0a4f28419497f9722a3daafe3b4186f6b6457e060405160405180910390a35050565b60008135905061139481611c28565b92915050565b6000813590506113a981611c3f565b92915050565b6000815190506113be81611c3f565b92915050565b6000813590506113d381611c56565b92915050565b6000815190506113e881611c56565b92915050565b60006020828403121561140457611403611a8f565b5b600061141284828501611385565b91505092915050565b6000806040838503121561143257611431611a8f565b5b600061144085828601611385565b92505060206114518582860161139a565b9150509250929050565b6000806040838503121561147257611471611a8f565b5b600061148085828601611385565b9250506020611491858286016113c4565b9150509250929050565b6000602082840312156114b1576114b0611a8f565b5b60006114bf848285016113af565b91505092915050565b6000602082840312156114de576114dd611a8f565b5b60006114ec848285016113c4565b91505092915050565b60006020828403121561150b5761150a611a8f565b5b6000611519848285016113d9565b91505092915050565b61152b816119c9565b82525050565b61153a816119db565b82525050565b61154981611a1f565b82525050565b600061155c601d836118a3565b915061156782611a94565b602082019050919050565b600061157f6015836118a3565b915061158a82611abd565b602082019050919050565b60006115a26026836118a3565b91506115ad82611ae6565b604082019050919050565b60006115c56020836118a3565b91506115d082611b35565b602082019050919050565b60006115e86023836118a3565b91506115f382611b5e565b604082019050919050565b600061160b6020836118a3565b915061161682611bad565b602082019050919050565b600061162e601e836118a3565b915061163982611bd6565b602082019050919050565b6000611651601d836118a3565b915061165c82611bff565b602082019050919050565b61167081611a15565b82525050565b600060208201905061168b6000830184611522565b92915050565b60006060820190506116a66000830186611522565b6116b36020830185611522565b6116c06040830184611667565b949350505050565b60006040820190506116dd6000830185611522565b6116ea6020830184611667565b9392505050565b60006060820190506117066000830186611522565b6117136020830185611667565b6117206040830184611522565b949350505050565b600060808201905061173d6000830187611522565b61174a6020830186611667565b6117576040830185611522565b6117646060830184611540565b95945050505050565b60006020820190506117826000830184611531565b92915050565b600060208201905081810360008301526117a18161154f565b9050919050565b600060208201905081810360008301526117c181611572565b9050919050565b600060208201905081810360008301526117e181611595565b9050919050565b60006020820190508181036000830152611801816115b8565b9050919050565b60006020820190508181036000830152611821816115db565b9050919050565b60006020820190508181036000830152611841816115fe565b9050919050565b6000602082019050818103600083015261186181611621565b9050919050565b6000602082019050818103600083015261188181611644565b9050919050565b600060208201905061189d6000830184611667565b92915050565b600082825260208201905092915050565b60006118bf82611a15565b91506118ca83611a15565b9250827fffffffffffffffffffffffffffffffffffffffffffffffffffffffffffffffff038211156118ff576118fe611a31565b5b828201905092915050565b600061191582611a15565b915061192083611a15565b9250826119305761192f611a60565b5b828204905092915050565b600061194682611a15565b915061195183611a15565b9250817fffffffffffffffffffffffffffffffffffffffffffffffffffffffffffffffff048311821515161561198a57611989611a31565b5b828202905092915050565b60006119a082611a15565b91506119ab83611a15565b9250828210156119be576119bd611a31565b5b828203905092915050565b60006119d4826119f5565b9050919050565b60008115159050919050565b600061ffff82169050919050565b600073ffffffffffffffffffffffffffffffffffffffff82169050919050565b6000819050919050565b6000611a2a826119e7565b9050919050565b7f4e487b7100000000000000000000000000000000000000000000000000000000600052601160045260246000fd5b7f4e487b7100000000000000000000000000000000000000000000000000000000600052601260045260246000fd5b600080fd5b7f46455252593a2043414e275420555345205a45524f2041444452455353000000600082015250565b7f46455252593a205041594d454e54204641494c45440000000000000000000000600082015250565b7f4f776e61626c653a206e6577206f776e657220697320746865207a65726f206160008201527f6464726573730000000000000000000000000000000000000000000000000000602082015250565b7f46455252593a2050415920534f4d452044414920544f20535542534352494245600082015250565b7f46455252593a205a45524f20414444524553532043414e27542053554253435260008201527f4942450000000000000000000000000000000000000000000000000000000000602082015250565b7f4f776e61626c653a2063616c6c6572206973206e6f7420746865206f776e6572600082015250565b7f46455252593a205749544844524157204d4f5245205448414e205a45524f0000600082015250565b7f46455252593a204445504f534954204d4f5245205448414e205a45524f000000600082015250565b611c31816119c9565b8114611c3c57600080fd5b50565b611c48816119db565b8114611c5357600080fd5b50565b611c5f81611a15565b8114611c6a57600080fd5b5056fea26469706673582212208dc311c063304ff5d292885afba4f317a9a4ecb4a1a15e2cab1fc9f1a3d0865c64736f6c63430008060033",
  "linkReferences": {},
  "deployedLinkReferences": {}
}