{
  "_format": "hh-sol-artifact-1",
  "contractName": "Ferry",
  "sourceName": "contracts/Ferry.sol",
  "abi": [
    {
      "inputs": [
        {
          "internalType": "uint256",
          "name": "_annualFee",
          "type": "uint256"
        }
      ],
      "stateMutability": "nonpayable",
      "type": "constructor"
    },
    {
      "anonymous": false,
      "inputs": [
        {
          "indexed": true,
          "internalType": "address",
          "name": "previousOwner",
          "type": "address"
        },
        {
          "indexed": true,
          "internalType": "address",
          "name": "newOwner",
          "type": "address"
        }
      ],
      "name": "OwnershipTransferred",
      "type": "event"
    },
    {
      "inputs": [],
      "name": "YEAR",
      "outputs": [
        {
          "internalType": "uint256",
          "name": "",
          "type": "uint256"
        }
      ],
      "stateMutability": "view",
      "type": "function"
    },
    {
      "inputs": [],
      "name": "annualFee",
      "outputs": [
        {
          "internalType": "uint256",
          "name": "",
          "type": "uint256"
        }
      ],
      "stateMutability": "view",
      "type": "function"
    },
    {
      "inputs": [
        {
          "internalType": "uint256",
          "name": "_amount",
          "type": "uint256"
        }
      ],
      "name": "depositInAave",
      "outputs": [],
      "stateMutability": "nonpayable",
      "type": "function"
    },
    {
      "inputs": [
        {
          "internalType": "address",
          "name": "",
          "type": "address"
        }
      ],
      "name": "memberships",
      "outputs": [
        {
          "internalType": "uint256",
          "name": "",
          "type": "uint256"
        }
      ],
      "stateMutability": "view",
      "type": "function"
    },
    {
      "inputs": [],
      "name": "owner",
      "outputs": [
        {
          "internalType": "address",
          "name": "",
          "type": "address"
        }
      ],
      "stateMutability": "view",
      "type": "function"
    },
    {
      "inputs": [
        {
          "internalType": "address",
          "name": "_account",
          "type": "address"
        },
        {
          "internalType": "uint256",
          "name": "_amount",
          "type": "uint256"
        }
      ],
      "name": "paySubscription",
      "outputs": [],
      "stateMutability": "nonpayable",
      "type": "function"
    },
    {
      "inputs": [],
      "name": "renounceOwnership",
      "outputs": [],
      "stateMutability": "nonpayable",
      "type": "function"
    },
    {
      "inputs": [
        {
          "internalType": "uint256",
          "name": "_annualFee",
          "type": "uint256"
        }
      ],
      "name": "setAnnualFee",
      "outputs": [],
      "stateMutability": "nonpayable",
      "type": "function"
    },
    {
      "inputs": [
        {
          "internalType": "address",
          "name": "newOwner",
          "type": "address"
        }
      ],
      "name": "transferOwnership",
      "outputs": [],
      "stateMutability": "nonpayable",
      "type": "function"
    },
    {
      "inputs": [
        {
          "internalType": "uint256",
          "name": "_amount",
          "type": "uint256"
        }
      ],
      "name": "withdrawFromAave",
      "outputs": [],
      "stateMutability": "nonpayable",
      "type": "function"
    }
  ],
  "bytecode": "0x608060405234801561001057600080fd5b50604051610db8380380610db88339818101604052810190610032919061013c565b61004e61004361005b60201b60201c565b61006360201b60201c565b806001819055505061018f565b600033905090565b60008060009054906101000a900473ffffffffffffffffffffffffffffffffffffffff169050816000806101000a81548173ffffffffffffffffffffffffffffffffffffffff021916908373ffffffffffffffffffffffffffffffffffffffff1602179055508173ffffffffffffffffffffffffffffffffffffffff168173ffffffffffffffffffffffffffffffffffffffff167f8be0079c531659141344cd1fd0a4f28419497f9722a3daafe3b4186f6b6457e060405160405180910390a35050565b60008151905061013681610178565b92915050565b60006020828403121561015257610151610173565b5b600061016084828501610127565b91505092915050565b6000819050919050565b600080fd5b61018181610169565b811461018c57600080fd5b50565b610c1a8061019e6000396000f3fe608060405234801561001057600080fd5b506004361061009e5760003560e01c80638391454011610066578063839145401461013357806388b89a7d146101515780638da5cb5b1461016d578063d2720e691461018b578063f2fde38b146101a75761009e565b80631dfda2e7146100a35780633c91292b146100c1578063688f237b146100dd578063715018a6146100f957806373d9879914610103575b600080fd5b6100ab6101c3565b6040516100b8919061091a565b60405180910390f35b6100db60048036038101906100d69190610768565b6101c9565b005b6100f760048036038101906100f291906107a8565b6102f8565b005b610101610377565b005b61011d6004803603810190610118919061073b565b6103ff565b60405161012a919061091a565b60405180910390f35b61013b610417565b604051610148919061091a565b60405180910390f35b61016b600480360381019061016691906107a8565b61041f565b005b6101756104a5565b604051610182919061087f565b60405180910390f35b6101a560048036038101906101a091906107a8565b6104ce565b005b6101c160048036038101906101bc919061073b565b61054d565b005b60015481565b600073ffffffffffffffffffffffffffffffffffffffff168273ffffffffffffffffffffffffffffffffffffffff161415610239576040517f08c379a0000000000000000000000000000000000000000000000000000000008152600401610230906108da565b60405180910390fd5b6000811161027c576040517f08c379a0000000000000000000000000000000000000000000000000000000008152600401610273906108ba565b60405180910390fd5b6000600154826301e1338061029191906109cd565b61029b919061099c565b905080600260008573ffffffffffffffffffffffffffffffffffffffff1673ffffffffffffffffffffffffffffffffffffffff16815260200190815260200160002060008282546102ec9190610946565b92505081905550505050565b610300610645565b73ffffffffffffffffffffffffffffffffffffffff1661031e6104a5565b73ffffffffffffffffffffffffffffffffffffffff1614610374576040517f08c379a000000000000000000000000000000000000000000000000000000000815260040161036b906108fa565b60405180910390fd5b50565b61037f610645565b73ffffffffffffffffffffffffffffffffffffffff1661039d6104a5565b73ffffffffffffffffffffffffffffffffffffffff16146103f3576040517f08c379a00000000000000000000000000000000000000000000000000000000081526004016103ea906108fa565b60405180910390fd5b6103fd600061064d565b565b60026020528060005260406000206000915090505481565b6301e1338081565b610427610645565b73ffffffffffffffffffffffffffffffffffffffff166104456104a5565b73ffffffffffffffffffffffffffffffffffffffff161461049b576040517f08c379a0000000000000000000000000000000000000000000000000000000008152600401610492906108fa565b60405180910390fd5b8060018190555050565b60008060009054906101000a900473ffffffffffffffffffffffffffffffffffffffff16905090565b6104d6610645565b73ffffffffffffffffffffffffffffffffffffffff166104f46104a5565b73ffffffffffffffffffffffffffffffffffffffff161461054a576040517f08c379a0000000000000000000000000000000000000000000000000000000008152600401610541906108fa565b60405180910390fd5b50565b610555610645565b73ffffffffffffffffffffffffffffffffffffffff166105736104a5565b73ffffffffffffffffffffffffffffffffffffffff16146105c9576040517f08c379a00000000000000000000000000000000000000000000000000000000081526004016105c0906108fa565b60405180910390fd5b600073ffffffffffffffffffffffffffffffffffffffff168173ffffffffffffffffffffffffffffffffffffffff161415610639576040517f08c379a00000000000000000000000000000000000000000000000000000000081526004016106309061089a565b60405180910390fd5b6106428161064d565b50565b600033905090565b60008060009054906101000a900473ffffffffffffffffffffffffffffffffffffffff169050816000806101000a81548173ffffffffffffffffffffffffffffffffffffffff021916908373ffffffffffffffffffffffffffffffffffffffff1602179055508173ffffffffffffffffffffffffffffffffffffffff168173ffffffffffffffffffffffffffffffffffffffff167f8be0079c531659141344cd1fd0a4f28419497f9722a3daafe3b4186f6b6457e060405160405180910390a35050565b60008135905061072081610bb6565b92915050565b60008135905061073581610bcd565b92915050565b60006020828403121561075157610750610ac1565b5b600061075f84828501610711565b91505092915050565b6000806040838503121561077f5761077e610ac1565b5b600061078d85828601610711565b925050602061079e85828601610726565b9150509250929050565b6000602082840312156107be576107bd610ac1565b5b60006107cc84828501610726565b91505092915050565b6107de81610a27565b82525050565b60006107f1602683610935565b91506107fc82610ac6565b604082019050919050565b6000610814602083610935565b915061081f82610b15565b602082019050919050565b6000610837602383610935565b915061084282610b3e565b604082019050919050565b600061085a602083610935565b915061086582610b8d565b602082019050919050565b61087981610a59565b82525050565b600060208201905061089460008301846107d5565b92915050565b600060208201905081810360008301526108b3816107e4565b9050919050565b600060208201905081810360008301526108d381610807565b9050919050565b600060208201905081810360008301526108f38161082a565b9050919050565b600060208201905081810360008301526109138161084d565b9050919050565b600060208201905061092f6000830184610870565b92915050565b600082825260208201905092915050565b600061095182610a59565b915061095c83610a59565b9250827fffffffffffffffffffffffffffffffffffffffffffffffffffffffffffffffff0382111561099157610990610a63565b5b828201905092915050565b60006109a782610a59565b91506109b283610a59565b9250826109c2576109c1610a92565b5b828204905092915050565b60006109d882610a59565b91506109e383610a59565b9250817fffffffffffffffffffffffffffffffffffffffffffffffffffffffffffffffff0483118215151615610a1c57610a1b610a63565b5b828202905092915050565b6000610a3282610a39565b9050919050565b600073ffffffffffffffffffffffffffffffffffffffff82169050919050565b6000819050919050565b7f4e487b7100000000000000000000000000000000000000000000000000000000600052601160045260246000fd5b7f4e487b7100000000000000000000000000000000000000000000000000000000600052601260045260246000fd5b600080fd5b7f4f776e61626c653a206e6577206f776e657220697320746865207a65726f206160008201527f6464726573730000000000000000000000000000000000000000000000000000602082015250565b7f46455252593a2050415920534f4d452044414920544f20535542534352494245600082015250565b7f46455252593a205a45524f20414444524553532043414e27542053554253435260008201527f4942450000000000000000000000000000000000000000000000000000000000602082015250565b7f4f776e61626c653a2063616c6c6572206973206e6f7420746865206f776e6572600082015250565b610bbf81610a27565b8114610bca57600080fd5b50565b610bd681610a59565b8114610be157600080fd5b5056fea26469706673582212201a29e8193f362bbc048427b004a1b1708e82a68396dc7f1c0c08a6df3e20d23d64736f6c63430008060033",
  "linkReferences": {},
  "deployedLinkReferences": {}
}