{
  "_format": "hh-sol-artifact-1",
  "contractName": "FerryTreasury",
  "sourceName": "contracts/FerryTreasury.sol",
  "abi": [
    {
      "inputs": [
        {
          "internalType": "uint256",
          "name": "_annualFee",
          "type": "uint256"
        },
        {
          "internalType": "uint256",
          "name": "_nftThreshold",
          "type": "uint256"
        },
        {
          "internalType": "address",
          "name": "_dai",
          "type": "address"
        },
        {
          "internalType": "address",
          "name": "_lendingPool",
          "type": "address"
        },
        {
          "internalType": "address",
          "name": "_nftMinter",
          "type": "address"
        }
      ],
      "stateMutability": "nonpayable",
      "type": "constructor"
    },
    {
      "anonymous": false,
      "inputs": [
        {
          "indexed": true,
          "internalType": "address",
          "name": "previousOwner",
          "type": "address"
        },
        {
          "indexed": true,
          "internalType": "address",
          "name": "newOwner",
          "type": "address"
        }
      ],
      "name": "OwnershipTransferred",
      "type": "event"
    },
    {
      "inputs": [],
      "name": "YEAR",
      "outputs": [
        {
          "internalType": "uint256",
          "name": "",
          "type": "uint256"
        }
      ],
      "stateMutability": "view",
      "type": "function"
    },
    {
      "inputs": [],
      "name": "annualFee",
      "outputs": [
        {
          "internalType": "uint256",
          "name": "",
          "type": "uint256"
        }
      ],
      "stateMutability": "view",
      "type": "function"
    },
    {
      "inputs": [
        {
          "internalType": "uint256",
          "name": "_amount",
          "type": "uint256"
        }
      ],
      "name": "depositInAave",
      "outputs": [],
      "stateMutability": "nonpayable",
      "type": "function"
    },
    {
      "inputs": [
        {
          "internalType": "address",
          "name": "_account",
          "type": "address"
        }
      ],
      "name": "getMembershipExpiryTime",
      "outputs": [
        {
          "internalType": "uint256",
          "name": "",
          "type": "uint256"
        }
      ],
      "stateMutability": "view",
      "type": "function"
    },
    {
      "inputs": [],
      "name": "nftThresholdPayment",
      "outputs": [
        {
          "internalType": "uint256",
          "name": "",
          "type": "uint256"
        }
      ],
      "stateMutability": "view",
      "type": "function"
    },
    {
      "inputs": [],
      "name": "owner",
      "outputs": [
        {
          "internalType": "address",
          "name": "",
          "type": "address"
        }
      ],
      "stateMutability": "view",
      "type": "function"
    },
    {
      "inputs": [],
      "name": "renounceOwnership",
      "outputs": [],
      "stateMutability": "nonpayable",
      "type": "function"
    },
    {
      "inputs": [
        {
          "internalType": "address",
          "name": "_lendingPool",
          "type": "address"
        }
      ],
      "name": "setLendingPool",
      "outputs": [],
      "stateMutability": "nonpayable",
      "type": "function"
    },
    {
      "inputs": [
        {
          "internalType": "address",
          "name": "newOwner",
          "type": "address"
        }
      ],
      "name": "transferOwnership",
      "outputs": [],
      "stateMutability": "nonpayable",
      "type": "function"
    },
    {
      "inputs": [
        {
          "internalType": "uint256",
          "name": "_amount",
          "type": "uint256"
        }
      ],
      "name": "withdrawFromAave",
      "outputs": [],
      "stateMutability": "nonpayable",
      "type": "function"
    }
  ],
  "bytecode": "0x60806040523480156200001157600080fd5b50604051620013c0380380620013c083398181016040528101906200003791906200034c565b620000576200004b6200020960201b60201c565b6200021160201b60201c565b846004819055508360058190555082600260006101000a81548173ffffffffffffffffffffffffffffffffffffffff021916908373ffffffffffffffffffffffffffffffffffffffff16021790555082600360006101000a81548173ffffffffffffffffffffffffffffffffffffffff021916908373ffffffffffffffffffffffffffffffffffffffff16021790555081600160006101000a81548173ffffffffffffffffffffffffffffffffffffffff021916908373ffffffffffffffffffffffffffffffffffffffff160217905550600260009054906101000a900473ffffffffffffffffffffffffffffffffffffffff1673ffffffffffffffffffffffffffffffffffffffff1663095ea7b3837fffffffffffffffffffffffffffffffffffffffffffffffffffffffffffffffff6040518363ffffffff1660e01b8152600401620001a7929190620003f6565b602060405180830381600087803b158015620001c257600080fd5b505af1158015620001d7573d6000803e3d6000fd5b505050506040513d601f19601f82011682018060405250810190620001fd91906200031a565b505050505050620004c0565b600033905090565b60008060009054906101000a900473ffffffffffffffffffffffffffffffffffffffff169050816000806101000a81548173ffffffffffffffffffffffffffffffffffffffff021916908373ffffffffffffffffffffffffffffffffffffffff1602179055508173ffffffffffffffffffffffffffffffffffffffff168173ffffffffffffffffffffffffffffffffffffffff167f8be0079c531659141344cd1fd0a4f28419497f9722a3daafe3b4186f6b6457e060405160405180910390a35050565b600081519050620002e68162000472565b92915050565b600081519050620002fd816200048c565b92915050565b6000815190506200031481620004a6565b92915050565b6000602082840312156200033357620003326200046d565b5b60006200034384828501620002ec565b91505092915050565b600080600080600060a086880312156200036b576200036a6200046d565b5b60006200037b8882890162000303565b95505060206200038e8882890162000303565b9450506040620003a188828901620002d5565b9350506060620003b488828901620002d5565b9250506080620003c788828901620002d5565b9150509295509295909350565b620003df8162000423565b82525050565b620003f08162000463565b82525050565b60006040820190506200040d6000830185620003d4565b6200041c6020830184620003e5565b9392505050565b6000620004308262000443565b9050919050565b60008115159050919050565b600073ffffffffffffffffffffffffffffffffffffffff82169050919050565b6000819050919050565b600080fd5b6200047d8162000423565b81146200048957600080fd5b50565b620004978162000437565b8114620004a357600080fd5b50565b620004b18162000463565b8114620004bd57600080fd5b50565b610ef080620004d06000396000f3fe608060405234801561001057600080fd5b506004361061009e5760003560e01c80637737780811610066578063773778081461012157806383914540146101515780638da5cb5b1461016f578063d2720e691461018d578063f2fde38b146101a95761009e565b8063113aa8b1146100a35780631dfda2e7146100bf578063294bd738146100dd578063688f237b146100fb578063715018a614610117575b600080fd5b6100bd60048036038101906100b891906109f9565b6101c5565b005b6100c76103c5565b6040516100d49190610ce9565b60405180910390f35b6100e56103cb565b6040516100f29190610ce9565b60405180910390f35b61011560048036038101906101109190610a53565b6103d1565b005b61011f610567565b005b61013b600480360381019061013691906109f9565b6105ef565b6040516101489190610ce9565b60405180910390f35b610159610638565b6040516101669190610ce9565b60405180910390f35b610177610640565b6040516101849190610b89565b60405180910390f35b6101a760048036038101906101a29190610a53565b610669565b005b6101c360048036038101906101be91906109f9565b6107e1565b005b6101cd6108d9565b73ffffffffffffffffffffffffffffffffffffffff166101eb610640565b73ffffffffffffffffffffffffffffffffffffffff1614610241576040517f08c379a000000000000000000000000000000000000000000000000000000000815260040161023890610c89565b60405180910390fd5b600073ffffffffffffffffffffffffffffffffffffffff168173ffffffffffffffffffffffffffffffffffffffff1614156102b1576040517f08c379a00000000000000000000000000000000000000000000000000000000081526004016102a890610c49565b60405180910390fd5b80600160006101000a81548173ffffffffffffffffffffffffffffffffffffffff021916908373ffffffffffffffffffffffffffffffffffffffff160217905550600260009054906101000a900473ffffffffffffffffffffffffffffffffffffffff1673ffffffffffffffffffffffffffffffffffffffff1663095ea7b3827fffffffffffffffffffffffffffffffffffffffffffffffffffffffffffffffff6040518363ffffffff1660e01b815260040161036f929190610ba4565b602060405180830381600087803b15801561038957600080fd5b505af115801561039d573d6000803e3d6000fd5b505050506040513d601f19601f820116820180604052508101906103c19190610a26565b5050565b60045481565b60055481565b6103d96108d9565b73ffffffffffffffffffffffffffffffffffffffff166103f7610640565b73ffffffffffffffffffffffffffffffffffffffff161461044d576040517f08c379a000000000000000000000000000000000000000000000000000000000815260040161044490610c89565b60405180910390fd5b60008111610490576040517f08c379a000000000000000000000000000000000000000000000000000000000815260040161048790610ca9565b60405180910390fd5b600160009054906101000a900473ffffffffffffffffffffffffffffffffffffffff1673ffffffffffffffffffffffffffffffffffffffff166369328dec600360009054906101000a900473ffffffffffffffffffffffffffffffffffffffff1683306040518463ffffffff1660e01b815260040161051193929190610bcd565b602060405180830381600087803b15801561052b57600080fd5b505af115801561053f573d6000803e3d6000fd5b505050506040513d601f19601f820116820180604052508101906105639190610a80565b5050565b61056f6108d9565b73ffffffffffffffffffffffffffffffffffffffff1661058d610640565b73ffffffffffffffffffffffffffffffffffffffff16146105e3576040517f08c379a00000000000000000000000000000000000000000000000000000000081526004016105da90610c89565b60405180910390fd5b6105ed60006108e1565b565b6000600660008373ffffffffffffffffffffffffffffffffffffffff1673ffffffffffffffffffffffffffffffffffffffff168152602001908152602001600020549050919050565b6301e1338081565b60008060009054906101000a900473ffffffffffffffffffffffffffffffffffffffff16905090565b6106716108d9565b73ffffffffffffffffffffffffffffffffffffffff1661068f610640565b73ffffffffffffffffffffffffffffffffffffffff16146106e5576040517f08c379a00000000000000000000000000000000000000000000000000000000081526004016106dc90610c89565b60405180910390fd5b60008111610728576040517f08c379a000000000000000000000000000000000000000000000000000000000815260040161071f90610cc9565b60405180910390fd5b600160009054906101000a900473ffffffffffffffffffffffffffffffffffffffff1673ffffffffffffffffffffffffffffffffffffffff1663e8eda9df600360009054906101000a900473ffffffffffffffffffffffffffffffffffffffff16833060006040518563ffffffff1660e01b81526004016107ac9493929190610c04565b600060405180830381600087803b1580156107c657600080fd5b505af11580156107da573d6000803e3d6000fd5b5050505050565b6107e96108d9565b73ffffffffffffffffffffffffffffffffffffffff16610807610640565b73ffffffffffffffffffffffffffffffffffffffff161461085d576040517f08c379a000000000000000000000000000000000000000000000000000000000815260040161085490610c89565b60405180910390fd5b600073ffffffffffffffffffffffffffffffffffffffff168173ffffffffffffffffffffffffffffffffffffffff1614156108cd576040517f08c379a00000000000000000000000000000000000000000000000000000000081526004016108c490610c69565b60405180910390fd5b6108d6816108e1565b50565b600033905090565b60008060009054906101000a900473ffffffffffffffffffffffffffffffffffffffff169050816000806101000a81548173ffffffffffffffffffffffffffffffffffffffff021916908373ffffffffffffffffffffffffffffffffffffffff1602179055508173ffffffffffffffffffffffffffffffffffffffff168173ffffffffffffffffffffffffffffffffffffffff167f8be0079c531659141344cd1fd0a4f28419497f9722a3daafe3b4186f6b6457e060405160405180910390a35050565b6000813590506109b481610e75565b92915050565b6000815190506109c981610e8c565b92915050565b6000813590506109de81610ea3565b92915050565b6000815190506109f381610ea3565b92915050565b600060208284031215610a0f57610a0e610d7d565b5b6000610a1d848285016109a5565b91505092915050565b600060208284031215610a3c57610a3b610d7d565b5b6000610a4a848285016109ba565b91505092915050565b600060208284031215610a6957610a68610d7d565b5b6000610a77848285016109cf565b91505092915050565b600060208284031215610a9657610a95610d7d565b5b6000610aa4848285016109e4565b91505092915050565b610ab681610d15565b82525050565b610ac581610d6b565b82525050565b6000610ad8601d83610d04565b9150610ae382610d82565b602082019050919050565b6000610afb602683610d04565b9150610b0682610dab565b604082019050919050565b6000610b1e602083610d04565b9150610b2982610dfa565b602082019050919050565b6000610b41601e83610d04565b9150610b4c82610e23565b602082019050919050565b6000610b64601d83610d04565b9150610b6f82610e4c565b602082019050919050565b610b8381610d61565b82525050565b6000602082019050610b9e6000830184610aad565b92915050565b6000604082019050610bb96000830185610aad565b610bc66020830184610b7a565b9392505050565b6000606082019050610be26000830186610aad565b610bef6020830185610b7a565b610bfc6040830184610aad565b949350505050565b6000608082019050610c196000830187610aad565b610c266020830186610b7a565b610c336040830185610aad565b610c406060830184610abc565b95945050505050565b60006020820190508181036000830152610c6281610acb565b9050919050565b60006020820190508181036000830152610c8281610aee565b9050919050565b60006020820190508181036000830152610ca281610b11565b9050919050565b60006020820190508181036000830152610cc281610b34565b9050919050565b60006020820190508181036000830152610ce281610b57565b9050919050565b6000602082019050610cfe6000830184610b7a565b92915050565b600082825260208201905092915050565b6000610d2082610d41565b9050919050565b60008115159050919050565b600061ffff82169050919050565b600073ffffffffffffffffffffffffffffffffffffffff82169050919050565b6000819050919050565b6000610d7682610d33565b9050919050565b600080fd5b7f46455252593a2043414e275420555345205a45524f2041444452455353000000600082015250565b7f4f776e61626c653a206e6577206f776e657220697320746865207a65726f206160008201527f6464726573730000000000000000000000000000000000000000000000000000602082015250565b7f4f776e61626c653a2063616c6c6572206973206e6f7420746865206f776e6572600082015250565b7f46455252593a205749544844524157204d4f5245205448414e205a45524f0000600082015250565b7f46455252593a204445504f534954204d4f5245205448414e205a45524f000000600082015250565b610e7e81610d15565b8114610e8957600080fd5b50565b610e9581610d27565b8114610ea057600080fd5b50565b610eac81610d61565b8114610eb757600080fd5b5056fea2646970667358221220807adc38d4ad7b39ba17dae7623bd4134d7bf0683f9c2712253bf7f71a024f2564736f6c63430008060033",
  "linkReferences": {},
  "deployedLinkReferences": {}
}