{
  "_format": "hh-sol-artifact-1",
  "contractName": "StakedShip",
  "sourceName": "contracts/StakedShip.sol",
  "abi": [
    {
      "inputs": [
        {
          "internalType": "contract IERC20",
          "name": "_ship",
          "type": "address"
        }
      ],
      "stateMutability": "nonpayable",
      "type": "constructor"
    },
    {
      "anonymous": false,
      "inputs": [
        {
          "indexed": true,
          "internalType": "address",
          "name": "owner",
          "type": "address"
        },
        {
          "indexed": true,
          "internalType": "address",
          "name": "spender",
          "type": "address"
        },
        {
          "indexed": false,
          "internalType": "uint256",
          "name": "value",
          "type": "uint256"
        }
      ],
      "name": "Approval",
      "type": "event"
    },
    {
      "anonymous": false,
      "inputs": [
        {
          "indexed": true,
          "internalType": "address",
          "name": "from",
          "type": "address"
        },
        {
          "indexed": true,
          "internalType": "address",
          "name": "to",
          "type": "address"
        },
        {
          "indexed": false,
          "internalType": "uint256",
          "name": "value",
          "type": "uint256"
        }
      ],
      "name": "Transfer",
      "type": "event"
    },
    {
      "inputs": [
        {
          "internalType": "address",
          "name": "owner",
          "type": "address"
        },
        {
          "internalType": "address",
          "name": "spender",
          "type": "address"
        }
      ],
      "name": "allowance",
      "outputs": [
        {
          "internalType": "uint256",
          "name": "",
          "type": "uint256"
        }
      ],
      "stateMutability": "view",
      "type": "function"
    },
    {
      "inputs": [
        {
          "internalType": "address",
          "name": "spender",
          "type": "address"
        },
        {
          "internalType": "uint256",
          "name": "amount",
          "type": "uint256"
        }
      ],
      "name": "approve",
      "outputs": [
        {
          "internalType": "bool",
          "name": "",
          "type": "bool"
        }
      ],
      "stateMutability": "nonpayable",
      "type": "function"
    },
    {
      "inputs": [
        {
          "internalType": "address",
          "name": "account",
          "type": "address"
        }
      ],
      "name": "balanceOf",
      "outputs": [
        {
          "internalType": "uint256",
          "name": "",
          "type": "uint256"
        }
      ],
      "stateMutability": "view",
      "type": "function"
    },
    {
      "inputs": [],
      "name": "decimals",
      "outputs": [
        {
          "internalType": "uint8",
          "name": "",
          "type": "uint8"
        }
      ],
      "stateMutability": "view",
      "type": "function"
    },
    {
      "inputs": [
        {
          "internalType": "address",
          "name": "spender",
          "type": "address"
        },
        {
          "internalType": "uint256",
          "name": "subtractedValue",
          "type": "uint256"
        }
      ],
      "name": "decreaseAllowance",
      "outputs": [
        {
          "internalType": "bool",
          "name": "",
          "type": "bool"
        }
      ],
      "stateMutability": "nonpayable",
      "type": "function"
    },
    {
      "inputs": [
        {
          "internalType": "uint256",
          "name": "_amount",
          "type": "uint256"
        }
      ],
      "name": "enter",
      "outputs": [],
      "stateMutability": "nonpayable",
      "type": "function"
    },
    {
      "inputs": [
        {
          "internalType": "address",
          "name": "spender",
          "type": "address"
        },
        {
          "internalType": "uint256",
          "name": "addedValue",
          "type": "uint256"
        }
      ],
      "name": "increaseAllowance",
      "outputs": [
        {
          "internalType": "bool",
          "name": "",
          "type": "bool"
        }
      ],
      "stateMutability": "nonpayable",
      "type": "function"
    },
    {
      "inputs": [
        {
          "internalType": "uint256",
          "name": "_share",
          "type": "uint256"
        }
      ],
      "name": "leave",
      "outputs": [],
      "stateMutability": "nonpayable",
      "type": "function"
    },
    {
      "inputs": [],
      "name": "name",
      "outputs": [
        {
          "internalType": "string",
          "name": "",
          "type": "string"
        }
      ],
      "stateMutability": "view",
      "type": "function"
    },
    {
      "inputs": [],
      "name": "ship",
      "outputs": [
        {
          "internalType": "contract IERC20",
          "name": "",
          "type": "address"
        }
      ],
      "stateMutability": "view",
      "type": "function"
    },
    {
      "inputs": [],
      "name": "symbol",
      "outputs": [
        {
          "internalType": "string",
          "name": "",
          "type": "string"
        }
      ],
      "stateMutability": "view",
      "type": "function"
    },
    {
      "inputs": [],
      "name": "totalSupply",
      "outputs": [
        {
          "internalType": "uint256",
          "name": "",
          "type": "uint256"
        }
      ],
      "stateMutability": "view",
      "type": "function"
    },
    {
      "inputs": [
        {
          "internalType": "address",
          "name": "recipient",
          "type": "address"
        },
        {
          "internalType": "uint256",
          "name": "amount",
          "type": "uint256"
        }
      ],
      "name": "transfer",
      "outputs": [
        {
          "internalType": "bool",
          "name": "",
          "type": "bool"
        }
      ],
      "stateMutability": "nonpayable",
      "type": "function"
    },
    {
      "inputs": [
        {
          "internalType": "address",
          "name": "sender",
          "type": "address"
        },
        {
          "internalType": "address",
          "name": "recipient",
          "type": "address"
        },
        {
          "internalType": "uint256",
          "name": "amount",
          "type": "uint256"
        }
      ],
      "name": "transferFrom",
      "outputs": [
        {
          "internalType": "bool",
          "name": "",
          "type": "bool"
        }
      ],
      "stateMutability": "nonpayable",
      "type": "function"
    }
  ],
  "bytecode": "0x60806040523480156200001157600080fd5b5060405162002158380380620021588339818101604052810190620000379190620001e6565b6040518060400160405280600a81526020017f5374616b656453686970000000000000000000000000000000000000000000008152506040518060400160405280600581526020017f78534849500000000000000000000000000000000000000000000000000000008152508160039080519060200190620000bb9291906200011f565b508060049080519060200190620000d49291906200011f565b50505080600560006101000a81548173ffffffffffffffffffffffffffffffffffffffff021916908373ffffffffffffffffffffffffffffffffffffffff16021790555050620002d9565b8280546200012d906200025a565b90600052602060002090601f0160209004810192826200015157600085556200019d565b82601f106200016c57805160ff19168380011785556200019d565b828001600101855582156200019d579182015b828111156200019c5782518255916020019190600101906200017f565b5b509050620001ac9190620001b0565b5090565b5b80821115620001cb576000816000905550600101620001b1565b5090565b600081519050620001e081620002bf565b92915050565b600060208284031215620001f957600080fd5b60006200020984828501620001cf565b91505092915050565b60006200021f826200023a565b9050919050565b6000620002338262000212565b9050919050565b600073ffffffffffffffffffffffffffffffffffffffff82169050919050565b600060028204905060018216806200027357607f821691505b602082108114156200028a576200028962000290565b5b50919050565b7f4e487b7100000000000000000000000000000000000000000000000000000000600052602260045260246000fd5b620002ca8162000226565b8114620002d657600080fd5b50565b611e6f80620002e96000396000f3fe608060405234801561001057600080fd5b50600436106100ea5760003560e01c806370a082311161008c578063a59f3e0c11610066578063a59f3e0c14610273578063a9059cbb1461028f578063b6bef7b3146102bf578063dd62ed3e146102dd576100ea565b806370a08231146101f557806395d89b4114610225578063a457c2d714610243576100ea565b806323b872dd116100c857806323b872dd1461015b578063313ce5671461018b57806339509351146101a957806367dfd4c9146101d9576100ea565b806306fdde03146100ef578063095ea7b31461010d57806318160ddd1461013d575b600080fd5b6100f761030d565b60405161010491906119af565b60405180910390f35b610127600480360381019061012291906113ed565b61039f565b6040516101349190611979565b60405180910390f35b6101456103bd565b6040516101529190611b11565b60405180910390f35b6101756004803603810190610170919061139e565b6103c7565b6040516101829190611979565b60405180910390f35b6101936104bf565b6040516101a09190611b2c565b60405180910390f35b6101c360048036038101906101be91906113ed565b6104c8565b6040516101d09190611979565b60405180910390f35b6101f360048036038101906101ee9190611452565b610574565b005b61020f600480360381019061020a9190611339565b610704565b60405161021c9190611b11565b60405180910390f35b61022d61074c565b60405161023a91906119af565b60405180910390f35b61025d600480360381019061025891906113ed565b6107de565b60405161026a9190611979565b60405180910390f35b61028d60048036038101906102889190611452565b6108c9565b005b6102a960048036038101906102a491906113ed565b610a85565b6040516102b69190611979565b60405180910390f35b6102c7610aa3565b6040516102d49190611994565b60405180910390f35b6102f760048036038101906102f29190611362565b610ac9565b6040516103049190611b11565b60405180910390f35b60606003805461031c90611d24565b80601f016020809104026020016040519081016040528092919081815260200182805461034890611d24565b80156103955780601f1061036a57610100808354040283529160200191610395565b820191906000526020600020905b81548152906001019060200180831161037857829003601f168201915b5050505050905090565b60006103b36103ac610b50565b8484610b58565b6001905092915050565b6000600254905090565b60006103d4848484610d23565b6000600160008673ffffffffffffffffffffffffffffffffffffffff1673ffffffffffffffffffffffffffffffffffffffff168152602001908152602001600020600061041f610b50565b73ffffffffffffffffffffffffffffffffffffffff1673ffffffffffffffffffffffffffffffffffffffff1681526020019081526020016000205490508281101561049f576040517f08c379a000000000000000000000000000000000000000000000000000000000815260040161049690611a51565b60405180910390fd5b6104b3856104ab610b50565b858403610b58565b60019150509392505050565b60006012905090565b600061056a6104d5610b50565b8484600160006104e3610b50565b73ffffffffffffffffffffffffffffffffffffffff1673ffffffffffffffffffffffffffffffffffffffff16815260200190815260200160002060008873ffffffffffffffffffffffffffffffffffffffff1673ffffffffffffffffffffffffffffffffffffffff168152602001908152602001600020546105659190611b63565b610b58565b6001905092915050565b600061057e6103bd565b9050600081600560009054906101000a900473ffffffffffffffffffffffffffffffffffffffff1673ffffffffffffffffffffffffffffffffffffffff166370a08231306040518263ffffffff1660e01b81526004016105de91906118fe565b60206040518083038186803b1580156105f657600080fd5b505afa15801561060a573d6000803e3d6000fd5b505050506040513d601f19601f8201168201806040525081019061062e919061147b565b846106399190611bea565b6106439190611bb9565b905061064f3384610fa4565b600560009054906101000a900473ffffffffffffffffffffffffffffffffffffffff1673ffffffffffffffffffffffffffffffffffffffff1663a9059cbb33836040518363ffffffff1660e01b81526004016106ac929190611950565b602060405180830381600087803b1580156106c657600080fd5b505af11580156106da573d6000803e3d6000fd5b505050506040513d601f19601f820116820180604052508101906106fe9190611429565b50505050565b60008060008373ffffffffffffffffffffffffffffffffffffffff1673ffffffffffffffffffffffffffffffffffffffff168152602001908152602001600020549050919050565b60606004805461075b90611d24565b80601f016020809104026020016040519081016040528092919081815260200182805461078790611d24565b80156107d45780601f106107a9576101008083540402835291602001916107d4565b820191906000526020600020905b8154815290600101906020018083116107b757829003601f168201915b5050505050905090565b600080600160006107ed610b50565b73ffffffffffffffffffffffffffffffffffffffff1673ffffffffffffffffffffffffffffffffffffffff16815260200190815260200160002060008573ffffffffffffffffffffffffffffffffffffffff1673ffffffffffffffffffffffffffffffffffffffff168152602001908152602001600020549050828110156108aa576040517f08c379a00000000000000000000000000000000000000000000000000000000081526004016108a190611ad1565b60405180910390fd5b6108be6108b5610b50565b85858403610b58565b600191505092915050565b6000600560009054906101000a900473ffffffffffffffffffffffffffffffffffffffff1673ffffffffffffffffffffffffffffffffffffffff166370a08231306040518263ffffffff1660e01b815260040161092691906118fe565b60206040518083038186803b15801561093e57600080fd5b505afa158015610952573d6000803e3d6000fd5b505050506040513d601f19601f82011682018060405250810190610976919061147b565b905060006109826103bd565b905060008114806109935750600082145b156109a7576109a2338461117b565b6109ce565b60008282856109b69190611bea565b6109c09190611bb9565b90506109cc338261117b565b505b600560009054906101000a900473ffffffffffffffffffffffffffffffffffffffff1673ffffffffffffffffffffffffffffffffffffffff166323b872dd3330866040518463ffffffff1660e01b8152600401610a2d93929190611919565b602060405180830381600087803b158015610a4757600080fd5b505af1158015610a5b573d6000803e3d6000fd5b505050506040513d601f19601f82011682018060405250810190610a7f9190611429565b50505050565b6000610a99610a92610b50565b8484610d23565b6001905092915050565b600560009054906101000a900473ffffffffffffffffffffffffffffffffffffffff1681565b6000600160008473ffffffffffffffffffffffffffffffffffffffff1673ffffffffffffffffffffffffffffffffffffffff16815260200190815260200160002060008373ffffffffffffffffffffffffffffffffffffffff1673ffffffffffffffffffffffffffffffffffffffff16815260200190815260200160002054905092915050565b600033905090565b600073ffffffffffffffffffffffffffffffffffffffff168373ffffffffffffffffffffffffffffffffffffffff161415610bc8576040517f08c379a0000000000000000000000000000000000000000000000000000000008152600401610bbf90611ab1565b60405180910390fd5b600073ffffffffffffffffffffffffffffffffffffffff168273ffffffffffffffffffffffffffffffffffffffff161415610c38576040517f08c379a0000000000000000000000000000000000000000000000000000000008152600401610c2f90611a11565b60405180910390fd5b80600160008573ffffffffffffffffffffffffffffffffffffffff1673ffffffffffffffffffffffffffffffffffffffff16815260200190815260200160002060008473ffffffffffffffffffffffffffffffffffffffff1673ffffffffffffffffffffffffffffffffffffffff168152602001908152602001600020819055508173ffffffffffffffffffffffffffffffffffffffff168373ffffffffffffffffffffffffffffffffffffffff167f8c5be1e5ebec7d5bd14f71427d1e84f3dd0314c0f7b2291e5b200ac8c7c3b92583604051610d169190611b11565b60405180910390a3505050565b600073ffffffffffffffffffffffffffffffffffffffff168373ffffffffffffffffffffffffffffffffffffffff161415610d93576040517f08c379a0000000000000000000000000000000000000000000000000000000008152600401610d8a90611a91565b60405180910390fd5b600073ffffffffffffffffffffffffffffffffffffffff168273ffffffffffffffffffffffffffffffffffffffff161415610e03576040517f08c379a0000000000000000000000000000000000000000000000000000000008152600401610dfa906119d1565b60405180910390fd5b610e0e8383836112db565b60008060008573ffffffffffffffffffffffffffffffffffffffff1673ffffffffffffffffffffffffffffffffffffffff16815260200190815260200160002054905081811015610e94576040517f08c379a0000000000000000000000000000000000000000000000000000000008152600401610e8b90611a31565b60405180910390fd5b8181036000808673ffffffffffffffffffffffffffffffffffffffff1673ffffffffffffffffffffffffffffffffffffffff16815260200190815260200160002081905550816000808573ffffffffffffffffffffffffffffffffffffffff1673ffffffffffffffffffffffffffffffffffffffff1681526020019081526020016000206000828254610f279190611b63565b925050819055508273ffffffffffffffffffffffffffffffffffffffff168473ffffffffffffffffffffffffffffffffffffffff167fddf252ad1be2c89b69c2b068fc378daa952ba7f163c4a11628f55a4df523b3ef84604051610f8b9190611b11565b60405180910390a3610f9e8484846112e0565b50505050565b600073ffffffffffffffffffffffffffffffffffffffff168273ffffffffffffffffffffffffffffffffffffffff161415611014576040517f08c379a000000000000000000000000000000000000000000000000000000000815260040161100b90611a71565b60405180910390fd5b611020826000836112db565b60008060008473ffffffffffffffffffffffffffffffffffffffff1673ffffffffffffffffffffffffffffffffffffffff168152602001908152602001600020549050818110156110a6576040517f08c379a000000000000000000000000000000000000000000000000000000000815260040161109d906119f1565b60405180910390fd5b8181036000808573ffffffffffffffffffffffffffffffffffffffff1673ffffffffffffffffffffffffffffffffffffffff1681526020019081526020016000208190555081600260008282546110fd9190611c44565b92505081905550600073ffffffffffffffffffffffffffffffffffffffff168373ffffffffffffffffffffffffffffffffffffffff167fddf252ad1be2c89b69c2b068fc378daa952ba7f163c4a11628f55a4df523b3ef846040516111629190611b11565b60405180910390a3611176836000846112e0565b505050565b600073ffffffffffffffffffffffffffffffffffffffff168273ffffffffffffffffffffffffffffffffffffffff1614156111eb576040517f08c379a00000000000000000000000000000000000000000000000000000000081526004016111e290611af1565b60405180910390fd5b6111f7600083836112db565b80600260008282546112099190611b63565b92505081905550806000808473ffffffffffffffffffffffffffffffffffffffff1673ffffffffffffffffffffffffffffffffffffffff168152602001908152602001600020600082825461125e9190611b63565b925050819055508173ffffffffffffffffffffffffffffffffffffffff16600073ffffffffffffffffffffffffffffffffffffffff167fddf252ad1be2c89b69c2b068fc378daa952ba7f163c4a11628f55a4df523b3ef836040516112c39190611b11565b60405180910390a36112d7600083836112e0565b5050565b505050565b505050565b6000813590506112f481611df4565b92915050565b60008151905061130981611e0b565b92915050565b60008135905061131e81611e22565b92915050565b60008151905061133381611e22565b92915050565b60006020828403121561134b57600080fd5b6000611359848285016112e5565b91505092915050565b6000806040838503121561137557600080fd5b6000611383858286016112e5565b9250506020611394858286016112e5565b9150509250929050565b6000806000606084860312156113b357600080fd5b60006113c1868287016112e5565b93505060206113d2868287016112e5565b92505060406113e38682870161130f565b9150509250925092565b6000806040838503121561140057600080fd5b600061140e858286016112e5565b925050602061141f8582860161130f565b9150509250929050565b60006020828403121561143b57600080fd5b6000611449848285016112fa565b91505092915050565b60006020828403121561146457600080fd5b60006114728482850161130f565b91505092915050565b60006020828403121561148d57600080fd5b600061149b84828501611324565b91505092915050565b6114ad81611c78565b82525050565b6114bc81611c8a565b82525050565b6114cb81611ccd565b82525050565b60006114dc82611b47565b6114e68185611b52565b93506114f6818560208601611cf1565b6114ff81611de3565b840191505092915050565b6000611517602383611b52565b91507f45524332303a207472616e7366657220746f20746865207a65726f206164647260008301527f65737300000000000000000000000000000000000000000000000000000000006020830152604082019050919050565b600061157d602283611b52565b91507f45524332303a206275726e20616d6f756e7420657863656564732062616c616e60008301527f63650000000000000000000000000000000000000000000000000000000000006020830152604082019050919050565b60006115e3602283611b52565b91507f45524332303a20617070726f766520746f20746865207a65726f20616464726560008301527f73730000000000000000000000000000000000000000000000000000000000006020830152604082019050919050565b6000611649602683611b52565b91507f45524332303a207472616e7366657220616d6f756e742065786365656473206260008301527f616c616e636500000000000000000000000000000000000000000000000000006020830152604082019050919050565b60006116af602883611b52565b91507f45524332303a207472616e7366657220616d6f756e742065786365656473206160008301527f6c6c6f77616e63650000000000000000000000000000000000000000000000006020830152604082019050919050565b6000611715602183611b52565b91507f45524332303a206275726e2066726f6d20746865207a65726f2061646472657360008301527f73000000000000000000000000000000000000000000000000000000000000006020830152604082019050919050565b600061177b602583611b52565b91507f45524332303a207472616e736665722066726f6d20746865207a65726f20616460008301527f64726573730000000000000000000000000000000000000000000000000000006020830152604082019050919050565b60006117e1602483611b52565b91507f45524332303a20617070726f76652066726f6d20746865207a65726f2061646460008301527f72657373000000000000000000000000000000000000000000000000000000006020830152604082019050919050565b6000611847602583611b52565b91507f45524332303a2064656372656173656420616c6c6f77616e63652062656c6f7760008301527f207a65726f0000000000000000000000000000000000000000000000000000006020830152604082019050919050565b60006118ad601f83611b52565b91507f45524332303a206d696e7420746f20746865207a65726f2061646472657373006000830152602082019050919050565b6118e981611cb6565b82525050565b6118f881611cc0565b82525050565b600060208201905061191360008301846114a4565b92915050565b600060608201905061192e60008301866114a4565b61193b60208301856114a4565b61194860408301846118e0565b949350505050565b600060408201905061196560008301856114a4565b61197260208301846118e0565b9392505050565b600060208201905061198e60008301846114b3565b92915050565b60006020820190506119a960008301846114c2565b92915050565b600060208201905081810360008301526119c981846114d1565b905092915050565b600060208201905081810360008301526119ea8161150a565b9050919050565b60006020820190508181036000830152611a0a81611570565b9050919050565b60006020820190508181036000830152611a2a816115d6565b9050919050565b60006020820190508181036000830152611a4a8161163c565b9050919050565b60006020820190508181036000830152611a6a816116a2565b9050919050565b60006020820190508181036000830152611a8a81611708565b9050919050565b60006020820190508181036000830152611aaa8161176e565b9050919050565b60006020820190508181036000830152611aca816117d4565b9050919050565b60006020820190508181036000830152611aea8161183a565b9050919050565b60006020820190508181036000830152611b0a816118a0565b9050919050565b6000602082019050611b2660008301846118e0565b92915050565b6000602082019050611b4160008301846118ef565b92915050565b600081519050919050565b600082825260208201905092915050565b6000611b6e82611cb6565b9150611b7983611cb6565b9250827fffffffffffffffffffffffffffffffffffffffffffffffffffffffffffffffff03821115611bae57611bad611d56565b5b828201905092915050565b6000611bc482611cb6565b9150611bcf83611cb6565b925082611bdf57611bde611d85565b5b828204905092915050565b6000611bf582611cb6565b9150611c0083611cb6565b9250817fffffffffffffffffffffffffffffffffffffffffffffffffffffffffffffffff0483118215151615611c3957611c38611d56565b5b828202905092915050565b6000611c4f82611cb6565b9150611c5a83611cb6565b925082821015611c6d57611c6c611d56565b5b828203905092915050565b6000611c8382611c96565b9050919050565b60008115159050919050565b600073ffffffffffffffffffffffffffffffffffffffff82169050919050565b6000819050919050565b600060ff82169050919050565b6000611cd882611cdf565b9050919050565b6000611cea82611c96565b9050919050565b60005b83811015611d0f578082015181840152602081019050611cf4565b83811115611d1e576000848401525b50505050565b60006002820490506001821680611d3c57607f821691505b60208210811415611d5057611d4f611db4565b5b50919050565b7f4e487b7100000000000000000000000000000000000000000000000000000000600052601160045260246000fd5b7f4e487b7100000000000000000000000000000000000000000000000000000000600052601260045260246000fd5b7f4e487b7100000000000000000000000000000000000000000000000000000000600052602260045260246000fd5b6000601f19601f8301169050919050565b611dfd81611c78565b8114611e0857600080fd5b50565b611e1481611c8a565b8114611e1f57600080fd5b50565b611e2b81611cb6565b8114611e3657600080fd5b5056fea264697066735822122013cfb75a35f062ee7f6199a8175e5c1535458031e70c4b1047c39dfbbe6b892964736f6c63430008000033",
  "linkReferences": {},
  "deployedLinkReferences": {}
}