{
  "contractName": "ConstantFlowAgreementV1",
  "abi": [
    {
      "anonymous": false,
      "inputs": [
        {
          "indexed": false,
          "internalType": "bytes32",
          "name": "uuid",
          "type": "bytes32"
        },
        {
          "indexed": false,
          "internalType": "address",
          "name": "codeAddress",
          "type": "address"
        }
      ],
      "name": "CodeUpdated",
      "type": "event"
    },
    {
      "anonymous": false,
      "inputs": [
        {
          "indexed": true,
          "internalType": "contract ISuperfluidToken",
          "name": "token",
          "type": "address"
        },
        {
          "indexed": true,
          "internalType": "address",
          "name": "sender",
          "type": "address"
        },
        {
          "indexed": true,
          "internalType": "address",
          "name": "receiver",
          "type": "address"
        },
        {
          "indexed": false,
          "internalType": "int96",
          "name": "flowRate",
          "type": "int96"
        },
        {
          "indexed": false,
          "internalType": "int256",
          "name": "totalSenderFlowRate",
          "type": "int256"
        },
        {
          "indexed": false,
          "internalType": "int256",
          "name": "totalReceiverFlowRate",
          "type": "int256"
        },
        {
          "indexed": false,
          "internalType": "bytes",
          "name": "userData",
          "type": "bytes"
        }
      ],
      "name": "FlowUpdated",
      "type": "event"
    },
    {
      "inputs": [],
      "name": "agreementType",
      "outputs": [
        {
          "internalType": "bytes32",
          "name": "",
          "type": "bytes32"
        }
      ],
      "stateMutability": "pure",
      "type": "function"
    },
    {
      "inputs": [],
      "name": "getCodeAddress",
      "outputs": [
        {
          "internalType": "address",
          "name": "codeAddress",
          "type": "address"
        }
      ],
      "stateMutability": "view",
      "type": "function"
    },
    {
      "inputs": [],
      "name": "initialize",
      "outputs": [],
      "stateMutability": "nonpayable",
      "type": "function"
    },
    {
      "inputs": [],
      "name": "proxiableUUID",
      "outputs": [
        {
          "internalType": "bytes32",
          "name": "",
          "type": "bytes32"
        }
      ],
      "stateMutability": "view",
      "type": "function"
    },
    {
      "inputs": [
        {
          "internalType": "address",
          "name": "newAddress",
          "type": "address"
        }
      ],
      "name": "updateCode",
      "outputs": [],
      "stateMutability": "nonpayable",
      "type": "function"
    },
    {
      "inputs": [
        {
          "internalType": "contract ISuperfluidToken",
          "name": "token",
          "type": "address"
        },
        {
          "internalType": "address",
          "name": "account",
          "type": "address"
        },
        {
          "internalType": "uint256",
          "name": "time",
          "type": "uint256"
        }
      ],
      "name": "realtimeBalanceOf",
      "outputs": [
        {
          "internalType": "int256",
          "name": "dynamicBalance",
          "type": "int256"
        },
        {
          "internalType": "uint256",
          "name": "deposit",
          "type": "uint256"
        },
        {
          "internalType": "uint256",
          "name": "owedDeposit",
          "type": "uint256"
        }
      ],
      "stateMutability": "view",
      "type": "function"
    },
    {
      "inputs": [
        {
          "internalType": "contract ISuperfluidToken",
          "name": "token",
          "type": "address"
        },
        {
          "internalType": "uint256",
          "name": "deposit",
          "type": "uint256"
        }
      ],
      "name": "getMaximumFlowRateFromDeposit",
      "outputs": [
        {
          "internalType": "int96",
          "name": "flowRate",
          "type": "int96"
        }
      ],
      "stateMutability": "view",
      "type": "function"
    },
    {
      "inputs": [
        {
          "internalType": "contract ISuperfluidToken",
          "name": "token",
          "type": "address"
        },
        {
          "internalType": "int96",
          "name": "flowRate",
          "type": "int96"
        }
      ],
      "name": "getDepositRequiredForFlowRate",
      "outputs": [
        {
          "internalType": "uint256",
          "name": "deposit",
          "type": "uint256"
        }
      ],
      "stateMutability": "view",
      "type": "function"
    },
    {
      "inputs": [
        {
          "internalType": "contract ISuperfluidToken",
          "name": "token",
          "type": "address"
        },
        {
          "internalType": "address",
          "name": "receiver",
          "type": "address"
        },
        {
          "internalType": "int96",
          "name": "flowRate",
          "type": "int96"
        },
        {
          "internalType": "bytes",
          "name": "ctx",
          "type": "bytes"
        }
      ],
      "name": "createFlow",
      "outputs": [
        {
          "internalType": "bytes",
          "name": "newCtx",
          "type": "bytes"
        }
      ],
      "stateMutability": "nonpayable",
      "type": "function"
    },
    {
      "inputs": [
        {
          "internalType": "contract ISuperfluidToken",
          "name": "token",
          "type": "address"
        },
        {
          "internalType": "address",
          "name": "receiver",
          "type": "address"
        },
        {
          "internalType": "int96",
          "name": "flowRate",
          "type": "int96"
        },
        {
          "internalType": "bytes",
          "name": "ctx",
          "type": "bytes"
        }
      ],
      "name": "updateFlow",
      "outputs": [
        {
          "internalType": "bytes",
          "name": "newCtx",
          "type": "bytes"
        }
      ],
      "stateMutability": "nonpayable",
      "type": "function"
    },
    {
      "inputs": [
        {
          "internalType": "contract ISuperfluidToken",
          "name": "token",
          "type": "address"
        },
        {
          "internalType": "address",
          "name": "sender",
          "type": "address"
        },
        {
          "internalType": "address",
          "name": "receiver",
          "type": "address"
        },
        {
          "internalType": "bytes",
          "name": "ctx",
          "type": "bytes"
        }
      ],
      "name": "deleteFlow",
      "outputs": [
        {
          "internalType": "bytes",
          "name": "newCtx",
          "type": "bytes"
        }
      ],
      "stateMutability": "nonpayable",
      "type": "function"
    },
    {
      "inputs": [
        {
          "internalType": "contract ISuperfluidToken",
          "name": "token",
          "type": "address"
        },
        {
          "internalType": "address",
          "name": "sender",
          "type": "address"
        },
        {
          "internalType": "address",
          "name": "receiver",
          "type": "address"
        }
      ],
      "name": "getFlow",
      "outputs": [
        {
          "internalType": "uint256",
          "name": "timestamp",
          "type": "uint256"
        },
        {
          "internalType": "int96",
          "name": "flowRate",
          "type": "int96"
        },
        {
          "internalType": "uint256",
          "name": "deposit",
          "type": "uint256"
        },
        {
          "internalType": "uint256",
          "name": "owedDeposit",
          "type": "uint256"
        }
      ],
      "stateMutability": "view",
      "type": "function"
    },
    {
      "inputs": [
        {
          "internalType": "contract ISuperfluidToken",
          "name": "token",
          "type": "address"
        },
        {
          "internalType": "bytes32",
          "name": "flowId",
          "type": "bytes32"
        }
      ],
      "name": "getFlowByID",
      "outputs": [
        {
          "internalType": "uint256",
          "name": "timestamp",
          "type": "uint256"
        },
        {
          "internalType": "int96",
          "name": "flowRate",
          "type": "int96"
        },
        {
          "internalType": "uint256",
          "name": "deposit",
          "type": "uint256"
        },
        {
          "internalType": "uint256",
          "name": "owedDeposit",
          "type": "uint256"
        }
      ],
      "stateMutability": "view",
      "type": "function"
    },
    {
      "inputs": [
        {
          "internalType": "contract ISuperfluidToken",
          "name": "token",
          "type": "address"
        },
        {
          "internalType": "address",
          "name": "account",
          "type": "address"
        }
      ],
      "name": "getAccountFlowInfo",
      "outputs": [
        {
          "internalType": "uint256",
          "name": "timestamp",
          "type": "uint256"
        },
        {
          "internalType": "int96",
          "name": "flowRate",
          "type": "int96"
        },
        {
          "internalType": "uint256",
          "name": "deposit",
          "type": "uint256"
        },
        {
          "internalType": "uint256",
          "name": "owedDeposit",
          "type": "uint256"
        }
      ],
      "stateMutability": "view",
      "type": "function"
    },
    {
      "inputs": [
        {
          "internalType": "contract ISuperfluidToken",
          "name": "token",
          "type": "address"
        },
        {
          "internalType": "address",
          "name": "account",
          "type": "address"
        }
      ],
      "name": "getNetFlow",
      "outputs": [
        {
          "internalType": "int96",
          "name": "flowRate",
          "type": "int96"
        }
      ],
      "stateMutability": "view",
      "type": "function"
    }
  ],
  "bytecode": "0x608060405234801561001057600080fd5b506149a4806100206000396000f3fe608060405234801561001057600080fd5b50600436106100f55760003560e01c80637730599e11610097578063aabd266811610066578063aabd266814610424578063b4b333c614610450578063e6a1e888146104df578063e8e7e2d114610517576100f5565b80637730599e146103915780638129fc1c146103995780638d997f6e146103a15780639b2e48bc146103d0576100f5565b806350209a62116100d357806350209a62146101bc57806350d75d25146102c257806352d1902d146102e657806362fc305e14610300576100f5565b80630602f7db146100fa5780630f1ac4951461013d5780634695195414610194575b600080fd5b6101266004803603604081101561011057600080fd5b506001600160a01b038135169060200135610545565b60408051600b9290920b8252519081900360200190f35b61016b6004803603604081101561015357600080fd5b506001600160a01b0381358116916020013516610748565b60408051948552600b9390930b6020850152838301919091526060830152519081900360800190f35b6101ba600480360360208110156101aa57600080fd5b50356001600160a01b031661077e565b005b61024d600480360360808110156101d257600080fd5b6001600160a01b0382358116926020810135909116916040820135600b0b9190810190608081016060820135600160201b81111561020f57600080fd5b82018360208201111561022157600080fd5b803590602001918460018302840111600160201b8311171561024257600080fd5b5090925090506107ef565b6040805160208082528351818301528351919283929083019185019080838360005b8381101561028757818101518382015260200161026f565b50505050905090810190601f1680156102b45780820380516001836020036101000a031916815260200191505b509250505060405180910390f35b6102ca610afc565b604080516001600160a01b039092168252519081900360200190f35b6102ee610b0b565b60408051918252519081900360200190f35b61024d6004803603608081101561031657600080fd5b6001600160a01b0382358116926020810135909116916040820135600b0b9190810190608081016060820135600160201b81111561035357600080fd5b82018360208201111561036557600080fd5b803590602001918460018302840111600160201b8311171561038657600080fd5b509092509050610b77565b6102ee610e22565b6101ba610e46565b6102ee600480360360408110156103b757600080fd5b506001600160a01b038135169060200135600b0b610f00565b610406600480360360608110156103e657600080fd5b506001600160a01b0381358116916020810135909116906040013561115a565b60408051938452602084019290925282820152519081900360600190f35b61016b6004803603604081101561043a57600080fd5b506001600160a01b0381351690602001356111b2565b61024d6004803603608081101561046657600080fd5b6001600160a01b0382358116926020810135821692604082013590921691810190608081016060820135600160201b8111156104a157600080fd5b8201836020820111156104b357600080fd5b803590602001918460018302840111600160201b831117156104d457600080fd5b5090925090506111c4565b61016b600480360360608110156104f557600080fd5b506001600160a01b038135811691602081013582169160409091013516611a4a565b6101266004803603604081101561052d57600080fd5b506001600160a01b0381358116916020013516611a8a565b60006001605f1b821061059f576040805162461bcd60e51b815260206004820152601b60248201527f4346413a206465706f736974206e756d62657220746f6f206269670000000000604482015290519081900360640190fd5b6105a882611aa4565b91506000836001600160a01b03166320bc44256040518163ffffffff1660e01b815260040160206040518083038186803b1580156105e557600080fd5b505afa1580156105f9573d6000803e3d6000fd5b505050506040513d602081101561060f57600080fd5b50516040805163289b3c0d60e01b815290519192506000916001600160a01b0384169163289b3c0d916004808301926020929190829003018186803b15801561065757600080fd5b505afa15801561066b573d6000803e3d6000fd5b505050506040513d602081101561068157600080fd5b50516040805163407b865d60e11b81526001600160a01b03858116600483015288811660248301527f1ca463a216b802472396d1b8a5b5b695d935b1d24311e89b020144e6613f15aa60448301529151929350600092918416916380f70cba91606480820192602092909190829003018186803b15801561070157600080fd5b505afa158015610715573d6000803e3d6000fd5b505050506040513d602081101561072b57600080fd5b50519050600061073b8683611ab2565b9450505050505b92915050565b600080600080600061075a8787611b19565b805160208201516040830151606090930151919b909a509198509650945050505050565b6000546201000090046001600160a01b031633146107e3576040805162461bcd60e51b815260206004820152601960248201527f6f6e6c7920686f73742063616e2075706461746520636f646500000000000000604482015290519081900360640190fd5b6107ec81611c76565b50565b60606107f961421c565b6001600160a01b03861661084c576040805162461bcd60e51b81526020600482015260156024820152744346413a207265636569766572206973207a65726f60581b604482015290519081900360640190fd5b600061088e8886868080601f016020809104026020016040519081016040528093929190818152602001838380828437600092019190915250611dd992505050565b905061089e816060015188611f09565b82526060808201516001600160a01b039081166020850181905290891660408501819052600b89810b900b9285019290925260a083015160808501521415610921576040805162461bcd60e51b81526020600482015260116024820152704346413a206e6f2073656c6620666c6f7760781b604482015290519081900360640190fd5b60008260600151600b0b13610976576040805162461bcd60e51b81526020600482015260166024820152754346413a20696e76616c696420666c6f77207261746560501b604482015290519081900360640190fd5b6000806109878a8560000151611f41565b91509150816109d8576040805162461bcd60e51b815260206004820152601860248201527710d1904e88199b1bddc8191bd95cc81b9bdd08195e1a5cdd60421b604482015290519081900360640190fd5b60408051631e51d6a760e11b81526001600160a01b038b16600482015290513391633ca3ad4e916024808301926020929190829003018186803b158015610a1e57600080fd5b505afa158015610a32573d6000803e3d6000fd5b505050506040513d6020811015610a4857600080fd5b505115610a9e57610a97898b86848b8b8080601f0160208091040260200160405190810160405280939291908181526020018383808284376000920191909152508b925060019150611fa29050565b9450610ae5565b610ae28a85838a8a8080601f0160208091040260200160405190810160405280939291908181526020018383808284376000920191909152508a9250612909915050565b94505b610aef8a84612b12565b5050505095945050505050565b6000610b06612c18565b905090565b6000306001600160a01b0316637730599e6040518163ffffffff1660e01b815260040160206040518083038186803b158015610b4657600080fd5b505afa158015610b5a573d6000803e3d6000fd5b505050506040513d6020811015610b7057600080fd5b5051905090565b6060610b8161421c565b6001600160a01b038616610bd4576040805162461bcd60e51b81526020600482015260156024820152744346413a207265636569766572206973207a65726f60581b604482015290519081900360640190fd5b6000610c168886868080601f016020809104026020016040519081016040528093929190818152602001838380828437600092019190915250611dd992505050565b9050610c26816060015188611f09565b82526060808201516001600160a01b039081166020850181905290891660408501819052600b89810b900b9285019290925260a083015160808501521415610ca9576040805162461bcd60e51b81526020600482015260116024820152704346413a206e6f2073656c6620666c6f7760781b604482015290519081900360640190fd5b60008260600151600b0b13610cfe576040805162461bcd60e51b81526020600482015260166024820152754346413a20696e76616c696420666c6f77207261746560501b604482015290519081900360640190fd5b600080610d0f8a8560000151611f41565b915091508115610d66576040805162461bcd60e51b815260206004820152601760248201527f4346413a20666c6f7720616c7265616479206578697374000000000000000000604482015290519081900360640190fd5b60408051631e51d6a760e11b81526001600160a01b038b16600482015290513391633ca3ad4e916024808301926020929190829003018186803b158015610dac57600080fd5b505afa158015610dc0573d6000803e3d6000fd5b505050506040513d6020811015610dd657600080fd5b505115610a9e57610a97898b86848b8b8080601f01602080910402602001604051908101604052809392919081815260200183838082843760009201829052508c93509150611fa29050565b7fa9214cc96615e0085d3bb077758db69497dc2dce3b2b1e97bc93c3d18d83efd390565b600054610100900460ff1680610e5f5750610e5f612c3d565b80610e6d575060005460ff16155b610ea85760405162461bcd60e51b815260040180806020018281038252602e81526020018061483f602e913960400191505060405180910390fd5b600054610100900460ff16158015610ed3576000805460ff1961ff0019909116610100171660011790555b6000805462010000600160b01b03191633620100000217905580156107ec576000805461ff001916905550565b60008082600b0b1215610f5a576040805162461bcd60e51b815260206004820152601f60248201527f4346413a206e6f7420666f72206e6567617469766520666c6f77207261746500604482015290519081900360640190fd5b6000836001600160a01b03166320bc44256040518163ffffffff1660e01b815260040160206040518083038186803b158015610f9557600080fd5b505afa158015610fa9573d6000803e3d6000fd5b505050506040513d6020811015610fbf57600080fd5b50516040805163289b3c0d60e01b815290519192506000916001600160a01b0384169163289b3c0d916004808301926020929190829003018186803b15801561100757600080fd5b505afa15801561101b573d6000803e3d6000fd5b505050506040513d602081101561103157600080fd5b50516040805163407b865d60e11b81526001600160a01b03858116600483015288811660248301527f1ca463a216b802472396d1b8a5b5b695d935b1d24311e89b020144e6613f15aa60448301529151929350600092918416916380f70cba91606480820192602092909190829003018186803b1580156110b157600080fd5b505afa1580156110c5573d6000803e3d6000fd5b505050506040513d60208110156110db57600080fd5b505190506b7fffffffffffffffffffffff6110fa600b87900b83612c4e565b1115611146576040805162461bcd60e51b81526020600482015260166024820152754346413a20666c6f77207261746520746f6f2062696760501b604482015290519081900360640190fd5b6111508582612ca7565b9695505050505050565b600080600080600061116c8888611b19565b9150915081156111a7576020810151815161119691600b0b90611190908990612d26565b90612d8b565b945080604001519350806060015192505b505093509350939050565b600080600080600061075a8787611f41565b60606111ce61421c565b6001600160a01b03861661121f576040805162461bcd60e51b81526020600482015260136024820152724346413a2073656e646572206973207a65726f60681b604482015290519081900360640190fd5b6001600160a01b038516611272576040805162461bcd60e51b81526020600482015260156024820152744346413a207265636569766572206973207a65726f60581b604482015290519081900360640190fd5b60006112b48886868080601f016020809104026020016040519081016040528093929190818152602001838380828437600092019190915250611dd992505050565b90506112c08787611f09565b8083526001600160a01b0380891660208501528716604084015260006060840181905260a083015160808501529081906112fb908b90611f41565b915091508161134c576040805162461bcd60e51b815260206004820152601860248201527710d1904e88199b1bddc8191bd95cc81b9bdd08195e1a5cdd60421b604482015290519081900360640190fd5b60008a6001600160a01b031663eb3537cc8b86604001516040518363ffffffff1660e01b815260040180836001600160a01b031681526020018281526020019250505060606040518083038186803b1580156113a757600080fd5b505afa1580156113bb573d6000803e3d6000fd5b505050506040513d60608110156113d157600080fd5b505160608501519091506001600160a01b038b811691161480159061140c5750886001600160a01b031684606001516001600160a01b031614155b156115435760408051636b4f333560e01b81526001600160a01b038c16600482015290513391636b4f3335916024808301926020929190829003018186803b15801561145757600080fd5b505afa15801561146b573d6000803e3d6000fd5b505050506040513d602081101561148157600080fd5b50511580156114ff575060408051636b4f333560e01b81526001600160a01b038b16600482015290513391636b4f3335916024808301926020929190829003018186803b1580156114d157600080fd5b505afa1580156114e5573d6000803e3d6000fd5b505050506040513d60208110156114fb57600080fd5b5051155b1561154357600081126115435760405162461bcd60e51b815260040180806020018281038252602381526020018061494c6023913960400191505060405180910390fd5b600081121561155d5761155d8b8287858860600151612e34565b87878080601f01602080910402602001604051908101604052809392919081815260200183838082843760009201919091525050505060608501519096506001600160a01b038b8116911614156116515760408051631e51d6a760e11b81526001600160a01b038b16600482015290513391633ca3ad4e916024808301926020929190829003018186803b1580156115f457600080fd5b505afa158015611608573d6000803e3d6000fd5b505050506040513d602081101561161e57600080fd5b50511561163c57611635898c87858a896002611fa2565b955061164c565b6116498b86848988612909565b95505b611a3c565b886001600160a01b031684606001516001600160a01b0316141561177e5760408051631e51d6a760e11b81526001600160a01b038c16600482015290513391633ca3ad4e916024808301926020929190829003018186803b1580156116b557600080fd5b505afa1580156116c9573d6000803e3d6000fd5b505050506040513d60208110156116df57600080fd5b5051156116f6576116358a8c87858a896002611fa2565b60408051631e51d6a760e11b81526001600160a01b038b16600482015290513391633ca3ad4e916024808301926020929190829003018186803b15801561173c57600080fd5b505afa158015611750573d6000803e3d6000fd5b505050506040513d602081101561176657600080fd5b50511561163c5761163560008c87858a896002611fa2565b60408051631e51d6a760e11b81526001600160a01b038c16600482015290513391633ca3ad4e916024808301926020929190829003018186803b1580156117c457600080fd5b505afa1580156117d8573d6000803e3d6000fd5b505050506040513d60208110156117ee57600080fd5b5051156119a557336001600160a01b031663b724211e878c600b6040518463ffffffff1660e01b81526004018080602001846001600160a01b03168152602001838152602001828103825285818151815260200191508051906020019080838360005b83811015611869578181015183820152602001611851565b50505050905090810190601f1680156118965780820380516001836020036101000a031916815260200191505b50945050505050600060405180830381600087803b1580156118b757600080fd5b505af11580156118cb573d6000803e3d6000fd5b505050506040513d6000823e601f3d908101601f1916820160405260208110156118f457600080fd5b8101908080516040519392919084600160201b82111561191357600080fd5b90830190602082018581111561192857600080fd5b8251600160201b81118282018810171561194157600080fd5b82525081516020918201929091019080838360005b8381101561196e578181015183820152602001611956565b50505050905090810190601f16801561199b5780820380516001836020036101000a031916815260200191505b5060405250505095505b60408051631e51d6a760e11b81526001600160a01b038b16600482015290513391633ca3ad4e916024808301926020929190829003018186803b1580156119eb57600080fd5b505afa1580156119ff573d6000803e3d6000fd5b505050506040513d6020811015611a1557600080fd5b505115611a2c57611649898c87858a896002611fa2565b611a398b86848988612909565b95505b505050505095945050505050565b6000806000806000611a6588611a608989611f09565b611f41565b805160208201516040830151606090930151919c909b50919950975095505050505050565b600080611a978484611b19565b6020015195945050505050565b63ffffffff1981165b919050565b6000808211611b08576040805162461bcd60e51b815260206004820152601a60248201527f536166654d6174683a206469766973696f6e206279207a65726f000000000000604482015290519081900360640190fd5b818381611b1157fe5b049392505050565b6000611b2361424c565b60408051634b61cc3360e01b81523060048201526001600160a01b03858116602483015260006044830181905260016064840152925190871691634b61cc339160848083019286929190829003018186803b158015611b8157600080fd5b505afa158015611b95573d6000803e3d6000fd5b505050506040513d6000823e601f3d908101601f191682016040526020811015611bbe57600080fd5b8101908080516040519392919084600160201b821115611bdd57600080fd5b908301906020820185811115611bf257600080fd5b82518660208202830111600160201b82111715611c0e57600080fd5b82525081516020918201928201910280838360005b83811015611c3b578181015183820152602001611c23565b505050509050016040525050509050611c6a81600081518110611c5a57fe5b602002602001015160001c612ffe565b92509250509250929050565b6000611c80612c18565b6001600160a01b03161415611cdc576040805162461bcd60e51b815260206004820152601d60248201527f5555505350726f786961626c653a206e6f742075706772616461626c65000000604482015290519081900360640190fd5b806001600160a01b03166352d1902d6040518163ffffffff1660e01b815260040160206040518083038186803b158015611d1557600080fd5b505afa158015611d29573d6000803e3d6000fd5b505050506040513d6020811015611d3f57600080fd5b5051611d49610b0b565b14611d855760405162461bcd60e51b81526004018080602001828103825260238152602001806147da6023913960400191505060405180910390fd5b611d8e81613063565b7fe011bc04c286c344a8fcbb8de77f953da762c3e25d8cdea984147fc4168a5dcc611db7610b0b565b604080519182526001600160a01b03841660208301528051918290030190a150565b611de1614277565b336001600160a01b0316836001600160a01b03166320bc44256040518163ffffffff1660e01b815260040160206040518083038186803b158015611e2457600080fd5b505afa158015611e38573d6000803e3d6000fd5b505050506040513d601f19601f82011682018060405250810190611e5c91906143e1565b6001600160a01b031614611e8b5760405162461bcd60e51b8152600401611e829061472d565b60405180910390fd5b604051631fb6491d60e11b81523390633f6c923a90611eae90859060040161459f565b60006040518083038186803b158015611ec657600080fd5b505afa158015611eda573d6000803e3d6000fd5b505050506040513d6000823e601f3d908101601f19168201604052611f02919081019061446b565b9392505050565b604080516001600160a01b03938416602080830191909152929093168382015280518084038201815260609093019052815191012090565b6000611f4b61424c565b60408051636c2d9f2f60e01b8152306004820152602481018590526001604482015290516000916001600160a01b03871691636c2d9f2f916064808201928692909190829003018186803b158015611b8157600080fd5b82611fab6142d2565b6001600160a01b0389161561213b57600061200d898b8a600001518b602001518c6040015160405160200180836001600160a01b03168152602001826001600160a01b0316815260200192505050604051602081830303815290604052613087565b9050600084600281111561201d57fe5b141561203257600160201b60c0820152612062565b600184600281111561204057fe5b14156120565764040000000060c0820152612062565b64100000000060c08201525b61206c81876130b5565b8252604085015161014086015161208691908b8b8b61328b565b506080830181905286516120a0925060010160ff16612c4e565b608082015260608701516120b3906136e8565b60a082015260008460028111156120c657fe5b14156120dc5764020000000060c082015261210c565b60018460028111156120ea57fe5b14156121005764080000000060c082015261210c565b64200000000060c08201525b61211b81836000015185613730565b506040830152875161212e908a90611f41565b6020840152506121599050565b61215184604001518561014001518a8a8a61328b565b602084015250505b60008160400151610100015113156121985761218d612188612183836040015161010001516139c9565b613a20565b6136e8565b604082015161010001525b60006121ba6121aa88606001516136e8565b6040840151610100015190612d26565b90506121df6121da826121d48560200151604001516136e8565b90613a4a565b6139c9565b826020015160400181815250506122046121da826121d48560200151606001516136e8565b60208301805160600191909152885190516001600160a01b038b169163a1b2bf8b9161222f90613aaf565b6040518363ffffffff1660e01b81526004018083815260200180602001828103825283818151815260200191508051906020019060200280838360005b8381101561228457818101518382015260200161226c565b505050509050019350505050600060405180830381600087803b1580156122aa57600080fd5b505af11580156122be573d6000803e3d6000fd5b505050506122da89896020015160008460008a60400151613b2b565b506122f2898960400151600080858a60400151613b2b565b506101408501516001600160a01b031615806123245750886001600160a01b03168561014001516001600160a01b0316145b156124d757336001600160a01b0316630792f20a87846020015160400151846040518463ffffffff1660e01b81526004018080602001848152602001838152602001828103825285818151815260200191508051906020019080838360005b8381101561239b578181015183820152602001612383565b50505050905090810190601f1680156123c85780820380516001836020036101000a031916815260200191505b50945050505050600060405180830381600087803b1580156123e957600080fd5b505af11580156123fd573d6000803e3d6000fd5b505050506040513d6000823e601f3d908101601f19168201604052602081101561242657600080fd5b8101908080516040519392919084600160201b82111561244557600080fd5b90830190602082018581111561245a57600080fd5b8251600160201b81118282018810171561247357600080fd5b82525081516020918201929091019080838360005b838110156124a0578181015183820152602001612488565b50505050905090810190601f1680156124cd5780820380516001836020036101000a031916815260200191505b5060405250505092505b336001600160a01b0316633ca3ad4e89604001516040518263ffffffff1660e01b815260040180826001600160a01b0316815260200191505060206040518083038186803b15801561252857600080fd5b505afa15801561253c573d6000803e3d6000fd5b505050506040513d602081101561255257600080fd5b5051156128fc576000896001600160a01b031663eb3537cc8a6040015188604001516040518363ffffffff1660e01b815260040180836001600160a01b031681526020018281526020019250505060606040518083038186803b1580156125b857600080fd5b505afa1580156125cc573d6000803e3d6000fd5b505050506040513d60608110156125e257600080fd5b5051905060008112156128fa5760028560028111156125fd57fe5b14156128c357336001600160a01b031663b724211e858b60400151600c6040518463ffffffff1660e01b81526004018080602001846001600160a01b03168152602001838152602001828103825285818151815260200191508051906020019080838360005b8381101561267b578181015183820152602001612663565b50505050905090810190601f1680156126a85780820380516001836020036101000a031916815260200191505b50945050505050600060405180830381600087803b1580156126c957600080fd5b505af11580156126dd573d6000803e3d6000fd5b505050506040513d6000823e601f3d908101601f19168201604052602081101561270657600080fd5b8101908080516040519392919084600160201b82111561272557600080fd5b90830190602082018581111561273a57600080fd5b8251600160201b81118282018810171561275357600080fd5b82525081516020918201929091019080838360005b83811015612780578181015183820152602001612768565b50505050905090810190601f1680156127ad5780820380516001836020036101000a031916815260200191505b50604052505050935060006127d2826000036127cd600086600003613d3d565b613d53565b90508a6001600160a01b031663cf97256d8b60200151836000036040518363ffffffff1660e01b815260040180836001600160a01b0316815260200182815260200192505050600060405180830381600087803b15801561283257600080fd5b505af1158015612846573d6000803e3d6000fd5b505050508a6001600160a01b031663cf97256d8b60400151836040518363ffffffff1660e01b815260040180836001600160a01b0316815260200182815260200192505050600060405180830381600087803b1580156128a557600080fd5b505af11580156128b9573d6000803e3d6000fd5b50505050506128fa565b60405162461bcd60e51b815260040180806020018281038252602a8152602001806148af602a913960400191505060405180910390fd5b505b5050979650505050505050565b6060838101511561291657fe5b600061292061424c565b61293684604001518561014001518a8a8a61328b565b6101408701519294509250506001600160a01b0389811691161415612b0357336001600160a01b0316630792f20a868360400151856040518463ffffffff1660e01b81526004018080602001848152602001838152602001828103825285818151815260200191508051906020019080838360005b838110156129c35781810151838201526020016129ab565b50505050905090810190601f1680156129f05780820380516001836020036101000a031916815260200191505b50945050505050600060405180830381600087803b158015612a1157600080fd5b505af1158015612a25573d6000803e3d6000fd5b505050506040513d6000823e601f3d908101601f191682016040526020811015612a4e57600080fd5b8101908080516040519392919084600160201b821115612a6d57600080fd5b908301906020820185811115612a8257600080fd5b8251600160201b811182820188101715612a9b57600080fd5b82525081516020918201929091019080838360005b83811015612ac8578181015183820152602001612ab0565b50505050905090810190601f168015612af55780820380516001836020036101000a031916815260200191505b506040525050509250612b07565b8492505b505095945050505050565b602081015160ff166003141580612b405750816001600160a01b03168161014001516001600160a01b031614155b15612c14576000826001600160a01b031663eb3537cc836060015184604001516040518363ffffffff1660e01b815260040180836001600160a01b031681526020018281526020019250505060606040518083038186803b158015612ba457600080fd5b505afa158015612bb8573d6000803e3d6000fd5b505050506040513d6060811015612bce57600080fd5b505190506000811215612c125760405162461bcd60e51b81526004018080602001828103825260218152602001806147fd6021913960400191505060405180910390fd5b505b5050565b7f360894a13ba1a3210667c828492db98dca3e2076cc3735a920a3ca505d382bbc5490565b6000612c4830613d68565b15905090565b600082612c5d57506000610742565b82820282848281612c6a57fe5b0414611f025760405162461bcd60e51b815260040180806020018281038252602181526020018061488e6021913960400191505060405180910390fd5b600082600b0b60001415612cbd57506000610742565b6b7fffffffffffffffffffffff821115612cd357fe5b612d1882604051806040016040528060158152602001744346413a206465706f736974206f766572666c6f7760581b81525085600b0b613d6e9092919063ffffffff16565b600b0b9050611f0281613a20565b6000818303818312801590612d3b5750838113155b80612d505750600083128015612d5057508381135b611f025760405162461bcd60e51b81526004018080602001828103825260248152602001806149286024913960400191505060405180910390fd5b600082612d9a57506000610742565b82600019148015612dae5750600160ff1b82145b15612dea5760405162461bcd60e51b81526004018080602001828103825260278152602001806148d96027913960400191505060405180910390fd5b82820282848281612df757fe5b0514611f025760405162461bcd60e51b81526004018080602001828103825260278152602001806148d96027913960400191505060405180910390fd5b6000612e44868560200151611b19565b9150506000612e5684604001516136e8565b90506000612e6783604001516136e8565b90506000612e758883613a4a565b905060008112612f3e576000612e9583612e8f8685612d8b565b90613ea9565b9050896001600160a01b0316638ddd1c0f8960000151888b60200151612eba866139c9565b60006040518663ffffffff1660e01b815260040180868152602001856001600160a01b03168152602001846001600160a01b0316815260200183815260200182815260200195505050505050600060405180830381600087803b158015612f2057600080fd5b505af1158015612f34573d6000803e3d6000fd5b5050505050612ff3565b6000839050896001600160a01b0316638ddd1c0f8960000151888b60200151612f66866139c9565b612f756121da89600019612d8b565b6040518663ffffffff1660e01b815260040180868152602001856001600160a01b03168152602001846001600160a01b0316815260200183815260200182815260200195505050505050600060405180830381600087803b158015612fd957600080fd5b505af1158015612fed573d6000803e3d6000fd5b50505050505b505050505050505050565b600061300861424c565b82158015925061305e5760e083901c8152608083901c6bffffffffffffffffffffffff16600b90810b900b6020808301919091526bffffffffffffffff0000000084821c811660408401529084901b1660608201525b915091565b7f360894a13ba1a3210667c828492db98dca3e2076cc3735a920a3ca505d382bbc55565b61308f6142fe565b6001600160a01b0394851681529290931660208301526040820152606081019190915290565b60606000806000336001600160a01b031663f9f522f487602001516040518263ffffffff1660e01b81526004016130ec9190614619565b60606040518083038186803b15801561310457600080fd5b505afa158015613118573d6000803e3d6000fd5b505050506040513d601f19601f8201168201806040525081019061313c91906143fd565b9194509250905082801561314e575081155b1561328257600061315f8688613f61565b90508660c0015182166000141561327457600061317f8860c00151613fee565b88516040808b015160608c0151825160008152602081019093526131ab93923092919060448101614676565b60408051601f19818403018152918152602080830180516001600160e01b03166001600160e01b031990951694909417909352918a015160c08b01519251633a020f0160e11b815291935033926374041e029261321a929186916410000000009190911490889060040161462d565b600060405180830381600087803b15801561323457600080fd5b505af1158015613248573d6000803e3d6000fd5b505050506040513d6000823e601f3d908101601f191682016040526132709190810190614438565b9550505b61327f866000614084565b50505b50505092915050565b60008061329661424c565b6000336001600160a01b031663289b3c0d6040518163ffffffff1660e01b815260040160206040518083038186803b1580156132d157600080fd5b505afa1580156132e5573d6000803e3d6000fd5b505050506040513d60208110156132fb57600080fd5b50516040805163407b865d60e11b81523360048201526001600160a01b038a811660248301527f1ca463a216b802472396d1b8a5b5b695d935b1d24311e89b020144e6613f15aa60448301529151929350600092918416916380f70cba91606480820192602092909190829003018186803b15801561337957600080fd5b505afa15801561338d573d6000803e3d6000fd5b505050506040513d60208110156133a357600080fd5b505160608801519091506133b79082612ca7565b93506133c2846136e8565b945050506001600160a01b038716158015906133f05750856001600160a01b0316876001600160a01b031614155b156133fa57600091505b61342161340a85606001516136e8565b6121d461341a87604001516136e8565b8690612d26565b9250604051806080016040528060008760600151600b0b13613444576000613446565b895b81526020018660600151600b0b815260200161346c6121da866121d489604001516136e8565b815260200185606001518152509050856001600160a01b031663a1b2bf8b866000015161349884613aaf565b6040518363ffffffff1660e01b81526004018083815260200180602001828103825283818151815260200191508051906020019060200280838360005b838110156134ed5781810151838201526020016134d5565b505050509050019350505050600060405180830381600087803b15801561351357600080fd5b505af1158015613527573d6000803e3d6000fd5b50505050600061358d8787602001516135848960600151604051806040016040528060168152602001754346413a20666c6f7772617465206f766572666c6f7760501b8152508a60200151600b0b6140ac9092919063ffffffff16565b8760008e613b2b565b905060006135f18888604001516135e88960200151604051806040016040528060168152602001754346413a20666c6f7772617465206f766572666c6f7760501b8152508c60600151600b0b6140ac9092919063ffffffff16565b6000808f613b2b565b905086604001516001600160a01b031687602001516001600160a01b0316896001600160a01b03167f57269d2ebcccecdcc0d9d2c0a0b80ead95f344e28ec20f50f709811f209d4e0e8a6060015186868d608001516040518085600b0b815260200184600b0b815260200183600b0b815260200180602001828103825283818151815260200191508051906020019080838360005b8381101561369e578181015183820152602001613686565b50505050905090810190601f1680156136cb5780820380516001836020036101000a031916815260200191505b509550505050505060405180910390a45050955095509592505050565b6000600160ff1b821061372c5760405162461bcd60e51b81526004018080602001828103825260288152602001806149006028913960400191505060405180910390fd5b5090565b613738614277565b60606000806000336001600160a01b031663f9f522f489602001516040518263ffffffff1660e01b815260040161376f9190614619565b60606040518083038186803b15801561378757600080fd5b505afa15801561379b573d6000803e3d6000fd5b505050506040513d601f19601f820116820180604052508101906137bf91906143fd565b919450925090508280156137d1575081155b156139be576137e08689613f61565b93508760c001518116600014156139ac5760006138008960c00151613fee565b89516040808c015160608d01518251600081526020810190935261382e9392309291908e90604481016146c7565b60408051601f19818403018152918152602080830180516001600160e01b03166001600160e01b031990951694909417909352918b015160c08c0151925163079b42a160e21b81529193503392631e6d0a849261389d9291869164200000000091909114908b9060040161462d565b600060405180830381600087803b1580156138b757600080fd5b505af11580156138cb573d6000803e3d6000fd5b505050506040513d6000823e601f3d908101601f191682016040526138f39190810190614438565b604051631fb6491d60e11b81529095503390633f6c923a9061391990889060040161459f565b60006040518083038186803b15801561393157600080fd5b505afa158015613945573d6000803e3d6000fd5b505050506040513d6000823e601f3d908101601f1916820160405261396d919081019061446b565b95506139a4600061399f6139848c608001516136e8565b6127cd6139948b60e001516136e8565b8b6101000151613d3d565b613d3d565b610100870152505b6139bb86866101000151614084565b93505b505050935093915050565b60008082121561372c576040805162461bcd60e51b815260206004820181905260248201527f53616665436173743a2076616c7565206d75737420626520706f736974697665604482015290519081900360640190fd5b60008063ffffffff8316613a35576000613a38565b60015b60ff16602093841c0190921b92915050565b6000828201818312801590613a5f5750838112155b80613a745750600083128015613a7457508381125b611f025760405162461bcd60e51b815260040180806020018281038252602181526020018061481e6021913960400191505060405180910390fd5b6040805160018082528183019092526060916020808301908036833701905050905060208260600151901c604060208460400151901c901b608084602001516bffffffffffffffffffffffff16901b60e08560000151901b17171760001b81600081518110613b1a57fe5b602002602001018181525050919050565b600080613b388888611b19565b9150506000613b628260200151600b0b61119061218885600001518861413690919063ffffffff16565b90508015613bda57886001600160a01b031663cf97256d89836040518363ffffffff1660e01b815260040180836001600160a01b0316815260200182815260200192505050600060405180830381600087803b158015613bc157600080fd5b505af1158015613bd5573d6000803e3d6000fd5b505050505b613c2487604051806040016040528060168152602001754346413a20666c6f7772617465206f766572666c6f7760501b8152508460200151600b0b6141939092919063ffffffff16565b600b90810b900b60208301528382526040820151613c4b906121da9088906121d4906136e8565b826040018181525050613c686121da866121d485606001516136e8565b60608301526001600160a01b03891663090c415e896000613c8886613aaf565b6040518463ffffffff1660e01b815260040180846001600160a01b0316815260200183815260200180602001828103825283818151815260200191508051906020019060200280838360005b83811015613cec578181015183820152602001613cd4565b50505050905001945050505050600060405180830381600087803b158015613d1357600080fd5b505af1158015613d27573d6000803e3d6000fd5b5050506020909201519998505050505050505050565b6000818313613d4c5781611f02565b5090919050565b6000818313613d625782611f02565b50919050565b3b151590565b600083600b0b60001415613d8457506000611f02565b83600b0b600019148015613da85750600b83900b6b7fffffffffffffffffffffff19145b158290613e335760405162461bcd60e51b81526004018080602001828103825283818151815260200191508051906020019080838360005b83811015613df8578181015183820152602001613de0565b50505050905090810190601f168015613e255780820380516001836020036101000a031916815260200191505b509250505060405180910390fd5b506000838502905083600b0b85600b0b82600b0b81613e4e57fe5b05600b0b148390613ea05760405162461bcd60e51b8152602060048201818152835160248401528351909283926044909101919085019080838360008315613df8578181015183820152602001613de0565b50949350505050565b600081613efd576040805162461bcd60e51b815260206004820181905260248201527f5369676e6564536166654d6174683a206469766973696f6e206279207a65726f604482015290519081900360640190fd5b81600019148015613f115750600160ff1b83145b15613f4d5760405162461bcd60e51b815260040180806020018281038252602181526020018061486d6021913960400191505060405180910390fd5b6000828481613f5857fe5b05949350505050565b6020810151608082015160a08301518351604051630768fabb60e41b8152606094339463768fabb094613f98948a946004016145b2565b600060405180830381600087803b158015613fb257600080fd5b505af1158015613fc6573d6000803e3d6000fd5b505050506040513d6000823e601f3d908101601f19168201604052611f029190810190614438565b6000600160201b82141561400a57506330d9c91560e01b611aad565b6404000000008214156140255750630221347d60e61b611aad565b6410000000008214156140405750635f9e7d7760e01b611aad565b64020000000082141561405b575063d86ed3e560e01b611aad565b640800000000821415614076575063230dbd2960e01b611aad565b506353c11f9960e01b611aad565b604051634c4d861f60e11b8152606090339063989b0c3e90613f9890869086906004016145f7565b6000828403600b84900b82138015906140cb575084600b0b81600b0b13155b806140e95750600084600b0b1280156140e9575084600b0b81600b0b135b8390613ea05760405162461bcd60e51b8152602060048201818152835160248401528351909283926044909101919085019080838360008315613df8578181015183820152602001613de0565b60008282111561418d576040805162461bcd60e51b815260206004820152601e60248201527f536166654d6174683a207375627472616374696f6e206f766572666c6f770000604482015290519081900360640190fd5b50900390565b6000838301600b84900b82138015906141b2575084600b0b81600b0b12155b806140e95750600084600b0b1280156140e9575084600b0b81600b0b128390613ea05760405162461bcd60e51b8152602060048201818152835160248401528351909283926044909101919085019080838360008315613df8578181015183820152602001613de0565b6040805160a081018252600080825260208201819052918101829052606080820192909252608081019190915290565b6040518060800160405280600081526020016000600b0b815260200160008152602001600081525090565b604080516101608101825260008082526020820181905291810182905260608082018390526080820183905260a082015260c0810182905260e081018290526101008101829052610120810182905261014081019190915290565b6040518060600160405280606081526020016142ec61424c565b81526020016142f9614277565b905290565b6040805160e0810182526000808252602082018190529181018290526060808201526080810182905260a0810182905260c081019190915290565b8051611aad816147c4565b80518015158114611aad57600080fd5b80516001600160e01b031981168114611aad57600080fd5b600082601f83011261437c578081fd5b815167ffffffffffffffff81111561439057fe5b6143a3601f8201601f1916602001614770565b8181528460208386010111156143b7578283fd5b6143c8826020830160208701614794565b949350505050565b805160ff81168114611aad57600080fd5b6000602082840312156143f2578081fd5b8151611f02816147c4565b600080600060608486031215614411578182fd5b61441a84614344565b925061442860208501614344565b9150604084015190509250925092565b600060208284031215614449578081fd5b815167ffffffffffffffff81111561445f578182fd5b6143c88482850161436c565b60006020828403121561447c578081fd5b815167ffffffffffffffff80821115614493578283fd5b81840191506101608083870312156144a9578384fd5b6144b281614770565b90506144bd836143d0565b81526144cb602084016143d0565b6020820152604083015160408201526144e660608401614339565b60608201526144f760808401614354565b608082015260a08301518281111561450d578485fd5b6145198782860161436c565b60a08301525060c083015160c082015260e083015160e0820152610100915081830151828201526101209150614550828401614339565b828201526101409150614564828401614339565b91810191909152949350505050565b6000815180845261458b816020860160208601614794565b601f01601f19169290920160200192915050565b600060208252611f026020830184614573565b600060a082526145c560a0830188614573565b6001600160a01b0396871660208401526040830195909552506060810192909252909216608090920191909152919050565b60006040825261460a6040830185614573565b90508260208301529392505050565b6001600160a01b0391909116815260200190565b6001600160a01b038516815260806020820181905260009061465190830186614573565b8415156040840152828103606084015261466b8185614573565b979650505050505050565b6001600160a01b038681168252851660208201526040810184905260a0606082018190526000906146a990830185614573565b82810360808401526146bb8185614573565b98975050505050505050565b6001600160a01b038781168252861660208201526040810185905260c0606082018190526000906146fa90830186614573565b828103608084015261470c8186614573565b905082810360a08401526147208185614573565b9998505050505050505050565b60208082526023908201527f41677265656d656e744c6962726172793a20756e61757468726f697a656420686040820152621bdcdd60ea1b606082015260800190565b60405181810167ffffffffffffffff8111828210171561478c57fe5b604052919050565b60005b838110156147af578181015183820152602001614797565b838111156147be576000848401525b50505050565b6001600160a01b03811681146107ec57600080fdfe5555505350726f786961626c653a206e6f7420636f6d70617469626c65206c6f6769634346413a206e6f7420656e6f75676820617661696c61626c652062616c616e63655369676e6564536166654d6174683a206164646974696f6e206f766572666c6f77496e697469616c697a61626c653a20636f6e747261637420697320616c726561647920696e697469616c697a65645369676e6564536166654d6174683a206469766973696f6e206f766572666c6f77536166654d6174683a206d756c7469706c69636174696f6e206f766572666c6f774346413a204150505f52554c455f4e4f5f435249544943414c5f52454345495645525f4143434f554e545369676e6564536166654d6174683a206d756c7469706c69636174696f6e206f766572666c6f7753616665436173743a2076616c756520646f65736e27742066697420696e20616e20696e743235365369676e6564536166654d6174683a207375627472616374696f6e206f766572666c6f774346413a2073656e646572206163636f756e74206973206e6f7420637269746963616ca264697066735822122033164f466d8533217c1c633fd7b610358e56ed7586ea14ea6f56d591908dfea364736f6c63430007060033",
  "immutableReferences": {},
  "source": "// SPDX-License-Identifier: AGPLv3\npragma solidity 0.7.6;\n\nimport {\n    IConstantFlowAgreementV1,\n    ISuperfluidToken\n} from \"../interfaces/agreements/IConstantFlowAgreementV1.sol\";\nimport {\n    ISuperfluid,\n    ISuperfluidGovernance,\n    ISuperApp,\n    SuperAppDefinitions,\n    ContextDefinitions\n} from \"../interfaces/superfluid/ISuperfluid.sol\";\nimport { AgreementBase } from \"./AgreementBase.sol\";\n\nimport { SignedSafeMath } from \"@openzeppelin/contracts/math/SignedSafeMath.sol\";\nimport { SafeMath } from \"@openzeppelin/contracts/math/SafeMath.sol\";\nimport { SafeCast } from \"@openzeppelin/contracts/utils/SafeCast.sol\";\nimport { Int96SafeMath } from \"../utils/Int96SafeMath.sol\";\nimport { AgreementLibrary } from \"./AgreementLibrary.sol\";\n\n\ncontract ConstantFlowAgreementV1 is\n    AgreementBase,\n    IConstantFlowAgreementV1\n{\n\n    bytes32 private constant _LIQUIDATION_PERIOD_CONFIG_KEY =\n        keccak256(\"org.superfluid-finance.agreements.ConstantFlowAgreement.v1.liquidationPeriod\");\n\n    using SafeMath for uint256;\n    using SafeCast for uint256;\n    using SignedSafeMath for int256;\n    using SafeCast for int256;\n    using Int96SafeMath for int96;\n\n    struct FlowData {\n        uint256 timestamp; // stored as uint32\n        int96 flowRate; // stored also as int96\n        uint256 deposit; // stored as int96 with lower 32 bits clipped to 0\n        uint256 owedDeposit; // stored as int96 with lower 32 bits clipped to 0\n    }\n\n    struct FlowParams {\n        bytes32 flowId;\n        address sender;\n        address receiver;\n        int96 flowRate;\n        bytes userData;\n    }\n\n    /**************************************************************************\n     * ISuperAgreement interface\n     *************************************************************************/\n\n    /// @dev ISuperAgreement.realtimeBalanceOf implementation\n    function realtimeBalanceOf(\n        ISuperfluidToken token,\n        address account,\n        uint256 time\n    )\n        external\n        view\n        override\n        returns (int256 dynamicBalance, uint256 deposit, uint256 owedDeposit)\n    {\n        (bool exist, FlowData memory state) = _getAccountFlowState(token, account);\n        if(exist) {\n            dynamicBalance = ((int256(time).sub(int256(state.timestamp))).mul(state.flowRate));\n            deposit = state.deposit;\n            owedDeposit = state.owedDeposit;\n        }\n    }\n\n    /**************************************************************************\n     * IConstantFlowAgreementV1 interface\n     *************************************************************************/\n\n    /// @dev IConstantFlowAgreementV1.createFlow implementation\n    function getMaximumFlowRateFromDeposit(\n        ISuperfluidToken token,\n        uint256 deposit)\n        external view override\n        returns (int96 flowRate)\n    {\n        require(deposit < 2**95, \"CFA: deposit number too big\");\n        deposit = _clipDepositNumberRoundingDown(deposit);\n        ISuperfluid host = ISuperfluid(token.getHost());\n        ISuperfluidGovernance gov = ISuperfluidGovernance(host.getGovernance());\n        uint256 liquidationPeriod = gov.getConfigAsUint256(host, token, _LIQUIDATION_PERIOD_CONFIG_KEY);\n        uint256 flowrate1 = deposit.div(liquidationPeriod);\n        return int96(flowrate1);\n    }\n\n    function getDepositRequiredForFlowRate(\n        ISuperfluidToken token,\n        int96 flowRate)\n        external view override\n        returns (uint256 deposit)\n    {\n        require(flowRate >= 0, \"CFA: not for negative flow rate\");\n        ISuperfluid host = ISuperfluid(token.getHost());\n        ISuperfluidGovernance gov = ISuperfluidGovernance(host.getGovernance());\n        uint256 liquidationPeriod = gov.getConfigAsUint256(host, token, _LIQUIDATION_PERIOD_CONFIG_KEY);\n        require(uint256(flowRate).mul(liquidationPeriod) <= uint256(type(int96).max), \"CFA: flow rate too big\");\n        return _calculateDeposit(flowRate, liquidationPeriod);\n    }\n\n    /// @dev IConstantFlowAgreementV1.createFlow implementation\n    function createFlow(\n        ISuperfluidToken token,\n        address receiver,\n        int96 flowRate,\n        bytes calldata ctx\n    )\n        external\n        override\n        returns(bytes memory newCtx)\n    {\n        FlowParams memory flowParams;\n        require(receiver != address(0), \"CFA: receiver is zero\");\n        ISuperfluid.Context memory currentContext = AgreementLibrary.authorizeTokenAccess(token, ctx);\n        flowParams.flowId = _generateFlowId(currentContext.msgSender, receiver);\n        flowParams.sender = currentContext.msgSender;\n        flowParams.receiver = receiver;\n        flowParams.flowRate = flowRate;\n        flowParams.userData = currentContext.userData;\n        require(flowParams.sender != flowParams.receiver, \"CFA: no self flow\");\n        require(flowParams.flowRate > 0, \"CFA: invalid flow rate\");\n        (bool exist, FlowData memory oldFlowData) = _getAgreementData(token, flowParams.flowId);\n        require(!exist, \"CFA: flow already exist\");\n\n        if (ISuperfluid(msg.sender).isApp(ISuperApp(receiver)))\n        {\n            newCtx = _changeFlowToApp(\n                receiver,\n                token, flowParams, oldFlowData,\n                ctx, currentContext, FlowChangeType.CREATE_FLOW);\n        } else {\n            newCtx = _changeFlowToNonApp(\n                token, flowParams, oldFlowData,\n                ctx, currentContext);\n        }\n\n        _requireAvailableBalance(token, currentContext);\n    }\n\n    /// @dev IConstantFlowAgreementV1.updateFlow implementation\n    function updateFlow(\n        ISuperfluidToken token,\n        address receiver,\n        int96 flowRate,\n        bytes calldata ctx\n    )\n        external\n        override\n        returns(bytes memory newCtx)\n    {\n        FlowParams memory flowParams;\n        require(receiver != address(0), \"CFA: receiver is zero\");\n        ISuperfluid.Context memory currentContext = AgreementLibrary.authorizeTokenAccess(token, ctx);\n        flowParams.flowId = _generateFlowId(currentContext.msgSender, receiver);\n        flowParams.sender = currentContext.msgSender;\n        flowParams.receiver = receiver;\n        flowParams.flowRate = flowRate;\n        flowParams.userData = currentContext.userData;\n        require(flowParams.sender != flowParams.receiver, \"CFA: no self flow\");\n        require(flowParams.flowRate > 0, \"CFA: invalid flow rate\");\n        (bool exist, FlowData memory oldFlowData) = _getAgreementData(token, flowParams.flowId);\n        require(exist, \"CFA: flow does not exist\");\n\n        if (ISuperfluid(msg.sender).isApp(ISuperApp(receiver))) {\n            newCtx = _changeFlowToApp(\n                receiver,\n                token, flowParams, oldFlowData,\n                ctx, currentContext, FlowChangeType.UPDATE_FLOW);\n        } else {\n            newCtx = _changeFlowToNonApp(\n                token, flowParams, oldFlowData,\n                ctx, currentContext);\n        }\n\n        _requireAvailableBalance(token, currentContext);\n    }\n\n    /// @dev IConstantFlowAgreementV1.deleteFlow implementation\n    function deleteFlow(\n        ISuperfluidToken token,\n        address sender,\n        address receiver,\n        bytes calldata ctx\n    )\n        external\n        override\n        returns(bytes memory newCtx)\n    {\n        FlowParams memory flowParams;\n        require(sender != address(0), \"CFA: sender is zero\");\n        require(receiver != address(0), \"CFA: receiver is zero\");\n        ISuperfluid.Context memory currentContext = AgreementLibrary.authorizeTokenAccess(token, ctx);\n        flowParams.flowId = _generateFlowId(sender, receiver);\n        flowParams.sender = sender;\n        flowParams.receiver = receiver;\n        flowParams.flowRate = 0;\n        flowParams.userData = currentContext.userData;\n        (bool exist, FlowData memory oldFlowData) = _getAgreementData(token, flowParams.flowId);\n        require(exist, \"CFA: flow does not exist\");\n\n        int256 availableBalance;\n        (availableBalance,,) = token.realtimeBalanceOf(sender, currentContext.timestamp);\n\n        // delete should only be called by sender or receiver\n        // unless it is a liquidation (availale balance < 0)\n        if (currentContext.msgSender != sender && currentContext.msgSender != receiver) {\n            // liquidation should only for sender that is critical, unless sender or receiver is a jailed app\n            if (!ISuperfluid(msg.sender).isAppJailed(ISuperApp(sender)) &&\n                !ISuperfluid(msg.sender).isAppJailed(ISuperApp(receiver))) {\n                require(availableBalance < 0, \"CFA: sender account is not critical\");\n            }\n        }\n\n        if (availableBalance < 0) {\n            _makeLiquidationPayouts(\n                token,\n                availableBalance,\n                flowParams,\n                oldFlowData,\n                currentContext.msgSender);\n        }\n\n        newCtx = ctx;\n        if (currentContext.msgSender == sender) {\n            if (ISuperfluid(msg.sender).isApp(ISuperApp(receiver))) {\n                newCtx = _changeFlowToApp(\n                    receiver,\n                    token, flowParams, oldFlowData,\n                    newCtx, currentContext, FlowChangeType.DELETE_FLOW);\n            } else {\n                newCtx = _changeFlowToNonApp(\n                    token, flowParams, oldFlowData,\n                    newCtx, currentContext);\n            }\n        } else if (currentContext.msgSender == receiver) {\n            if (ISuperfluid(msg.sender).isApp(ISuperApp(sender))) {\n                newCtx = _changeFlowToApp(\n                    sender,\n                    token, flowParams, oldFlowData,\n                    newCtx, currentContext, FlowChangeType.DELETE_FLOW);\n            } else if (ISuperfluid(msg.sender).isApp(ISuperApp(receiver))) {\n                newCtx = _changeFlowToApp(\n                    address(0),\n                    token, flowParams, oldFlowData,\n                    newCtx, currentContext, FlowChangeType.DELETE_FLOW);\n            } else {\n                newCtx = _changeFlowToNonApp(\n                    token, flowParams, oldFlowData,\n                    newCtx, currentContext);\n            }\n        } else /* liquidations */ {\n            // if the sender is an app, and becomes critical\n            if (ISuperfluid(msg.sender).isApp(ISuperApp(sender))) {\n                newCtx = ISuperfluid(msg.sender).jailApp(\n                    newCtx,\n                    ISuperApp(sender),\n                    SuperAppDefinitions.APP_RULE_NO_CRITICAL_SENDER_ACCOUNT);\n            }\n            // always attempt to call receiver callback\n            if (ISuperfluid(msg.sender).isApp(ISuperApp(receiver))) {\n                newCtx = _changeFlowToApp(\n                    receiver,\n                    token, flowParams, oldFlowData,\n                    newCtx, currentContext, FlowChangeType.DELETE_FLOW);\n            } else {\n                newCtx = _changeFlowToNonApp(\n                    token, flowParams, oldFlowData,\n                    newCtx, currentContext);\n            }\n        }\n    }\n\n    /// @dev IConstantFlowAgreementV1.getFlow implementation\n    function getFlow(\n        ISuperfluidToken token,\n        address sender,\n        address receiver\n    )\n        external\n        view\n        override\n        returns (\n            uint256 timestamp,\n            int96 flowRate,\n            uint256 deposit,\n            uint256 owedDeposit\n        )\n    {\n        (, FlowData memory data) = _getAgreementData(\n            token,\n            _generateFlowId(sender, receiver));\n\n        return(\n            data.timestamp,\n            data.flowRate,\n            data.deposit,\n            data.owedDeposit\n        );\n    }\n\n    /// @dev IConstantFlowAgreementV1.getFlow implementation\n    function getFlowByID(\n        ISuperfluidToken token,\n        bytes32 flowId\n    )\n        external\n        view\n        override\n        returns(\n            uint256 timestamp,\n            int96 flowRate,\n            uint256 deposit,\n            uint256 owedDeposit\n        )\n    {\n        (, FlowData memory data) = _getAgreementData(\n            token,\n            flowId\n        );\n\n        return (\n            data.timestamp,\n            data.flowRate,\n            data.deposit,\n            data.owedDeposit\n        );\n    }\n\n    /// @dev IConstantFlowAgreementV1.getAccountFlowInfo implementation\n    function getAccountFlowInfo(\n        ISuperfluidToken token,\n        address account\n    )\n        external view override\n        returns (\n            uint256 timestamp,\n            int96 flowRate,\n            uint256 deposit,\n            uint256 owedDeposit)\n    {\n        (, FlowData memory state) = _getAccountFlowState(token, account);\n        return (\n            state.timestamp,\n            state.flowRate,\n            state.deposit,\n            state.owedDeposit\n        );\n    }\n\n    /// @dev IConstantFlowAgreementV1.getNetFlow implementation\n    function getNetFlow(\n        ISuperfluidToken token,\n        address account\n    )\n        external view override\n        returns (int96 flowRate)\n    {\n        (, FlowData memory state) = _getAccountFlowState(token, account);\n        return state.flowRate;\n    }\n\n    /**************************************************************************\n     * Internal State Functions\n     *************************************************************************/\n\n    enum FlowChangeType {\n        CREATE_FLOW,\n        UPDATE_FLOW,\n        DELETE_FLOW\n    }\n\n    function _getAccountFlowState\n    (\n        ISuperfluidToken token,\n        address account\n    )\n        private view\n        returns(bool exist, FlowData memory)\n    {\n        bytes32[] memory data = token.getAgreementStateSlot(address(this), account, 0 /* slotId */, 1 /* length */);\n        return _decodeFlowData(uint256(data[0]));\n    }\n\n    function _getAgreementData\n    (\n        ISuperfluidToken token,\n        bytes32 dId\n    )\n        private view\n        returns (bool exist, FlowData memory)\n    {\n        bytes32[] memory data = token.getAgreementData(address(this), dId, 1);\n        return _decodeFlowData(uint256(data[0]));\n    }\n\n    function _updateAccountFlowState(\n        ISuperfluidToken token,\n        address account,\n        int96 flowRateDelta,\n        int256 depositDelta,\n        int256 owedDepositDelta,\n        uint256 currentTimestamp\n    )\n        private\n        returns (int96 newNetFlowRate)\n    {\n        (, FlowData memory state) = _getAccountFlowState(token, account);\n        int256 dynamicBalance = currentTimestamp.sub(state.timestamp).toInt256()\n            .mul(int256(state.flowRate));\n        if (dynamicBalance != 0) {\n            token.settleBalance(account, dynamicBalance);\n        }\n        state.flowRate = state.flowRate.add(flowRateDelta, \"CFA: flowrate overflow\");\n        state.timestamp = currentTimestamp;\n        state.deposit = state.deposit.toInt256().add(depositDelta).toUint256();\n        state.owedDeposit = state.owedDeposit.toInt256().add(owedDepositDelta).toUint256();\n\n        token.updateAgreementStateSlot(account, 0 /* slot id */, _encodeFlowData(state));\n\n        return state.flowRate;\n    }\n\n    /**\n     * @dev update a flow to a non-app receiver\n     */\n    function _changeFlowToNonApp(\n        ISuperfluidToken token,\n        FlowParams memory flowParams,\n        FlowData memory oldFlowData,\n        bytes memory ctx,\n        ISuperfluid.Context memory currentContext\n    )\n        private\n        returns (bytes memory newCtx)\n    {\n        // owed deposit should have been always zero, since an app should never become a non app\n        assert(oldFlowData.owedDeposit == 0);\n\n        // STEP 1: update the flow\n        int256 depositDelta;\n        FlowData memory newFlowData;\n        (depositDelta,,newFlowData) = _changeFlow(\n            currentContext.timestamp,\n            currentContext.appAllowanceToken,\n            token, flowParams, oldFlowData);\n\n        // STEP 2: update app allowance used\n        if (currentContext.appAllowanceToken == token) {\n            newCtx = ISuperfluid(msg.sender).ctxUseAllowance(\n                ctx,\n                newFlowData.deposit, // allowanceWantedMore\n                depositDelta // allowanceUsedDelta\n            );\n        } else {\n            newCtx = ctx;\n        }\n    }\n\n    /**\n     * @dev change a flow to a app receiver\n     */\n\n    // Stack variables for updateFlowApp function, to avoid stack too deep issue\n    // solhint-disable-next-line contract-name-camelcase\n    struct _StackVars_changeFlowToApp {\n        bytes cbdata;\n        FlowData newFlowData;\n        ISuperfluid.Context appContext;\n    }\n    function _changeFlowToApp(\n        address appToCallback,\n        ISuperfluidToken token,\n        FlowParams memory flowParams,\n        FlowData memory oldFlowData,\n        bytes memory ctx,\n        ISuperfluid.Context memory currentContext,\n        FlowChangeType optype\n    )\n        private\n        returns (bytes memory newCtx)\n    {\n        newCtx = ctx;\n        // apply callbacks\n        _StackVars_changeFlowToApp memory vars;\n\n        // call callback\n        if (appToCallback != address(0)) {\n            AgreementLibrary.CallbackInputs memory cbStates = AgreementLibrary.createCallbackInputs(\n                token,\n                appToCallback,\n                flowParams.flowId,\n                abi.encode(flowParams.sender, flowParams.receiver)\n            );\n\n            // call the before callback\n            if (optype == FlowChangeType.CREATE_FLOW) {\n                cbStates.noopBit = SuperAppDefinitions.BEFORE_AGREEMENT_CREATED_NOOP;\n            } else if (optype == FlowChangeType.UPDATE_FLOW) {\n                cbStates.noopBit = SuperAppDefinitions.BEFORE_AGREEMENT_UPDATED_NOOP;\n            } else /* if (optype == FlowChangeType.DELETE_FLOW) */ {\n                cbStates.noopBit = SuperAppDefinitions.BEFORE_AGREEMENT_TERMINATED_NOOP;\n            }\n            vars.cbdata = AgreementLibrary.callAppBeforeCallback(cbStates, ctx);\n\n            (,cbStates.appAllowanceGranted,) = _changeFlow(\n                    currentContext.timestamp,\n                    currentContext.appAllowanceToken,\n                    token, flowParams, oldFlowData);\n            cbStates.appAllowanceGranted = cbStates.appAllowanceGranted.mul(uint256(currentContext.appLevel + 1));\n            cbStates.appAllowanceUsed = oldFlowData.owedDeposit.toInt256();\n            // - each app level can at least \"relay\" the same amount of input flow rate to others\n            // - each app level get a same amount of allowance\n\n            if (optype == FlowChangeType.CREATE_FLOW) {\n                cbStates.noopBit = SuperAppDefinitions.AFTER_AGREEMENT_CREATED_NOOP;\n            } else if (optype == FlowChangeType.UPDATE_FLOW) {\n                cbStates.noopBit = SuperAppDefinitions.AFTER_AGREEMENT_UPDATED_NOOP;\n            } else /* if (optype == FlowChangeType.DELETE_FLOW) */ {\n                cbStates.noopBit = SuperAppDefinitions.AFTER_AGREEMENT_TERMINATED_NOOP;\n            }\n            (vars.appContext,) = AgreementLibrary.callAppAfterCallback(cbStates, vars.cbdata, newCtx);\n\n            // NB: the callback might update the same flow!!\n            // reload the flow data\n            (, vars.newFlowData) = _getAgreementData(token, flowParams.flowId);\n        } else {\n            (,,vars.newFlowData) = _changeFlow(\n                    currentContext.timestamp,\n                    currentContext.appAllowanceToken,\n                    token, flowParams, oldFlowData);\n        }\n\n        // REVIEW the re-entrace assumptions from this point on\n\n        // NOTE: vars.appContext.appAllowanceUsed will be adjusted by callAppAfterCallback\n        // and its range will be [0, currentContext.appAllowance]\n        {\n            // clipping the allowance used amount before storing\n            if (vars.appContext.appAllowanceUsed > 0) {\n                // give more to the app\n                vars.appContext.appAllowanceUsed =\n                    _clipDepositNumber(vars.appContext.appAllowanceUsed.toUint256()).toInt256();\n            }\n\n            int256 appAllowanceDelta = vars.appContext.appAllowanceUsed\n                .sub(oldFlowData.owedDeposit.toInt256());\n\n            // update flow data and account state with the allowance delta\n            {\n                vars.newFlowData.deposit = vars.newFlowData.deposit.toInt256()\n                        .add(appAllowanceDelta)\n                        .toUint256();\n                vars.newFlowData.owedDeposit = vars.newFlowData.owedDeposit.toInt256()\n                        .add(appAllowanceDelta)\n                        .toUint256();\n                token.updateAgreementData(flowParams.flowId, _encodeFlowData(vars.newFlowData));\n                // update sender and receiver deposit (for sender) and owed deposit (for receiver)\n                _updateAccountFlowState(\n                    token,\n                    flowParams.sender,\n                    0, // flow rate delta\n                    appAllowanceDelta, // deposit delta\n                    0, // owed deposit delta\n                    currentContext.timestamp\n                );\n                _updateAccountFlowState(\n                    token,\n                    flowParams.receiver,\n                    0, // flow rate delta\n                    0, // deposit delta\n                    appAllowanceDelta, // owed deposit delta\n                    currentContext.timestamp\n                );\n            }\n\n            if (address(currentContext.appAllowanceToken) == address(0) ||\n                currentContext.appAllowanceToken == token)\n            {\n                newCtx = ISuperfluid(msg.sender).ctxUseAllowance(\n                    ctx,\n                    vars.newFlowData.deposit, // allowanceWantedMore\n                    appAllowanceDelta // allowanceUsedDelta\n                );\n            }\n\n            // if receiver super app doesn't have enough available balance to give back app allowance\n            // revert (non termination callbacks),\n            // or take it from the sender and jail the app\n            if (ISuperfluid(msg.sender).isApp(ISuperApp(flowParams.receiver))) {\n                int256 availableBalance;\n                (availableBalance,,) = token.realtimeBalanceOf(flowParams.receiver, currentContext.timestamp);\n                if (availableBalance < 0) {\n                    // app goes broke, send the app to jail\n                    if (optype == FlowChangeType.DELETE_FLOW) {\n                        newCtx = ISuperfluid(msg.sender).jailApp(\n                            newCtx,\n                            ISuperApp(flowParams.receiver),\n                            SuperAppDefinitions.APP_RULE_NO_CRITICAL_RECEIVER_ACCOUNT);\n                        // calculate user's damage\n                        int256 userDamageAmount = AgreementLibrary.min(\n                            // user will take the damage if the app is broke,\n                            -availableBalance,\n                            // but user's damage is limited to the amount of app allowance it gives to the app\n                            AgreementLibrary.max(0, -appAllowanceDelta));\n                        token.settleBalance(\n                            flowParams.sender,\n                            -userDamageAmount\n                        );\n                        token.settleBalance(\n                            flowParams.receiver,\n                            userDamageAmount\n                        );\n                    } else {\n                        revert(\"CFA: APP_RULE_NO_CRITICAL_RECEIVER_ACCOUNT\");\n                    }\n                }\n            }\n        }\n    }\n\n    /**\n     * @dev change flow between sender and receiver with new flow rate\n     *\n     * NOTE:\n     * - leaving owed deposit unchanged for later adjustment\n     * - depositDelta output is always clipped (see _clipDepositNumber)\n     */\n    function _changeFlow(\n        uint256 currentTimestamp,\n        ISuperfluidToken appAllowanceToken,\n        ISuperfluidToken token,\n        FlowParams memory flowParams,\n        FlowData memory oldFlowData\n    )\n        private\n        returns (\n            int256 depositDelta,\n            uint256 appAllowanceBase,\n            FlowData memory newFlowData\n        )\n    {\n        { // ecnlosed block to avoid stack too deep error\n\n            // STEP 1: calculate deposit required for the flow\n            {\n                ISuperfluidGovernance gov = ISuperfluidGovernance(ISuperfluid(msg.sender).getGovernance());\n                uint256 liquidationPeriod = gov.getConfigAsUint256(\n                    ISuperfluid(msg.sender), token, _LIQUIDATION_PERIOD_CONFIG_KEY);\n                // rounding up the number for app allowance too\n                // CAFEAT:\n                // - Now app could create a flow rate that is slightly higher than the incoming flow rate.\n                // - The app may be jailed due to negative balance if it does this without its own balance.\n                // Rule of thumbs:\n                // - App can use app allowance to create a flow that has the same incoming flow rate\n                // - But due to deposit clipping, there is no guarantee that the sum of the out going flow\n                //   deposit can be covered by the allowance always.\n                // - It is advisable for the app to check the allowance usages carefully, and if possible\n                //   Always have some its own balances to cover the deposits.\n                appAllowanceBase = _calculateDeposit(flowParams.flowRate, liquidationPeriod);\n                depositDelta = appAllowanceBase.toInt256();\n            }\n\n            // allowance should be of the same token\n            if (address(appAllowanceToken) != address(0) &&\n                appAllowanceToken != token)\n            {\n                appAllowanceBase = 0;\n            }\n\n            // STEP 2: calculate deposit delta\n            depositDelta = depositDelta\n                .sub(oldFlowData.deposit.toInt256())\n                .add(oldFlowData.owedDeposit.toInt256());\n\n            // STEP 3: update current flow info\n            newFlowData = FlowData(\n                flowParams.flowRate > 0 ? currentTimestamp : 0,\n                flowParams.flowRate,\n                oldFlowData.deposit.toInt256().add(depositDelta).toUint256(),\n                oldFlowData.owedDeposit // leaving it unchanged for later adjustment\n            );\n            token.updateAgreementData(flowParams.flowId, _encodeFlowData(newFlowData));\n        }\n\n        // STEP 4: update sender and receiver account flow state with the deltas\n        int96 totalSenderFlowRate = _updateAccountFlowState(\n            token,\n            flowParams.sender,\n            oldFlowData.flowRate.sub(flowParams.flowRate, \"CFA: flowrate overflow\"),\n            depositDelta,\n            0,\n            currentTimestamp\n        );\n        int96 totalReceiverFlowRate = _updateAccountFlowState(\n            token,\n            flowParams.receiver,\n            flowParams.flowRate.sub(oldFlowData.flowRate, \"CFA: flowrate overflow\"),\n            0,\n            0, // leaving owed deposit unchanged for later adjustment\n            currentTimestamp\n        );\n\n        // STEP 5: emit the FlowUpdated Event\n        emit FlowUpdated(\n            token,\n            flowParams.sender,\n            flowParams.receiver,\n            flowParams.flowRate,\n            totalSenderFlowRate,\n            totalReceiverFlowRate,\n            flowParams.userData);\n    }\n\n    function _requireAvailableBalance(\n        ISuperfluidToken token,\n        ISuperfluid.Context memory currentContext\n    )\n        private view\n    {\n        // do not enforce balance checks during callbacks for the appAllowanceToken\n        if (currentContext.callType != ContextDefinitions.CALL_INFO_CALL_TYPE_APP_CALLBACK ||\n            currentContext.appAllowanceToken != token) {\n            (int256 availableBalance,,) = token.realtimeBalanceOf(currentContext.msgSender, currentContext.timestamp);\n            require(availableBalance >= 0, \"CFA: not enough available balance\");\n        }\n    }\n\n    function _makeLiquidationPayouts(\n        ISuperfluidToken token,\n        int256 availableBalance,\n        FlowParams memory flowParams,\n        FlowData memory flowData,\n        address liquidator\n    )\n        private\n    {\n        (,FlowData memory senderAccountState) = _getAccountFlowState(token, flowParams.sender);\n\n        int256 signedSingleDeposit = flowData.deposit.toInt256();\n        int256 signedTotalDeposit = senderAccountState.deposit.toInt256();\n\n        // Liquidation rules:\n        //    - let Available Balance = AB (is negative)\n        //    -     Agreement Single Deposit = SD\n        //    -     Agreement Total Deposit = TD\n        //    -     Total Reward Left = RL = AB + TD\n        // #1 Can the total account deposit can still cover the available balance deficit?\n        int256 totalRewardLeft = availableBalance.add(signedTotalDeposit);\n        if (totalRewardLeft >= 0) {\n            // #1.a.1 yes: then reward = (SD / TD) * RL\n            int256 rewardAmount = signedSingleDeposit.mul(totalRewardLeft).div(signedTotalDeposit);\n            token.makeLiquidationPayouts(\n                flowParams.flowId,\n                liquidator,\n                flowParams.sender,\n                rewardAmount.toUint256(),\n                0\n            );\n        } else {\n            // #1.b.1 no: then the liquidator takes full amount of the single deposit\n            int256 rewardAmount = signedSingleDeposit;\n            token.makeLiquidationPayouts(\n                flowParams.flowId,\n                liquidator,\n                flowParams.sender,\n                rewardAmount.toUint256() /* rewardAmount */,\n                totalRewardLeft.mul(-1).toUint256() /* bailoutAmount */\n            );\n        }\n    }\n\n    /**************************************************************************\n     * Deposit Calculation Pure Functions\n     *************************************************************************/\n\n    function _clipDepositNumberRoundingDown(uint256 deposit)\n        internal pure\n        returns(uint256)\n    {\n        return ((deposit >> 32)) << 32;\n    }\n\n    function _clipDepositNumber(uint256 deposit)\n        internal pure\n        returns(uint256)\n    {\n        // clipping the value, rounding up\n        uint256 rounding = (deposit & type(uint32).max) > 0 ? 1 : 0;\n        return ((deposit >> 32) + rounding) << 32;\n    }\n\n    function _calculateDeposit(\n        int96 flowRate,\n        uint256 liquidationPeriod\n    )\n        internal pure\n        returns(uint256 deposit)\n    {\n        if (flowRate == 0) return 0;\n        assert(liquidationPeriod <= uint256(type(int96).max));\n        deposit = uint256(flowRate.mul(int96(uint96(liquidationPeriod)), \"CFA: deposit overflow\"));\n        return _clipDepositNumber(deposit);\n    }\n\n    /**************************************************************************\n     * Flow Data Pure Functions\n     *************************************************************************/\n\n    function _generateFlowId(address sender, address receiver) private pure returns(bytes32 id) {\n        return keccak256(abi.encode(sender, receiver));\n    }\n\n    //\n    // Data packing:\n    //\n    // WORD A: | timestamp  | flowRate | deposit | owedDeposit |\n    //         | 32b        | 96b      | 64      | 64          |\n    //\n    // NOTE:\n    // - flowRate has 96 bits length\n    // - deposit has 96 bits length too, but 32 bits are clipped-off when storing\n\n    function _encodeFlowData\n    (\n        FlowData memory flowData\n    )\n        internal pure\n        returns(bytes32[] memory data)\n    {\n        // enable these for debugging\n        // assert(flowData.deposit & type(uint32).max == 0);\n        // assert(flowData.owedDeposit & type(uint32).max == 0);\n        data = new bytes32[](1);\n        data[0] = bytes32(\n            ((uint256(flowData.timestamp)) << 224) |\n            ((uint256(uint96(flowData.flowRate)) << 128)) |\n            (uint256(flowData.deposit) >> 32 << 64) |\n            (uint256(flowData.owedDeposit) >> 32)\n        );\n    }\n\n    function _decodeFlowData\n    (\n        uint256 wordA\n    )\n        internal pure\n        returns(bool exist, FlowData memory flowData)\n    {\n        exist = wordA > 0;\n        if (exist) {\n            flowData.timestamp = uint32(wordA >> 224);\n            flowData.flowRate = int96((wordA >> 128) & uint256(type(uint96).max));\n            flowData.deposit = ((wordA >> 64) & uint256(type(uint64).max)) << 32 /* recover clipped bits*/;\n            flowData.owedDeposit = (wordA & uint256(type(uint64).max)) << 32 /* recover clipped bits*/;\n        }\n    }\n\n}\n",
  "sourcePath": "/home/runner/work/protocol-monorepo/protocol-monorepo/packages/ethereum-contracts/contracts/agreements/ConstantFlowAgreementV1.sol",
  "compiler": {
    "name": "solc",
    "version": "0.7.6+commit.7338295f.Emscripten.clang"
  },
  "schemaVersion": "3.3.1",
  "updatedAt": "2021-08-06T18:34:50.694Z",
  "devdoc": {
    "kind": "dev",
    "methods": {
      "agreementType()": {
        "details": "ISuperAgreement.agreementType implementation"
      },
      "createFlow(address,address,int96,bytes)": {
        "details": "IConstantFlowAgreementV1.createFlow implementation"
      },
      "deleteFlow(address,address,address,bytes)": {
        "details": "IConstantFlowAgreementV1.deleteFlow implementation"
      },
      "getAccountFlowInfo(address,address)": {
        "details": "IConstantFlowAgreementV1.getAccountFlowInfo implementation"
      },
      "getCodeAddress()": {
        "details": "Get current implementation code address."
      },
      "getDepositRequiredForFlowRate(address,int96)": {
        "details": "Get the deposit required for creating the flow",
        "params": {
          "flowRate": "Flow rate to be tested"
        }
      },
      "getFlow(address,address,address)": {
        "details": "IConstantFlowAgreementV1.getFlow implementation"
      },
      "getFlowByID(address,bytes32)": {
        "details": "IConstantFlowAgreementV1.getFlow implementation"
      },
      "getMaximumFlowRateFromDeposit(address,uint256)": {
        "details": "IConstantFlowAgreementV1.createFlow implementation"
      },
      "getNetFlow(address,address)": {
        "details": "IConstantFlowAgreementV1.getNetFlow implementation"
      },
      "initialize()": {
        "details": "Initialize the agreement contract"
      },
      "proxiableUUID()": {
        "details": "Proxiable UUID marker function.      This would help to avoid wrong logic contract to be used for upgrading."
      },
      "realtimeBalanceOf(address,address,uint256)": {
        "details": "ISuperAgreement.realtimeBalanceOf implementation"
      },
      "updateFlow(address,address,int96,bytes)": {
        "details": "IConstantFlowAgreementV1.updateFlow implementation"
      }
    },
    "version": 1
  },
  "userdoc": {
    "kind": "user",
    "methods": {},
    "version": 1
  }
}