{
  "contractName": "SuperTokenFactory",
  "abi": [
    {
      "inputs": [
        {
          "internalType": "contract ISuperfluid",
          "name": "host",
          "type": "address"
        },
        {
          "internalType": "contract SuperTokenFactoryHelper",
          "name": "helper",
          "type": "address"
        }
      ],
      "stateMutability": "nonpayable",
      "type": "constructor"
    },
    {
      "anonymous": false,
      "inputs": [
        {
          "indexed": false,
          "internalType": "bytes32",
          "name": "uuid",
          "type": "bytes32"
        },
        {
          "indexed": false,
          "internalType": "address",
          "name": "codeAddress",
          "type": "address"
        }
      ],
      "name": "CodeUpdated",
      "type": "event"
    },
    {
      "anonymous": false,
      "inputs": [
        {
          "indexed": true,
          "internalType": "contract ISuperToken",
          "name": "token",
          "type": "address"
        }
      ],
      "name": "CustomSuperTokenCreated",
      "type": "event"
    },
    {
      "anonymous": false,
      "inputs": [
        {
          "indexed": true,
          "internalType": "contract ISuperToken",
          "name": "token",
          "type": "address"
        }
      ],
      "name": "SuperTokenCreated",
      "type": "event"
    },
    {
      "anonymous": false,
      "inputs": [
        {
          "indexed": true,
          "internalType": "contract ISuperToken",
          "name": "tokenLogic",
          "type": "address"
        }
      ],
      "name": "SuperTokenLogicCreated",
      "type": "event"
    },
    {
      "inputs": [
        {
          "internalType": "contract ERC20WithTokenInfo",
          "name": "underlyingToken",
          "type": "address"
        },
        {
          "internalType": "enum ISuperTokenFactory.Upgradability",
          "name": "upgradability",
          "type": "uint8"
        },
        {
          "internalType": "string",
          "name": "name",
          "type": "string"
        },
        {
          "internalType": "string",
          "name": "symbol",
          "type": "string"
        }
      ],
      "name": "createERC20Wrapper",
      "outputs": [
        {
          "internalType": "contract ISuperToken",
          "name": "superToken",
          "type": "address"
        }
      ],
      "stateMutability": "nonpayable",
      "type": "function"
    },
    {
      "inputs": [
        {
          "internalType": "contract IERC20",
          "name": "underlyingToken",
          "type": "address"
        },
        {
          "internalType": "uint8",
          "name": "underlyingDecimals",
          "type": "uint8"
        },
        {
          "internalType": "enum ISuperTokenFactory.Upgradability",
          "name": "upgradability",
          "type": "uint8"
        },
        {
          "internalType": "string",
          "name": "name",
          "type": "string"
        },
        {
          "internalType": "string",
          "name": "symbol",
          "type": "string"
        }
      ],
      "name": "createERC20Wrapper",
      "outputs": [
        {
          "internalType": "contract ISuperToken",
          "name": "superToken",
          "type": "address"
        }
      ],
      "stateMutability": "nonpayable",
      "type": "function"
    },
    {
      "inputs": [],
      "name": "getCodeAddress",
      "outputs": [
        {
          "internalType": "address",
          "name": "codeAddress",
          "type": "address"
        }
      ],
      "stateMutability": "view",
      "type": "function"
    },
    {
      "inputs": [],
      "name": "getHost",
      "outputs": [
        {
          "internalType": "address",
          "name": "host",
          "type": "address"
        }
      ],
      "stateMutability": "view",
      "type": "function"
    },
    {
      "inputs": [],
      "name": "getSuperTokenLogic",
      "outputs": [
        {
          "internalType": "contract ISuperToken",
          "name": "",
          "type": "address"
        }
      ],
      "stateMutability": "view",
      "type": "function"
    },
    {
      "inputs": [],
      "name": "initialize",
      "outputs": [],
      "stateMutability": "nonpayable",
      "type": "function"
    },
    {
      "inputs": [
        {
          "internalType": "address",
          "name": "customSuperTokenProxy",
          "type": "address"
        }
      ],
      "name": "initializeCustomSuperToken",
      "outputs": [],
      "stateMutability": "nonpayable",
      "type": "function"
    },
    {
      "inputs": [],
      "name": "proxiableUUID",
      "outputs": [
        {
          "internalType": "bytes32",
          "name": "",
          "type": "bytes32"
        }
      ],
      "stateMutability": "pure",
      "type": "function"
    },
    {
      "inputs": [
        {
          "internalType": "address",
          "name": "newAddress",
          "type": "address"
        }
      ],
      "name": "updateCode",
      "outputs": [],
      "stateMutability": "nonpayable",
      "type": "function"
    },
    {
      "inputs": [
        {
          "internalType": "contract ISuperfluid",
          "name": "host",
          "type": "address"
        }
      ],
      "name": "createSuperTokenLogic",
      "outputs": [
        {
          "internalType": "address",
          "name": "logic",
          "type": "address"
        }
      ],
      "stateMutability": "nonpayable",
      "type": "function"
    }
  ],
  "bytecode": "0x60c060405234801561001057600080fd5b506040516112553803806112558339818101604052604081101561003357600080fd5b5080516020909101516001600160601b0319606092831b8116608052911b1660a05260805160601c60a05160601c6111c861008d6000398061044752508061032652806103d352806106585280610b4252506111c86000f3fe608060405234801561001057600080fd5b506004361061009e5760003560e01c806352d1902d1161006657806352d1902d146101f35780638129fc1c1461020d5780639470a5b214610215578063a6d0c5341461021d578063d412d344146102fe5761009e565b806320bc4425146100a3578063431f1481146100c7578063469519541461019d5780634dcc4d79146101c557806350d75d25146101eb575b600080fd5b6100ab610324565b604080516001600160a01b039092168252519081900360200190f35b6100ab600480360360808110156100dd57600080fd5b6001600160a01b038235169160ff60208201351691810190606081016040820135600160201b81111561010f57600080fd5b82018360208201111561012157600080fd5b803590602001918460018302840111600160201b8311171561014257600080fd5b919390929091602081019035600160201b81111561015f57600080fd5b82018360208201111561017157600080fd5b803590602001918460018302840111600160201b8311171561019257600080fd5b509092509050610348565b6101c3600480360360208110156101b357600080fd5b50356001600160a01b03166103c8565b005b6100ab600480360360208110156101db57600080fd5b50356001600160a01b0316610443565b6100ab6104e6565b6101fb6104f5565b60408051918252519081900360200190f35b6101c3610519565b6100ab6105c2565b6100ab600480360360a081101561023357600080fd5b6001600160a01b038235169160ff602082013581169260408301359091169190810190608081016060820135600160201b81111561027057600080fd5b82018360208201111561028257600080fd5b803590602001918460018302840111600160201b831117156102a357600080fd5b919390929091602081019035600160201b8111156102c057600080fd5b8201836020820111156102d257600080fd5b803590602001918460018302840111600160201b831117156102f357600080fd5b5090925090506105d7565b6101c36004803603602081101561031457600080fd5b50356001600160a01b031661092d565b7f000000000000000000000000000000000000000000000000000000000000000090565b60006103bd87886001600160a01b031663313ce5676040518163ffffffff1660e01b815260040160206040518083038186803b15801561038757600080fd5b505afa15801561039b573d6000803e3d6000fd5b505050506040513d60208110156103b157600080fd5b505188888888886105d7565b979650505050505050565b336001600160a01b037f0000000000000000000000000000000000000000000000000000000000000000161461042f5760405162461bcd60e51b815260040180806020018281038252602c815260200180611116602c913960400191505060405180910390fd5b610438816109cf565b610440610b32565b50565b60007f00000000000000000000000000000000000000000000000000000000000000006001600160a01b0316639ed93318836040518263ffffffff1660e01b815260040180826001600160a01b03168152602001915050602060405180830381600087803b1580156104b457600080fd5b505af11580156104c8573d6000803e3d6000fd5b505050506040513d60208110156104de57600080fd5b505192915050565b60006104f0610c1e565b905090565b7fb146a22bc9644a3313a7e28592f37d32718a2b618d3d136aa524b0d86b87b62090565b600054610100900460ff16806105325750610532610c43565b80610540575060005460ff16155b61057b5760405162461bcd60e51b815260040180806020018281038252602e815260200180611165602e913960400191505060405180910390fd5b600054610100900460ff161580156105a6576000805460ff1961ff0019909116610100171660011790555b6105ae610b32565b8015610440576000805461ff001916905550565b6000546201000090046001600160a01b031690565b60006001600160a01b038816610634576040805162461bcd60e51b815260206004820152601f60248201527f5375706572546f6b656e466163746f72793a207a65726f206164647265737300604482015290519081900360640190fd5b600086600281111561064257fe5b14156106e35760408051634dcc4d7960e01b81527f00000000000000000000000000000000000000000000000000000000000000006001600160a01b0316600482015290513091634dcc4d799160248083019260209291908290030181600087803b1580156106b057600080fd5b505af11580156106c4573d6000803e3d6000fd5b505050506040513d60208110156106da57600080fd5b5051905061081c565b60018660028111156106f157fe5b141561079857600060405161070590610c7e565b604051809103906000f080158015610721573d6000803e3d6000fd5b506000805460408051634a0687ef60e01b8152620100009092046001600160a01b0390811660048401529051939450841692634a0687ef9260248084019391929182900301818387803b15801561077757600080fd5b505af115801561078b573d6000803e3d6000fd5b505050508091505061081c565b60006040516107a690610c8b565b604051809103906000f0801580156107c2573d6000803e3d6000fd5b509050806001600160a01b0316638129fc1c6040518163ffffffff1660e01b8152600401600060405180830381600087803b15801561080057600080fd5b505af1158015610814573d6000803e3d6000fd5b509293505050505b806001600160a01b03166342fe09808989888888886040518763ffffffff1660e01b815260040180876001600160a01b031681526020018660ff16815260200180602001806020018381038352878782818152602001925080828437600083820152601f01601f191690910184810383528581526020019050858580828437600081840152601f19601f82011690508083019250505098505050505050505050600060405180830381600087803b1580156108d657600080fd5b505af11580156108ea573d6000803e3d6000fd5b50506040516001600160a01b03841692507fb52c6d9d122e8c07769b96d7bb14e66db58ee03fdebaaa2f92547e9c7ef0e65f9150600090a2979650505050505050565b6000805460408051634a0687ef60e01b81526001600160a01b0362010000909304831660048201529051849392841692634a0687ef926024808201939182900301818387803b15801561097f57600080fd5b505af1158015610993573d6000803e3d6000fd5b50506040516001600160a01b03851692507f437790724a6e97b75d23117f28cdd4b1beeafc34f7a0911ef256e9334f4369a59150600090a25050565b60006109d9610c1e565b6001600160a01b03161415610a35576040805162461bcd60e51b815260206004820152601d60248201527f5555505350726f786961626c653a206e6f742075706772616461626c65000000604482015290519081900360640190fd5b806001600160a01b03166352d1902d6040518163ffffffff1660e01b815260040160206040518083038186803b158015610a6e57600080fd5b505afa158015610a82573d6000803e3d6000fd5b505050506040513d6020811015610a9857600080fd5b5051610aa26104f5565b14610ade5760405162461bcd60e51b81526004018080602001828103825260238152602001806111426023913960400191505060405180910390fd5b610ae781610c54565b7fe011bc04c286c344a8fcbb8de77f953da762c3e25d8cdea984147fc4168a5dcc610b106104f5565b604080519182526001600160a01b03841660208301528051918290030190a150565b60408051634dcc4d7960e01b81527f00000000000000000000000000000000000000000000000000000000000000006001600160a01b0316600482015290513091634dcc4d799160248083019260209291908290030181600087803b158015610b9a57600080fd5b505af1158015610bae573d6000803e3d6000fd5b505050506040513d6020811015610bc457600080fd5b50516000805462010000600160b01b031916620100006001600160a01b03938416810291909117808355604051919004909216917fc13fb19d60857980e565bf5dae406b8802d3c1cec50c6156b30b12b8740297839190a2565b7f360894a13ba1a3210667c828492db98dca3e2076cc3735a920a3ca505d382bbc5490565b6000610c4e30610c78565b15905090565b7f360894a13ba1a3210667c828492db98dca3e2076cc3735a920a3ca505d382bbc55565b3b151590565b61022480610c9983390190565b61025980610ebd8339019056fe608060405234801561001057600080fd5b50610204806100206000396000f3fe6080604052600436106100225760003560e01c80634a0687ef1461003957610031565b366100315761002f61006c565b005b61002f61006c565b34801561004557600080fd5b5061002f6004803603602081101561005c57600080fd5b50356001600160a01b0316610086565b610074610084565b61008461007f610152565b610161565b565b6001600160a01b0381166100e1576040805162461bcd60e51b815260206004820152601760248201527f5555505350726f78793a207a65726f2061646472657373000000000000000000604482015290519081900360640190fd5b60006100eb610185565b6001600160a01b031614610146576040805162461bcd60e51b815260206004820152601e60248201527f5555505350726f78793a20616c726561647920696e697469616c697a65640000604482015290519081900360640190fd5b61014f816101aa565b50565b600061015c610185565b905090565b3660008037600080366000845af43d6000803e808015610180573d6000f35b3d6000fd5b7f360894a13ba1a3210667c828492db98dca3e2076cc3735a920a3ca505d382bbc5490565b7f360894a13ba1a3210667c828492db98dca3e2076cc3735a920a3ca505d382bbc5556fea2646970667358221220da72b4657d71a0581061e5a219417eb63c3911322b0e3160ed6513b7cccae54464736f6c63430007060033608060405234801561001057600080fd5b50610239806100206000396000f3fe6080604052600436106100225760003560e01c80638129fc1c1461003957610031565b366100315761002f61004e565b005b61002f61004e565b34801561004557600080fd5b5061002f610068565b610056610066565b610066610061610102565b6101df565b565b7fb8fcd5719b3ddf8626f3664705a89b7fc476129a58c1aa5eda57c600cc1821a0546001600160a01b038116156100dc576040805162461bcd60e51b8152602060048201526013602482015272105b1c9958591e481a5b9a5d1a585b1a5e9959606a1b604482015290519081900360640190fd5b50337fb8fcd5719b3ddf8626f3664705a89b7fc476129a58c1aa5eda57c600cc1821a055565b7fb8fcd5719b3ddf8626f3664705a89b7fc476129a58c1aa5eda57c600cc1821a0546000906001600160a01b038116610174576040805162461bcd60e51b815260206004820152600f60248201526e139bdd081a5b9a5d1a585b1a5e9959608a1b604482015290519081900360640190fd5b806001600160a01b0316639470a5b26040518163ffffffff1660e01b815260040160206040518083038186803b1580156101ad57600080fd5b505afa1580156101c1573d6000803e3d6000fd5b505050506040513d60208110156101d757600080fd5b505191505090565b3660008037600080366000845af43d6000803e8080156101fe573d6000f35b3d6000fdfea2646970667358221220eb0b346bc8ceb056abf2b90b9c5bcd50d6bcfb2d04a7252f2933d968bf3396f864736f6c634300070600335375706572546f6b656e466163746f72793a206f6e6c7920686f73742063616e2075706461746520636f64655555505350726f786961626c653a206e6f7420636f6d70617469626c65206c6f676963496e697469616c697a61626c653a20636f6e747261637420697320616c726561647920696e697469616c697a6564a2646970667358221220671446d35a8965a21fbe4bdac22e8d98bbdef3ea007739afd64c5d14e3c1335664736f6c63430007060033",
  "immutableReferences": {
    "16801": [
      {
        "length": 32,
        "start": 806
      },
      {
        "length": 32,
        "start": 979
      },
      {
        "length": 32,
        "start": 1624
      },
      {
        "length": 32,
        "start": 2882
      }
    ],
    "17095": [
      {
        "length": 32,
        "start": 1095
      }
    ]
  },
  "source": "// SPDX-License-Identifier: AGPLv3\npragma solidity 0.7.6;\n\nimport {\n    ISuperTokenFactory,\n    ISuperToken,\n    IERC20,\n    ERC20WithTokenInfo\n} from \"../interfaces/superfluid/ISuperTokenFactory.sol\";\n\nimport { ISuperfluid } from \"../interfaces/superfluid/ISuperfluid.sol\";\n\nimport { UUPSProxy } from \"../upgradability/UUPSProxy.sol\";\nimport { UUPSProxiable } from \"../upgradability/UUPSProxiable.sol\";\n\nimport { SuperToken } from \"../superfluid/SuperToken.sol\";\nimport { FullUpgradableSuperTokenProxy } from \"../tokens/FullUpgradableSuperTokenProxy.sol\";\n\nimport { Address } from \"@openzeppelin/contracts/utils/Address.sol\";\nimport { Create2 } from \"@openzeppelin/contracts/utils/Create2.sol\";\n\n\nabstract contract SuperTokenFactoryBase is\n    UUPSProxiable,\n    ISuperTokenFactory\n{\n\n    ISuperfluid immutable internal _host;\n\n    ISuperToken internal _superTokenLogic;\n\n    constructor(\n        ISuperfluid host\n    ) {\n        _host = host;\n    }\n\n    /// @dev ISuperTokenFactory.getHost implementation\n    function getHost()\n       external view\n       override(ISuperTokenFactory)\n       returns(address host)\n    {\n       return address(_host);\n    }\n\n    /**************************************************************************\n    * UUPSProxiable\n    **************************************************************************/\n    function initialize()\n        external override\n        initializer // OpenZeppelin Initializable\n    {\n        _updateSuperTokenLogic();\n    }\n\n    function proxiableUUID() public pure override returns (bytes32) {\n        return keccak256(\"org.superfluid-finance.contracts.SuperTokenFactory.implementation\");\n    }\n\n    function updateCode(address newAddress) external override {\n        require(msg.sender == address(_host), \"SuperTokenFactory: only host can update code\");\n        _updateCodeAddress(newAddress);\n        _updateSuperTokenLogic();\n    }\n\n    function _updateSuperTokenLogic() private {\n        // use external call to trigger the new code to update the super token logic contract\n        _superTokenLogic = SuperToken(this.createSuperTokenLogic(_host));\n        emit SuperTokenLogicCreated(_superTokenLogic);\n    }\n\n    /**************************************************************************\n    * ISuperTokenFactory\n    **************************************************************************/\n    function getSuperTokenLogic()\n        external view override\n        returns (ISuperToken)\n    {\n        return _superTokenLogic;\n    }\n\n    function createSuperTokenLogic(ISuperfluid host) external virtual returns (address logic);\n\n    function createERC20Wrapper(\n        IERC20 underlyingToken,\n        uint8 underlyingDecimals,\n        Upgradability upgradability,\n        string calldata name,\n        string calldata symbol\n    )\n        public override\n        returns (ISuperToken superToken)\n    {\n        require(address(underlyingToken) != address(0), \"SuperTokenFactory: zero address\");\n\n        if (upgradability == Upgradability.NON_UPGRADABLE) {\n            superToken = ISuperToken(this.createSuperTokenLogic(_host));\n        } else if (upgradability == Upgradability.SEMI_UPGRADABLE) {\n            UUPSProxy proxy = new UUPSProxy();\n            // initialize the wrapper\n            proxy.initializeProxy(address(_superTokenLogic));\n            superToken = ISuperToken(address(proxy));\n        } else /* if (type == Upgradability.FULL_UPGRADABE) */ {\n            FullUpgradableSuperTokenProxy proxy = new FullUpgradableSuperTokenProxy();\n            proxy.initialize();\n            superToken = ISuperToken(address(proxy));\n        }\n\n        // initialize the token\n        superToken.initialize(\n            underlyingToken,\n            underlyingDecimals,\n            name,\n            symbol\n        );\n\n        emit SuperTokenCreated(superToken);\n    }\n\n    function createERC20Wrapper(\n        ERC20WithTokenInfo underlyingToken,\n        Upgradability upgradability,\n        string calldata name,\n        string calldata symbol\n    )\n        external override\n        returns (ISuperToken superToken)\n    {\n        return createERC20Wrapper(\n            underlyingToken,\n            underlyingToken.decimals(),\n            upgradability,\n            name,\n            symbol\n        );\n    }\n\n    function initializeCustomSuperToken(\n        address customSuperTokenProxy\n    )\n        external override\n    {\n        // odd solidity stuff..\n        address payable a = address(uint160(customSuperTokenProxy));\n        UUPSProxy(a).initializeProxy(address(_superTokenLogic));\n\n        emit CustomSuperTokenCreated(ISuperToken(customSuperTokenProxy));\n    }\n\n}\n\n// spliting this off because the contract is getting bigger\ncontract SuperTokenFactoryHelper {\n    function create(ISuperfluid host)\n        external\n        returns (address logic)\n    {\n        return address(new SuperToken(host));\n    }\n}\n\ncontract SuperTokenFactory is SuperTokenFactoryBase\n{\n    SuperTokenFactoryHelper immutable private _helper;\n\n    constructor(\n        ISuperfluid host,\n        SuperTokenFactoryHelper helper\n    )\n        SuperTokenFactoryBase(host)\n        // solhint-disable-next-line no-empty-blocks\n    {\n        _helper = helper;\n    }\n\n    function createSuperTokenLogic(ISuperfluid host)\n        external override\n        returns (address logic)\n    {\n        return _helper.create(host);\n    }\n}\n",
  "sourcePath": "/home/runner/work/protocol-monorepo/protocol-monorepo/packages/ethereum-contracts/contracts/superfluid/SuperTokenFactory.sol",
  "compiler": {
    "name": "solc",
    "version": "0.7.6+commit.7338295f.Emscripten.clang"
  },
  "schemaVersion": "3.3.1",
  "updatedAt": "2021-08-06T18:34:51.153Z",
  "devdoc": {
    "kind": "dev",
    "methods": {
      "createERC20Wrapper(address,uint8,string,string)": {
        "details": "Create new super token wrapper for the underlying ERC20 token with extra token info",
        "params": {
          "name": "Super token name",
          "symbol": "Super token symbol NOTE: - It assumes token provide the .decimals() function",
          "underlyingToken": "Underlying ERC20 token",
          "upgradability": "Upgradability mode"
        }
      },
      "createERC20Wrapper(address,uint8,uint8,string,string)": {
        "details": "Create new super token wrapper for the underlying ERC20 token",
        "params": {
          "name": "Super token name",
          "symbol": "Super token symbol",
          "underlyingDecimals": "Underlying token decimals",
          "underlyingToken": "Underlying ERC20 token",
          "upgradability": "Upgradability mode"
        }
      },
      "getCodeAddress()": {
        "details": "Get current implementation code address."
      },
      "getHost()": {
        "details": "ISuperTokenFactory.getHost implementation"
      },
      "getSuperTokenLogic()": {
        "details": "Get the current super token logic used by the factory"
      },
      "initialize()": {
        "details": "Initialize the contract"
      },
      "proxiableUUID()": {
        "details": "Proxiable UUID marker function.      This would help to avoid wrong logic contract to be used for upgrading."
      }
    },
    "version": 1
  },
  "userdoc": {
    "kind": "user",
    "methods": {},
    "version": 1
  }
}